:020000040800F2
:1000000000400020315D0008815D0008815D00082E
:10001000815D0008815D0008815D0008000000002E
:10002000000000000000000000000000815D0008EA
:10003000815D000800000000815D0008AD19000826
:10004000815D0008815D0008815D0008815D000818
:10005000815D0008815D0008815D0008815D000808
:10006000815D0008815D0008815D0008815D0008F8
:10007000815D0008815D0008815D0008815D0008E8
:10008000815D0008815D0008815D0008815D0008D8
:10009000815D0008815D0008815D0008815D0008C8
:1000A000815D0008815D0008815D0008815D0008B8
:1000B000815D00080000000000000000815D000874
:1000C000815D0008815D0008815D0008000000007E
:1000D000815D0008815D0008815D0008815D000888
:1000E000815D0008815D0008815D0008000000005E
:1000F0000000000000000000000000000000000000
:10010000000000000000000000000000815D000809
:100110000000000000000000815D000800000000F9
:1001200000000000000000000000000000000000CF
:1001300000000000000000000000000000000000BF
:10014000815D0008815D00080000000000000000E3
:10015000000000000000000000000000000000009F
:10016000815D0008815D0008815D0008815D0008F7
:10017000815D000800000000000000000000000099
:0801800000000000815D000891
:1001880010B5054C237833B9044B13B10448AFF3C9
:1001980000800123237010BD7C00002000000000B7
:1001A80080600008084B10B51BB108480849AFF338
:1001B80000800848036803B910BD074B002BFBD02B
:1001C800BDE81040184700BF00000000806000082C
:1001D800800000207C0000200000000081F0004129
:1001E80002E000BF83F0004330B54FEA41044FEA14
:1001F800430594EA050F08BF90EA020F1FBF54EAAF
:10020800000C55EA020C7FEA645C7FEA655C00F04A
:10021800E2804FEA5454D4EB5555B8BF6D420CDD1B
:100228002C4480EA020281EA030382EA000083EA9E
:10023800010180EA020281EA0303362D88BF30BD3E
:1002480011F0004F4FEA01314FF4801C4CEA113194
:1002580002D0404261EB410113F0004F4FEA0333F3
:100268004CEA133302D0524263EB430394EA050F7E
:1002780000F0A780A4F10104D5F1200E0DDB02FAED
:100288000EFC22FA05F2801841F1000103FA0EF281
:10029800801843FA05F359410EE0A5F120050EF147
:1002A800200E012A03FA0EFC28BF4CF0020C43FA78
:1002B80005F3C01851EBE37101F0004507D54FF085
:1002C800000EDCF1000C7EEB00006EEB0101B1F5D5
:1002D800801F1BD3B1F5001F0CD349085FEA30001B
:1002E8004FEA3C0C04F101044FEA445212F5800F26
:1002F80080F09A80BCF1004F08BF5FEA500C50F1C3
:10030800000041EB045141EA050130BD5FEA4C0CA5
:10031800404141EB010111F4801FA4F10104E9D12E
:1003280091F0000F04BF01460020B1FA81F308BF25
:100338002033A3F10B03B3F120020CDA0C3208DDF1
:1003480002F1140CC2F10C0201FA0CF021FA02F1CC
:100358000CE002F11402D8BFC2F1200C01FA02F13C
:1003680020FA0CFCDCBF41EA0C019040E41AA2BF61
:1003780001EB0451294330BD6FEA04041F3C1CDA29
:100388000C340EDC04F11404C4F1200220FA04F049
:1003980001FA02F340EA030021FA04F345EA0301F3
:1003A80030BDC4F10C04C4F1200220FA02F001FAB5
:1003B80004F340EA0300294630BD21FA04F0294637
:1003C80030BD94F0000F83F4801306BF81F48011D0
:1003D8000134013D4EE77FEA645C18BF7FEA655C43
:1003E80029D094EA050F08BF90EA020F05D054EA15
:1003F800000C04BF1946104630BD91EA030F1EBF1A
:100408000021002030BD5FEA545C05D1400049411D
:1004180028BF41F0004130BD14F580043CBF01F510
:10042800801130BD01F0004545F0FE4141F47001F6
:100438004FF0000030BD7FEA645C1ABF19461046D1
:100448007FEA655C1CBF0B46024650EA013406BFD2
:1004580052EA033591EA030F41F4002130BD00BF91
:1004680090F0000F04BF0021704730B54FF480644E
:1004780004F132044FF000054FF0000150E700BFCF
:1004880090F0000F04BF0021704730B54FF480642E
:1004980004F1320410F0004548BF40424FF000011B
:1004A8003EE700BF42004FEAE2014FEA31014FEA5E
:1004B80002701FBF12F07F4393F07F4F81F06051AD
:1004C800704792F0000F14BF93F07F4F704730B51C
:1004D8004FF4607401F0004521F0004120E700BFAF
:1004E80050EA010208BF704730B54FF000050AE036
:1004F80050EA010208BF704730B511F0004502D537
:10050800404261EB41014FF4806404F132045FEA38
:10051800915C3FF4DCAE4FF003025FEADC0C18BFDD
:1005280003325FEADC0C18BF033202EBDC02C2F1D3
:10053800200300FA03FC20FA02F001FA03FE40EA65
:100548000E0021FA02F11444C1E600BF70B54FF065
:10055800FF0C4CF4E06C1CEA11541DBF1CEA135547
:1005680094EA0C0F95EA0C0F00F0DEF82C4481EAAF
:10057800030621EA4C5123EA4C5350EA013518BFCF
:1005880052EA033541F4801143F4801338D0A0FBBC
:1005980002CE4FF00005E1FB02E506F00042E0FB69
:1005A80003E54FF00006E1FB03569CF0000F18BF6F
:1005B8004EF0010EA4F1FF04B6F5007F64F5407417
:1005C80004D25FEA4E0E6D4146EB060642EAC621AA
:1005D80041EA55514FEAC52040EA5E504FEACE2E17
:1005E800B4F1FD0C88BFBCF5E06F1ED8BEF1004F1A
:1005F80008BF5FEA500E50F1000041EB045170BD96
:1006080006F0004646EA010140EA020081EA0301D9
:10061800B4EB5C04C2BFD4EB0C0541EA045170BDD5
:1006280041F480114FF0000E013C00F3AB8014F14F
:10063800360FDEBF002001F0004170BDC4F1000498
:10064800203C35DA0C341BDC04F11404C4F1200519
:1006580000FA05F320FA04F001FA05F240EA020074
:1006680001F0004221F0004110EBD37021FA04F6AA
:1006780042EB06015EEA430E08BF20EAD37070BD64
:10068800C4F10C04C4F1200500FA04F320FA05F0C3
:1006980001FA04F240EA020001F0004110EBD370C5
:1006A80041F100015EEA430E08BF20EAD37070BD35
:1006B800C4F1200500FA05F24EEA020E20FA04F30E
:1006C80001FA05F243EA020321FA04F001F00041BD
:1006D80021FA04F220EA020000EBD3705EEA430E2E
:1006E80008BF20EAD37070BD94F0000F0FD101F05D
:1006F8000046400041EB010111F4801F08BF013C96
:10070800F7D041EA060195F0000F18BF704703F0D3
:100718000046520043EB030313F4801F08BF013D5A
:10072800F7D043EA0603704794EA0C0F0CEA135516
:1007380018BF95EA0C0F0CD050EA410618BF52EAD0
:100748004306D1D181EA030101F000414FF00000D6
:1007580070BD50EA410606BF1046194652EA4306E4
:1007680019D094EA0C0F02D150EA013613D195EA58
:100778000C0F05D152EA03361CBF104619460AD1A0
:1007880081EA030101F0004141F0FE4141F47001AA
:100798004FF0000070BD41F0FE4141F4780170BD9A
:1007A80070B54FF0FF0C4CF4E06C1CEA11541DBFFF
:1007B8001CEA135594EA0C0F95EA0C0F00F0A7F801
:1007C800A4EB050481EA030E52EA03354FEA01312E
:1007D80000F088804FEA03334FF0805545EA131341
:1007E80043EA12634FEA022245EA111545EA106509
:1007F8004FEA00260EF000419D4208BF964244F1A0
:10080800FD0404F5407402D25B084FEA3202B61ABE
:1008180065EB03055B084FEA32024FF480104FF492
:10082800002CB6EB020E75EB030E22BFB61A754606
:1008380040EA0C005B084FEA3202B6EB020E75EB99
:10084800030E22BFB61A754640EA5C005B084FEA01
:100858003202B6EB020E75EB030E22BFB61A7546CE
:1008680040EA9C005B084FEA3202B6EB020E75EBD9
:10087800030E22BFB61A754640EADC0055EA060E9A
:1008880018D04FEA051545EA16754FEA06164FEADD
:10089800C30343EA52734FEAC2025FEA1C1CC0D189
:1008A80011F4801F0BD141EA00014FF000004FF016
:1008B800004CB6E711F4801F04BF01430020B4F1D7
:1008C800FD0C88BFBCF5E06F3FF6AFAEB5EB030C8F
:1008D80004BFB6EB020C5FEA500C50F1000041EB8C
:1008E800045170BD0EF0004E4EEA113114EB5C0459
:1008F800C2BFD4EB0C0541EA045170BD41F480112C
:100908004FF0000E013C90E645EA060E8DE60CEA33
:10091800135594EA0C0F08BF95EA0C0F3FF43BAF50
:1009280094EA0C0F0AD150EA01347FF434AF95EA07
:100938000C0F7FF425AF104619462CE795EA0C0FEB
:1009480006D152EA03353FF4FDAE1046194622E7B8
:1009580050EA410618BF52EA43067FF4C5AE50EA92
:1009680041047FF40DAF52EA43057FF4EBAE12E782
:100978004FF0FF3C06E000BF4FF0010C02E000BF63
:100988004FF0010C4DF804CD4FEA410C7FEA6C5C46
:100998004FEA430C18BF7FEA6C5C1BD001B050EAE9
:1009A800410C0CBF52EA430C91EA030F02BF90EAD4
:1009B800020F0020704710F1000F91EA030F58BF93
:1009C800994208BF90422CBFD8176FEAE37040F0F5
:1009D800010070474FEA410C7FEA6C5C02D150EA93
:1009E800013C07D14FEA430C7FEA6C5CD6D152EA4E
:1009F800033CD3D05DF8040B704700BF8446104613
:100A080062468C461946634600E000BF01B5FFF711
:100A1800B7FF002848BF10F1000F01BD4DF808EDE1
:100A2800FFF7F4FF0CBF012000205DF808FB00BFB2
:100A38004DF808EDFFF7EAFF34BF012000205DF80C
:100A480008FB00BF4DF808EDFFF7E0FF94BF012059
:100A580000205DF808FB00BF4DF808EDFFF7CEFF5A
:100A680094BF012000205DF808FB00BF4DF808ED99
:100A7800FFF7C4FF34BF012000205DF808FB00BF6A
:100A88004A0011D212F5001211D20DD56FF4787305
:100A9800B3EB62520ED44FEAC12343F0004343EA5A
:100AA800505323FA02F070474FF00000704750EAA5
:100AB800013002D14FF0FF3070474FF0000070470F
:100AC8004FEA4102B2F1E04324BFB3F5001CDCF168
:100AD800FE5C0DD901F0004C4FEAC0024CEA5070A0
:100AE800B2F1004F40EB830008BF20F001007047CF
:100AF80011F0804F21D113F13872BCBF01F00040D2
:100B0800704741F480114FEA5252C2F11802C2F103
:100B1800200C10FA0CF320FA02F018BF40F0010084
:100B28004FEAC1234FEAD32303FA0CFC40EA0C0036
:100B380023FA02F34FEA4303CCE77FEA625307D173
:100B480050EA01331EBF4FF0FE4040F440007047AA
:100B580001F0004040F0FE4040F40000704700BF44
:100B680080B582B000AF1E4A1D4B9B6943F001035C
:100B780093611B4B9B6903F001037B607B68072033
:100B880001F018FB6FF00B000021002201F01CFBA4
:100B98006FF00A000021002201F016FB6FF0090037
:100BA8000021002201F010FB6FF004000021002258
:100BB80001F00AFB6FF003000021002201F004FBA2
:100BC8006FF001000021002201F0FEFA4FF0FF3023
:100BD8000021002201F0F8FA0837BD4680BD00BFA9
:100BE8000010024080B588B000AF78607B681B6851
:100BF800B3F1A04F18D10E4A0D4B5B6943F08053F7
:100C080053610B4B5B6903F08053BB60BB680123E6
:100C1800FB6003233B6100237B6107F10C034FF06A
:100C28009040194602F0A8FE2037BD4680BD00BF9F
:100C38000010024080B485B000AF78607B681B6804
:100C4800094A93420BD1094A084B9B6943F4006354
:100C58009361064B9B6903F40063FB60FB681437E0
:100C6800BD465DF8047B7047002C0140001002402F
:100C780080B588B000AF78607B681B681B4A9342D8
:100C880030D10723FB6002233B6100237B610023F3
:100C9800BB610223FB6107F10C031548194602F0FA
:100CA8006BFE8023FB6002233B6100237B610023F2
:100CB800BB610623FB6107F10C034FF09040194616
:100CC80002F05AFE0323FB6002233B6100237B6191
:100CD8000023BB610623FB6107F10C030548194695
:100CE80002F04AFE2037BD4680BD00BF002C0140FF
:100CF800000800480004004880B588B000AF78605C
:100D08007B681B68114A93421CD1114A104BDB695E
:100D180043F40033D3610E4BDB6903F40033BB604B
:100D2800BB680C23FB6002233B6100237B6100232B
:100D3800BB610723FB6107F10C034FF09040194694
:100D480002F01AFE2037BD4680BD00BF00440040B7
:100D58000010024080B485B000AF87ED030AC7EDEC
:100D6800020A786039607B68FA681A60D7ED037AFE
:100D78009FED097A27EE877AD7ED027ADFED076AC9
:100D880067EEA67A77EE277A3B68C3ED007A1437C8
:100D9800BD465DF8047B70473ACD133F3ACD933F8B
:100DA80080B487B000AF87ED050AC7ED040AF86084
:100DB800B96087ED011AC7ED001A97ED057AD7EDEE
:100DC800007A27EE277AD7ED046AD7ED017A66EE26
:100DD800A77A77EE277AFB68C3ED007AD7ED057A14
:100DE800B1EE677AD7ED017A27EE277AD7ED046A54
:100DF800D7ED007A66EEA77A77EE277ABB68C3ED5F
:100E0800007A1C37BD465DF8047B704780B487B014
:100E180000AF87ED050AC7ED040AF860B96087EDF1
:100E2800011AC7ED001A97ED057AD7ED007A27EE7B
:100E3800277AD7ED046AD7ED017A66EEA77A77EEBE
:100E4800677AFB68C3ED007A97ED057AD7ED017AEA
:100E580027EE277AD7ED046AD7ED007A66EEA77AEF
:100E680077EE277ABB68C3ED007A1C37BD465DF87C
:100E7800047B70470000000080B500AF01F08AF8DD
:100E880000F0FCF800F086FA00F056FA00F0A2F93B
:100E980000F04EF96A48002103F066FF0346002B74
:100EA80001D000F031FD6648002100F083FD0346C3
:100EB800002B01D000F028FD6148042103F054FF05
:100EC8000346002B01D000F01FFD5D48042100F00F
:100ED80071FD0346002B01D000F016FD584808218B
:100EE80003F042FF0346002B01D000F00DFD5448EB
:100EF800082100F05FFD0346002B01D000F004FD3F
:100F080050484FF40051012202F0A6FE4E4BD3ED9B
:100F1800007AB0EE670A4D484D4904F0C1FD4D4BCB
:100F2800D3ED006A4C4B93ED007A474BD3ED007A32
:100F3800B0EE660AF0EE470AB0EE671A00F08AFAD9
:100F4800F0EE407A454BC3ED007A454B93ED007ABD
:100F5800424BD3ED007AB0EE470AF0EE670A00F094
:100F6800BBFAF0EE407A3F4BC3ED007A3E4B93ED6F
:100F7800006A3C4BD3ED006A344B93ED007A344B56
:100F8800D3ED007AB0EE460AF0EE660A37483849E3
:100F9800B0EE471AF0EE671AFFF738FF00F004FBCF
:100FA800344A354B1B681B885363324A324B5B68A3
:100FB8001B8893632F4A304B9B681B88D363224B53
:100FC8001B681846FFF76EFA02460B46104619468C
:100FD80017A3D3E90023FFF707F902460B4610468B
:100FE8001946FFF76DFD0246174B1A60164B1B6832
:100FF8001846FFF757FA02460B46104619460EA345
:10100800D3E90023FFF728FD0346002B03D00E4B3E
:101018004FF000021A600B484FF40051002202F012
:101028001BFE012001F002F86AE700BFAFF3008061
:10103800DBF97E6ABC74933F182D4454FB21194098
:1010480024010020000400489C000020A00000208B
:10105800A4000020A8000020AC000020B000002060
:10106800B4000020BC000020B800002000000020D0
:1010780098000020002C0140C400002080B59CB0DE
:1010880000AF0223BB640123BB651023FB65022369
:101098007B660023BB664FF46013FB6607F14803C9
:1010A800184601F0E1F80346002B01D000F02CFCB3
:1010B8000F237B630223BB630023FB634FF480632E
:1010C8003B6400237B6407F134031846022102F0D5
:1010D80097F90346002B01D000F016FC4FF4845317
:1010E8003B6000233B624FF48073BB613B4618466C
:1010F80004F09AFA0346002B01D000F005FC02F038
:10110800EBFB0246094BA3FB02239B09184601F09F
:1011180077F8042001F080F84FF0FF30002100221A
:1011280001F052F87037BD4680BD00BFD34D621044
:1011380080B586B000AF264B4FF0A0421A60244B12
:1011480000225A60224B00229A60214B00221A6129
:101158001F4B0122DA611E4B00225A621C4B0022EF
:101168001A631B4B0122DA62194B0022DA60184B12
:1011780001221A62164B00225A63154B04225A6147
:10118800134B00229A61124B00229A63104802F016
:101198007BFD0346002B01D000F0B6FB01233B602A
:1011A80001237B600023FB600023BB6000233B61BD
:1011B80000237B613B460648194602F0E9FE0346D8
:1011C800002B01D000F0A0FB1837BD4680BD00BF42
:1011D800D000002080B59AB000AF554B554A1A6030
:1011E800534B00225A60524B20229A60504B4FF4C6
:1011F8004862DA604E4B00221A614D4B00225A6158
:101208004B4B80229A614A4803F04CFD0346002B61
:1012180001D000F079FB4FF48053BB6507F1580308
:101228004348194603F0E2FD0346002B01D000F0C5
:101238006BFB3F4803F062FD0346002B01D000F032
:1012480063FB0023FB6400233B6500237B6507F1F8
:101258004C033748194600F0E7FC0346002B01D041
:1012680000F052FB60233B634FF4FA637B63002377
:10127800BB630023FB6304233B644FF480737B64EC
:101288004FF40073BB6407F1300329481946002264
:1012980000F0B2FB0346002B01D000F035FB40F212
:1012A800DC537B6300233B6407F130032048194675
:1012B800042200F0A1FB0346002B01D000F024FB20
:1012C8004FF4C8737B6307F13003194819460822A5
:1012D80000F092FB0346002B01D000F015FB002321
:1012E8007B600023BB600023FB600A233B61002373
:1012F8007B614FF40053BB610023FB6100233B6219
:101308004FF000737B620023BB620023FB623B1D2E
:101318000748194600F0D6FC0346002B01D000F020
:10132800F3FA0348FFF7A4FC6837BD4680BD00BF49
:1013380024010020002C014080B500AF134B144A53
:101348001A60124B4FF4E1325A60104B00229A6037
:101358000E4B0022DA600D4B00221A610B4B0C2257
:101368005A610A4B00229A61084B0022DA61074B46
:1013780000221A62054B00225A62044803F018F949
:101388000346002B01D000F0BFFA80BD64010020A5
:101398000044004080B58AB000AF2A4A294B5B69F7
:1013A80043F400235361274B5B6903F400233B613B
:1013B8003B69244A234B5B6943F480035361214B07
:1013C8005B6903F48003FB60FB681E4A1D4B5B6985
:1013D80043F4003353611B4B5B6903F40033BB6078
:1013E800BB68184A174B5B6943F480235361154B5C
:1013F8005B6903F480237B607B6813484FF40051DA
:10140800002202F029FC4FF400537B610F4BBB61B3
:101418000023FB6107F114030D48194602F0ACFAEA
:101428004FF400537B610123BB610023FB61002360
:101438003B6207F114030448194602F09DFA283765
:10144800BD4680BD00100240000400480000211085
:101458000008004880B588B000AF87ED030AC7EDE3
:10146800020A87ED011A07F11C0207F1180397ED2C
:10147800030AD7ED020A10461946FFF76BFC97EDF1
:10148800010A1348134904F00BFB97ED076AD7EDDF
:10149800066A0F4B93ED007A0E4BD3ED007A07F1F5
:1014A800140207F11003B0EE460AF0EE660A104681
:1014B8001946B0EE471AF0EE671AFFF771FC3B6960
:1014C80007EE903AB0EE670A2037BD4680BD00BFF0
:1014D800A0000020A400002080B485B000AF87EDF4
:1014E800010AC7ED000A97ED017AD7ED007A77EE89
:1014F800677AC7ED027A2B4B93ED007AD7ED027A23
:1015080077EE277A274BC3ED007A264BD3ED007A86
:10151800B0EE007AF4EEC77AF1EE10FA04D5214B5A
:101528004FF080421A600DE01E4BD3ED007AB0EE0A
:10153800007AF4EEC77AF1EE10FA03DD194B4FF09A
:1015480080421A60D7ED027AB1EE007A27EE877AE8
:10155800144BD3ED007A77EE277AC7ED037AD7EDEF
:10156800037AB0EE007AF4EEC77AF1EE10FA03D5FA
:101578004FF08043FB600BE0D7ED037AB0EE007AC2
:10158800F4EEC77AF1EE10FA02DD4FF08043FB600B
:10159800FB6807EE903AB0EE670A1437BD465DF86F
:1015A800047B7047C0000020B0B590B000AF0023A6
:1015B800FB61C14B1B681846FEF774FF02460B46D9
:1015C80010461946B8A3D3E90023FFF7E9F8024605
:1015D8000B4610461946FFF753FA034687F83B3087
:1015E800B64B93ED007AB64BD3ED007AB0EE470ACE
:1015F800F0EE670A04F0E8FB87ED0F0AB14BD3ED74
:10160800007A97ED0F7AB4EEE77AF1EE10FA02DD80
:10161800AC4B1B68FB63A84B1B681846FEF742FFE0
:1016280004460D4697F83B301846FEF729FF024658
:101638000B46104619469CA3D3E90023FEF786FF04
:1016480002460B4620462946FEF7CCFD02460B46CD
:1016580010461946FFF734FA03467B63D7ED0F7A35
:101668009FED997AC7EE877A17EE900AFEF71AFF70
:1016780002460B46104619468DA3D3E90023FEF710
:1016880065FF02460B4610461946FFF719FA03464E
:101698003B63786BFEF706FF02460B4682A1D1E951
:1016A8000001FEF79FFD02460B4610461946FFF75C
:1016B80007FA034600EE103A04F068F9B0EE407AF3
:1016C800D7ED0C7A27EE277A804BD3ED007A67EEB8
:1016D800277AC7ED0B7A97ED0D0A04F057F9B0EEAB
:1016E800407AD7ED0C7A27EE277A784BD3ED007A3B
:1016F80067EE277AC7ED0A7A744B93ED007AD7ED37
:101708000B7A37EE677AD7ED0A7A77EE677AC7ED04
:10171800097AD7ED097AB0EE007AC7EE877AC7ED75
:10172800087A0023FB6107F1100197F83B2007F1C5
:101738001C03084611461A4600F0D0F807F11003BA
:101748006348194601224FF6FF7302F083FF614B8D
:1017580093ED007AD7ED087A67EE277AFCEEE77A00
:10176800C7ED017ABB889BB2FB8197ED087AD7ED6C
:101778000B7A37EE277A574BD3ED007A67EE277A44
:10178800FCEEE77AC7ED017ABB889BB2BB8197ED87
:10179800087AD7ED0A7A37EE277A4E4BD3ED007ADE
:1017A80067EE277AFCEEE77AC7ED017ABB889BB231
:1017B8007B8197ED087AD7ED0B7A37EE277AD7ED4C
:1017C8000A7A37EE277A434BD3ED007A67EE277A09
:1017D800FCEEE77AC7ED017ABB889BB23B8197F8AC
:1017E8003B30052B5CD801A252F823F00D180008F5
:1017F80027180008411800085B1800087518000829
:101808008F180008344A07F10E031360324A07F1B3
:101818000C035360304A07F10803936040E02E4AF6
:1018280007F10A0313602C4A07F10E0353602A4A92
:1018380007F10803936033E0274A07F108031360B0
:10184800254A07F10E035360234A07F10C039360FE
:1018580026E0214A07F1080313601F4A07F10A032B
:1018680053601D4A07F10E03936019E01A4A07F105
:101878000C031360184A07F108035360164A07F16E
:101888000E0393600CE0144A07F10E031360124A2A
:1018980007F108035360104A07F10A03936000BF79
:1018A8004037BD46B0BD00BFA038DB3752C1F03F5E
:1018B8006E5DFFE87AB6FB3F9C0000200000002028
:1018C800980000200C00002000000C4404000020B8
:1018D8006401002008000020C400002080B485B006
:1018E80000AFF8600B467A60FB727B681B68591C76
:1018F8007A6811601A46FB681344FA7A1A7014372A
:10190800BD465DF8047B704780B400AFFEE700BFBA
:1019180080B400AF1F4A1F4BD3F8883043F47003DC
:10192800C2F888301C4A1C4B1B6843F00103136043
:101938001949194B5A68194B13404B60164A164BF4
:101948001B6823F0847323F480331360124A124B0C
:101958001B6823F4802313600F4A0F4B5B6823F442
:10196800FE0353600C4A0C4BDB6A23F00F03D3626F
:101978000949094B1A6B0A4B13400B63064B0022AB
:101988009A60044B4FF000629A60BD465DF8047B94
:10199800704700BF00ED00E0001002400CC07FF867
:1019A800CCFC00FF80B500AF00F026FB00F050FC37
:1019B80080BD00BF80B582B000AF786039607B68B9
:1019C8001B6818463968042200F0FAF97B681B681E
:1019D8007A681268526C42F400425A647B681B6849
:1019E8007A681268126842F001021A6000231846E9
:1019F8000837BD4680BD00BF80B584B000AFF86031
:101A0800B9607A60FB6893F83C30012B01D102235E
:101A180005E1FB68012283F83C20FB68022283F879
:101A28003D207B68142B00F2F08001A252F823F0CD
:101A38008D1A0008131C0008131C0008131C00084A
:101A4800CD1A0008131C0008131C0008131C0008FA
:101A58000F1B0008131C0008131C0008131C0008A7
:101A68004F1B0008131C0008131C0008131C000857
:101A7800911B0008131C0008131C0008131C000805
:101A8800D11B0008FB681B681846B96803F006FB01
:101A9800FB681B68FA681268926942F008029A614A
:101AA800FB681B68FA681268926922F004029A615E
:101AB800FB681B68FA6812689169BA6812690A4378
:101AC8009A61A3E0FB681B681846B96803F072FBCB
:101AD800FB681B68FA681268926942F400629A61AE
:101AE800FB681B68FA681268926922F480629A613E
:101AF800FB681B68FA6812689169BA681269120271
:101B08000A439A6182E0FB681B681846B96803F0CB
:101B1800D5FBFB681B68FA681268D26942F00802B4
:101B2800DA61FB681B68FA681268D26922F004025D
:101B3800DA61FB681B68FA681268D169BA681269C9
:101B48000A43DA6162E0FB681B681846B96803F06B
:101B580039FCFB681B68FA681268D26942F40062B3
:101B6800DA61FB681B68FA681268D26922F480623D
:101B7800DA61FB681B68FA681268D169BA68126989
:101B880012020A43DA6141E0FB681B681846B9682B
:101B980000F038F9FB681B68FA681268526D42F069
:101BA80008025A65FB681B68FA681268526D22F0D1
:101BB80004025A65FB681B68FA681268516DBA68B6
:101BC80012690A435A6521E0FB681B681846B96820
:101BD80000F07CF9FB681B68FA681268526D42F4E1
:101BE80000625A65FB681B68FA681268526D22F435
:101BF80080625A65FB681B68FA681268516DBA689A
:101C0800126912020A435A6500E000BFFB6801220C
:101C180083F83D20FB68002283F83C200023184607
:101C28001037BD4680BD00BF80B485B000AF786076
:101C380039607B6893F83C30012B01D1022338E0EE
:101C48007B68012283F83C207B681B685B68FB602B
:101C58007B681B689B68BB607B681B68184A93425B
:101C680008D1FB6823F47003FB603B685B68FA6883
:101C78001343FB60FB6823F07003FB603B681B6841
:101C8800FA681343FB60BB6823F08003BB603B68C2
:101C98009B68BA681343BB607B681B68FA685A6024
:101CA8007B681B68BA689A607B68002283F83C20CE
:101CB800002318461437BD465DF8047B704700BF03
:101CC800002C014080B485B000AF786039600023F3
:101CD800FB607B6893F83C30012B01D1022367E05D
:101CE8007B68012283F83C20FB6823F0FF023B68F5
:101CF800DB681343FB60FB6823F440723B689B6816
:101D08001343FB60FB6823F480623B685B68134302
:101D1800FB60FB6823F400623B681B681343FB60AD
:101D2800FB6823F480523B681B691343FB60FB6824
:101D380023F400523B685B691343FB60FB6823F4A0
:101D480080423B689B6A1343FB60FB6823F40042B4
:101D58003B689B6A1343FB60FB6823F470223B6873
:101D68009B691B041343FB607B681B68134A9342FF
:101D780015D1FB6823F470023B685B6A1B051343AB
:101D8800FB60FB6823F080723B68DB691343FB60F0
:101D9800FB6823F000723B681B6A1343FB607B6897
:101DA8001B68FA685A647B68002283F83C20002389
:101DB80018461437BD465DF8047B7047002C014077
:101DC80080B487B000AFF860B9607A6000237B61A7
:101DD800BB68042202FA03F37B61FB681A6A7B6919
:101DE800DB431A40FB681A62FB681A6ABB687968A9
:101DF80001FA03F31A43FB681A621C37BD465DF803
:101E0800047B704780B487B000AF786039600023E6
:101E18003B610023FB6000237B617B681B6A23F422
:101E280080327B681A627B681B6AFB607B685B6830
:101E38007B617B685B6D3B613B6923F4803323F0F6
:101E480070033B613B681B683A6913433B61FB685D
:101E580023F40033FB603B689B681B04FA68134358
:101E6800FB607B68154A93420BD07B68144A934207
:101E780007D07B68134A934203D07B68124A934287
:101E880009D17B6923F480337B613B685B691B0262
:101E98007A6913437B617B687A695A607B683A691F
:101EA8005A653B685A687B689A657B68FA681A6263
:101EB8001C37BD465DF8047B704700BF002C01400D
:101EC80000400140004401400048014080B487B010
:101ED80000AF7860396000233B610023FB6000237A
:101EE8007B617B681B6A23F480127B681A627B68BB
:101EF8001B6AFB607B685B687B617B685B6D3B6131
:101F08003B6923F0807323F4E0433B613B681B6823
:101F18001B023A6913433B61FB6823F40013FB601F
:101F28003B689B681B05FA681343FB607B68154A8E
:101F380093420BD07B68144A934207D07B68134ABC
:101F4800934203D07B68124A934209D17B6923F4F8
:101F580080237B613B685B699B027A6913437B61E1
:101F68007B687A695A607B683A695A653B685A683F
:101F78007B68DA657B68FA681A621C37BD465DF8CB
:101F8800047B7047002C01400040014000440140A0
:101F98000048014080B500AF084A084B1B6843F071
:101FA80010031360032000F005F9002000F008F882
:101FB800FEF7D6FD0023184680BD00BF0020024072
:101FC80080B582B000AF7860094B1B68094AA2FB54
:101FD80003239B09184600F013F94FF0FF30796886
:101FE800002200F0F1F8002318460837BD4680BDEE
:101FF80010000020D34D621080B400AF044B1B6862
:102008000133034A1360BD465DF8047B704700BF87
:10201800D401002080B400AF034B1B681846BD46AE
:102028005DF8047B704700BFD401002080B584B000
:1020380000AF7860FFF7EEFFF86000BFFFF7EAFF38
:102048000246FB68D21A7B689A42F7D31037BD461E
:1020580080BD00BF80B485B000AF78607B6803F0B6
:102068000703FB600C4BDB68BB60BA684FF6FF03E5
:102078001340BB60FB681A02BB68134343F0BF639D
:1020880043F40033BB60044ABB68D3601437BD46D1
:102098005DF8047B704700BF00ED00E080B400AF3E
:1020A800044BDB6803F4E0631B0A1846BD465DF881
:1020B800047B704700ED00E080B483B000AF0346B6
:1020C8003960FB7197F90730002B0BDA0D49FB7962
:1020D80003F00F03043B3A68D2B21201D2B20B44A8
:1020E8001A7609E0084997F907303A68D2B212011E
:1020F800D2B20B4483F800230C37BD465DF8047B4D
:10210800704700BF00ED00E000E100E080B489B056
:1021180000AFF860B9607A60FB6803F00703FB6101
:10212800FB69C3F10703042B28BF0423BB61FB69C8
:102138000433062B02D9FB69033B00E000237B61D3
:10214800BB69012202FA03F35A1EBB681A407B6975
:102158009A407B69012101FA03F3591E7B680B4001
:10216800134318462437BD465DF8047B704700BF0B
:1021780080B582B000AF78607B68013BB3F1807FA7
:1021880001D301230FE00A4A7B68013B53604FF0FB
:10219800FF300F21FFF790FF054B00229A60044B98
:1021A80007221A60002318460837BD4680BD00BFC5
:1021B80010E000E080B582B000AF78607868FFF783
:1021C80049FF0837BD4680BD80B586B000AF0346DD
:1021D800B9607A60FB7300237B61FFF75FFF78616A
:1021E8007869B9687A68FFF791FF024697F90F3066
:1021F80018461146FFF760FF1837BD4680BD00BF7F
:1022080080B582B000AF78607868FFF7B1FF034609
:1022180018460837BD4680BD80B483B000AF7860EB
:102228007B68042B06D1094A084B1B6843F004035A
:10223800136005E0054A054B1B6823F0040313608F
:102248000C37BD465DF8047B704700BF10E000E026
:1022580080B500AF00F002F880BD00BF80B400AFC9
:10226800BD465DF8047B704780B5ADF5007D00AFD5
:102278003B1D18600023C7F8F8313B1D1B681B681D
:1022880003F00103002B00F0CC81AF4B5B6803F037
:102298000C03042B0BD0AC4B5B6803F00C03082B2E
:1022A80079D1A94B5B6803F48033002B73D04FF4CA
:1022B8000033C7F8F431D7F8F43193FAA3F3C7F829
:1022C800F031D7F8F031B3FA83F3DBB243F02003EF
:1022D800DBB2DBB25B09DBB2012B02D19A4B1B6884
:1022E80035E04FF40033C7F8EC31D7F8EC3193FA06
:1022F800A3F3C7F8E831D7F8E831B3FA83F3DBB2D0
:1023080043F02003DBB2DBB25B09DBB2022B02D164
:102318008D4B1B6A1BE04FF40033C7F8E431D7F844
:10232800E43193FAA3F3C7F8E031D7F8E031B3FA10
:1023380083F3DBB243F02003DBB2DBB25B09DBB231
:10234800042B02D1804B5B6801E07F4B5B6A4FF442
:102358000032C7F8DC21D7F8DC2192FAA2F2C7F8DC
:10236800D821D7F8D821B2FA82F2D2B242F02002AC
:10237800D2B2D2B202F01F02012101FA02F21340D6
:10238800002B07D03B1D1B685B68002B02D1012383
:1023980001F031B845E13B1D1B685B68B3F5803F30
:1023A80006D1694A684B1B6843F48033136030E0F8
:1023B8003B1D1B685B68002B0CD1634A624B1B6892
:1023C80023F480331360604A5F4B1B6823F4802337
:1023D80013601EE03B1D1B685B68B3F5A02F0CD192
:1023E800594A594B1B6843F480231360564A564B8D
:1023F8001B6843F4803313600BE0534A524B1B684D
:1024080023F480331360504A4F4B1B6823F4802316
:1024180013604D494C4BDB6A23F00F023B1D1B68D0
:102428009B681343CB623B1D1B685B68002B7BD00A
:10243800FFF7F0FDC7F8F8010AE0FFF7EBFD0246E9
:10244800D7F8F831D31A642B02D9032300F0D3BF8D
:102458004FF40033C7F8D431D7F8D43193FAA3F343
:10246800C7F8D031D7F8D031B3FA83F3DBB243F0F1
:102478002003DBB2DBB25B09DBB2012B02D1324BAA
:102488001B6835E04FF40033C7F8CC31D7F8CC31AE
:1024980093FAA3F3C7F8C831D7F8C831B3FA83F36E
:1024A800DBB243F02003DBB2DBB25B09DBB2022B09
:1024B80002D1254B1B6A1BE04FF40033C7F8C43127
:1024C800D7F8C43193FAA3F3C7F8C031D7F8C031AD
:1024D800B3FA83F3DBB243F02003DBB2DBB25B0970
:1024E800DBB2042B02D1184B5B6801E0164B5B6A28
:1024F8004FF40032C7F8BC21D7F8BC2192FAA2F2F7
:10250800C7F8B821D7F8B821B2FA82F2D2B242F0AD
:102518002002D2B2D2B202F01F02012101FA02F265
:102528001340002B89D07CE0FFF774FDC7F8F80151
:102538000CE0FFF76FFD0246D7F8F831D31A642B89
:1025480004D9032300F057BF001002404FF40033B2
:10255800C7F8B431D7F8B43193FAA3F3C7F8B03158
:10256800D7F8B031B3FA83F3DBB243F02003DBB220
:10257800DBB25B09DBB2012B02D1B74B1B6835E03C
:102588004FF40033C7F8AC31D7F8AC3193FAA3F362
:10259800C7F8A831D7F8A831B3FA83F3DBB243F010
:1025A8002003DBB2DBB25B09DBB2022B02D1AA4B00
:1025B8001B6A1BE04FF40033C7F8A431D7F8A431E5
:1025C80093FAA3F3C7F8A031D7F8A031B3FA83F38D
:1025D800DBB243F02003DBB2DBB25B09DBB2042BD6
:1025E80002D19D4B5B6801E09B4B5B6A4FF4003264
:1025F800C7F89C21D7F89C2192FAA2F2C7F8982133
:10260800D7F89821B2FA82F2D2B242F02002D2B2BE
:10261800D2B202F01F02012101FA02F21340002B8C
:1026280087D13B1D1B681B6803F00203002B00F0D9
:10263800D781894B5B6803F00C03002B0DD0864BC8
:102648005B6803F00C03082B40F09080824B5B68BA
:1026580003F48033002B40F089800223C7F89431BB
:10266800D7F8943193FAA3F3C7F89031D7F890319B
:10267800B3FA83F3DBB243F02003DBB2DBB25B09CE
:10268800DBB2012B02D1744B1B6833E00223C7F87D
:102698008C31D7F88C3193FAA3F3C7F88831D7F87F
:1026A8008831B3FA83F3DBB243F02003DBB2DBB249
:1026B8005B09DBB2022B02D1674B1B6A1AE00223CB
:1026C800C7F88431D7F8843193FAA3F3C7F8803177
:1026D800D7F88031B3FA83F3DBB243F02003DBB2DF
:1026E800DBB25B09DBB2042B02D15B4B5B6801E018
:1026F800594B5B6A0222C7F87C21D7F87C2192FAF1
:10270800A2F2C7F87821D7F87821B2FA82F2D2B2C9
:1027180042F02002D2B2D2B202F01F02012101FA25
:1027280002F21340002B07D03B1D1B681B69012BCD
:1027380002D0012300F05FBE4748474B1B6823F0D7
:10274800F8023B1D1B685969F823C7F87431D7F89C
:10275800743193FAA3F3C7F87031D7F87031B3FA2C
:1027680083F301FA03F31343036039E13B1D1B684C
:102778001B69002B00F0A8800123C7F86C31D7F83B
:102788006C3193FAA3F3C7F86831D7F86831B3FA14
:1027980083F303F1845303F584139B001A46012342
:1027A8001360FFF737FCC7F8F8010AE0FFF732FCBF
:1027B8000246D7F8F831D31A022B02D9032300F0C6
:1027C8001ABE0223C7F86431D7F8643193FAA3F329
:1027D800C7F86031D7F86031B3FA83F3DBB243F05E
:1027E8002003DBB2DBB25B09DBB2012B02D11A4B4F
:1027F8001B6835E00223C7F85C31D7F85C3193FADF
:10280800A3F3C7F85831D7F85831B3FA83F3DBB2DA
:1028180043F02003DBB2DBB25B09DBB2022B02D14F
:102828000D4B1B6A1CE00223C7F85431D7F854310A
:1028380093FAA3F3C7F85031D7F85031B3FA83F3BA
:10284800DBB243F02003DBB2DBB25B09DBB2042B63
:1028580004D1014B5B6803E000100240C64B5B6A81
:102868000222C7F84C21D7F84C2192FAA2F2C7F8F5
:102878004821D7F84821B2FA82F2D2B242F02002B7
:10288800D2B2D2B202F01F02012101FA02F21340C1
:10289800002B8BD0B848B84B1B6823F0F8023B1DBF
:1028A8001B685969F823C7F84431D7F8443193FABB
:1028B800A3F3C7F84031D7F84031B3FA83F301FAEC
:1028C80003F3134303608BE00123C7F83C31D7F8C7
:1028D8003C3193FAA3F3C7F83831D7F83831B3FA53
:1028E80083F303F1845303F584139B001A460023F2
:1028F8001360FFF78FFBC7F8F8010AE0FFF78AFBC0
:102908000246D7F8F831D31A022B02D9032300F074
:1029180072BD0223C7F83431D7F8343193FAA3F3E0
:10292800C7F83031D7F83031B3FA83F3DBB243F06C
:102938002003DBB2DBB25B09DBB2012B02D18E4B89
:102948001B6833E00223C7F82C31D7F82C3193FAEF
:10295800A3F3C7F82831D7F82831B3FA83F3DBB2E9
:1029680043F02003DBB2DBB25B09DBB2022B02D1FE
:10297800814B1B6A1AE00223C7F82431D7F82431A7
:1029880093FAA3F3C7F82031D7F82031B3FA83F3C9
:10299800DBB243F02003DBB2DBB25B09DBB2042B12
:1029A80002D1754B5B6801E0734B5B6A0222C7F882
:1029B8001C21D7F81C2192FAA2F2C7F81821D7F8DF
:1029C8001821B2FA82F2D2B242F02002D2B2D2B2C6
:1029D80002F01F02012101FA02F21340002B8DD1EF
:1029E8003B1D1B681B6803F00803002B00F04081A7
:1029F8003B1D1B689B69002B00F096800123C7F8DC
:102A08001431D7F8143193FAA3F3C7F81031D7F873
:102A18001031B3FA83F31A46584B13449B001A46F5
:102A280001231360FFF7F6FAC7F8F8010AE0FFF789
:102A3800F1FA0246D7F8F831D31A022B02D9032348
:102A480000F0D9BC0223C7F80C31D7F80C3193FA3F
:102A5800A3F3C7F80831D7F80831B3FA83F3DBB228
:102A680043F06003DBB2DBB25B09DBB2012B02D1BE
:102A7800414B1B6839E00223C7F80431D7F8043109
:102A880093FAA3F207F580731A6007F580731B6841
:102A9800B3FA83F3DBB243F06003DBB2DBB25B096A
:102AA800DBB2022B02D1344B1B6A1EE007F1FC0398
:102AB80002221A6007F1FC031B6893FAA3F207F1DC
:102AC800F8031A6007F1F8031B68B3FA83F3DBB263
:102AD80043F06003DBB2DBB25B09DBB2042B02D14B
:102AE800254B5B6801E0244B5B6A07F1F402022185
:102AF800116007F1F402126892FAA2F107F1F002EC
:102B0800116007F1F0021268B2FA82F2D2B242F012
:102B18006002D2B2D2B202F01F02012101FA02F21F
:102B28001340002B83D0A3E007F1EC0301221A60C5
:102B380007F1EC031B6893FAA3F207F1E8031A60A4
:102B480007F1E8031B68B3FA83F31A460B4B1344E7
:102B58009B001A4600231360FFF75CFAC7F8F801D8
:102B68000EE0FFF757FA0246D7F8F831D31A022BCE
:102B780006D9032300F03FBC0010024020819010CA
:102B880007F1E40302221A6007F1E4031B6893FAD1
:102B9800A3F207F1E0031A6007F1E0031B68B3FA38
:102BA80083F3DBB243F06003DBB2DBB25B09DBB279
:102BB800012B02D1A64B1B683BE007F1DC03022284
:102BC8001A6007F1DC031B6893FAA3F207F1D80334
:102BD8001A6007F1D8031B68B3FA83F3DBB243F03A
:102BE8006003DBB2DBB25B09DBB2022B02D1984B8C
:102BF8001B6A1EE007F1D40302221A6007F1D4030E
:102C08001B6893FAA3F207F1D0031A6007F1D00307
:102C18001B68B3FA83F3DBB243F06003DBB2DBB2C9
:102C28005B09DBB2042B02D1894B5B6801E0884B5E
:102C38005B6A07F1CC020221116007F1CC0212682D
:102C480092FAA2F107F1C802116007F1C8021268EE
:102C5800B2FA82F2D2B242F06002D2B2D2B202F03A
:102C68001F02012101FA02F21340002B7FF479AF11
:102C78003B1D1B681B6803F00403002B00F0A181B7
:102C8800002387F8FF31724BDB6903F08053002B78
:102C980012D16F4A6E4BDB6943F08053D3616C4BA2
:102CA800DB6903F0805207F10C031A6007F10C038B
:102CB8001B68012387F8FF31664B1B6803F4807398
:102CC800002B1AD1634A634B1B6843F4807313606B
:102CD800FFF7A0F9C7F8F80109E0FFF79BF90246EA
:102CE800D7F8F831D31A642B01D9032383E3594B5E
:102CF8001B6803F48073002BEFD03B1D1B68DB6857
:102D0800012B06D1524A524B1B6A43F0010313624E
:102D18002FE03B1D1B68DB68002B0CD14C4A4C4B49
:102D28001B6A23F001031362494A494B1B6A23F0CB
:102D3800040313621DE03B1D1B68DB68052B0CD1E7
:102D4800434A434B1B6A43F004031362404A404B17
:102D58001B6A43F0010313620BE03D4A3C4B1B6ABC
:102D680023F0010313623A4A394B1B6A23F0040328
:102D780013623B1D1B68DB68002B00F08F80FFF798
:102D880049F9C7F8F8010BE0FFF744F90246D7F80C
:102D9800F831D31A41F28832934201D903232AE346
:102DA80007F1C40302221A6007F1C4031B6893FAEF
:102DB800A3F207F1C0031A6007F1C0031B68B3FA56
:102DC80083F3DBB243F04003DBB2DBB25B09DBB277
:102DD800012B02D11E4B1B6840E007F1BC03022205
:102DE8001A6007F1BC031B6893FAA3F207F1B80352
:102DF8001A6007F1B8031B68B3FA83F3DBB243F038
:102E08004003DBB2DBB25B09DBB2022B02D1104B11
:102E18001B6A23E007F1B40302221A6007F1B40326
:102E28001B6893FAA3F207F1B0031A6007F1B00325
:102E38001B68B3FA83F3DBB243F04003DBB2DBB2C7
:102E48005B09DBB2042B07D1014B5B6806E000BFCE
:102E58000010024000700040A54B5B6A07F1AC020D
:102E68000221116007F1AC02126892FAA2F107F18F
:102E7800A802116007F1A8021268B2FA82F2D2B26F
:102E880042F04002D2B2D2B202F01F02012101FA8E
:102E980002F21340002B3FF477AF88E0FFF7BAF84F
:102EA800C7F8F8010BE0FFF7B5F80246D7F8F83194
:102EB800D31A41F28832934201D903239BE207F1E6
:102EC800A40302221A6007F1A4031B6893FAA3F271
:102ED80007F1A0031A6007F1A0031B68B3FA83F394
:102EE800DBB243F04003DBB2DBB25B09DBB2012BA0
:102EF80002D17F4B1B683BE007F19C0302221A605A
:102F080007F19C031B6893FAA3F207F198031A6070
:102F180007F198031B68B3FA83F3DBB243F040036D
:102F2800DBB2DBB25B09DBB2022B02D1704B1B6A4E
:102F38001EE007F1940302221A6007F194031B684C
:102F480093FAA3F207F190031A6007F190031B6844
:102F5800B3FA83F3DBB243F04003DBB2DBB25B09C5
:102F6800DBB2042B02D1624B5B6801E0604B5B6A09
:102F780007F18C020221116007F18C02126892FAA3
:102F8800A2F107F18802116007F188021268B2FA0B
:102F980082F2D2B242F04002D2B2D2B202F01F02A2
:102FA800012101FA02F21340002B7FF47CAF97F85D
:102FB800FF31012B05D14E4A4D4BDB6923F080537D
:102FC800D3613B1D1B68DB69002B00F01382484B63
:102FD8005B6803F00C03082B00F008823B1D1B689C
:102FE800DB69022B40F05C8107F184034FF08072AB
:102FF8001A6007F184031B6893FAA3F207F18003B0
:103008001A6007F180031B68B3FA83F303F1845352
:1030180003F584139B001A4600231360FEF7FAFF9A
:10302800C7F8F80109E0FEF7F5FF0246D7F8F831CE
:10303800D31A022B01D90323DDE107F17C034FF0FA
:1030480000721A6007F17C031B6893FAA3F207F178
:1030580078031A6007F178031B68B3FA83F3DBB2CD
:1030680043F02003DBB2DBB25B09DBB2012B02D1F8
:103078001F4B1B6840E007F174034FF000721A60A1
:1030880007F174031B6893FAA3F207F170031A603F
:1030980007F170031B68B3FA83F3DBB243F0200334
:1030A800DBB2DBB25B09DBB2022B02D1104B1B6A2D
:1030B80022E007F16C034FF000721A6007F16C030D
:1030C8001B6893FAA3F207F168031A6007F1680313
:1030D8001B68B3FA83F3DBB243F02003DBB2DBB245
:1030E8005B09DBB2042B05D1014B5B6804E000BF30
:1030F80000100240BE4B5B6A07F164024FF000719A
:10310800116007F16402126892FAA2F107F16002F5
:10311800116007F160021268B2FA82F2D2B242F08C
:103128002002D2B2D2B202F01F02012101FA02F249
:103138001340002B7FF477AFAD48AD4B5B6823F4A9
:1031480074123B1D1B68596A3B1D1B681B6A0B43A5
:103158001343436007F15C034FF080721A6007F174
:103168005C031B6893FAA3F207F158031A6007F18E
:1031780058031B68B3FA83F303F1845303F58413EC
:103188009B001A4601231360FEF744FFC7F8F801B5
:1031980009E0FEF73FFF0246D7F8F831D31A022BB1
:1031A80001D9032327E107F154034FF000721A6095
:1031B80007F154031B6893FAA3F207F150031A604E
:1031C80007F150031B68B3FA83F3DBB243F0200323
:1031D800DBB2DBB25B09DBB2012B02D1844B1B688B
:1031E8003DE007F14C034FF000721A6007F14C0301
:1031F8001B6893FAA3F207F148031A6007F1480322
:103208001B68B3FA83F3DBB243F02003DBB2DBB213
:103218005B09DBB2022B02D1754B1B6A1FE007F179
:1032280044034FF000721A6007F144031B6893FAD5
:10323800A3F207F140031A6007F140031B68B3FAD1
:1032480083F3DBB243F02003DBB2DBB25B09DBB212
:10325800042B02D1664B5B6801E0654B5B6A07F1A2
:103268003C024FF00071116007F13C02126892FABB
:10327800A2F107F13802116007F138021268B2FAB8
:1032880082F2D2B242F02002D2B2D2B202F01F02CF
:10329800012101FA02F21340002B3FF47AAFA9E0B2
:1032A80007F134034FF080721A6007F134031B688A
:1032B80093FAA3F207F130031A6007F130031B6891
:1032C800B3FA83F303F1845303F584139B001A467E
:1032D80000231360FEF79EFEC7F8F80109E0FEF729
:1032E80099FE0246D7F8F831D31A022B01D90323E5
:1032F80081E007F12C034FF000721A6007F12C03EC
:103308001B6893FAA3F207F128031A6007F1280350
:103318001B68B3FA83F3DBB243F02003DBB2DBB202
:103328005B09DBB2012B02D1314B1B683DE007F191
:1033380024034FF000721A6007F124031B6893FA04
:10334800A3F207F120031A6007F120031B68B3FA00
:1033580083F3DBB243F02003DBB2DBB25B09DBB201
:10336800022B02D1224B1B6A1FE007F11C034FF00E
:1033780000721A6007F11C031B6893FAA3F207F1A5
:1033880018031A6007F118031B68B3FA83F3DBB25A
:1033980043F02003DBB2DBB25B09DBB2042B02D1C2
:1033A800134B5B6801E0124B5B6A07F114024FF0A4
:1033B8000071116007F11402126892FAA2F107F184
:1033C8001002116007F110021268B2FA82F2D2B24A
:1033D80042F02002D2B2D2B202F01F02012101FA59
:1033E80002F21340002B7FF47AAF03E0012302E0DE
:1033F800001002400023184607F50077BD4680BD3F
:1034080080B59EB000AF7860396000237B67A54B1C
:103418001B6803F007023B689A4210D2A149A14BEE
:103428001B6823F007023B6813430B609D4B1B6826
:1034380003F007023B689A4201D00123D5E17B687B
:103448001B6803F00203002B08D09749964B5B6872
:1034580023F0F0027B689B6813434B607B681B6812
:1034680003F00103002B00F06D817B685B68012B82
:103478005DD14FF400333B673B6F93FAA3F3FB66D0
:10348800FB6EB3FA83F3DBB243F02003DBB2DBB2AB
:103498005B09DBB2012B02D1834B1B682DE04FF493
:1034A8000033BB66BB6E93FAA3F37B667B6EB3FAFD
:1034B80083F3DBB243F02003DBB2DBB25B09DBB2A0
:1034C800022B02D1784B1B6A17E04FF400333B669E
:1034D8003B6E93FAA3F3FB65FB6DB3FA83F3DBB2A0
:1034E80043F02003DBB2DBB25B09DBB2042B02D171
:1034F8006D4B5B6801E06C4B5B6A4FF40032BA6558
:10350800BA6D92FAA2F27A657A6DB2FA82F2D2B202
:1035180042F02002D2B2D2B202F01F02012101FA17
:1035280002F21340002B40F0C18001235DE17B686B
:103538005B68022B5CD14FF000733B653B6D93FADF
:10354800A3F3FB64FB6CB3FA83F3DBB243F0200311
:10355800DBB2DBB25B09DBB2012B02D1524B1B6839
:103568002DE04FF00073BB64BB6C93FAA3F37B644C
:103578007B6CB3FA83F3DBB243F02003DBB2DBB23C
:103588005B09DBB2022B02D1474B1B6A17E04FF0F5
:1035980000733B643B6C93FAA3F3FB63FB6BB3FAD6
:1035A80083F3DBB243F02003DBB2DBB25B09DBB2AF
:1035B800042B02D13C4B5B6801E03B4B5B6A4FF04C
:1035C8000072BA63BA6B92FAA2F27A637A6BB2FAB1
:1035D80082F2D2B242F02002D2B2D2B202F01F027C
:1035E800012101FA02F21340002B5FD10123FCE014
:1035F80002233B633B6B93FAA3F3FB62FB6AB3FAC8
:1036080083F3DBB243F02003DBB2DBB25B09DBB24E
:10361800012B02D1244B1B682BE00223BB62BB6A3F
:1036280093FAA3F37B627B6AB3FA83F3DBB243F0CA
:103638002003DBB2DBB25B09DBB2022B02D11A4BEF
:103648001B6A16E002233B623B6A93FAA3F3FB6111
:10365800FB69B3FA83F3DBB243F02003DBB2DBB2DE
:103668005B09DBB2042B02D10F4B5B6801E00E4B08
:103678005B6A0222BA61BA6992FAA2F27A617A693D
:10368800B2FA82F2D2B242F02002D2B2D2B202F040
:103698001F02012101FA02F21340002B06D1012377
:1036A800A3E000BF00200240001002405149514BE6
:1036B8005B6823F003027B685B6813434B60FEF78B
:1036C800A9FC78677B685B68012B12D10AE0FEF7DA
:1036D800A1FC02467B6FD31A41F28832934201D98A
:1036E800032382E0434B5B6803F00C03042BEED109
:1036F80028E07B685B68022B12D10AE0FEF78AFC9F
:1037080002467B6FD31A41F28832934201D90323D0
:103718006BE0384B5B6803F00C03082BEED111E02B
:103728000AE0FEF777FC02467B6FD31A41F2883233
:10373800934201D9032358E02E4B5B6803F00C0336
:10374800002BEED12C4B1B6803F007023B689A4212
:1037580010D92949284B1B6823F007023B681343FB
:103768000B60254B1B6803F007023B689A4201D0A7
:1037780001233AE07B681B6803F00403002B08D0A0
:103788001C491C4B5B6823F4E0627B68DB681343CD
:103798004B607B681B6803F00803002B09D01549B0
:1037A800144B5B6823F460527B681B69DB0013438E
:1037B8004B6000F027F801460E4B5B6803F0F002FF
:1037C800F0233B613B6993FAA3F3FB60FB68B3FA10
:1037D80083F322FA03F3094AD35C21FA03F3084A74
:1037E80013600020FEF7ECFB002318467837BD462F
:1037F80080BD00BF00100240002002409860000811
:103808001000002080B48BB000AF0023FB610023C0
:10381800BB6100237B6200237B6100233B62294B51
:103828005B68FB61FB6903F00C03042B02D0082BD7
:1038380003D03CE0244B3B623CE0FB6903F470128C
:103848004FF470133B613B6993FAA3F3FB60FB6889
:10385800B3FA83F322FA03F31C4AD35C7B61194B56
:10386800DB6A03F00F020F23BB60BB6893FAA3F374
:103878007B607B68B3FA83F322FA03F3144AD35CC0
:10388800BB61FB6903F48033002B08D00E4ABB6987
:10389800B2FBF3F37A6902FB03F37B6204E07B6912
:1038A8000C4A02FB03F37B627B6A3B6202E0064B35
:1038B8003B6200BF3B6A18462C37BD465DF8047B67
:1038C800704700BF0010024000127A00B060000884
:1038D800C060000800093D0080B400AF034B1B68BE
:1038E8001846BD465DF8047B704700BF10000020F5
:1038F80080B582B000AFFFF7EFFF01460B4B5B6866
:1039080003F4E0624FF4E0637B607B6893FAA3F30F
:103918003B603B68B3FA83F322FA03F3044AD35CAF
:1039280021FA03F318460837BD4680BD001002404F
:10393800A860000880B582B000AFFFF7CDFF014650
:103948000B4B5B6803F460524FF460537B607B68F9
:1039580093FAA3F33B603B68B3FA83F322FA03F3C9
:10396800044AD35C21FA03F318460837BD4680BDE4
:1039780000100240A860000880B487B000AF7860EB
:10398800396000237B610023FB6000233B614AE12F
:103998003B681A687B69012101FA03F31340FB6055
:1039A800FB68002B00F03C813B685B68022B03D06E
:1039B8003B685B68122B22D17B69DA087B68083286
:1039C80053F822303B617B6903F007039B001A46DA
:1039D8000F239340DB433A6913403B613B681B6903
:1039E8007A6902F00702920093403A6913433B61F7
:1039F8007B69DA087B680832396943F822107B68EA
:103A08001B683B617B695B001A4603239340DB43D9
:103A18003A6913403B613B685B6803F003037A69CA
:103A2800520093403A6913433B617B683A691A60D4
:103A38003B685B68012B0BD03B685B68022B07D0A7
:103A48003B685B68112B03D03B685B68122B2FD156
:103A58007B689B683B617B695B001A460323934044
:103A6800DB433A6913403B613B68DB687A69520083
:103A780093403A6913433B617B683A699A607B6873
:103A88005B683B617B69012202FA03F3DB433A6915
:103A980013403B613B685B6803F010031A097B69BC
:103AA80002FA03F33A6913433B617B683A695A6047
:103AB8007B68DB683B617B695B001A4603239340A4
:103AC800DB433A6913403B613B689B687A69520063
:103AD80093403A6913433B617B683A69DA603B6813
:103AE8005B6803F08053002B00F09A80544A544BD3
:103AF8009B6943F001039361514B9B6903F00103F8
:103B0800BB60BB684F4A7B699B08023352F823307D
:103B18003B617B6903F003039B001A460F23934024
:103B2800DB433A6913403B617B68B3F1904F13D094
:103B38007B68454A93420DD07B68444A934207D03C
:103B48007B68434A934201D1032306E0052304E03E
:103B5800022302E0012300E000237A6902F0030255
:103B6800920093403A6913433B6136497B699B084D
:103B780002333A6941F82320364B1B683B61FB68E6
:103B8800DB433A6913403B613B685B6803F480336D
:103B9800002B03D03A69FB6813433B612D4A3B690C
:103BA80013602C4B5B683B61FB68DB433A6913404D
:103BB8003B613B685B6803F40033002B03D03A6930
:103BC800FB6813433B61234A3B695360214B9B6865
:103BD8003B61FB68DB433A6913403B613B685B68C8
:103BE80003F48013002B03D03A69FB6813433B614D
:103BF800184A3B699360174BDB683B61FB68DB4302
:103C08003A6913403B613B685B6803F40013002B7F
:103C180003D03A69FB6813433B610E4A3B69D360A2
:103C28007B6901337B613B681A687B6922FA03F37D
:103C3800002B7FF4ADAE1C37BD465DF8047B7047A2
:103C4800001002400000014000040048000800483D
:103C5800000C00480004014080B483B000AF7860D5
:103C68000B467B8013467B707B78002B03D07A88C9
:103C78007B689A6102E07A887B689A620C37BD4655
:103C88005DF8047B704700BF80B59CB000AF7860DA
:103C9800002387F86F300023BB660023FB607B6836
:103CA800002B01D1012366E17B681B69002B7B682F
:103CB8005B6C03F01003002B75D17B685B6C002BE9
:103CC80052D17B6800229A647B6800221A657B685F
:103CD8000022DA647B68002283F840207868FCF7C9
:103CE80081FF7B681B689B6803F08053002B3BD1E6
:103CF800786800F0FDFB034687F86F307B685B6CE3
:103D080003F01003002B2FD197F86F30002B2BD125
:103D18007B685B6C23F4885323F0020343F00202B0
:103D28007B685A647B681B687A681268926822F01C
:103D380040529A607B681B687A681268926842F001
:103D480080529A608E4B1B688E4AA2FB03239A0C02
:103D580013469B0013445B00FB6002E0FB68013BD9
:103D6800FB60FB68002BF9D17B681B689B6803F03C
:103D78008053002B06D07B681B689B6803F00053B8
:103D8800002B10D07B685B6C23F0120343F0100209
:103D98007B685A647B689B6C43F001027B689A6479
:103DA800012387F86F307B685B6C03F01003002BEE
:103DB80040F0D48097F86F30002B40F0CF807B68BC
:103DC8001B689B6803F00403002B40F0C7807B68E6
:103DD8005B6C23F4817343F002027B685A646A4B7C
:103DE8007B6600233B617B681B689B6803F00303C9
:103DF800012B08D17B681B681B6803F00103002BAB
:103E080001D0012300E00023002B1CD13B69002BCB
:103E180010D03B699B6803F00303012B07D13B6972
:103E28001B6803F00103002B01D0012300E00023ED
:103E3800002B08D17B6E9B6823F440327B685B685B
:103E48001A437B6E9A607B68DB695A037B689B6BBD
:103E5800012B02D04FF4805300E000231A437B6803
:103E6800DB681A437B689B681343BA6E1343BB66CF
:103E78007B685B6A012B1BD17B68DB69002B09D14E
:103E88007B689B6A013B5A04BB6E134343F480333F
:103E9800BB660DE07B685B6C23F0220343F02002D5
:103EA8007B685A647B689B6C43F001027B689A6468
:103EB8007B68DB6A012B07D07B68DA6A7B681B6B3F
:103EC8001343BA6E1343BB667B681B689B6803F099
:103ED8000C03002B13D17B681A687B681B68DB68AE
:103EE80023F4804323F00203D3607B689B699A0321
:103EF8007B685B6B5B001343BA6E1343BB667B68DE
:103F08001A687B681B68D968204B0B40B96E0B4355
:103F1800D3607B681B69012B0CD17B681B687A68AE
:103F28001268126B22F00F017A68126A013A0A438A
:103F38001A6307E07B681B687A681268126B22F0C4
:103F48000F021A637B6800229A647B685B6C23F01B
:103F5800030343F001027B685A640AE07B685B6CE8
:103F680023F0120343F010027B685A64012387F898
:103F78006F3097F86F3018467037BD4680BD00BF68
:103F88001000002083DE1B430003005007C0F0FF31
:103F980090B49CB000AF78603960002387F86F3028
:103FA8000023FB607B6893F84030012B01D102238A
:103FB80095E27B68012283F840207B681B689B6838
:103FC80003F00403002B40F07B823B685B68042B02
:103FD8001CD87B6819687B681B68186B3B685A6833
:103FE80013465B0013445B001A461F239340DB43D0
:103FF80018403B681C683B685A6813465B001344CA
:104008005B0004FA03F303430B6363E03B685B68FC
:10401800092B1ED87B6819687B681B68586B3B683E
:104028005A6813465B0013445B001E3B1A461F2365
:104038009340DB4318403B681C683B685A6813464A
:104048005B0013445B001E3B04FA03F303434B631A
:1040580040E03B685B680E2B1ED87B6819687B685C
:104068001B68986B3B685A6813465B0013445B00F7
:104078003C3B1A461F239340DB4318403B681C68AF
:104088003B685A6813465B0013445B003C3B04FAE8
:1040980003F303438B631DE07B6819687B681B6827
:1040A800D86B3B685A6813465B0013445B005A3B65
:1040B8001A461F239340DB4318403B681C683B6843
:1040C8005A6813465B0013445B005A3B04FA03F337
:1040D8000343CB637B681B689B6803F00C03002BCE
:1040E80040F0E4803B681B68092B1CD97B68196881
:1040F8007B681B6898693B681A6813465B00134421
:104108001E3B1A4607239340DB4318403B689C68D4
:104118003B681A6813465B0013441E3B04FA03F31A
:1041280003438B6119E07B6819687B681B685869D1
:104138003B681A6813465B0013441A4607239340EA
:10414800DB4318403B689C683B681A6813465B0071
:10415800134404FA03F303434B613B685B697A68D1
:104168001268D26802F01802D20852009340BB6667
:104178003B681B69013B032B4ED801A252F823F080
:1041880099410008BB410008DD410008FF410008D3
:104198007B681A687B681B68196EA14B0B403968ED
:1041A80009688806B96E01430B4343F00043136660
:1041B8007CE07B681A687B681B68596E984B0B40DB
:1041C800396809688806B96E01430B4343F0004318
:1041D80053666BE07B681A687B681B68996E904B26
:1041E8000B40396809688806B96E01430B4343F0F0
:1041F800004393665AE07B681A687B681B68D96E2F
:10420800874B0B40396809688806B96E01430B4330
:1042180043F00043D36649E07B681B681B6E03F0DC
:10422800F8423B681B689B069A4207D17B681B686B
:104238007A681268126E22F000421A667B681B6860
:104248005B6E03F0F8423B681B689B069A4207D1F5
:104258007B681B687A681268526E22F000425A66C0
:104268007B681B689B6E03F0F8423B681B689B06E3
:104278009A4207D17B681B687A681268926E22F0AE
:1042880000429A667B681B68DB6E03F0F8423B6865
:104298001B689B069A4208D17B681B687A6812687B
:1042A800D26E22F00042DA66FFE700BF7B681B6827
:1042B8009B6803F00303012B08D17B681B681B680C
:1042C80003F00103002B01D0012300E00023002BA1
:1042D80040F0FF803B68DB68012B0FD07B681B68D0
:1042E8007A681268D2F8B0103A681268104601224B
:1042F8008240D2430A40C3F8B0204AE07B681B687A
:104308007A681268D2F8B0103A681268104601222A
:1043180082400A43C3F8B0203B681B68092B1CD9AC
:104328007B6819687B681B6898693B681A6813463C
:104338005B0013441B3B1A4607239340DB4318409A
:104348003B689C683B681A6813465B0013441B3B38
:1043580004FA03F303438B611BE07B6819687B68ED
:104368001B6858693B681B685A1C13465B0013445A
:104378001A4607239340DB4318403B689C683B6818
:104388001B685A1C13465B00134404FA03F30343E7
:104398004B61244B7B663B681B68102B05D17B6EF9
:1043A8009B6803F40003002B14D03B681B68112B97
:1043B80005D17B6E9B6803F08073002B0AD03B68A5
:1043C8001B68122B40F085807B6E9B6803F480038A
:1043D800002B7ED100233B617B681B689B6803F040
:1043E8000303012B08D17B681B681B6803F00103DA
:1043F800002B01D0012300E00023002B55D13B699D
:10440800002B14D03B699B6803F00303012B0BD1ED
:104418003B691B6803F00103002B05D0012304E06E
:1044280000F0FF83000300500023002B3DD13B68C0
:104438001B68102B1DD17B681B68B3F1A04F18D1E6
:104448007B6E9B6843F400027B6E9A60264B1B6868
:10445800264AA2FB03239A0C13469B0013445B00D5
:10446800FB6002E0FB68013BFB60FB68002BF9D1B5
:1044780025E03B681B68112B0BD17B681B68B3F1E7
:10448800A04F06D17B6E9B6843F080727B6E9A606A
:104498000AE03B681B68122B06D17B6E9B6843F4CD
:1044A80080027B6E9A600AE009E07B685B6C43F0EF
:1044B80020027B685A64012387F86F3009E008E01E
:1044C8007B685B6C43F020027B685A64012387F8A1
:1044D8006F307B68002283F8402097F86F301846C9
:1044E8007037BD4690BC70471000002083DE1B4328
:1044F80080B584B000AF78600023FB607B681B68E0
:104508009B6803F00303012B08D17B681B681B68B9
:1045180003F00103002B01D0012300E00023002B4E
:1045280040D07B681B689B6803F00D03012B0FD1FB
:104538007B681B687A681268926842F002029A6087
:104548007B681B6803221A60FDF764FDF86022E0AF
:104558007B685B6C43F010027B685A647B689B6CD9
:1045680043F001027B689A6401231CE0FDF752FDC9
:104578000246FB68D31A022B0DD97B685B6C43F0AB
:1045880010027B685A647B689B6C43F001027B686D
:104598009A64012307E07B681B689B6803F00103AA
:1045A800002BE3D1002318461037BD4680BD00BF5D
:1045B80080B582B000AF78607B68002B01D1012301
:1045C80043E07B6893F86930DBB2002B06D17B6847
:1045D800002283F868207868FCF78EFB7B68242229
:1045E80083F869207B681B687A681268126822F071
:1045F80001021A60786800F0BBF80346012B01D16C
:10460800012322E07B685B6A002B02D0786800F007
:1046180013FA7B681B687A681268526822F4904221
:104628005A607B681B687A681268926822F02A02CE
:104638009A607B681B687A681268126842F0010207
:104648001A60786800F09AFA034618460837BD469B
:1046580080BD00BF80B588B002AFF860B9603B602C
:104668001346FB8000237B61FB6893F86930DBB25B
:10467800202B77D1BB68002B02D0FB88002B01D1FF
:10468800012370E0FB6893F86830012B01D1022305
:1046980069E0FB68012283F86820FB680022DA667B
:1046A800FB68212283F86920FDF7B4FC7861FB6878
:1046B800FA88A3F85020FB68FA88A3F8522034E05F
:1046C800FB68B3F852309BB2013B9AB2FB68A3F87F
:1046D80052203B680093F868802100227B6900F033
:1046E80097FA0346002B01D003233CE0FB689B6844
:1046F800B3F5805F11D1FB681B69002B0DD1BB6836
:104708003B61FB681B683A691288C2F3080292B2DF
:104718001A85BB680233BB6007E0FB681A68BB6890
:10472800591CB9601B789BB21385FB68B3F85230EB
:104738009BB2002BC4D13B680093F868402100224B
:104748007B6900F065FA0346002B01D003230AE0D9
:10475800FB68202283F86920FB68002283F8682020
:10476800002300E0022318461837BD4680BD00BF6D
:1047780090B587B000AF78600023FB601023FB750D
:1047880000237B810023BB820023FB747B689A682B
:104798007B681B691A437B685B691A437B68DB6922
:1047A8001343FB607B681A687B681B6819689D4B1C
:1047B8000B40F9680B4313607B681B687A681268C2
:1047C800526822F440517A68D2680A435A607B687A
:1047D8009A697B681B6A1343FB607B681B687A686D
:1047E8001268926822F43061FA680A439A607B681A
:1047F8001B688D4A934221D18C4B1B6B03F003033A
:10480800032B17D801A252F823F000BF254800084F
:1048180031480008374800082B4800080023FB757A
:104828000AE00223FB7507E00423FB7504E0082374
:10483800FB7501E01023FB7500BF11E07B681B6866
:104848007B4A934202D10023FB7509E07B681B6811
:10485800784A934202D10023FB7501E01023FB75CF
:104868007B68DB69B3F5004F6ED1FB7D082B57D809
:1048780001A252F823F000BFA5480008C14800086B
:10488800DD48000829490008F748000829490008B8
:10489800294900082949000813490008FFF728F8A2
:1048A80003465A007B685B685B081A447B685B6850
:1048B800B2FBF3F3BB8236E0FFF73CF803465A003D
:1048C8007B685B685B081A447B685B68B2FBF3F340
:1048D800BB8228E07B685B685B0803F5740303F51B
:1048E80010537A685268B3FBF2F3BB821BE0FEF701
:1048F80089FF03465A007B685B685B081A447B683B
:104908005B68B2FBF3F3BB820DE07B685B685B0816
:1049180003F580327B685B68B2FBF3F3BB8202E08D
:104928000123FB7400BFBB8A23F00F037B81BB8A82
:1049380003F00F035B109AB27B8913437B817B687A
:104948001B687A89DA6068E0FB7D082B62D801A2CF
:1049580052F823F081490008A1490008C14900081C
:104968001D4A0008E14900081D4A00081D4A0008C0
:104978001D4A0008014A00087B681C68FEF7B8FF5A
:1049880002467B685B685B081A447B685B68B2FB1D
:10499800F3F39BB2E36040E07B681C68FEF7CAFF54
:1049A80002467B685B685B081A447B685B68B2FBFD
:1049B800F3F39BB2E36030E07B681A687B685B685E
:1049C8005B0803F5F40303F5905379684968B3FB72
:1049D800F1F39BB2D36020E07B681C68FEF712FFFE
:1049E80002467B685B685B081A447B685B68B2FBBD
:1049F800F3F39BB2E36010E07B681B687A68526847
:104A0800520802F500417A685268B1FBF2F292B29C
:104A1800DA6002E00123FB7400BFFB7C18461C37F8
:104A2800BD4690BDF369FFEF003801400010024019
:104A3800004400400048004080B483B000AF786074
:104A48007B685B6A03F00103002B0AD07B681B6854
:104A58007A681268526822F400317A68926A0A43C6
:104A68005A607B685B6A03F00203002B0AD07B68FC
:104A78001B687A681268526822F480317A68D26AB0
:104A88000A435A607B685B6A03F00403002B0AD070
:104A98007B681B687A681268526822F480217A68F9
:104AA800126B0A435A607B685B6A03F00803002BA9
:104AB8000AD07B681B687A681268526822F4004141
:104AC8007A68526B0A435A607B685B6A03F010038A
:104AD800002B0AD07B681B687A681268926822F4F7
:104AE80080517A68926B0A439A607B685B6A03F02C
:104AF8002003002B0AD07B681B687A6812689268CA
:104B080022F400517A68D26B0A439A607B685B6A28
:104B180003F04003002B1AD07B681B687A68126880
:104B2800526822F480117A68126C0A435A607B68D2
:104B38001B6CB3F5801F0AD17B681B687A68126802
:104B4800526822F4C0017A68526C0A435A607B6842
:104B58005B6A03F08003002B0AD07B681B687A68C5
:104B68001268526822F400217A68926C0A435A60EB
:104B78000C37BD465DF8047B704700BF80B586B032
:104B880002AF78600023FB607B680022DA66FDF7DD
:104B980041FAF8607B681B681B6803F00803002B68
:104BA8000ED06FF07E43009378684FF40011002216
:104BB800FB6800F02DF80346002B01D0032322E008
:104BC8007B681B681B6803F00403002B0ED06FF092
:104BD8007E43009378684FF480010022FB6800F060
:104BE80017F80346002B01D003230CE07B68202232
:104BF80083F869207B68202283F86A207B6800227A
:104C080083F86820002318461037BD4680BD00BFD2
:104C180080B584B000AFF860B9603B601346FB71A3
:104C28002CE0BB69B3F1FF3F28D0BB69002B07D04C
:104C3800FDF7F0F902463B68D21ABB699A421DD9C2
:104C4800FB681B68FA681268126822F4D0721A604E
:104C5800FB681B68FA681268926822F001029A6081
:104C6800FB68202283F86920FB68202283F86A20E9
:104C7800FB68002283F8682003230FE0FB681B68A9
:104C8800DA69BB681A40BB689A420CBF012300234B
:104C9800DBB21A46FB799A42C3D000231846103774
:104CA800BD4680BD80B582B000AF78607B68002BC0
:104CB80001D101231DE07B6893F83D30DBB2002B66
:104CC80006D17B68002283F83C207868FBF7B2FFA6
:104CD8007B68022283F83D207B681A687B6804336E
:104CE8001046194600F06CF97B68012283F83D20D4
:104CF800002318460837BD4680BD00BF80B582B086
:104D080000AF78607B68002B01D101231DE07B6830
:104D180093F83D30DBB2002B06D17B68002283F884
:104D28003C20786800F016F87B68022283F83D2062
:104D38007B681A687B6804331046194600F040F90E
:104D48007B68012283F83D20002318460837BD46BA
:104D580080BD00BF80B483B000AF78600C37BD461B
:104D68005DF8047B704700BF80B582B000AF786003
:104D780039607B681B6818463968012200F032FCEC
:104D88007B681B68154A93420ED07B681B68144ADF
:104D9800934209D07B681B68124A934204D07B680F
:104DA8001B68114A934201D1012300E00023002B24
:104DB80007D07B681B687A681268526C42F400421C
:104DC8005A647B681B687A681268126842F00102AC
:104DD8001A60002318460837BD4680BD002C0140E4
:104DE80000400140004401400048014080B584B0C3
:104DF80000AF786039600023FB607B6893F83C3033
:104E0800012B01D10223D6E07B68012283F83C20E4
:104E18007B68022283F83D207B681B689B68FB60E7
:104E2800FB6823F4803323F07703FB60FB6823F4EB
:104E38007F43FB607B681B68FA689A603B681B6865
:104E4800402B00F08180402B0FD8102B00F095806C
:104E5800102B03D8002B00F08980A3E0202B00F052
:104E68009380302B00F097809CE0702B18D0702B2B
:104E780004D8502B44D0602B54D093E0B3F5805F16
:104E880003D0B3F5005F28D08CE07B681A687B6894
:104E98001B689B6823F4803323F00703936081E049
:104EA8007B6818683B6899683B685A683B68DB68A8
:104EB80000F076FB7B681B689B68FB60FB6823F44B
:104EC800803323F07703FB60FB6843F07703FB60D4
:104ED8007B681B68FA689A6064E07B6818683B68BE
:104EE80099683B685A683B68DB6800F059FB7B6847
:104EF8001B687A681268926842F480429A6051E0AE
:104F08007B6819683B685A683B68DB680846114645
:104F18001A4600F0BFFA7B681B681846502100F05B
:104F28001FFB3FE07B6819683B685A683B68DB6891
:104F3800084611461A4600F0DFFA7B681B681846D7
:104F4800602100F00DFB2DE07B6819683B685A680A
:104F58003B68DB68084611461A4600F09BFA7B68F6
:104F68001B681846402100F0FBFA1BE07B681B68B1
:104F78001846002100F0F4FA14E07B681B68184614
:104F8800102100F0EDFA0DE07B681B68184620211F
:104F980000F0E6FA06E07B681B681846302100F04E
:104FA800DFFA00BF7B68012283F83D207B6800227E
:104FB80083F83C20002318461037BD4680BD00BF4B
:104FC80080B485B000AF786039600023FB607B68EF
:104FD8001B68FB607B682D4A934203D07B68B3F162
:104FE800804F08D1FB6823F07003FB603B685B6867
:104FF800FA681343FB607B68244A93420FD07B68AE
:10500800B3F1804F0BD07B68214A934207D07B686D
:10501800204A934203D07B681F4A934208D1FB6819
:1050280023F44073FB603B68DB68FA681343FB605A
:10503800FB6823F080023B685B691343FB607B6875
:10504800FA681A603B689A687B68DA623B681A6893
:105058007B689A627B680D4A93420BD07B680C4A46
:10506800934207D07B680B4A934203D07B680A4A75
:10507800934203D13B681A697B681A637B680122F3
:105088005A611437BD465DF8047B7047002C014017
:1050980000400140004401400048014080B487B00E
:1050A80000AF786039600023FB6000237B61002338
:1050B8003B617B681B6A23F001027B681A627B688C
:1050C8001B6A7B617B685B683B617B689B69FB60F3
:1050D800FB6823F4803323F07003FB60FB6823F044
:1050E8000303FB603B681B68FA681343FB607B693A
:1050F80023F002037B613B689B687A6913437B61F9
:105108007B68284A93420BD07B68274A934207D092
:105118007B68264A934203D07B68254A93420CD188
:105128007B6923F008037B613B68DB687A6913437A
:105138007B617B6923F004037B617B68194A934296
:105148000BD07B68184A934207D07B68174A934272
:1051580003D07B68164A934211D13B6923F48073CC
:105168003B613B6923F400733B613B685B693A69C7
:1051780013433B613B689B693A6913433B617B6816
:105188003A695A607B68FA689A613B685A687B6832
:105198005A637B687A691A621C37BD465DF8047BDE
:1051A800704700BF002C014000400140004401400E
:1051B8000048014080B487B000AF786039600023B0
:1051C800FB6000237B6100233B617B681B6A23F043
:1051D80010027B681A627B681B6A7B617B685B686C
:1051E8003B617B689B69FB60FB6823F0807323F459
:1051F800E043FB60FB6823F44073FB603B681B687B
:105208001B02FA681343FB607B6923F020037B6170
:105218003B689B681B017A6913437B617B68234A5F
:1052280093420DD17B6923F080037B613B68DB6887
:105238001B017A6913437B617B6923F040037B611F
:105248007B681A4A93420BD07B68194A934207D06D
:105258007B68184A934203D07B68174A934213D15C
:105268003B6923F480633B613B6923F400633B6142
:105278003B685B699B003A6913433B613B689B69E8
:105288009B003A6913433B617B683A695A607B68C3
:10529800FA689A613B685A687B689A637B687A699E
:1052A8001A621C37BD465DF8047B7047002C01402C
:1052B80000400140004401400048014080B487B0EC
:1052C80000AF786039600023FB6000237B61002316
:1052D8003B617B681B6A23F480727B681A627B6877
:1052E8001B6A7B617B685B683B617B68DB69FB6091
:1052F800FB6823F4803323F07003FB60FB6823F022
:105308000303FB603B681B68FA681343FB607B6917
:1053180023F400737B613B689B681B027A69134323
:105328007B617B68234A93420DD17B6923F4006338
:105338007B613B68DB681B027A6913437B617B698D
:1053480023F480637B617B681A4A93420BD07B68A5
:10535800194A934207D07B68184A934203D07B6866
:10536800174A934213D13B6923F480533B613B694D
:1053780023F400533B613B685B691B013A691343A3
:105388003B613B689B691B013A6913433B617B683E
:105398003A695A607B68FA68DA613B685A687B68E0
:1053A800DA637B687A691A621C37BD465DF8047B4C
:1053B800704700BF002C01400040014000440140FC
:1053C8000048014080B487B000AF7860396000239E
:1053D8003B610023FB6000237B617B681B6A23F42D
:1053E80080527B681A627B681B6AFB607B685B681B
:1053F8007B617B68DB693B613B6923F0807323F445
:10540800E0433B613B6923F440733B613B681B68A5
:105418001B023A6913433B61FB6823F40053FB60AA
:105428003B689B681B03FA681343FB607B68154A5B
:1054380093420BD07B68144A934207D07B68134A87
:10544800934203D07B68124A934209D17B6923F4C3
:1054580080437B613B685B699B017A6913437B618D
:105468007B687A695A607B683A69DA613B685A688E
:105478007B681A647B68FA681A621C37BD465DF857
:10548800047B7047002C014000400140004401406B
:105498000048014080B487B000AFF860B9607A6016
:1054A80000237B6100233B61FB681B6A3B61FB684F
:1054B8001B6A23F00102FB681A62FB689B697B6127
:1054C8007B6923F0F0037B617B681B017A691343D6
:1054D8007B613B6923F00A033B613A69BB6813436C
:1054E8003B61FB687A699A61FB683A691A621C3702
:1054F800BD465DF8047B704780B487B000AFF860A4
:10550800B9607A6000237B6100233B61FB681B6AFA
:1055180023F01002FB681A62FB689B697B61FB68D9
:105528001B6A3B617B6923F470437B617B681B03C7
:105538007A6913437B613B6923F0A0033B61BB6835
:105548001B013A6913433B61FB687A699A61FB68FE
:105558003A691A621C37BD465DF8047B704700BF84
:1055680080B485B000AF78600B467B800023FB6079
:105578007B689B68FB60FB6823F07003FB607B889B
:1055880043F007039BB21A46FB681343FB607B6832
:10559800FA689A601437BD465DF8047B704700BF0F
:1055A80080B487B000AFF860B9607A603B600023D0
:1055B8007B61FB689B687B617B6923F47F437B612C
:1055C8003B681A027B681A43BB6813437A69134322
:1055D8007B61FB687A699A601C37BD465DF8047B7D
:1055E800704700BF80B487B000AFF860B9607A60D8
:1055F80000237B61BB68012202FA03F37B61FB682D
:105608001A6A7B69DB431A40FB681A62FB681A6AEC
:10561800BB68796801FA03F31A43FB681A621C37FE
:10562800BD465DF8047B704780B592B000AF7860E6
:1056380000233B640023FB637B681B6803F480330F
:10564800002B00F0F680002387F84730604BDB69B9
:1056580003F08053002B0ED15D4A5D4BDB6943F0AC
:105668008053D3615A4BDB6903F08053BB60BB683E
:10567800012387F84730574B1B6803F48073002BCE
:1056880018D1544A534B1B6843F480731360FCF7DA
:10569800C1FC386408E0FCF7BDFC02463B6CD31A39
:1056A800642B01D903236AE14A4B1B6803F4807316
:1056B800002BF0D0464B1B6A03F44073FB63FB6B73
:1056C800002B00F0A3807B685B6803F44072FB6BDF
:1056D8009A4200F09B803E4B1B6A23F44073FB63A5
:1056E8004FF48033BB63BB6B93FAA3F37B637B6B91
:1056F800B3FA83F31A46384B13449B001A46012326
:1057080013604FF480333B633B6B93FAA3F3FB6264
:10571800FB6AB3FA83F31A462F4B13449B001A46CD
:10572800002313602A4AFB6B1362FB6B03F001032F
:10573800002B6BD0FCF76EFC38640AE0FCF76AFCBF
:1057480002463B6CD31A41F28832934201D90323B3
:1057580015E10223BB62BB6A93FAA3F37B627B6AFF
:10576800B3FA83F3DBB243F04003DBB2DBB25B098D
:10577800DBB2012B02D1164B1B6831E002233B62DE
:105788003B6A93FAA3F3FB61FB69B3FA83F3DBB2D9
:1057980043F04003DBB2DBB25B09DBB2022B02D180
:1057A8000B4B1B6A1CE00223BB61BB6993FAA3F392
:1057B8007B617B69B3FA83F3DBB243F04003DBB26E
:1057C800DBB25B09DBB2042B08D1014B5B6807E055
:1057D8000010024000700040008190106A4B5B6A24
:1057E80002223A613A6992FAA2F2FA60FA68B2FAC7
:1057F80082F2D2B242F04002D2B2D2B202F01F021A
:10580800012101FA02F21340002B97D05E495E4B4A
:105818001B6A23F440727B685B6813430B6297F83A
:105828004730012B05D1584A574BDB6923F0805389
:10583800D3617B681B6803F00103002B08D0524931
:10584800514B1B6B23F003027B689B6813430B636C
:105858007B681B6803F02003002B08D04A494A4B99
:105868001B6B23F010027B68DB6813430B637B68B8
:105878001B6803F40033002B08D04349424B5B6894
:1058880023F480027B681B6B13434B607B681B68A7
:1058980003F04003002B08D03B493B4B1B6B23F024
:1058A80020027B681B6913430B637B681B6803F446
:1058B8000043002B08D03449334B1B6B23F04002C4
:1058C8007B685B6913430B637B681B6803F4007395
:1058D800002B08D02C492C4B5B6823F400027B6812
:1058E800DB6913434B607B681B6803F08003002B64
:1058F80008D02549244BDB6A23F4F8727B689B693E
:105908001343CB627B681B6803F48053002B08D0D9
:105918001D491D4B1B6B23F480727B681B6A134364
:105928000B637B681B6803F48023002B08D016499F
:10593800154B1B6B23F480627B685B6A13430B6314
:105948007B681B6803F40023002B08D00E490E4B1C
:105958001B6B23F400627B689B6A13430B637B68B1
:105968001B6803F48013002B08D00749064B1B6BF8
:1059780023F400527B68DB6A13430B630023184649
:105988004837BD4680BD00BF0010024080B48BB0D0
:1059980000AF87ED010AD7ED017A9FED3E7A67EEF9
:1059A800877AC7ED077AD7ED077AFDEEE77A17EE23
:1059B800903A7B62D7ED017AF5EEC07AF1EE10FAF3
:1059C80002D57B6A013B7B627B6A07EE903AF8EE70
:1059D800E77A97ED077A77EE677AC7ED077AD7ED1A
:1059E800077A9FED2D7A67EE877AC7ED087AD7EDAB
:1059F800087A9FED297AF4EEC77AF1EE10FA07DB00
:105A0800D7ED087A9FED247A77EEC77AC7ED087A42
:105A1800D7ED087AFCEEE77AC7ED007A3B889BB2AF
:105A2800C3F308037B837B8B07EE903AF8EE677A23
:105A380097ED087A77EE677AC7ED057A7B8B174A78
:105A48009B0013441B683B617B8B0133134A9B000B
:105A580013441B68FB60B7EE007AD7ED057A37EE82
:105A6800677AD7ED047A27EE277AD7ED056AD7ED5E
:105A7800037A66EEA77A77EE277AC7ED027ABB68D3
:105A880007EE903AB0EE670A2C37BD465DF8047B06
:105A9800704700BF83F9223E00000044D060000830
:105AA80080B491B000AF87ED030AB8607960D7ED94
:105AB800037A9FED997A67EE877AC7ED0E7AD7ED6C
:105AC8000E7AFDEEE77A17EE903AFB63D7ED0E7A81
