:020000040800F2
:1000000000400020B15100080152000801520008D0
:1000100001520008015200080152000800000000CF
:10002000000000000000000000000000F1280008AF
:100030000152000800000000012B0008950500088F
:100040000152000801520008015200080152000844
:100050000152000801520008015200080152000834
:100060000152000801520008015200080152000824
:100070000152000801520008015200080152000814
:100080000152000801520008015200080152000804
:1000900001520008015200080152000801520008F4
:1000A00001520008A1050008015200080152000891
:1000B000015200080000000000000000015200088A
:1000C000015200080152000801520008000000001F
:1000D00001520008015200080152000801520008B4
:1000E00001520008015200080152000800000000FF
:1000F0000000000000000000000000000000000000
:100100000000000000000000000000000152000894
:100110000000000000000000015200080000000084
:1001200000000000000000000000000000000000CF
:1001300000000000000000000000000000000000BF
:1001400001520008015200080000000000000000F9
:10015000000000000000000000000000000000009F
:100160000152000801520008015200080152000823
:100170000152000800000000000000000000000024
:0801800000000000015200081C
:1001900010B5054C237833B9044B13B10448AFF3C1
:1001A00000800123237010BD080000200000000023
:1001B00098520008084B10B51BB108480849AFF326
:1001C00000800848036803B910BD074B002BFBD023
:1001D000BDE81040184700BF00000000985200081A
:1001E0000C000020080000200000000080B582B054
:1001F00000AF1E4A1D4B9B6943F0010393611B4BEB
:100200009B6903F001037B607B68032000F002FB25
:100210006FF00B000021002200F006FB6FF00A00D7
:100220000021002200F000FB6FF0090000210022F5
:1002300000F0FAFA6FF004000021002200F0F4FA56
:100240006FF003000021002200F0EEFA6FF00100D1
:100250000F21002200F0E8FA4FF0FF300F210022BA
:1002600000F0E2FA0837BD4680BD00BF0010024032
:1002700080B58CB000AF78600023FB620023BB62C6
:1002800019207968002200F0CFFA192000F0E8FA6E
:100290001E4A1E4B9B6943F4006393611B4B9B6991
:1002A00003F40063FB60FB6807F1140207F110031D
:1002B0001046194601F070FE01F04CFEF862FB6A30
:1002C000134AA2FB03239B0C013BBB62114B124A56
:1002D0001A60104B40F2E732DA600E4ABB6A536094
:1002E0000C4B00221A610B4B00229A60094802F065
:1002F0000BF80346002B04D1064802F03BF80346F6
:1003000000E0012318463037BD4680BD0010024092
:1003100083DE1B43402B0020002C014080B582B0BF
:1003200000AF786009484FF40051012201F0D4FF7A
:10033000642002F0C7FF05484FF40051002201F08D
:10034000CBFF642002F0BEFFECE700BF00040048D2
:1003500080B582B002AF00F065F900F015F800F04A
:100360005BF800F033F90123009300230193044864
:1003700004498022002302F04FFE02F0D9FFFEE77D
:100380001D030008B052000880B590B000AF0223F2
:10039000BB610123BB621023FB6202237B6300234A
:1003A000BB634FF46013FB6307F11803184600F0BA
:1003B0008DFA0346002B01D000F09EF80F237B60DE
:1003C0000223BB600023FB604FF480633B6100238A
:1003D0007B613B1D1846022101F044FB0346002BC4
:1003E00001D000F089F801F0A9FD0246094BA3FBFA
:1003F00002239B09184600F041FA042000F04AFA53
:100400004FF0FF300F21002200F00EFA4037BD46BA
:1004100080BD00BFD34D621080B58AB000AF2A4ABC
:10042000294B5B6943F400235361274B5B6903F459
:1004300000233B613B69244A234B5B6943F48003FF
:100440005361214B5B6903F48003FB60FB681E4A28
:100450001D4B5B6943F4003353611B4B5B6903F431
:100460000033BB60BB68184A174B5B6943F48023B9
:100470005361154B5B6903F480237B607B681348F1
:100480004FF40051002201F027FF4FF400537B612D
:100490000F4BBB610023FB6107F114030D481946A4
:1004A00001F0AAFD4FF400537B610123BB610023DF
:1004B000FB6100233B6207F114030448194601F075
:1004C0009BFD2837BD4680BD001002400004004857
:1004D000000021100008004880B582B000AF7860AD
:1004E0007B681B68034A934201D100F0B1F80837DA
:1004F000BD4680BD002C014080B400AFFEE700BFC8
:1005000080B400AF1F4A1F4BD3F8883043F4700308
:10051000C2F888301C4A1C4B1B6843F0010313606F
:100520001949194B5A68194B13404B60164A164B20
:100530001B6823F0847323F480331360124A124B38
:100540001B6823F4802313600F4A0F4B5B6823F46E
:10055000FE0353600C4A0C4BDB6A23F00F03D3629B
:100560000949094B1A6B0A4B13400B63064B0022D7
:100570009A60044B4FF000629A60BD465DF8047BC0
:10058000704700BF00ED00E0001002400CC07FF893
:10059000CCFC00FF80B500AF02F0E4FA80BD00BFE4
:1005A00080B500AF014801F001FF80BD402B002065
:1005B00080B500AF034804F0C5F9034804F0C2F960
:1005C00080BD00BFBC520008F052000880B500AFEB
:1005D000074B1A68064B1B6810461946054A064B1E
:1005E00003F046FE4FF0805003F07EFE80BD00BF5A
:1005F00000000020D4530008B105000880B483B087
:1006000000AF78600C37BD465DF8047B704700BFD3
:1006100080B483B000AF78600C37BD465DF8047BD2
:10062000704700BF80B500AF084A084B1B6843F015
:1006300010031360032000F0EDF80020FFF718FE10
:10064000FFF7D4FD0023184680BD00BF0020024004
:1006500080B400AF044B1B680133034A1360BD46EE
:100660005DF8047B704700BF802B002080B400AF92
:10067000034B1B681846BD465DF8047B704700BFFE
:10068000802B002080B485B000AF78607B6803F0D9
:100690000703FB600C4BDB68BB60BA684FF6FF03D7
:1006A0001340BB60FB681A02BB68134343F0BF638F
:1006B00043F40033BB60044ABB68D3601437BD46C3
:1006C0005DF8047B704700BF00ED00E080B400AF30
:1006D000044BDB6803F4E0631B0A1846BD465DF873
:1006E000047B704700ED00E080B483B000AF0346A8
:1006F000FB71084997F907305B09FA7902F01F028C
:10070000012000FA02F241F823200C37BD465DF8C3
:10071000047B704700E100E080B483B000AF034683
:100720003960FB7197F90730002B0BDA0D49FB7923
:1007300003F00F03043B3A68D2B21201D2B20B4469
:100740001A7609E0084997F907303A68D2B21201DF
:10075000D2B20B4483F800230C37BD465DF8047B0E
:10076000704700BF00ED00E000E100E080B489B018
:1007700000AFF860B9607A60FB6803F00703FB61C3
:10078000FB69C3F10703042B28BF0423BB61FB698A
:100790000433062B02D9FB69033B00E000237B6195
:1007A000BB69012202FA03F35A1EBB681A407B6937
:1007B0009A407B69012101FA03F3591E7B680B40C3
:1007C000134318462437BD465DF8047B704700BFCD
:1007D00080B582B000AF78607B68013BB3F1807F69
:1007E00001D301230FE00A4A7B68013B53604FF0BD
:1007F000FF300F21FFF790FF054B00229A60044B5A
:1008000007221A60002318460837BD4680BD00BF86
:1008100010E000E080B582B000AF78607868FFF744
:1008200031FF0837BD4680BD80B586B000AF0346B6
:10083000B9607A60FB7300237B61FFF747FF786143
:100840007869B9687A68FFF791FF024697F90F3027
:1008500018461146FFF760FF1837BD4680BD00BF40
:1008600080B582B000AF0346FB7197F90730184698
:10087000FFF73AFF0837BD4680BD00BF80B582B0A4
:1008800000AF78607868FFF7A3FF03461846083783
:10089000BD4680BD80B483B000AF78607B68042B18
:1008A00006D1094A084B1B6843F00403136005E0B6
:1008B000054A054B1B6823F0040313600C37BD4643
:1008C0005DF8047B704700BF10E000E080B5ADF537
:1008D000007D00AF3B1D18600023C7F8F8313B1DB9
:1008E0001B681B6803F00103002B00F0CC81AF4BA9
:1008F0005B6803F00C03042B0BD0AC4B5B6803F07C
:100900000C03082B79D1A94B5B6803F48033002BCF
:1009100073D04FF40033C7F8F431D7F8F43193FAB9
:10092000A3F3C7F8F031D7F8F031B3FA83F3DBB2B1
:1009300043F02003DBB2DBB25B09DBB2012B02D157
:100940009A4B1B6835E04FF40033C7F8EC31D7F809
:10095000EC3193FAA3F3C7F8E831D7F8E831B3FAEA
:1009600083F3DBB243F02003DBB2DBB25B09DBB223
:10097000022B02D18D4B1B6A1BE04FF40033C7F8EA
:10098000E431D7F8E43193FAA3F3C7F8E031D7F8AC
:10099000E031B3FA83F3DBB243F02003DBB2DBB226
:1009A0005B09DBB2042B02D1804B5B6801E07F4B1B
:1009B0005B6A4FF40032C7F8DC21D7F8DC2192FAE9
:1009C000A2F2C7F8D821D7F8D821B2FA82F2D2B26F
:1009D00042F02002D2B2D2B202F01F02012101FA8B
:1009E00002F21340002B07D03B1D1B685B68002BF5
:1009F00002D1012301F031B845E13B1D1B685B6862
:100A0000B3F5803F06D1694A684B1B6843F48033D5
:100A1000136030E03B1D1B685B68002B0CD1634A00
:100A2000624B1B6823F480331360604A5F4B1B6882
:100A300023F4802313601EE03B1D1B685B68B3F545
:100A4000A02F0CD1594A594B1B6843F480231360E3
:100A5000564A564B1B6843F4803313600BE0534AED
:100A6000524B1B6823F480331360504A4F4B1B6872
:100A700023F4802313604D494C4BDB6A23F00F02B3
:100A80003B1D1B689B681343CB623B1D1B685B6867
:100A9000002B7BD0FFF7EAFDC7F8F8010AE0FFF76B
:100AA000E5FD0246D7F8F831D31A642B02D90323A7
:100AB00000F0D3BF4FF40033C7F8D431D7F8D431A6
:100AC00093FAA3F3C7F8D031D7F8D031B3FA83F350
:100AD000DBB243F02003DBB2DBB25B09DBB2012BFC
:100AE00002D1324B1B6835E04FF40033C7F8CC31EC
:100AF000D7F8CC3193FAA3F3C7F8C831D7F8C83187
:100B0000B3FA83F3DBB243F02003DBB2DBB25B0961
:100B1000DBB2022B02D1254B1B6A1BE04FF40033E2
:100B2000C7F8C431D7F8C43193FAA3F3C7F8C0317A
:100B3000D7F8C031B3FA83F3DBB243F02003DBB262
:100B4000DBB25B09DBB2042B02D1184B5B6801E01E
:100B5000164B5B6A4FF40032C7F8BC21D7F8BC21B2
:100B600092FAA2F2C7F8B821D7F8B821B2FA82F205
:100B7000D2B242F02002D2B2D2B202F01F02012160
:100B800001FA02F21340002B89D07CE0FFF76EFDE2
:100B9000C7F8F8010CE0FFF769FD0246D7F8F83115
:100BA000D31A642B04D9032300F057BF001002406E
:100BB0004FF40033C7F8B431D7F8B43193FAA3F344
:100BC000C7F8B031D7F8B031B3FA83F3DBB243F0F2
:100BD0002003DBB2DBB25B09DBB2012B02D1B74BE6
:100BE0001B6835E04FF40033C7F8AC31D7F8AC31AF
:100BF00093FAA3F3C7F8A831D7F8A831B3FA83F36F
:100C0000DBB243F02003DBB2DBB25B09DBB2022BC9
:100C100002D1AA4B1B6A1BE04FF40033C7F8A43182
:100C2000D7F8A43193FAA3F3C7F8A031D7F8A031CD
:100C3000B3FA83F3DBB243F02003DBB2DBB25B0930
:100C4000DBB2042B02D19D4B5B6801E09B4B5B6ADE
:100C50004FF40032C7F89C21D7F89C2192FAA2F2F7
:100C6000C7F89821D7F89821B2FA82F2D2B242F0AE
:100C70002002D2B2D2B202F01F02012101FA02F226
:100C80001340002B87D13B1D1B681B6803F0020338
:100C9000002B00F0D781894B5B6803F00C03002B1D
:100CA0000DD0864B5B6803F00C03082B40F090805E
:100CB000824B5B6803F48033002B40F08980022371
:100CC000C7F89431D7F8943193FAA3F3C7F8903169
:100CD000D7F89031B3FA83F3DBB243F02003DBB2F1
:100CE000DBB25B09DBB2012B02D1744B1B6833E032
:100CF0000223C7F88C31D7F88C3193FAA3F3C7F8E5
:100D00008831D7F88831B3FA83F3DBB243F020039C
:100D1000DBB2DBB25B09DBB2022B02D1674B1B6A91
:100D20001AE00223C7F88431D7F8843193FAA3F389
:100D3000C7F88031D7F88031B3FA83F3DBB243F0E0
:100D40002003DBB2DBB25B09DBB2042B02D15B4BCD
:100D50005B6801E0594B5B6A0222C7F87C21D7F837
:100D60007C2192FAA2F2C7F87821D7F87821B2FA5A
:100D700082F2D2B242F02002D2B2D2B202F01F020C
:100D8000012101FA02F21340002B07D03B1D1B6822
:100D90001B69012B02D0012300F05FBE4748474B7F
:100DA0001B6823F0F8023B1D1B685969F823C7F83C
:100DB0007431D7F8743193FAA3F3C7F87031D7F8C8
:100DC0007031B3FA83F301FA03F31343036039E19B
:100DD0003B1D1B681B69002B00F0A8800123C7F88E
:100DE0006C31D7F86C3193FAA3F3C7F86831D7F8B0
:100DF0006831B3FA83F303F1845303F584139B0042
:100E00001A4601231360FFF731FCC7F8F8010AE026
:100E1000FFF72CFC0246D7F8F831D31A022B02D97F
:100E2000032300F01ABE0223C7F86431D7F86431F7
:100E300093FAA3F3C7F86031D7F86031B3FA83F3BC
:100E4000DBB243F02003DBB2DBB25B09DBB2012B88
:100E500002D11A4B1B6835E00223C7F85C31D7F882
:100E60005C3193FAA3F3C7F85831D7F85831B3FA85
:100E700083F3DBB243F02003DBB2DBB25B09DBB20E
:100E8000022B02D10D4B1B6A1CE00223C7F8543120
:100E9000D7F8543193FAA3F3C7F85031D7F850314B
:100EA000B3FA83F3DBB243F02003DBB2DBB25B09BE
:100EB000DBB2042B04D1014B5B6803E0001002405D
:100EC000C64B5B6A0222C7F84C21D7F84C2192FA34
:100ED000A2F2C7F84821D7F84821B2FA82F2D2B27A
:100EE00042F02002D2B2D2B202F01F02012101FA76
:100EF00002F21340002B8BD0B848B84B1B6823F08C
:100F0000F8023B1D1B685969F823C7F84431D7F82C
:100F1000443193FAA3F3C7F84031D7F84031B3FA1C
:100F200083F301FA03F3134303608BE00123C7F853
:100F30003C31D7F83C3193FAA3F3C7F83831D7F8EE
:100F40003831B3FA83F303F1845303F584139B0020
:100F50001A4600231360FFF789FBC7F8F8010AE07F
:100F6000FFF784FB0246D7F8F831D31A022B02D9D7
:100F7000032300F072BD0223C7F83431D7F83431AF
:100F800093FAA3F3C7F83031D7F83031B3FA83F3CB
:100F9000DBB243F02003DBB2DBB25B09DBB2012B37
:100FA00002D18E4B1B6833E00223C7F82C31D7F8EF
:100FB0002C3193FAA3F3C7F82831D7F82831B3FAC4
:100FC00083F3DBB243F02003DBB2DBB25B09DBB2BD
:100FD000022B02D1814B1B6A1AE00223C7F824318D
:100FE000D7F8243193FAA3F3C7F82031D7F820318A
:100FF000B3FA83F3DBB243F02003DBB2DBB25B096D
:10100000DBB2042B02D1754B5B6801E0734B5B6A6A
:101010000222C7F81C21D7F81C2192FAA2F2C7F8C5
:101020001821D7F81821B2FA82F2D2B242F0200287
:10103000D2B2D2B202F01F02012101FA02F2134031
:10104000002B8DD13B1D1B681B6803F00803002B90
:1010500000F040813B1D1B689B69002B00F09680CF
:101060000123C7F81431D7F8143193FAA3F3C7F862
:101070001031D7F81031B3FA83F31A46584B1344A2
:101080009B001A4601231360FFF7F0FAC7F8F80136
:101090000AE0FFF7EBFA0246D7F8F831D31A022B31
:1010A00002D9032300F0D9BC0223C7F80C31D7F8CA
:1010B0000C3193FAA3F3C7F80831D7F80831B3FA23
:1010C00083F3DBB243F06003DBB2DBB25B09DBB27C
:1010D000012B02D1414B1B6839E00223C7F80431D0
:1010E000D7F8043193FAA3F207F580731A6007F575
:1010F00080731B68B3FA83F3DBB243F06003DBB2A7
:10110000DBB25B09DBB2022B02D1344B1B6A1EE05F
:1011100007F1FC0302221A6007F1FC031B6893FA33
:10112000A3F207F1F8031A6007F1F8031B68B3FA9A
:1011300083F3DBB243F06003DBB2DBB25B09DBB20B
:10114000042B02D1254B5B6801E0244B5B6A07F15D
:10115000F4020221116007F1F402126892FAA2F17E
:1011600007F1F002116007F1F0021268B2FA82F2A0
:10117000D2B242F06002D2B2D2B202F01F0201211A
:1011800001FA02F21340002B83D0A3E007F1EC0335
:1011900001221A6007F1EC031B6893FAA3F207F12E
:1011A000E8031A6007F1E8031B68B3FA83F31A46F1
:1011B0000B4B13449B001A4600231360FFF756FAAB
:1011C000C7F8F8010EE0FFF751FA0246D7F8F831F8
:1011D000D31A022B06D9032300F03FBC00100240B3
:1011E0002081901007F1E40302221A6007F1E40362
:1011F0001B6893FAA3F207F1E0031A6007F1E0031A
:101200001B68B3FA83F3DBB243F06003DBB2DBB2FB
:101210005B09DBB2012B02D1A64B1B683BE007F157
:10122000DC0302221A6007F1DC031B6893FAA3F2C5
:1012300007F1D8031A6007F1D8031B68B3FA83F3E8
:10124000DBB243F06003DBB2DBB25B09DBB2022B43
:1012500002D1984B1B6A1EE007F1D40302221A60E8
:1012600007F1D4031B6893FAA3F207F1D0031A60C5
:1012700007F1D0031B68B3FA83F3DBB243F06003DA
:10128000DBB2DBB25B09DBB2042B02D1894B5B68BA
:1012900001E0884B5B6A07F1CC020221116007F183
:1012A000CC02126892FAA2F107F1C802116007F1AC
:1012B000C8021268B2FA82F2D2B242F06002D2B22E
:1012C000D2B202F01F02012101FA02F21340002BF8
:1012D0007FF479AF3B1D1B681B6803F00403002BF0
:1012E00000F0A181002387F8FF31724BDB6903F026
:1012F0008053002B12D16F4A6E4BDB6943F0805351
:10130000D3616C4BDB6903F0805207F10C031A6068
:1013100007F10C031B68012387F8FF31664B1B683C
:1013200003F48073002B1AD1634A634B1B6843F4A8
:1013300080731360FFF79AF9C7F8F80109E0FFF727
:1013400095F90246D7F8F831D31A642B01D9032353
:1013500083E3594B1B6803F48073002BEFD03B1DD4
:101360001B68DB68012B06D1524A524B1B6A43F0C3
:10137000010313622FE03B1D1B68DB68002B0CD1BF
:101380004C4A4C4B1B6A23F001031362494A494BF8
:101390001B6A23F0040313621DE03B1D1B68DB681E
:1013A000052B0CD1434A434B1B6A43F004031362E1
:1013B000404A404B1B6A43F0010313620BE03D4A75
:1013C0003C4B1B6A23F0010313623A4A394B1B6AF8
:1013D00023F0040313623B1D1B68DB68002B00F045
:1013E0008F80FFF743F9C7F8F8010BE0FFF73EF9EC
:1013F0000246D7F8F831D31A41F28832934201D924
:1014000003232AE307F1C40302221A6007F1C4038D
:101410001B6893FAA3F207F1C0031A6007F1C00337
:101420001B68B3FA83F3DBB243F04003DBB2DBB2F9
:101430005B09DBB2012B02D11E4B1B6840E007F1B8
:10144000BC0302221A6007F1BC031B6893FAA3F2E3
:1014500007F1B8031A6007F1B8031B68B3FA83F306
:10146000DBB243F04003DBB2DBB25B09DBB2022B41
:1014700002D1104B1B6A23E007F1B40302221A6069
:1014800007F1B4031B6893FAA3F207F1B0031A60E3
:1014900007F1B0031B68B3FA83F3DBB243F04003F8
:1014A000DBB2DBB25B09DBB2042B07D1014B5B681B
:1014B00006E000BF0010024000700040A54B5B6AD0
:1014C00007F1AC020221116007F1AC02126892FA36
:1014D000A2F107F1A802116007F1A8021268B2FA9E
:1014E00082F2D2B242F04002D2B2D2B202F01F0275
:1014F000012101FA02F21340002B3FF477AF88E09C
:10150000FFF7B4F8C7F8F8010BE0FFF7AFF80246B1
:10151000D7F8F831D31A41F28832934201D9032324
:101520009BE207F1A40302221A6007F1A4031B68DF
:1015300093FAA3F207F1A0031A6007F1A0031B6856
:10154000B3FA83F3DBB243F04003DBB2DBB25B09F7
:10155000DBB2012B02D17F4B1B683BE007F19C0300
:1015600002221A6007F19C031B6893FAA3F207F1A9
:1015700098031A6007F198031B68B3FA83F3DBB290
:1015800043F04003DBB2DBB25B09DBB2022B02D1DA
:10159000704B1B6A1EE007F1940302221A6007F1E8
:1015A00094031B6893FAA3F207F190031A6007F102
:1015B00090031B68B3FA83F3DBB243F04003DBB262
:1015C000DBB25B09DBB2042B02D1624B5B6801E04A
:1015D000604B5B6A07F18C020221116007F18C02FB
:1015E000126892FAA2F107F18802116007F18802ED
:1015F0001268B2FA82F2D2B242F04002D2B2D2B251
:1016000002F01F02012101FA02F21340002B7FF4C5
:101610007CAF97F8FF31012B05D14E4A4D4BDB696A
:1016200023F08053D3613B1D1B68DB69002B00F066
:101630001382484B5B6803F00C03082B00F0088210
:101640003B1D1B68DB69022B40F05C8107F18403C2
:101650004FF080721A6007F184031B6893FAA3F2BB
:1016600007F180031A6007F180031B68B3FA83F364
:1016700003F1845303F584139B001A46002313607F
:10168000FEF7F4FFC7F8F80109E0FEF7EFFF0246A6
:10169000D7F8F831D31A022B01D90323DDE107F182
:1016A0007C034FF000721A6007F17C031B6893FA09
:1016B000A3F207F178031A6007F178031B68B3FA05
:1016C00083F3DBB243F02003DBB2DBB25B09DBB2B6
:1016D000012B02D11F4B1B6840E007F174034FF050
:1016E00000721A6007F174031B6893FAA3F207F102
:1016F00070031A6007F170031B68B3FA83F3DBB25F
:1017000043F02003DBB2DBB25B09DBB2022B02D178
:10171000104B1B6A22E007F16C034FF000721A6055
:1017200007F16C031B6893FAA3F207F168031A60D0
:1017300007F168031B68B3FA83F3DBB243F02003BD
:10174000DBB2DBB25B09DBB2042B05D1014B5B687A
:1017500004E000BF00100240BE4B5B6A07F1640268
:101760004FF00071116007F16402126892FAA2F161
:1017700007F16002116007F160021268B2FA82F2AA
:10178000D2B242F02002D2B2D2B202F01F02012144
:1017900001FA02F21340002B7FF477AFAD48AD4B56
:1017A0005B6823F474123B1D1B68596A3B1D1B6860
:1017B0001B6A0B431343436007F15C034FF08072D5
:1017C0001A6007F15C031B6893FAA3F207F1580350
:1017D0001A6007F158031B68B3FA83F303F18453CB
:1017E00003F584139B001A4601231360FEF73EFFA6
:1017F000C7F8F80109E0FEF739FF0246D7F8F831DB
:10180000D31A022B01D9032327E107F154034FF028
:1018100000721A6007F154031B6893FAA3F207F1F0
:1018200050031A6007F150031B68B3FA83F3DBB26D
:1018300043F02003DBB2DBB25B09DBB2012B02D148
:10184000844B1B683DE007F14C034FF000721A60B7
:1018500007F14C031B6893FAA3F207F148031A60DF
:1018600007F148031B68B3FA83F3DBB243F02003AC
:10187000DBB2DBB25B09DBB2022B02D1754B1B6A18
:101880001FE007F144034FF000721A6007F14403B0
:101890001B6893FAA3F207F140031A6007F14003B3
:1018A0001B68B3FA83F3DBB243F02003DBB2DBB295
:1018B0005B09DBB2042B02D1664B5B6801E0654B30
:1018C0005B6A07F13C024FF00071116007F13C02C6
:1018D000126892FAA2F107F13802116007F138029A
:1018E0001268B2FA82F2D2B242F02002D2B2D2B27E
:1018F00002F01F02012101FA02F21340002B3FF413
:101900007AAFA9E007F134034FF080721A6007F153
:1019100034031B6893FAA3F207F130031A6007F14E
:1019200030031B68B3FA83F303F1845303F5841384
:101930009B001A4600231360FEF798FEC7F8F801D3
:1019400009E0FEF793FE0246D7F8F831D31A022BCE
:1019500001D9032381E007F12C034FF000721A60D4
:1019600007F12C031B6893FAA3F207F128031A600E
:1019700007F128031B68B3FA83F3DBB243F02003BB
:10198000DBB2DBB25B09DBB2012B02D1314B1B684E
:101990003DE007F124034FF000721A6007F12403C1
:1019A0001B6893FAA3F207F120031A6007F12003E2
:1019B0001B68B3FA83F3DBB243F02003DBB2DBB284
:1019C0005B09DBB2022B02D1224B1B6A1FE007F13D
:1019D0001C034FF000721A6007F11C031B6893FA96
:1019E000A3F207F118031A6007F118031B68B3FA92
:1019F00083F3DBB243F02003DBB2DBB25B09DBB283
:101A0000042B02D1134B5B6801E0124B5B6A07F1B8
:101A100014024FF00071116007F11402126892FA7B
:101A2000A2F107F11002116007F110021268B2FA78
:101A300082F2D2B242F02002D2B2D2B202F01F023F
:101A4000012101FA02F21340002B7FF47AAF03E088
:101A5000012302E0001002400023184607F500773A
:101A6000BD4680BD80B59EB000AF78603960002370
:101A70007B67A54B1B6803F007023B689A4210D2B4
:101A8000A149A14B1B6823F007023B6813430B607D
:101A90009D4B1B6803F007023B689A4201D001236B
:101AA000D5E17B681B6803F00203002B08D097493F
:101AB000964B5B6823F0F0027B689B6813434B6096
:101AC0007B681B6803F00103002B00F06D817B68CD
:101AD0005B68012B5DD14FF400333B673B6F93FA9A
:101AE000A3F3FB66FB6EB3FA83F3DBB243F0200390
:101AF000DBB2DBB25B09DBB2012B02D1834B1B688B
:101B00002DE04FF40033BB66BB6E93FAA3F37B6604
:101B10007B6EB3FA83F3DBB243F02003DBB2DBB2BC
:101B20005B09DBB2022B02D1784B1B6A17E04FF442
:101B300000333B663B6E93FAA3F3FB65FB6DB3FA90
:101B400083F3DBB243F02003DBB2DBB25B09DBB231
:101B5000042B02D16D4B5B6801E06C4B5B6A4FF468
:101B60000032BA65BA6D92FAA2F27A657A6DB2FA6B
:101B700082F2D2B242F02002D2B2D2B202F01F02FE
:101B8000012101FA02F21340002B40F0C180012331
:101B90005DE17B685B68022B5CD14FF000733B65B5
:101BA0003B6D93FAA3F3FB64FB6CB3FA83F3DBB2F4
:101BB00043F02003DBB2DBB25B09DBB2012B02D1C5
:101BC000524B1B682DE04FF00073BB64BB6C93FA63
:101BD000A3F37B647B6CB3FA83F3DBB243F02003A3
:101BE000DBB2DBB25B09DBB2022B02D1474B1B6AD3
:101BF00017E04FF000733B643B6C93FAA3F3FB6375
:101C0000FB6BB3FA83F3DBB243F02003DBB2DBB24E
:101C10005B09DBB2042B02D13C4B5B6801E03B4B20
:101C20005B6A4FF00072BA63BA6B92FAA2F27A63FF
:101C30007A6BB2FA82F2D2B242F02002D2B2D2B2BF
:101C400002F01F02012101FA02F21340002B5FD1C2
:101C50000123FCE002233B633B6B93FAA3F3FB629B
:101C6000FB6AB3FA83F3DBB243F02003DBB2DBB2EF
:101C70005B09DBB2012B02D1244B1B682BE0022352
:101C8000BB62BB6A93FAA3F37B627B6AB3FA83F30A
:101C9000DBB243F02003DBB2DBB25B09DBB2022B29
:101CA00002D11A4B1B6A16E002233B623B6A93FA8D
:101CB000A3F3FB61FB69B3FA83F3DBB243F02003C8
:101CC000DBB2DBB25B09DBB2042B02D10F4B5B68EA
:101CD00001E00E4B5B6A0222BA61BA6992FAA2F283
:101CE0007A617A69B2FA82F2D2B242F02002D2B2BA
:101CF000D2B202F01F02012101FA02F21340002BBE
:101D000006D10123A3E000BF0020024000100240E2
:101D10005149514B5B6823F003027B685B681343B6
:101D20004B60FEF7A3FC78677B685B68012B12D1E0
:101D30000AE0FEF79BFC02467B6FD31A41F2883221
:101D4000934201D9032382E0434B5B6803F00C0309
:101D5000042BEED128E07B685B68022B12D10AE0ED
:101D6000FEF784FC02467B6FD31A41F2883293421D
:101D700001D903236BE0384B5B6803F00C03082B9D
:101D8000EED111E00AE0FEF771FC02467B6FD31A38
:101D900041F28832934201D9032358E02E4B5B680D
:101DA00003F00C03002BEED12C4B1B6803F0070251
:101DB0003B689A4210D92949284B1B6823F0070237
:101DC0003B6813430B60254B1B6803F007023B681D
:101DD0009A4201D001233AE07B681B6803F00403B8
:101DE000002B08D01C491C4B5B6823F4E0627B6825
:101DF000DB6813434B607B681B6803F00803002B10
:101E000009D01549144B5B6823F460527B681B6949
:101E1000DB0013434B6000F027F801460E4B5B6874
:101E200003F0F002F0233B613B6993FAA3F3FB60FC
:101E3000FB68B3FA83F322FA03F3094AD35C21FA6D
:101E400003F3084A13600020FEF712FA0023184635
:101E50007837BD4680BD00BF001002400020024020
:101E6000905300080000002080B48BB000AF002326
:101E7000FB610023BB6100237B6200237B610023A5
:101E80003B62294B5B68FB61FB6903F00C03042B8D
:101E900002D0082B03D03CE0244B3B623CE0FB69C2
:101EA00003F470124FF470133B613B6993FAA3F390
:101EB000FB60FB68B3FA83F322FA03F31C4AD35C9A
:101EC0007B61194BDB6A03F00F020F23BB60BB6819
:101ED00093FAA3F37B607B68B3FA83F322FA03F3EC
:101EE000144AD35CBB61FB6903F48033002B08D038
:101EF0000E4ABB69B2FBF3F37A6902FB03F37B6220
:101F000004E07B690C4A02FB03F37B627B6A3B6261
:101F100002E0064B3B6200BF3B6A18462C37BD46C9
:101F20005DF8047B704700BF0010024000127A0089
:101F3000A8530008B853000800093D0080B400AF62
:101F4000034B1B681846BD465DF8047B704700BF15
:101F50000000002080B582B000AFFFF7EFFF014620
:101F60000B4B5B6803F460524FF460537B607B68FB
:101F700093FAA3F33B603B68B3FA83F322FA03F3CB
:101F8000044AD35C21FA03F318460837BD4680BDE6
:101F900000100240A053000880B483B000AF786006
:101FA00039607B680F221A60114B5B6803F00302F3
:101FB0007B685A600E4B5B6803F0F0027B689A60A6
:101FC0000B4B5B6803F4E0627B68DA60084B5B688C
:101FD00003F46053DA087B681A61064B1B6803F050
:101FE00007023B681A600C37BD465DF8047B7047FA
:101FF000001002400020024080B487B000AF78603B
:10200000396000237B610023FB6000233B614AE1D0
:102010003B681A687B69012101FA03F31340FB60F6
:10202000FB68002B00F03C813B685B68022B03D00F
:102030003B685B68122B22D17B69DA087B68083227
:1020400053F822303B617B6903F007039B001A467B
:102050000F239340DB433A6913403B613B681B69A4
:102060007A6902F00702920093403A6913433B6198
:102070007B69DA087B680832396943F822107B688B
:102080001B683B617B695B001A4603239340DB437B
:102090003A6913403B613B685B6803F003037A696C
:1020A000520093403A6913433B617B683A691A6076
:1020B0003B685B68012B0BD03B685B68022B07D049
:1020C0003B685B68112B03D03B685B68122B2FD1F8
:1020D0007B689B683B617B695B001A4603239340E6
:1020E000DB433A6913403B613B68DB687A69520025
:1020F00093403A6913433B617B683A699A607B6815
:102100005B683B617B69012202FA03F3DB433A69B6
:1021100013403B613B685B6803F010031A097B695D
:1021200002FA03F33A6913433B617B683A695A60E8
:102130007B68DB683B617B695B001A460323934045
:10214000DB433A6913403B613B689B687A69520004
:1021500093403A6913433B617B683A69DA603B68B4
:102160005B6803F08053002B00F09A80544A544B74
:102170009B6943F001039361514B9B6903F0010399
:10218000BB60BB684F4A7B699B08023352F823301F
:102190003B617B6903F003039B001A460F239340C6
:1021A000DB433A6913403B617B68B3F1904F13D036
:1021B0007B68454A93420DD07B68444A934207D0DE
:1021C0007B68434A934201D1032306E0052304E0E0
:1021D000022302E0012300E000237A6902F00302F7
:1021E000920093403A6913433B6136497B699B08EF
:1021F00002333A6941F82320364B1B683B61FB6888
:10220000DB433A6913403B613B685B6803F480330E
:10221000002B03D03A69FB6813433B612D4A3B69AD
:1022200013602C4B5B683B61FB68DB433A691340EE
:102230003B613B685B6803F40033002B03D03A69D1
:10224000FB6813433B61234A3B695360214B9B6806
:102250003B61FB68DB433A6913403B613B685B6869
:1022600003F48013002B03D03A69FB6813433B61EE
:10227000184A3B699360174BDB683B61FB68DB43A3
:102280003A6913403B613B685B6803F40013002B21
:1022900003D03A69FB6813433B610E4A3B69D36044
:1022A0007B6901337B613B681A687B6922FA03F31F
:1022B000002B7FF4ADAE1C37BD465DF8047B704744
:1022C00000100240000001400004004800080048DF
:1022D000000C00480004014080B483B000AF786077
:1022E0000B467B8013467B707B78002B03D07A886B
:1022F0007B689A6102E07A887B689A620C37BD46F7
:102300005DF8047B704700BF80B582B000AF786095
:102310007B68002B01D101231DE07B6893F83D30E1
:10232000DBB2002B06D17B68002283F83C20786862
:1023300000F016F87B68022283F83D207B681A685B
:102340007B6804331046194600F060F97B6801226F
:1023500083F83D20002318460837BD4680BD00BFE6
:1023600080B483B000AF78600C37BD465DF8047B65
:10237000704700BF80B483B000AF78607B681B6893
:102380007A681268D26842F00102DA607B681B68E2
:102390007A681268126842F001021A600023184637
:1023A0000C37BD465DF8047B704700BF80B582B036
:1023B00000AF78607B681B681B6903F00203002B89
:1023C00022D07B681B68DB6803F00203002B1BD064
:1023D0007B681B686FF002021A617B6801221A7722
:1023E0007B681B689B6903F00303002B03D07868AC
:1023F00000F0EEF805E0786800F0E0F8786800F0AA
:10240000F1F87B6800221A777B681B681B6903F070
:102410000403002B22D07B681B68DB6803F00403F5
:10242000002B1BD07B681B686FF004021A617B686D
:1024300002221A777B681B689B6903F44073002BA8
:1024400003D0786800F0C4F805E0786800F0B6F8CA
:10245000786800F0C7F87B6800221A777B681B68F1
:102460001B6903F00803002B22D07B681B68DB6824
:1024700003F00803002B1BD07B681B686FF0080279
:102480001A617B6804221A777B681B68DB6903F09A
:102490000303002B03D0786800F09AF805E0786811
:1024A00000F08CF8786800F09DF87B6800221A77BD
:1024B0007B681B681B6903F01003002B22D07B682C
:1024C0001B68DB6803F01003002B1BD07B681B68C4
:1024D0006FF010021A617B6808221A777B681B680C
:1024E000DB6903F44073002B03D0786800F070F8C8
:1024F00005E0786800F062F8786800F073F87B68AF
:1025000000221A777B681B681B6903F00103002B0C
:102510000ED07B681B68DB6803F00103002B07D03B
:102520007B681B686FF001021A617868FDF7D4FFC1
:102530007B681B681B6903F08003002B0ED07B684F
:102540001B68DB6803F08003002B07D07B681B68E7
:102550006FF080021A617868FEF75AF87B681B6892
:102560001B6903F04003002B0ED07B681B68DB68FF
:1025700003F04003002B07D07B681B686FF040021C
:102580001A61786800F038F87B681B681B6903F0F3
:102590002003002B0ED07B681B68DB6803F0200350
:1025A000002B07D07B681B686FF020021A617868E7
:1025B000FEF724F80837BD4680BD00BF80B483B065
:1025C00000AF78600C37BD465DF8047B704700BFF4
:1025D00080B483B000AF78600C37BD465DF8047BF3
:1025E000704700BF80B483B000AF78600C37BD4641
:1025F0005DF8047B704700BF80B483B000AF7860A3
:102600000C37BD465DF8047B704700BF80B485B0D1
:1026100000AF786039600023FB607B681B68FB605B
:102620007B682D4A934203D07B68B3F1804F08D179
:10263000FB6823F07003FB603B685B68FA68134338
:10264000FB607B68244A93420FD07B68B3F1804FD4
:102650000BD07B68214A934207D07B68204A934283
:1026600003D07B681F4A934208D1FB6823F4407370
:10267000FB603B68DB68FA681343FB60FB6823F090
:1026800080023B685B691343FB607B68FA681A60F1
:102690003B689A687B68DA623B681A687B689A6272
:1026A0007B680D4A93420BD07B680C4A934207D05B
:1026B0007B680B4A934203D07B680A4A934203D15A
:1026C0003B681A697B681A637B6801225A61143778
:1026D000BD465DF8047B7047002C0140004001407E
:1026E000004401400048014080B483B000AF7860EE
:1026F0007B6803F108027B685A607B684FF0FF3209
:102700009A607B6803F108027B68DA607B6803F1FA
:1027100008027B681A617B6800221A600C37BD468C
:102720005DF8047B704700BF80B483B000AF786071
:102730007B6800221A610C37BD465DF8047B704748
:1027400080B485B000AF786039607B685B68FB60FF
:102750003B68FA685A60FB689A683B689A60FB6855
:102760009B683A685A60FB683A689A603B687A6886
:102770001A617B681B685A1C7B681A601437BD4657
:102780005DF8047B704700BF80B485B000AF78600F
:1027900039603B681B68BB60BB68B3F1FF3F03D186
:1027A0007B681B69FB600CE07B680833FB6002E020
:1027B000FB685B68FB60FB685B681A68BB689A42F1
:1027C000F6D9FB685A683B685A603B685B683A68B0
:1027D0009A603B68FA689A60FB683A685A603B689E
:1027E0007A681A617B681B685A1C7B681A60143708
:1027F000BD465DF8047B704780B485B000AF78605B
:102800007B681B69FB607B685B687A6892689A608A
:102810007B689B687A6852685A60FB685A687B6874
:102820009A4203D17B689A68FB685A607B680022F1
:102830001A61FB681B685A1EFB681A60FB681B68FC
:1028400018461437BD465DF8047B704780B485B0E8
:1028500000AFF860B9607A60FB68043BFB60FB681E
:102860004FF080721A60FB68043BFB60BB6823F08A
:102870000102FB681A60FB68043BFB600C4AFB68C2
:102880001A60FB68143BFB607A68FB681A60FB689F
:10289000043BFB60FB686FF002021A60FB68203BA0
:1028A000FB60FB6818461437BD465DF8047B704733
:1028B000B528000880B483B000AF0C4B1B68B3F19F
:1028C000FF3F09D04FF0500383F31188BFF36F8FA0
:1028D000BFF34F8F7B60FEE74FF0500383F3118807
:1028E000BFF36F8FBFF34F8F3B60FEE70400002004
:1028F000074B19680868B0E8F04F80F30988BFF308
:102900006F8F4FF0000080F311887047AFF30080A5
:102910004414002006480068006880F3088862B606
:1029200061B6BFF34F8FBFF36F8F00DF00BF0000B2
:1029300008ED00E080B586B000AF3B4B1B683B4A1A
:10294000934209D14FF0500383F31188BFF36F8F87
:10295000BFF34F8F3B61FEE7334B1B68344A934212
:1029600009D14FF0500383F31188BFF36F8FBFF38A
:102970004F8FFB60FEE72F4B7B617B691B78DBB2DF
:10298000BB607B69FF221A707B691B78DBB2FB712D
:10299000FB79DBB203F05003DAB2274B1A70274BF6
:1029A00007221A6009E0254B1B68013B234A13608C
:1029B000FB79DBB25B00DBB2FB71FB79DBB2DBB234
:1029C0005BB2002BEFDB1D4B1B681B021B4A136025
:1029D0001A4B1B6803F4E063184A1360BB68DAB251
:1029E0007B691A70164A164B1B6843F47003136018
:1029F000134A134B1B6843F07043136000F0D8F880
:102A0000104B00221A6000F0EDF80F4A0E4B1B68C5
:102A100043F040431360FFF77DFFFFF74BFF0023B8
:102A200018461837BD4680BD00ED00E071C20F4169
:102A300070C20F4100E400E02400002028000020C4
:102A400020ED00E00400002034EF00E080B483B00B
:102A500000AF4FF0500383F31188BFF36F8FBFF3C4
:102A60004F8F7B600E4B1B6801330D4A13600C4B7C
:102A70001B68012B0ED10B4B1B68DBB2002B09D05E
:102A80004FF0500383F31188BFF36F8FBFF34F8F65
:102A90003B60FEE70C37BD465DF8047B704700BF26
:102AA0000400002004ED00E080B483B000AF104BC0
:102AB0001B68002B09D14FF0500383F31188BFF33B
:102AC0006F8FBFF34F8F7B60FEE7094B1B68013BA5
:102AD000074A1360064B1B68002B04D100233B60A0
:102AE0003B6883F311880C37BD465DF8047B704763
:102AF00004000020000000000000000000000000B2
:102B0000EFF30980BFF36F8F154B1A681EF0100F9B
:102B100008BF20ED108A20E9F04F10604DF8043D09
:102B20004FF0500080F31188BFF34F8FBFF36F8FCA
:102B300000F0C6FD4FF0000080F3118808BC196852
:102B40000868B0E8F04F1EF0100F08BFB0EC108A14
:102B500080F30988BFF36F8F704700BFAFF3008029
:102B60004414002080B582B000AF4FF0500383F3CF
:102B70001188BFF36F8FBFF34F8F7B6001F02EFF83
:102B800000F0DCFC0346002B06D001F083FF074B6E
:102B90004FF080521A6001E001F060FF00233B60BB
:102BA0003B6883F311880837BD4680BD04ED00E023
:102BB00080B400AF074A084B1B680849A1FB031308
:102BC0009B09013B1360064B07221A60BD465DF866
:102BD000047B704714E000E000000020D34D621039
:102BE00010E000E0DFF80C00016841F470010160C2
:102BF0007047000088ED00E080B485B000AFEFF3CF
:102C00000583FB60FB680F2B13D9154AFB6813443F
:102C10001B78FB72134B1B78FA7A9A4209D24FF059
:102C2000500383F31188BFF36F8FBFF34F8F7B6027
:102C3000FEE70D4B1B6803F4E0620C4B1B689A42E5
:102C400009D94FF0500383F31188BFF36F8FBFF39F
:102C50004F8F3B60FEE71437BD465DF8047B70473D
:102C6000F0E300E0240000200CED00E0280000204C
:102C700080B58AB000AF78600023FB6100F09CFB58
:102C8000574B1B68002B01D100F00CF9554B1A680B
:102C90007B681340002B40F08C807B68002B1CD09D
:102CA00008227B6813447B607B6803F00703002BDA
:102CB00013D07B6823F0070308337B607B6803F045
:102CC0000703002B09D04FF0500383F31188BFF3A3
:102CD0006F8FBFF34F8F7B61FEE77B68002B68D05F
:102CE000414B1B687A689A4263D8404B3B623F4B2A
:102CF0001B687B6204E07B6A3B627B6A1B687B62C9
:102D00007B6A5A687B689A4203D27B6A1B68002BF5
:102D1000F1D1334B1B687A6A9A424AD03B6A1B68EE
:102D200008221344FB617B6A1A683B6A1A607B6A5B
:102D30005A687B68D21A08235B009A421ED97A6AC5
:102D40007B681344BB61BB6903F00703002B09D008
:102D50004FF0500383F31188BFF36F8FBFF34F8F92
:102D60003B61FEE77B6A5A687B68D21ABB695A608E
:102D70007B6A7A685A60B86900F0F6F81A4B1A68EC
:102D80007B6A5B68D31A184A1360174B1A68184B92
:102D90001B689A4203D2144B1B68154A13607B6A66
:102DA0005A68104B1B681A437B6A5A607B6A002280
:102DB0001A6000F00FFBFB6903F00703002B09D03A
:102DC0004FF0500383F31188BFF36F8FBFF34F8F22
:102DD000FB60FEE7FB6918462837BD4680BD00BF93
:102DE0003414002040140020381400202C1400203B
:102DF0003C14002080B586B000AF78607B687B61B2
:102E00007B68002B46D008235B427A6913447B61C0
:102E10007B693B613B695A68204B1B681340002B60
:102E200009D14FF0500383F31188BFF36F8FBFF3C5
:102E30004F8FFB60FEE73B691B68002B09D04FF00A
:102E4000500383F31188BFF36F8FBFF34F8FBB60C5
:102E5000FEE73B695A68114B1B681340002B19D0E1
:102E60003B691B68002B15D13B695A680B4B1B68EB
:102E7000DB431A403B695A6000F09EFA3B695A688E
:102E8000074B1B681344064A1360386900F06CF85E
:102E900000F0A0FA1837BD4680BD00BF40140020E6
:102EA0003814002080B485B000AF4FF4A053BB604D
:102EB000274BFB60FB6803F00703002B0CD0FB687B
:102EC0000733FB60FB6823F00703FB60BA68FB680D
:102ED000D31A1F4A1344BB60FB687B601D4A7B68A2
:102EE00013601C4B00225A607A68BB681344FB6075
:102EF0000822FB689B1AFB60FB6823F00703FB605A
:102F0000FB68154A1360144B1B6800225A60124B71
:102F10001B6800221A607B683B603B68FA68D21A23
:102F20003B685A600C4B1A683B681A603B685B68E8
:102F30000A4A13603B685B68094A1360094B4FF00B
:102F400000421A601437BD465DF8047B704700BF2D
:102F50002C0000202C140020341400203C140020ED
:102F6000381400204014002080B485B000AF786091
:102F7000274BFB6002E0FB681B68FB60FB681A687C
:102F80007B689A42F7D3FB68BB60FB685B68BA68F2
:102F90001A447B689A4208D1FB685A687B685B6870
:102FA0001A44FB685A60FB687B607B68BB607B6887
:102FB0005B68BA681A44FB681B689A4218D1FB68C0
:102FC0001A68144B1B689A420DD07B685A68FB68DC
:102FD0001B685B681A447B685A60FB681B681A6848
:102FE0007B681A6008E00B4B1A687B681A6003E084
:102FF000FB681A687B681A60FA687B689A4202D09C
:10300000FB687A681A601437BD465DF8047B704728
:103010002C1400203414002080B58CB004AFF8606C
:10302000B9603B601346FB80FB889B001846FFF7A6
:103030001FFE78617B69002B0ED05C20FFF718FE25
:10304000F861FB69002B03D0FB697A691A6305E01C
:103050007869FFF7CFFE01E00023FB61FB69002BDD
:1030600013D0FA88BB6A0093FB6A0193FB69029351
:1030700000230393F868B9683B6800F00FF8F8691B
:1030800000F092F80123BB6102E04FF0FF33BB6117
:10309000BB6918462037BD4680BD00BF80B588B0EB
:1030A00000AFF860B9607A603B603B6B1A6B7B687D
:1030B0009B001046A5211A4602F0E5F83B6B1A6BFF
:1030C0007B6803F18043013B9B001344BB61BB69F8
:1030D00023F00703BB61BB6903F00703002B09D092
:1030E0004FF0500383F31188BFF36F8FBFF34F8FFF
:1030F0007B61FEE70023FB6113E0BA68FB691344C0
:1031000019783A6BFB69134430330A461A71BA686E
:10311000FB6913441B78002B00D105E0FB690133E8
:10312000FB61FB690F2BE8D93B6B002283F843203E
:10313000BB6A062B01D90623BB623B6BBA6ADA6213
:103140003B6BBA6ADA643B6B00221A653B6B043353
:103150001846FFF7E9FA3B6B18331846FFF7E4FA15
:103160003B6B3A6B1A61BB6AC3F107023B6B9A6116
:103170003B6B3A6B5A623B6B00225A653B6B0022F9
:1031800083F85820B869F9683A68FFF75FFB024690
:103190003B6B1A60FB6A002B02D0FB6A3A6B1A6029
:1031A0002037BD4680BD00BFB0B584B002AF7860A7
:1031B000FFF74CFC3C4B1B6801333B4A13603B4B15
:1031C0001B68002B09D1394A7B681360364B1B689A
:1031D000012B10D100F0F8FA0DE0354B1B68002BE5
:1031E00009D1324B1B68DA6A7B68DB6A9A4202D8E3
:1031F0002E4A7B6813602F4B1B6801332D4A1360E6
:103200002C4B1A687B685A647B68002B16D07B684D
:10321000184601F077FC78687B6803F134017B681D
:10322000DA6A7B681B6B1D467B681B681C467B68E3
:103230001B6BE31A00932B4601F034FF7B681846A2
:1032400001F0E4FC7B68DB6A1A46012303FA02F210
:10325000194B1B681343184A13607B68DA6A1346DC
:103260009B0013449B00154A1A447B6804331046A4
:103270001946FFF765FAFFF717FC0D4B1B68002B8B
:103280000ED00A4B1B68DA6A7B68DB6A9A4207D267
:103290000B4B4FF080521A60BFF34F8FBFF36F8F0D
:1032A0000837BD46B0BD00BF4415002044140020BF
:1032B00050150020601500204C15002048140020F7
:1032C00004ED00E080B584B000AF78600023FB60BF
:1032D0007B68002B1AD0144B1B68002B09D04FF0D1
:1032E000500383F31188BFF36F8FBFF34F8FBB6021
:1032F000FEE700F061F82320796801F01FF8786894
:10330000002100F00DFB00F065F8F860FB68002B71
:1033100007D1064B4FF080521A60BFF34F8FBFF3B7
:103320006F8F1037BD4680BD6C15002004ED00E0A6
:1033300080B586B002AF00230093194B0193194862
:10334000194980220023FFF767FEF860FB68012B14
:1033500015D14FF0500383F31188BFF36F8FBFF384
:103360004F8FBB60114B4FF0FF321A60104B0122A0
:103370001A60104B00221A60FFF7DCFA0DE0FB68C0
:10338000B3F1FF3F09D14FF0500383F31188BFF32E
:103390006F8FBFF34F8F7B60FEE71037BD4680BD58
:1033A00068150020993700080053000864150020B4
:1033B000501500204815002080B400AF044B1B6856
:1033C0000133034A1360BD465DF8047B704700BFBC
:1033D0006C15002080B584B000AF0023FB60002393
:1033E000BB60444B1B68002B09D14FF0500383F3A3
:1033F0001188BFF36F8FBFF34F8F3B60FEE7FFF77E
:1034000025FB3C4B1B68013B3A4A1360394B1B6858
:10341000002B67D1384B1B68002B63D034E0374B4F
:10342000DB68DB68FB60FB6818331846FFF7E4F9DC
:10343000FB6804331846FFF7DFF9FB68184601F014
:10344000E5FBFB68DB6A1A46012303FA02F22C4B08
:103450001B6813432A4A1360FB68DA6A13469B0011
:1034600013449B00274A1A44FB680433104619464C
:10347000FFF766F9FB68DA6A234B1B68DB6A9A423E
:1034800002D3224B01221A601C4B1B68002BC6D1B1
:10349000FB68002B01D000F01FFA1D4B1B687B60FE
:1034A0007B68002B10D000F049F80346002B02D0B7
:1034B000164B01221A607B68013B7B607B68002B06
:1034C000F1D1134B00221A60104B1B68002B09D05E
:1034D0000123BB600F4B4FF080521A60BFF34F8F38
:1034E000BFF36F8FFFF7E0FABB6818461037BD4691
:1034F00080BD00BF6C15002044150020041500207D
:103500004C150020481400204414002058150020B9
:103510005415002004ED00E080B582B000AFFFF745
:103520006BFB00237B60044B1B683B603B681846C9
:103530000837BD4680BD00BF4815002080B586B065
:1035400000AF00237B61534B1B68002B40F092803F
:10355000514B1B6801333B614F4A3B6913603B6928
:10356000002B1FD14D4B1B681B68002B09D04FF05F
:10357000500383F31188BFF36F8FBFF34F8F3B600E
:10358000FEE7464B1B68FB60454B1B68434A1360D4
:10359000434AFB681360434B1B680133414A136085
:1035A00000F09AF9404B1B683A699A4253D33B4B5F
:1035B0001B681B68002B01D1012300E00023002BB6
:1035C00004D0394B4FF0FF321A6044E0334B1B6894
:1035D000DB68DB68BB60BB685B687B603A697B6803
:1035E0009A4203D2304A7B68136034E0BB680433EC
:1035F0001846FFF701F9BB689B6A002B04D0BB6833
:1036000018331846FFF7F8F8BB68184601F0FEFAC1
:10361000BB68DB6A1A46012303FA02F2234B1B68DC
:103620001343224A1360BB68DA6A13469B001344B3
:103630009B001F4A1A44BB68043310461946FFF723
:103640007FF8BB68DA6A1B4B1B68DB6A9A4201D3BE
:1036500001237B61ABE7174B1B68DA6A14491346F9
:103660009B0013449B000B441B68012B01D90123D1
:103670007B6104E0104B1B6801330F4A13600F4B52
:103680001B68002B01D001237B617B69184618372A
:10369000BD4680BD6C15002048150020FC1400209C
:1036A000001500205C150020641500204C1500203A
:1036B0004814002044140020541500205815002000
:1036C00080B586B000AF2E4B1B68002B03D02D4B6E
:1036D00001221A6051E02B4B00221A602A4B1B6812
:1036E000FB60FB68B3FA83F3FB72FB7AC3F11F0341
:1036F0007B6126497A6913469B0013449B000B4467
:103700001B68002B09D14FF0500383F31188BFF3DE
:103710006F8FBFF34F8F7B60FEE77A6913469B0084
:1037200013449B00194A13443B613B695B685A6828
:103730003B695A603B695A683B6908339A4204D135
:103740003B695B685A683B695A603B695B68DB6848
:103750000F4A13600E4B1B68343318460D4905227F
:1037600001F076FD0346002B05D0094B1B68184677
:1037700001F00AFA01E001F0A9F91837BD4680BD51
:103780006C150020581500204C150020481400200E
:10379000441400200053000880B582B000AF786068
:1037A00000F050F8064B1B68012B07D9054B4FF072
:1037B00080521A60BFF34F8FBFF36F8FF0E700BFE7
:1037C0004814002004ED00E080B582B000AF002373
:1037D0007B600CE07A6813469B0013449B00114AFF
:1037E00013441846FEF780FF7B6801337B607B68DB
:1037F000062BEFD90C48FEF777FF0C48FEF774FF55
:103800000B48FEF771FF0B48FEF76EFF0A48FEF704
:103810006BFF0A4B044A1A60094B044A1A600837C6
:10382000BD4680BD48140020D4140020E8140020B8
:10383000041500201815002030150020FC1400206D
:103840000015002080B582B000AF28E0FFF7B4FD7E
:10385000164B1B68002B0CBF01230023DBB27B60DF
:10386000FFF7B8FD7B68002B19D1FFF7EFF80F4B7E
:10387000DB68DB683B603B6804331846FEF7BCFF3F
:103880000B4B1B68013B0A4A13600A4B1B68013B48
:10389000084A1360FFF708F9386800F00DF8054B87
:1038A0001B68002BD2D10837BD4680BD18150020FB
:1038B000441500202C15002080B582B000AF786040
:1038C0007B681B6B1846FFF795FA7868FFF792FA4A
:1038D0000837BD4680BD00BF80B483B000AF0E4B3B
:1038E0001B681B68002B01D1012300E00023002B83
:1038F00004D00A4B4FF0FF321A6008E0064B1B68F9
:10390000DB68DB687B607B685B68044A13600C37AC
:10391000BD465DF8047B7047FC1400206415002050
:1039200080B584B000AF78603960314B1B68FB60B4
:10393000304B1B6804331846FEF75EFF0346002B2E
:103940000BD12C4B1B68DB6A1A4601239340DA43E8
:10395000294B1B681340284A13607B68B3F1FF3F73
:1039600010D13B68002B0DD0224B1B6818461B2141
:1039700001F08EF91F4B1B68043320481946FEF7EF
:10398000DFFE32E0FA687B681344BB60194B1B68AA
:10399000BA685A60BA68FB689A420FD2154B1B6826
:1039A0001846042101F074F9154B1A68114B1B6875
:1039B000043310461946FEF7E7FE16E00D4B1B6870
:1039C0001846042101F064F90E4B1A68094B1B6874
:1039D000043310461946FEF7D7FE0B4B1B68BA6836
:1039E0009A4202D2084ABB6813601037BD4680BDB8
:1039F00048150020441400204C15002030150020EC
:103A000000150020FC1400206415002080B483B051
:103A100000AF214B7B607B6803221A617B68032225
:103A20005A617B681D4A9A617B681D4ADA617B682E
:103A30004FF480621A627B6800229A627B680022DF
:103A40005A627B680022DA627B68144A1A667B68D5
:103A5000144A5A667B6810229A667B6800221A67AD
:103A60007B680022DA667B6800225A677B6807332E
:103A70000D4A106818607B680C4A106818609188BD
:103A8000927999809A717B6820229A710C37BD4691
:103A90005DF8047B704700BF842B0020185300089A
:103AA00070150020701900202453000828530008C6
:103AB00080B58AB000AFF860B9607A603C4B1B7883
:103AC000002B01D1FFF7A2FFFA6813465B001344F5
:103AD000DB006033364A1344BB61BB68FB61BB69E2
:103AE0001B693B62BB69DB687B6100237B623A6ACE
:103AF0007B699A422AD9BB699A683B6AD31A3B61AF
:103B00003A697B68934228BF13463B61BB695A6898
:103B10003B6A1344F86919463A6901F0A9FB7A6ACD
:103B20003B6913447B62FA693B691344FB617A6821
:103B30003B69D31A7B603A6A3B6913443B62BB69B9
:103B40009A683B6A9A4201D100233B627A693B6AD8
:103B5000D31A3B613A697B68934228BF13463B61A5
:103B60003B69002B18D0BB695A683B6A1344F8695B
:103B700019463A6901F07CFB7A6A3B6913447B621F
:103B8000FA693B691344FB617A683B69D31A7B602D
:103B90003A6A3B6913443B627B6A002B02D0BB69E3
:103BA0003A6A1A617B6A18462837BD4680BD00BF55
:103BB000842B002080B58CB000AFF860B9607A60CB
:103BC000BB68FB62FB685A1C13465B001344DB00B6
:103BD000464A13447B627B6A1B693B627B6ADB68F3
:103BE000FB613A6AFB699A4262D87B6A9A68FB6910
:103BF000D31A013BBB61BA697B689A421DD37B6AC9
:103C00005A68FB691344BB62FA697B681344FB6121
:103C1000BB6A5A1CBA62FA6A511CF96212781A70AD
:103C20007B68013B7B607B68002BF1D1FA697B6884
:103C30001A447B6ADA60012354E0BA693B6A134490
:103C4000BB61BA697B689A424BD37B6A9A68FB690D
:103C5000D31A7B617A697B689A420ED97B6A5A686B
:103C6000FB6913441846F96A7A6801F001FBFA69A6
:103C70007B681A447B6ADA6018E07B6A5A68FB69E1
:103C800013441846F96A7A6901F0F2FA7B6A5868B7
:103C9000FA6A7B69D1187A687B69D31A1A4601F0EF
:103CA000E7FA7A687B69D21A7B6ADA60012319E045
:103CB0003A6AFB69D31A013BBB61BA697B689A42D5
:103CC0000FD37B6A5A68FB6913441846F96A7A680D
:103CD00001F0CEFAFA697B681A447B6ADA60012344
:103CE00000E0002318463037BD4680BD842B0020FD
:103CF00080B586B000AFF860B9607A603B60304B49
:103D00001B78002B01D1FFF781FE2D4B1B691A4652
:103D1000FB689A424BD9EFF311834FF0200181F3F6
:103D200011883B61FB68002B31D02549FB685A1C88
:103D300013465B001344DB000B44BA681A60204949
:103D4000FB685A1C13465B001344DB000B447A6883
:103D50005A601B49FA6813465B001344DB000B44AE
:103D600020333A681A601649FA6813465B00134418
:103D7000DB000B44283300221A601149FA6813460D
:103D80005B001344DB000B44203300225A600C49D3
:103D9000FA6813465B001344DB000B4428333A6A8D
:103DA0005A603B6983F3118800237B6102E04FF086
:103DB000FF337B617B6918461837BD4680BD00BF65
:103DC000842B002080B586B000AFF860B9607A60BF
:103DD0003B60304B1B78002B01D1FFF717FE2D4BBA
:103DE0005B691A46FB689A424BD9EFF311834FF097
:103DF000200181F311883B61FB68002B31D02549FC
:103E0000FA6813465B001344DB000B446033BA6866
:103E10001A602049FA6813465B001344DB000B4428
:103E200060337A685A601B49FA6813465B00134492
:103E3000DB000B4468333A681A601649FA68134687
:103E40005B001344DB000B44703300221A601149FD
:103E5000FA6813465B001344DB000B44683300220E
:103E60005A600C49FA6813465B001344DB000B44AC
:103E700070333A6A5A603B6983F3118800237B618F
:103E800002E04FF0FF337B617B6918461837BD466F
:103E900080BD00BF842B002080B487B000AFF860E5
:103EA000B9607A6000233B6102E03B6901333B610A
:103EB000BA683B6913441B78002BF6D13A697B68DA
:103EC0009A4201D97B683B613B69FE2B06D8FB68AF
:103ED0005A1CFA603A69D2B21A7011E0FB685A1C97
:103EE000FA60FF221A70FB685A1CFA603A69D2B273
:103EF0001A70FB685A1CFA603A69120AD2B21A7038
:103F000000237B610AE0FB685A1CFA60BA68511C06
:103F1000B96012781A707B6901337B617A693B69F9
:103F20009A42F0D3FB6818461C37BD465DF8047B07
:103F3000704700BF80B483B000AF78607B68043303
:103F400018460C37BD465DF8047B704780B582B0DB
:103F500000AFFB1C012019460122FFF7A9FD034613
:103F60007B607B68002B46DDFB78042B1AD0042B8A
:103F700006DC022B10D0022B11DC012B09D02EE025
:103F8000062B15D0062B10DB072B14D0802B15D059
:103F900025E000F067FA2EE000F020FB2BE000F0B7
:103FA000F3FC28E000F0BCFC25E000F03BFB22E045
:103FB00000F068FF1FE000F049FF1CE0FB1C01203F
:103FC00019460122FFF774FD03467B607B68002BD6
:103FD00004DDFB78184600F0BBFE0CE00BE0FB783C
:103FE000DBB25BB2002B05DAFB1C01201946012273
:103FF000FFF75EFD00BF0837BD4680BD80B58CB0C1
:1040000000AF01233B713B1D0133FB61FB69FB6288
:10401000304B5B69BB620BE0FB6A5A1CFA62BA6AFE
:10402000D2B262F07F02D2B21A70BB6ADB09BB6205
:10403000BB6A7F2BF0D8FB6A5A1CFA62BA6AD2B20A
:104040001A70FB6AFB61244B1B68BB61214BDB6868
:10405000BA69D31A7B61FB697B627B693B620BE0C7
:104060007B6A5A1C7A623A6AD2B262F07F02D2B29A
:104070001A703B6ADB093B623B6A7F2BF0D87B6A94
:104080005A1C7A623A6AD2B21A707B6AFB61FA6988
:104090003B1DD31A1A463B1D01201946FFF78AFD26
:1040A00003463B613B69002B09D00A4ABB69D360D8
:1040B000084B1B78013BDAB2064B1A7004E0054B43
:1040C0005B690133034A53613B6918463037BD468B
:1040D00080BD00BF88290020041000E080B58AB0B0
:1040E00000AFF860B9607A605E4B1B78012B00D19D
:1040F0000FE05C4B1B78002B00D19BE0594B1B78E9
:10410000022B06D1FFF77AFF564B1B78012B00D00C
:1041100090E07B681F2B09D8524BDA697B6822FA42
:1041200003F303F00103002B00D083E07B68172B1F
:1041300007D8FB68013BFB607B68DAB2FB681A704A
:104140003DE0BA68FB68D31AFB61FB697F2B12D98B
:10415000FB68013BFB60FB69DB09DAB2FB681A70A4
:10416000FB68013BFB60FB69DBB263F07F03DAB203
:10417000FB681A7006E0FB68013BFB60FB69DAB282
:10418000FB681A707B687F2B12D9FB68013BFB60D0
:104190007B68DB09DAB2FB681A70FB68013BFB60E5
:1041A0007B68DBB263F07F03DAB2FB681A7006E06B
:1041B000FB68013BFB607B68DAB2FB681A702A4B34
:1041C0001B68BB61274BDB68BA69D31A7B61BB688C
:1041D0007B627B693B620BE07B6A5A1C7A623A6ABB
:1041E000D2B262F07F02D2B21A703B6ADB093B6244
:1041F0003B6A7F2BF0D87B6A5A1C7A623A6AD2B249
:104200001A707B6ABB60BA68FB68D31A0120F96830
:104210001A46FFF7CFFC03463B613B69002B03D0F6
:10422000104ABB69D36005E00E4B1B780133DAB24C
:104230000C4B1A700D4BD3F884200C4BD3F88830FC
:104240009A420BD0074B9B78002B07D1054B0122DC
:104250009A70FFF77BFE034B00229A702837BD4609
:1042600080BD00BF88290020041000E0842B0020BE
:1042700080B586B002AFF860B9607A603B60002319
:10428000009301201349144A4FF48053FFF730FD87
:104290000023009301200F49104A0823FFF792FDE5
:1042A0000F4B4FF080521A610E4B1B680C4AD360C3
:1042B0000B4A7B6813620A4AFB685360084ABB6872
:1042C0009360074A3B685362054B00221A7010370F
:1042D000BD4680BD30530008801900208029002091
:1042E00088290020041000E080B483B000AF78601B
:1042F000034A7B6813610C37BD465DF8047B704749
:104300008829002080B584B000AF7860EFF3118376
:104310004FF0200181F31188FB600748FFF70AFE88
:10432000B860B868B9687A68FFF7D8FEFB6883F3AD
:1043300011881037BD4680BDB829002080B588B0EF
:1043400000AF78603960EFF311834FF0200181F303
:1043500011887B611648FFF7EDFD38613B69FB6012
:10436000FB68FB613B68BB610BE0FB695A1CFA61AF
:10437000BA69D2B262F07F02D2B21A70BB69DB09AD
:10438000BB61BB697F2BF0D8FB695A1CFA61BA6923
:10439000D2B21A70FB69FB603869F9687A68FFF776
:1043A0009DFE7B6983F311882037BD4680BD00BF29
:1043B000B829002080B58CB000AFF860B9607A6091
:1043C000EFF311834FF0200181F31188FB61244842
:1043D000FFF7B0FDB861BB697B617B69FB62BB68BD
:1043E000BB620BE0FB6A5A1CFA62BA6AD2B262F094
:1043F0007F02D2B21A70BB6ADB09BB62BB6A7F2B39
:10440000F0D8FB6A5A1CFA62BA6AD2B21A70FB6A16
:104410007B617B697B627B683B620BE07B6A5A1C39
:104420007A623A6AD2B262F07F02D2B21A703B6A02
:10443000DB093B623B6A7F2BF0D87B6A5A1C7A62AD
:104440003A6AD2B21A707B6A7B61B8697969FA6894
:10445000FFF744FEFB6983F311883037BD4680BD0A
:10446000B829002080B58CB000AF594B1B78002BC9
:1044700040F0AA80564B01221A70EFF311834FF0DF
:10448000200181F31188FB60012052490A22FFF7C5
:1044900091FBFB6883F311880A20FFF733FFEFF3EA
:1044A00011834FF0200181F31188BB604A48FFF768
:1044B00041FD78607B683B603B68FB62444B5B6816
:1044C000BB620BE0FB6A5A1CFA62BA6AD2B262F0B3
:1044D0007F02D2B21A70BB6ADB09BB62BB6A7F2B58
:1044E000F0D8FB6A5A1CFA62BA6AD2B21A70FB6A36
:1044F0003B603B687B62364B9B683B620BE07B6AB0
:104500005A1C7A623A6AD2B262F07F02D2B21A7050
:104510003B6ADB093B623B6A7F2BF0D87B6A5A1C03
:104520007A623A6AD2B21A707B6A3B603B68FB617E
:10453000274B1B69BB610BE0FB695A1CFA61BA6926
:10454000D2B262F07F02D2B21A70BB69DB09BB61E2
:10455000BB697F2BF0D8FB695A1CFA61BA69D2B2E9
:104560001A70FB693B603B687B6102233B610BE097
:104570007B695A1C7A613A69D2B262F07F02D2B288
:104580001A703B69DB093B613B697F2BF0D87B6983
:104590005A1C7A613A69D2B21A707B693B607868BA
:1045A00039681822FFF79AFDBB6883F31188084B1E
:1045B0005B6A002B02D0064B5B6A984700F0E4F977
:1045C00000F0AEF900F05EFC3037BD4680BD00BFA4
:1045D00088290020C8530008B829002080B582B07F
:1045E00000AFEFF311834FF0200181F311887B605E
:1045F0000A48FFF79FFC3860094B1B78002B07D057
:10460000386839680B22FFF769FD054B00221A70E4
:104610007B6883F311880837BD4680BDB829002028
:104620008829002080B58CB000AFEFF311834FF0E4
:10463000200181F31188FB604548FFF77BFCB860DF
:10464000BB687B607B68FB62424B5B68BB620BE0D4
:10465000FB6A5A1CFA62BA6AD2B262F07F02D2B224
:104660001A70BB6ADB09BB62BB6A7F2BF0D8FB6A9E
:104670005A1CFA62BA6AD2B21A70FB6A7B607B6813
:104680007B62344B9B683B620BE07B6A5A1C7A620C
:104690003A6AD2B262F07F02D2B21A703B6ADB0988
:1046A0003B623B6A7F2BF0D87B6A5A1C7A623A6A7B
:1046B000D2B21A707B6A7B607B68FB61254B1B69F9
:1046C000BB610BE0FB695A1CFA61BA69D2B262F0B5
:1046D0007F02D2B21A70BB69DB09BB61BB697F2B59
:1046E000F0D8FB695A1CFA61BA69D2B21A70FB6938
:1046F0007B607B687B6102233B610BE07B695A1C1A
:104700007A613A69D2B262F07F02D2B21A703B6922
:10471000DB093B613B697F2BF0D87B695A1C7A61CE
:104720003A69D2B21A707B697B60B86879681822DE
:10473000FFF7D4FCFB6883F31188064B5B6A002B00
:1047400002D0044B5B6A98473037BD4680BD00BF3E
:10475000B82900208829002080B592B000AF786089
:10476000EFF311834FF0200181F311887B616A48D8
:10477000FFF7E0FB38613B69FB60FB687B647B68AB
:104780001A68664B1B69D31A9B083B640BE07B6C71
:104790005A1C7A643A6CD2B262F07F02D2B21A70BA
:1047A0003B6CDB093B643B6C7F2BF0D87B6C5A1C69
:1047B0007A643A6CD2B21A707B6CFB60FB68FB6364
:1047C0007B689B68BB630BE0FB6B5A1CFA63BA6B9C
:1047D000D2B262F07F02D2B21A70BB6BDB09BB634C
:1047E000BB6B7F2BF0D8FB6B5A1CFA63BA6BD2B24F
:1047F0001A70FB6BFB607B685B68F86819462022C7
:10480000FFF74AFBF8603869F9680922FFF766FC90
:104810003B69FB60FB687B637B681A683F4B1B69E5
:10482000D31A9B083B630BE07B6B5A1C7A633A6B91
:10483000D2B262F07F02D2B21A703B6BDB093B63EB
:104840003B6B7F2BF0D87B6B5A1C7A633A6BD2B2EE
:104850001A707B6BFB60FB68FB627B68DB68BB628A
:104860000BE0FB6A5A1CFA62BA6AD2B262F07F02AB
:10487000D2B21A70BB6ADB09BB62BB6A7F2BF0D86D
:10488000FB6A5A1CFA62BA6AD2B21A70FB6AFB60FF
:10489000FB687B627B681B693B620BE07B6A5A1C8E
:1048A0007A623A6AD2B262F07F02D2B21A703B6A7E
:1048B000DB093B623B6A7F2BF0D87B6A5A1C7A6229
:1048C0003A6AD2B21A707B6AFB60FB68FB61002314
:1048D000BB610BE0FB695A1CFA61BA69D2B262F0A3
:1048E0007F02D2B21A70BB69DB09BB61BB697F2B47
:1048F000F0D8FB695A1CFA61BA69D2B21A70FB6926
:10490000FB603869F9681522FFF7E8FB7B6983F3E0
:1049100011884837BD4680BDB8290020882900206D
:1049200080B500AF064B1B6A002B08D0044B1B6AF6
:104930005B68002B03D0024B1B6A5B68984780BD05
:104940008829002080B586B000AF7860EFF311832E
:104950004FF0200181F311887B610A48FFF7EAFAE2
:104960003861386979688022FFF796FAF86038690B
:10497000F9680E22FFF7B2FB7B6983F311881837C1
:10498000BD4680BDB8290020B0B582B000AF114B44
:104990001B6A002B15D00F4B1B6A1B68002B10D015
:1049A0000C4B1B6A1B689847C7E900013968D7E9B7
:1049B00000231C00002523460D201A46FFF7FAFCB1
:1049C00005E0054B1B680C201946FFF7B7FC0837BC
:1049D000BD46B0BD88290020041000E080B586B037
:1049E00000AFEFF311834FF0200181F31188FB60DA
:1049F0001848FFF79FFAB860BB687B60164B1B68CE
:104A0000C3F308033B607B687B613B683B610BE061
:104A10007B695A1C7A613A69D2B262F07F02D2B2E3
:104A20001A703B69DB093B613B697F2BF0D87B69DE
:104A30005A1C7A613A69D2B21A707B697B60B86895
:104A400079680222FFF74AFBFB6883F31188183765
:104A5000BD4680BDB829002004ED00E080B582B0DD
:104A600000AFEFF311834FF0200181F311887B60D9
:104A70000748FFF75FFA3860386839680322FFF7A4
:104A80002DFB7B6883F311880837BD4680BD00BFCE
:104A9000B829002080B582B000AFEFF311834FF04A
:104AA000200181F311887B600748FFF743FA3860E3
:104AB000386839681222FFF711FB7B6883F311888D
:104AC0000837BD4680BD00BFB829002080B582B040
:104AD00000AFEFF311834FF0200181F311887B6069
:104AE0000748FFF727FA3860386839681122FFF75E
:104AF000F5FA7B6883F311880837BD4680BD00BF97
:104B0000B829002080B588B000AF7860EFF311833A
:104B10004FF0200181F311887B611948FFF70AFAF1
:104B200038613B69FB60174B1B697A68D31A9B0895
:104B30007B60FB68FB617B68BB610BE0FB695A1C17
:104B4000FA61BA69D2B262F07F02D2B21A70BB695E
:104B5000DB09BB61BB697F2BF0D8FB695A1CFA618A
:104B6000BA69D2B21A70FB69FB603869F968082229
:104B7000FFF7B4FA7B6983F311882037BD4680BD07
:104B8000B82900208829002080B588B000AF78605F
:104B9000EFF311834FF0200181F311887B611948F5
:104BA000FFF7C8F938613B69FB60174B1B697A68EE
:104BB000D31A9B087B60FB68FB617B68BB610BE0E1
:104BC000FB695A1CFA61BA69D2B262F07F02D2B2B2
:104BD0001A70BB69DB09BB61BB697F2BF0D8FB692D
:104BE0005A1CFA61BA69D2B21A70FB69FB60386963
:104BF000F9680422FFF772FA7B6983F31188203782
:104C0000BD4680BDB82900208829002080B588B025
:104C100000AF7860EFF311834FF0200181F311882A
:104C20007B611948FFF786F938613B69FB60174BD8
:104C30001B697A68D31A9B087B60FB68FB617B6801
:104C4000BB610BE0FB695A1CFA61BA69D2B262F02F
:104C50007F02D2B21A70BB69DB09BB61BB697F2BD3
:104C6000F0D8FB695A1CFA61BA69D2B21A70FB69B2
:104C7000FB603869F9680622FFF730FA7B6983F335
:104C800011882037BD4680BDB82900208829002022
:104C900080B58AB000AF78603960EFF311834FF0D0
:104CA000200181F311887B612748FFF743F93861C0
:104CB0003B69FB60254B1B697A68D31A9B087B60B4
:104CC000FB687B627B683B620BE07B6A5A1C7A6202
:104CD0003A6AD2B262F07F02D2B21A703B6ADB0942
:104CE0003B623B6A7F2BF0D87B6A5A1C7A623A6A35
:104CF000D2B21A707B6AFB60FB68FB613B68BB61E8
:104D00000BE0FB695A1CFA61BA69D2B262F07F0209
:104D1000D2B21A70BB69DB09BB61BB697F2BF0D8CB
:104D2000FB695A1CFA61BA69D2B21A70FB69FB605E
:104D30003869F9680722FFF7D1F97B6983F3118895
:104D40002837BD4680BD00BFB82900208829002033
:104D500080B58CB000AF0346FB713A4B1B68002B4B
:104D60006CD0384B1B68FB620023BB6209E0FB6A16
:104D70001B69FB62FB6A002B00D106E0BB6A0133B2
:104D8000BB62FA79BB6A9A42F1D8FB6A002B55D014
:104D9000EFF311834FF0200181F311887B612A48E2
:104DA000FFF7C8F838613B69FB60FB687B62FB7901
:104DB0003B620BE07B6A5A1C7A623A6AD2B262F0BA
:104DC0007F02D2B21A703B6ADB093B623B6A7F2BDF
:104DD000F0D87B6A5A1C7A623A6AD2B21A707B6A3D
:104DE000FB60FB68FB61FB6A9B68BB610BE0FB69D6
:104DF0005A1CFA61BA69D2B262F07F02D2B21A705A
:104E0000BB69DB09BB61BB697F2BF0D8FB695A1C0E
:104E1000FA61BA69D2B21A70FB69FB60FB6A1B685F
:104E2000F86819468022FFF737F8F8603869F968A2
:104E30001622FFF753F97B6983F311883037BD469B
:104E400080BD00BFB0290020B829002080B582B005
:104E500000AF0B4B1B68002B0FD0094B1B687B600E
:104E60007B68DB68002B02D07B68DB6898477B6837
:104E70001B697B607B68002BF2D10837BD4680BD83
:104E8000B029002080B586B000AFEFF311834FF05A
:104E9000200181F31188FB601648FFF74BF8B860DA
:104EA000BB687B607B687B61134B1B783B610BE0CD
:104EB0007B695A1C7A613A69D2B262F07F02D2B23F
:104EC0001A703B69DB093B613B697F2BF0D87B693A
:104ED0005A1C7A613A69D2B21A707B697B60B868F1
:104EE00079681B22FFF7FAF8FB6883F311881837FB
:104EF000BD4680BDB8290020B429002080B58AB005
:104F000000AF7860EFF311834FF0200181F3118837
:104F10007B612648FFF70EF838613869796880228E
:104F2000FEF7BAFFF860FB687B6201233B620BE08F
:104F30007B6A5A1C7A623A6AD2B262F07F02D2B2BB
:104F40001A703B6ADB093B623B6A7F2BF0D87B6AB5
:104F50005A1C7A623A6AD2B21A707B6AFB60FB68AA
:104F6000FB610023BB610BE0FB695A1CFA61BA6963
:104F7000D2B262F07F02D2B21A70BB69DB09BB61A8
:104F8000BB697F2BF0D8FB695A1CFA61BA69D2B2AF
:104F90001A70FB69FB603869F9681A22FFF79EF8FE
:104FA0007B6983F311882837BD4680BDB82900206E
:104FB000F0B585B002AF00237B6033E01D497A680D
:104FC00013469B0013449B000B44186819497A68E8
:104FD00013469B0013449B000B445E6815497A6896
:104FE00013469B0013449B000B4408331D68114972
:104FF0007A6813469B0013449B000B4408335C689B
:105000000C497A6813469B0013449B000B441033F1
:105010001B68009331462A46234600F0A9F87B68B6
:1050200001337B60044B1B687A689A42C6D30C3705
:10503000BD46F0BD9C2A00203C2B00202DE9B04F3E
:1050400082B000AFFEF768FA03461A464FF000033D
:10505000C7E90023D7E9000102460B464FEA830B5C
:105060004BEA927B4FEA820A52465B465D0145EA73
:10507000D2655401A41A65EB0305241845EB01051C
:105080004FEAC50949EA54794FEAC40844464D46F7
:10509000C7E90045D7E90023104619460837BD4641
:1050A000BDE8B08F80B586B002AFF860B9607A60B5
:1050B0003B60B8682A49052200F0CAF80346002B75
:1050C00000D149E0274B1B68072B03D92648FFF77F
:1050D00015FF41E0234B1A68244913469B001344F3
:1050E0009B000B44FA681A601E4B1A681F4913464E
:1050F0009B0013449B000B44BA685A60194B1A6812
:105100001A4913469B0013449B000B4408337A68EA
:105110001A60144B1A68154913469B0013449B00F0
:105120000B4408333A685A600E4B1A680F4913460D
:105130009B0013449B000B441033BA691A60094B5F
:105140001B680133074A1360BB690093F868B968AC
:105150007A683B6800F00CF81037BD4680BD00BF90
:10516000385300083C2B0020405300089C2A0020A4
:1051700080B58AB000AFF860B9607A603B6007F133
:10518000140318460021142200F07DF8FB687B61AF
:10519000BB68BB617B68FB613B683B623B6B7B62CE
:1051A00007F114031846FFF7D7FA2837BD4680BD2C
:1051B000DFF834D0002103E00C4B5B58435004313E
:1051C0000B480C4B42189A42F6D30B4A02E00023DC
:1051D00042F8043B094B9A42F9D3FBF791F900F0EE
:1051E00011F8FBF7B5F8FEE700400020E453000893
:1051F0000000002008000020080000202C2C0020C7
:10520000FEE7000070B50E4B0E4CE41AA41000250A
:105210001E46A54204D056F8253098470135F8E7D8
:1052200000F03AF8084C094BE41AA41000251E4679
:10523000A54204D056F8253098470135F8E770BDEF
:10524000DC530008DC530008E0530008DC5300087E
:1052500010B50A44441E914208D014F8013F087862
:10526000834201D0181A10BD0131F4E7002010BDAF
:1052700010B5431E0A44914204D011F8014B03F8C3
:10528000014FF8E710BD02440346934202D003F8F1
:10529000011BFAE770470000F8B500BFF8BC08BC76
:1052A0009E467047F8B500BFF8BC08BC9E467047E4
:1052B000426C696E6B5F7461736B00004E3D4672A9
:1052C000656552544F532044656D6F204170706C7A
:1052D00069636174696F6E2C443D436F72746578C5
:1052E0002D4D342C4F3D4672656552544F5300008E
:1052F000492331353D5379735469636B00000000D5
:1053000049444C450000000009256309257509251D
:10531000750925750D0A00005465726D696E616C22
:1053200000000000525454005345474745520000C6
:10533000537973566965770049444C450000000075
:1053400053595354454D564945573A20436F756C50
:1053500064206E6F74207265636F72642074617371
:105360006B20696E666F726D6174696F6E2E204D71
:105370006178696D756D206E756D626572206F66FE
:10538000207461736B7320726561636865642E00BD
:1053900000000000000000000102030406070809E5
:1053A00000000000010203040203040506070809C7
:1053B0000A0B0C0D0E0F101001020304050607085E
:1053C000090A0B0C0D0E0F10000000000000000079
:0C53D000000000003D500008B14F000834
:0453DC00B50100080F
:0453E000910100082F
:0853E40000127A00AAAAAAAA8D
:04000005080051B1ED
:00000001FF
