:020000040800F2
:1000000000400020ED0F0008810E00088D0E000852
:10001000950E00089D0E0008A50E000800000000C7
:10002000000000000000000000000000AD0E00080D
:10003000B90E000800000000C50E0008D10E00082F
:100040003D1000083D1000083D1000083D1000085C
:100050003D1000083D1000083D1000083D1000084C
:100060003D1000083D1000083D1000083D1000083C
:100070003D1000083D1000083D1000083D1000082C
:100080003D1000083D1000083D1000083D1000081C
:100090003D1000083D1000083D1000083D1000080C
:1000A0003D1000083D1000083D1000083D100008FC
:1000B0003D10000800000000000000003D10000896
:1000C0003D1000083D1000083D1000080000000031
:1000D0003D1000083D1000083D1000083D100008CC
:1000E000DD0E00083D1000083D1000080000000073
:1000F0000000000000000000000000000000000000
:10010000000000000000000000000000FD0E0008DC
:1001100000000000000000003D100008000000008A
:1001200000000000000000000000000000000000CF
:1001300000000000000000000000000000000000BF
:100140003D1000083D100008000000000000000005
:10015000000000000000000000000000000000009F
:100160003D1000083D1000083D1000083D1000083B
:100170003D1000080000000000000000000000002A
:08018000000000003D10000822
:1001880010B5054C237833B9044B13B10448AFF3C9
:1001980000800123237010BD98000020000000009B
:1001A8008C100008084B10B51BB108480849AFF37C
:1001B80000800848036803B910BD074B002BFBD02B
:1001C800BDE81040184700BF000000008C10000870
:1001D8009C000020980000200000000080B483B03C
:1001E80000AF0346FB71084997F907305B09FA79B4
:1001F80002F01F02012000FA02F241F823200C3716
:10020800BD465DF8047B704700E100E080B483B030
:1002180000AF03463960FB7197F90730002B0BDA02
:100228000D49FB7903F00F03043B3A68D2B212017F
:10023800D2B20B441A7609E0084997F907303A68B0
:10024800D2B21201D2B20B4483F800230C37BD4658
:100258005DF8047B704700BF00ED00E000E100E0BE
:1002680080B485B000AF78600849084B5A697B684C
:1002780013434B61054B5A697B681340FB60FB686D
:100288001437BD465DF8047B704700BF001002407C
:1002980080B485B000AF78600849084BDA697B689C
:1002A8001343CB61054BDA697B681340FB60FB683D
:1002B8001437BD465DF8047B704700BF001002404C
:1002C80080B485B000AF78600849084B9A697B68AC
:1002D80013438B61054B9A697B681340FB60FB688D
:1002E8001437BD465DF8047B704700BF001002401C
:1002F80080B400AF044A044B1B6843F00103136049
:10030800BD465DF8047B70470010024080B400AF22
:10031800064B1B6803F00203002B14BF01230023C4
:10032800DBB21846BD465DF8047B704700100240FA
:1003380080B483B000AF78600649064B5B6823F051
:1003480003027B6813434B600C37BD465DF8047BA2
:10035800704700BF0010024080B400AF044B5B68D8
:1003680003F00C031846BD465DF8047B704700BFD8
:100378000010024080B483B000AF78600649064B95
:100388005B6823F0F0027B6813434B600C37BD4673
:100398005DF8047B704700BF0010024080B483B052
:1003A80000AF78600649064B5B6823F4E0627B681F
:1003B80013434B600C37BD465DF8047B704700BFA4
:1003C8000010024080B483B000AF78600649064B45
:1003D8005B6823F460527B6813434B600C37BD465F
:1003E8005DF8047B704700BF0010024080B400AF86
:1003F800044A044B1B6843F080731360BD465DF8E4
:10040800047B70470010024080B400AF064B1B68A5
:1004180003F00073002B14BF01230023DBB218463E
:10042800BD465DF8047B70470010024080B483B07D
:1004380000AF786039600D480C4B5B6823F4741288
:100448007B6803F480313B680B43134343600749DF
:10045800064BDB6A23F00F027B6803F00F0313439C
:10046800CB620C37BD465DF8047B70470010024034
:1004780090B484B000AF78603960114C3B68DBB24F
:100488000F493A68D2B2023251F822103A68120C77
:10049800D24311403A68120CFA60FA6892FAA2F252
:1004A800BA60BA68B2FA82F2786800FA02F20A43CD
:1004B800023344F823201037BD4690BC704700BF74
:1004C8000000014080B483B000AF78600649064B55
:1004D8001B6823F007027B6813430B600C37BD468B
:1004E8005DF8047B704700BF0020024080B489B0EB
:1004F80000AFF860B9607A60FB681A68BB68FB6196
:10050800FB6993FAA3F3BB61BB69B3FA83F35B009E
:10051800194603238B40DB431A40BB687B617B6928
:1005280093FAA3F33B613B69B3FA83F35B00194683
:100538007B688B401A43FB681A602437BD465DF818
:10054800047B704780B489B000AFF860B9607A6006
:10055800FB689A68BB68FB61FB6993FAA3F3BB610C
:10056800BB69B3FA83F35B00194603238B40DB4373
:100578001A40BB687B617B6993FAA3F33B613B69D3
:10058800B3FA83F35B0019467B688B401A43FB6818
:100598009A602437BD465DF8047B704780B489B003
:1005A80000AFF860B9607A60FB68DA68BB68FB6125
:1005B800FB6993FAA3F3BB61BB69B3FA83F35B00EE
:1005C800194603238B40DB431A40BB687B617B6978
:1005D80093FAA3F33B613B69B3FA83F35B001946D3
:1005E8007B688B401A43FB68DA602437BD465DF8A8
:1005F800047B704780B489B000AFF860B9607A6056
:10060800FB685A6ABB681B0AFB61FB6993FAA3F390
:10061800BB61BB69B3FA83F39B0019460F238B4078
:10062800DB431A40BB681B0A7B617B6993FAA3F31F
:100638003B613B69B3FA83F39B0019467B688B40A7
:100648001A43FB685A622437BD465DF8047B70473D
:1006580080B483B000AF786039607B683A689A618B
:100668000C37BD465DF8047B704700BF80B483B08B
:1006780000AF786039607B683A689A620C37BD468B
:100688005DF8047B704700BF80B483B000AF78602A
:1006980039607B685A693B685A407B685A610C37F5
:1006A800BD465DF8047B704780B483B000AF7860C6
:1006B8000549054B1A687B6813430B600C37BD4628
:1006C8005DF8047B704700BF0004014080B483B02C
:1006D80000AF78600549054BDA687B681343CB6047
:1006E8000C37BD465DF8047B704700BF000401402D
:1006F80080B483B000AF78607B681B6843F0400229
:100708007B681A600C37BD465DF8047B704700BFF4
:1007180080B483B000AF786039607B681B6823F4CD
:1007280082723B681A437B681A600C37BD465DF8D5
:10073800047B704780B483B000AF786039607B6811
:100748001B6823F001023B681A437B681A600C3768
:10075800BD465DF8047B704780B483B000AF786015
:1007680039607B681B6823F002023B681A437B6888
:100778001A600C37BD465DF8047B704780B483B0BF
:1007880000AF786039607B681B6823F038023B68EB
:100798001A437B681A600C37BD465DF8047B7047C6
:1007A80080B483B000AF786039607B681B6823F43D
:1007B80044423B681A437B681A600C37BD465DF8B3
:1007C800047B704780B483B000AF786039607B6881
:1007D8005B6823F470623B681A437B685A600C3785
:1007E800BD465DF8047B704780B483B000AF786085
:1007F80039607B685B6823F480523B681A437B68E6
:100808005A600C37BD465DF8047B704780B483B0EE
:1008180000AF786039607B681B6823F400723B681E
:100828001A437B681A607B685B6823F004023B68A4
:100838001B0C1A437B685A600C37BD465DF8047B75
:10084800704700BF80B483B000AF78607B685B6896
:1008580043F020027B685A600C37BD465DF8047B84
:10086800704700BF80B483B000AF78607B685B6876
:1008780043F040027B685A600C37BD465DF8047B44
:10088800704700BF80B483B000AF78607B685B6856
:1008980043F080027B685A600C37BD465DF8047BE4
:1008A800704700BF80B483B000AF78607B685B6836
:1008B80023F040027B685A600C37BD465DF8047B24
:1008C800704700BF80B483B000AF78607B685B6816
:1008D80023F080027B685A600C37BD465DF8047BC4
:1008E800704700BF80B483B000AF78607B68DB6876
:1008F800DBB218460C37BD465DF8047B704700BF75
:1009080080B483B000AF78600B46FB707B680C3313
:10091800FA781A700C37BD465DF8047B704700BF43
:1009280080B500AF00F076F900F0A0F800F00AF802
:1009380000F0D0F800F0FCF800F090F800F010F9A2
:10094800FEE700BF80B500AF4FF40020FFF788FC3A
:1009580040484FF480610222FFF7C8FD3D484FF43C
:1009680080610622FFF746FE3A484FF48061032271
:10097800FFF7E8FD37484FF480610222FFF70EFECB
:1009880034484FF400610222FFF7B0FD31484FF4BC
:1009980000610622FFF72EFE2E484FF40061032265
:1009A800FFF7D0FD2B484FF400610222FFF7F6FD58
:1009B80028484FF480510222FFF798FD25484FF44C
:1009C80080510622FFF716FE22484FF48051032279
:1009D800FFF7B8FD1F484FF480510222FFF7DEFDF4
:1009E80033200021FFF712FC3320FFF7F7FB4FF409
:1009F8000040FFF74DFC18483821FFF7BFFE1648A6
:100A08000021FFF7CDFE14480121FFF793FE12489D
:100A18000221FFF7A1FE10484FF4E061FFF7D2FE74
:100A28000D484FF40071FFF7F1FE0B484FF4805169
:100A3800FFF7DAFE08484FF48271FFF769FE0648AF
:100A4800FFF710FF0448FFF71DFF0348FFF7FAFE02
:100A580080BD00BF00080048003C004080B500AFE2
:100A68000148FFF745FE80BD003C004080B500AF5F
:100A78004FF48020FFF7F4FB03484FF400510122A4
:100A8800FFF734FD80BD00BF0004004880B500AF0B
:100A980002484FF40051FFF7DBFD80BD0004004819
:100AA80080B500AF02484FF40051FFF7DFFD80BD6D
:100AB8000004004880B582B000AF786004484FF465
:100AC8000051FFF7E1FD786800F05AFAF6E700BF39
:100AD8000004004880B500AF4FF40020FFF7C0FBCA
:100AE80011484FF400510022FFF700FD0E484FF463
:100AF80000510022FFF752FD0120FFF7E1FB022021
:100B08000A49FFF7B5FC4FF40050FFF7CDFD4FF44D
:100B18000050FFF7DBFD2820FFF760FB28200321AA
:100B2800FFF774FB80BD00BF000800480300F00019
:100B380080B500AF07E008484FF40051FFF7A4FD67
:100B4800C82000F01DFA054B1B78DBB2002BF2D051
:100B5800FFF7A6FF80BD00BF00040048B4000020D6
:100B680080B500AF00BF134B1B78DAB2124B1B786D
:100B78009A42F8D11148FFF7A5FE00BF104B1A782A
:100B8800104B1B78DBB29A42F8D80C48FFF78AFE64
:100B9800094B1B780C480D491A4600F019F8034612
:100BA800002B04D04FF47A70FFF784FF01E0FFF7C1
:100BB8006DFF80BDB500002092000020003C004081
:100BC80093000020B600002000000020B80000209C
:100BD80080B485B000AFF860B9601346FB710DE0D2
:100BE800FB681A78BB681B789A4201D001230BE096
:100BF800FB680133FB60BB680133BB60FB795A1E9D
:100C0800FA71002BECD1002318461437BD465DF865
:100C1800047B704780B500AF0220FFF753FCFFF755
:100C280075FB0346002B07D1FFF762FB00BFFFF7F8
:100C38006DFB0346012BFAD100204FF46011FFF73A
:100C4800F5FBFFF7D3FB00BFFFF7DEFB0346012BE5
:100C5800FAD10020FFF78EFB0220FFF769FB00BFE7
:100C6800FFF77AFB0346082BFAD14FF48060FFF7B1
:100C780095FB0020FFF7A6FB034800F075F9024832
:100C880000F0A2F980BD00BF0090D00380B400AF8F
:100C9800034B01221A70BD465DF8047B704700BF04
:100CA800B400002098B500AF074B1B78DBB25A1C84
:100CB800D1B2054A11701C460448FFF713FE0346DB
:100CC8001A46034B1A5598BDB6000020003C004058
:100CD800B800002080B500AF074B1B78DBB25A1C68
:100CE800D1B2054A11701A46044B9B5C0448194658
:100CF800FFF706FE80BD00BFB50000200000002001
:100D0800003C004080B500AF0548FFF7CBFD044824
:100D1800FFF7D8FD4FF47A70FFF7CCFE80BD00BF17
:100D2800003C004080B400AF1F4A1F4BD3F8883006
:100D380043F47003C2F888301C4A1C4B1B6843F00C
:100D4800010313601949194B5A68194B13404B603A
:100D5800164A164B1B6823F0847323F48033136000
:100D6800124A124B1B6823F4802313600F4A0F4B5F
:100D78005B6823F4FE0353600C4A0C4BDB6A23F0D8
:100D88000F03D3620949094B1A6B0A4B13400B63D3
:100D9800064B00229A60044B4FF000629A60BD46F1
:100DA8005DF8047B704700BF00ED00E000100240D2
:100DB8000CC07FF8CCFC00FF80B483B000AF786033
:100DC800074B5A697B681A407B689A420CBF01231B
:100DD8000023DBB218460C37BD465DF8047B70472C
:100DE8000004014080B483B000AF7860034A7B6898
:100DF80053610C37BD465DF8047B70470004014021
:100E080080B483B000AF78607B689B6803F001030F
:100E1800002B14BF01230023DBB218460C37BD4654
:100E28005DF8047B704700BF80B483B000AF786082
:100E38007B689B6803F00203002B14BF0123002387
:100E4800DBB218460C37BD465DF8047B704700BF1F
:100E580080B483B000AF78607B689B6803F0400380
:100E6800002B14BF01230023DBB218460C37BD4604
:100E78005DF8047B704700BF80B400AFBD465DF8E5
:100E8800047B704780B400AFFEE700BF80B400AFBA
:100E9800FEE700BF80B400AFFEE700BF80B400AF3C
:100EA800FEE700BF80B400AFBD465DF8047B704725
:100EB80080B400AFBD465DF8047B704780B400AFD6
:100EC800BD465DF8047B704780B400AFBD465DF851
:100ED800047B704780B500AF4FF40050FFF76CFFFC
:100EE8000346002B05D04FF40050FFF77BFFFFF7B8
:100EF800CDFE80BD80B500AF0D48FFF781FF0346EA
:100F0800002B02D0FFF7CEFE10E00948FFF78CFF58
:100F18000346002B02D0FFF7DDFE07E00448FFF789
:100F280097FF0346002B01D0FFF7ECFE80BD00BF02
:100F3800003C004080B483B000AF78603960094954
:100F48007A683B68B2FBF3F3013B4B60054B002228
:100F58009A60044B05221A600C37BD465DF8047B85
:100F6800704700BF10E000E080B582B000AF786045
:100F780078684FF47A71FFF7DDFF0837BD4680BD0A
:100F880080B485B000AF78600E4B1B68FB60FB68CF
:100F98007B68B3F1FF3F02D07B6801337B6008E0D8
:100FA800084B1B6803F48033002B02D07B68013B9D
:100FB8007B607B68002BF3D11437BD465DF8047B5A
:100FC800704700BF10E000E080B483B000AF7860E5
:100FD800034A7B6813600C37BD465DF8047B704795
:100FE80094000020DFF834D0002103E00C4B5B585C
:100FF800435004310B480C4B42189A42F6D30B4A23
:1010080002E0002342F8043B094B9A42F9D3FFF768
:1010180089FE00F011F8FFF783FCFEE7004000208E
:10102800AC10000800000020980000209800002064
:101038004C010020FEE7000070B50E4B0E4CE41A80
:10104800A41000251E46A54204D056F8253098471E
:101058000135F8E700F016F8084C094BE41AA4101B
:1010680000251E46A54204D056F82530984701357C
:10107800F8E770BDA4100008A4100008A810000824
:10108800A4100008F8B500BFF8BC08BC9E4670471D
:0C109800F8B500BFF8BC08BC9E467047CD
:0410A400AD01000892
:0410A80089010008B2
:1010AC002A2A2A2A205350495F54776F426F617263
:1010BC0064735F46756C6C4475706C65785F4954ED
:1010CC0020636F6D6D756E69636174696F6E202A34
:1010DC002A2A2A205350495F54776F426F617264F9
:1010EC00735F46756C6C4475706C65785F49542001
:1010FC00636F6D6D756E69636174696F6E202A2AFA
:10110C002A2A205350495F54776F426F617264737F
:10111C005F46756C6C4475706C65785F49542063E0
:10112C006F6D6D756E69636174696F6E202A2A2A02
:08113C002A00929200127A00D1
:0400000508000FEDF3
:00000001FF
