:020000040800F2
:100000000040002079510008C9510008C95100087A
:10001000C9510008C9510008C9510008000000007A
:10002000000000000000000000000000C9510008AE
:10003000C951000800000000C95100081517000848
:10004000C9510008C9510008C9510008C951000828
:10005000C9510008C9510008C9510008C951000818
:10006000C9510008C9510008C9510008C951000808
:10007000C9510008C9510008C9510008C9510008F8
:10008000C9510008C9510008C9510008C9510008E8
:10009000C9510008C9510008C9510008C9510008D8
:1000A000C951000825170008C9510008C9510008A6
:1000B000C95100080000000000000000C9510008FC
:1000C000C9510008C9510008C951000800000000CA
:1000D000C9510008C9510008C9510008C951000898
:1000E000C9510008C9510008C951000800000000AA
:1000F0000000000000000000000000000000000000
:10010000000000000000000000000000C9510008CD
:100110000000000000000000C951000800000000BD
:1001200000000000000000000000000000000000CF
:1001300000000000000000000000000000000000BF
:10014000C9510008C951000800000000000000006B
:10015000000000000000000000000000000000009F
:10016000C9510008C9510008C9510008C951000807
:10017000C95100080000000000000000000000005D
:0801800000000000C951000855
:1001880010B5054C237833B9044B13B10448AFF3C9
:1001980000800123237010BD6C00002000000000C7
:1001A800605A0008084B10B51BB108480849AFF35E
:1001B80000800848036803B910BD074B002BFBD02B
:1001C800BDE81040184700BF00000000605A000852
:1001D800700000206C0000200000000081F0004149
:1001E80002E000BF83F0004330B54FEA41044FEA14
:1001F800430594EA050F08BF90EA020F1FBF54EAAF
:10020800000C55EA020C7FEA645C7FEA655C00F04A
:10021800E2804FEA5454D4EB5555B8BF6D420CDD1B
:100228002C4480EA020281EA030382EA000083EA9E
:10023800010180EA020281EA0303362D88BF30BD3E
:1002480011F0004F4FEA01314FF4801C4CEA113194
:1002580002D0404261EB410113F0004F4FEA0333F3
:100268004CEA133302D0524263EB430394EA050F7E
:1002780000F0A780A4F10104D5F1200E0DDB02FAED
:100288000EFC22FA05F2801841F1000103FA0EF281
:10029800801843FA05F359410EE0A5F120050EF147
:1002A800200E012A03FA0EFC28BF4CF0020C43FA78
:1002B80005F3C01851EBE37101F0004507D54FF085
:1002C800000EDCF1000C7EEB00006EEB0101B1F5D5
:1002D800801F1BD3B1F5001F0CD349085FEA30001B
:1002E8004FEA3C0C04F101044FEA445212F5800F26
:1002F80080F09A80BCF1004F08BF5FEA500C50F1C3
:10030800000041EB045141EA050130BD5FEA4C0CA5
:10031800404141EB010111F4801FA4F10104E9D12E
:1003280091F0000F04BF01460020B1FA81F308BF25
:100338002033A3F10B03B3F120020CDA0C3208DDF1
:1003480002F1140CC2F10C0201FA0CF021FA02F1CC
:100358000CE002F11402D8BFC2F1200C01FA02F13C
:1003680020FA0CFCDCBF41EA0C019040E41AA2BF61
:1003780001EB0451294330BD6FEA04041F3C1CDA29
:100388000C340EDC04F11404C4F1200220FA04F049
:1003980001FA02F340EA030021FA04F345EA0301F3
:1003A80030BDC4F10C04C4F1200220FA02F001FAB5
:1003B80004F340EA0300294630BD21FA04F0294637
:1003C80030BD94F0000F83F4801306BF81F48011D0
:1003D8000134013D4EE77FEA645C18BF7FEA655C43
:1003E80029D094EA050F08BF90EA020F05D054EA15
:1003F800000C04BF1946104630BD91EA030F1EBF1A
:100408000021002030BD5FEA545C05D1400049411D
:1004180028BF41F0004130BD14F580043CBF01F510
:10042800801130BD01F0004545F0FE4141F47001F6
:100438004FF0000030BD7FEA645C1ABF19461046D1
:100448007FEA655C1CBF0B46024650EA013406BFD2
:1004580052EA033591EA030F41F4002130BD00BF91
:1004680090F0000F04BF0021704730B54FF480644E
:1004780004F132044FF000054FF0000150E700BFCF
:1004880090F0000F04BF0021704730B54FF480642E
:1004980004F1320410F0004548BF40424FF000011B
:1004A8003EE700BF42004FEAE2014FEA31014FEA5E
:1004B80002701FBF12F07F4393F07F4F81F06051AD
:1004C800704792F0000F14BF93F07F4F704730B51C
:1004D8004FF4607401F0004521F0004120E700BFAF
:1004E80050EA010208BF704730B54FF000050AE036
:1004F80050EA010208BF704730B511F0004502D537
:10050800404261EB41014FF4806404F132045FEA38
:10051800915C3FF4DCAE4FF003025FEADC0C18BFDD
:1005280003325FEADC0C18BF033202EBDC02C2F1D3
:10053800200300FA03FC20FA02F001FA03FE40EA65
:100548000E0021FA02F11444C1E600BF70B54FF065
:10055800FF0C4CF4E06C1CEA11541DBF1CEA135547
:1005680094EA0C0F95EA0C0F00F0DEF82C4481EAAF
:10057800030621EA4C5123EA4C5350EA013518BFCF
:1005880052EA033541F4801143F4801338D0A0FBBC
:1005980002CE4FF00005E1FB02E506F00042E0FB69
:1005A80003E54FF00006E1FB03569CF0000F18BF6F
:1005B8004EF0010EA4F1FF04B6F5007F64F5407417
:1005C80004D25FEA4E0E6D4146EB060642EAC621AA
:1005D80041EA55514FEAC52040EA5E504FEACE2E17
:1005E800B4F1FD0C88BFBCF5E06F1ED8BEF1004F1A
:1005F80008BF5FEA500E50F1000041EB045170BD96
:1006080006F0004646EA010140EA020081EA0301D9
:10061800B4EB5C04C2BFD4EB0C0541EA045170BDD5
:1006280041F480114FF0000E013C00F3AB8014F14F
:10063800360FDEBF002001F0004170BDC4F1000498
:10064800203C35DA0C341BDC04F11404C4F1200519
:1006580000FA05F320FA04F001FA05F240EA020074
:1006680001F0004221F0004110EBD37021FA04F6AA
:1006780042EB06015EEA430E08BF20EAD37070BD64
:10068800C4F10C04C4F1200500FA04F320FA05F0C3
:1006980001FA04F240EA020001F0004110EBD370C5
:1006A80041F100015EEA430E08BF20EAD37070BD35
:1006B800C4F1200500FA05F24EEA020E20FA04F30E
:1006C80001FA05F243EA020321FA04F001F00041BD
:1006D80021FA04F220EA020000EBD3705EEA430E2E
:1006E80008BF20EAD37070BD94F0000F0FD101F05D
:1006F8000046400041EB010111F4801F08BF013C96
:10070800F7D041EA060195F0000F18BF704703F0D3
:100718000046520043EB030313F4801F08BF013D5A
:10072800F7D043EA0603704794EA0C0F0CEA135516
:1007380018BF95EA0C0F0CD050EA410618BF52EAD0
:100748004306D1D181EA030101F000414FF00000D6
:1007580070BD50EA410606BF1046194652EA4306E4
:1007680019D094EA0C0F02D150EA013613D195EA58
:100778000C0F05D152EA03361CBF104619460AD1A0
:1007880081EA030101F0004141F0FE4141F47001AA
:100798004FF0000070BD41F0FE4141F4780170BD9A
:1007A80070B54FF0FF0C4CF4E06C1CEA11541DBFFF
:1007B8001CEA135594EA0C0F95EA0C0F00F0A7F801
:1007C800A4EB050481EA030E52EA03354FEA01312E
:1007D80000F088804FEA03334FF0805545EA131341
:1007E80043EA12634FEA022245EA111545EA106509
:1007F8004FEA00260EF000419D4208BF964244F1A0
:10080800FD0404F5407402D25B084FEA3202B61ABE
:1008180065EB03055B084FEA32024FF480104FF492
:10082800002CB6EB020E75EB030E22BFB61A754606
:1008380040EA0C005B084FEA3202B6EB020E75EB99
:10084800030E22BFB61A754640EA5C005B084FEA01
:100858003202B6EB020E75EB030E22BFB61A7546CE
:1008680040EA9C005B084FEA3202B6EB020E75EBD9
:10087800030E22BFB61A754640EADC0055EA060E9A
:1008880018D04FEA051545EA16754FEA06164FEADD
:10089800C30343EA52734FEAC2025FEA1C1CC0D189
:1008A80011F4801F0BD141EA00014FF000004FF016
:1008B800004CB6E711F4801F04BF01430020B4F1D7
:1008C800FD0C88BFBCF5E06F3FF6AFAEB5EB030C8F
:1008D80004BFB6EB020C5FEA500C50F1000041EB8C
:1008E800045170BD0EF0004E4EEA113114EB5C0459
:1008F800C2BFD4EB0C0541EA045170BD41F480112C
:100908004FF0000E013C90E645EA060E8DE60CEA33
:10091800135594EA0C0F08BF95EA0C0F3FF43BAF50
:1009280094EA0C0F0AD150EA01347FF434AF95EA07
:100938000C0F7FF425AF104619462CE795EA0C0FEB
:1009480006D152EA03353FF4FDAE1046194622E7B8
:1009580050EA410618BF52EA43067FF4C5AE50EA92
:1009680041047FF40DAF52EA43057FF4EBAE12E782
:1009780080B582B000AF1E4A1D4B9B6943F001034E
:1009880093611B4B9B6903F001037B607B68032029
:1009980001F050FE6FF00B000021002201F054FE20
:1009A8006FF00A000021002201F04EFE6FF00900EE
:1009B8000021002201F048FE6FF00400002100220F
:1009C80001F042FE6FF003000021002201F03CFE1E
:1009D8006FF001000F21002201F036FE4FF0FF30CA
:1009E8000F21002201F030FE0837BD4680BD00BF50
:1009F8000010024080B58AB000AF78607B681B6841
:100A0800224A93421CD1224A214B9B6943F48043DA
:100A180093611F4B9B6903F480433B613B6930231F
:100A28007B610223BB610123FB6100233B62072337
:100A38007B6207F114031748194603F01BFA21E0FB
:100A48007B681B68144A93421CD1114A104BDB691E
:100A580043F40033D3610E4BDB6903F40033FB60CE
:100A6800FB680C237B610223BB610023FB6100232D
:100A78003B6207237B6207F114034FF0904019464D
:100A880003F0F8F92837BD4680BD00BF00380140A3
:100A980000100240000800480044004080B58CB0B7
:100AA80000AF78600023FB620023BB6219207968DD
:100AB800002201F0C9FD192001F0E2FD1E4A1E4B7B
:100AC8009B6943F4006393611B4B9B6903F40063C8
:100AD800FB60FB6807F1140207F110031046194682
:100AE80003F098F903F074F9F862FB6A134AA2FB61
:100AF80003239B0C013BBB62114B124A1A60104B3B
:100B080040F2E732DA600E4ABB6A53600C4B0022AF
:100B18001A610B4B00229A60094803F01FFE034636
:100B2800002B04D1064803F04FFE034600E00123E2
:100B380018463037BD4680BD0010024083DE1B4397
:100B480098000020002C014080B5A2B002AF01F04F
:100B58005DFC00F009FC00F07DFC00F04DFC00F0AD
:100B68001FFD01F0AFF84FF6FF7001F04FFA0320B8
:100B780001F04EF8012300934FF6FF730193964856
:100B88000A210A22002300F04DFF4FF4FA6001F019
:100B98006DFC4FF6FF7001F039FA00237B670023E4
:100BA800FB670023A7F87A300023FB6717E00023D0
:100BB800A7F87A300CE04FF4784001F027FA4FF4A8
:100BC800787001F023FAB7F87A300133A7F87A3051
:100BD800B7F87A30092BEED9FB6F0133FB67FB6F4F
:100BE800012BE4D94FF4DE737B674FF6FF7001F0F9
:100BF8000DFA032001F00CF87B6F5B0007F1280267
:100C0800104676491A4604F00FFB07F12802012323
:100C180000934FF6FF73019310460A210A2200231E
:100C280000F000FF7B6F07EE903AF8EE677A9FEDD1
:100C38006C7AC7EE877A77EEA77A17EE900AFFF7F5
:100C480031FC02460B46C7E91A2307F12803184668
:100C58006449D7E91A2304F0E7FA07F128020223C6
:100C680000934FF6FF73019310460A211E220023BA
:100C780000F0D8FE7B6F07EE903AF8EE677A9FEDAA
:100C8800587AC7EE877AB3EE047AC7EE277A17EE5A
:100C9800900AFFF707FC02460B46C7E9182307F13D
:100CA800280318465049D7E9182304F0BDFA07F17C
:100CB8002802022300934FF6FF73019310460A217E
:100CC8003222002300F0AEFED7E918014FF00002EF
:100CD800464BFFF73BFC02460B46104619464FF0C1
:100CE8000002434BFFF732FC02460B4610461946FA
:100CF800FFF77AFA02460B461046194634A3D3E9A1
:100D08000023FFF74DFD02460B46C7E9162307F1FE
:100D1800280318463749D7E9162304F085FA07F15E
:100D28002802022300934FF6FF73019310460A210D
:100D38004622002300F076FED7E916014FF00002A4
:100D48002D4BFFF72DFD02460B46104619464FF076
:100D580000022A4BFFF7FAFB02460B46C7E91423A9
:100D680007F1280318462649D7E9142304F05CFA4A
:100D780007F12802022300934FF6FF7301931046F0
:100D88000A215A22002300F04DFE42F2107001F0B1
:100D98006DFB4FF6FF7001F039F9032000F038FFC2
:100DA800012300934FF6FF73019316480A210A2284
:100DB800002300F037FE4FF4FA6001F057FB4FF6BE
:100DC800FF7001F023F90023A7F87A30B0E000BFE4
:100DD8000000000080842E41785A0008945A0008C8
:100DE80000409C46AC5A0008BC5A000800006E40FF
:100DF80000007440C85A000800001940000059401B
:100E0800D45A0008E85A0008B7F87A303A4610462B
:100E1800CB491A4604F008FA3A46022300934FF6E3
:100E2800FF73019310460A210A22002300F0FAFDFD
:100E38003A46022300934FF6FF73019310460A21A6
:100E48001E221F2300F0EEFD3A46022300934FF6C0
:100E5800FF73019310460A2132224FF4784300F0C1
:100E6800E1FD3A46022300934FF6FF7301931046C3
:100E78000A2146224FF4FC6300F0D4FD3A460223CF
:100E880000934FF6FF73019310460A215A2200235C
:100E980000F0C8FD3A46022300934FF6FF73019312
:100EA80010460A216E221F2300F0BCFD3A46022399
:100EB80000934FF6FF73019310460A2182224FF4E4
:100EC800784300F0AFFD3A46022300934FF6FF73D4
:100ED800019310460A2196224FF4FC6300F0A2FD0C
:100EE8003A46022300930023019310460A21AA22BE
:100EF8004FF6FF7300F096FD3A4602230093002355
:100F0800019310460A21BE221F2300F08BFD3A46AA
:100F1800022300930023019310460A21D2224FF4A2
:100F2800784300F07FFDB7F87A300133A7F87A30BC
:100F3800B7F87A300A2B7FF667AF4FF47A7001F072
:100F480095FA4FF6FF7001F061F8032000F060FE9B
:100F5800012300934FF6FF7301937A480A210A226E
:100F6800002300F05FFD4FF4FA6001F07FFA4FF6BE
:100F7800FF7001F04BF80023A7F87A3018E0B7F8B3
:100F88007A303A4610466E491A4604F04DF93A4608
:100F9800032300934FF6FF73019310460A210A2298
:100FA800002300F03FFDB7F87A300133A7F87A3014
:100FB800B7F87A30642BE2D94FF47A7001F056FA18
:100FC8004FF6FF7001F022F8032000F021FE012304
:100FD80000934FF6FF7301935B480A210A2200230E
:100FE80000F020FD4FF4FA6001F040FA4FF6FF7070
:100FF80001F00CF80023009332203221642264238C
:1010080000F094FB00230093142014213222322391
:1010180000F00EFC002300930A200A211322132358
:1010280000F084FB4FF47A7001F020FA4FF6FF705D
:1010380000F0ECFF032000F0EBFD012300934FF6D6
:10104800FF73019341480A210A22002300F0EAFCB9
:10105800012300934FF6FF7301933D480A211422A0
:10106800002300F0DFFC4FF4FA6001F0FFF94FF6BF
:10107800FF7000F0CBFF4FF47A7001F0F7F94FF6EC
:10108800FF7000F0C3FF032000F0C2FD01230093AE
:101098004FF6FF7301932F480A210A22002300F01C
:1010A800C1FC012300934FF6FF7301932A480A21DC
:1010B8001422002300F0B6FC4FF4FA6001F0D6F9D0
:1010C8004FF6FF7000F0A2FF244B00221A80244B39
:1010D80000221A8028E015E0204B1B8803F001034A
:1010E8009BB2002B08D01D4B1A881D4B1B8810463D
:1010F8001946002200F0B0FF184B1B8801339AB242
:10110800164B1A80154B1B88B3F5A07F03D2144BDE
:101118001B88EF2BE0D9124B1B8801339AB2104B76
:101128001A800E4B00221A800D4B1B88EF2BD2D948
:101138000A4B00221A800A4B00221A803AE027E064
:101148000C5B00081C5B0008345B0008505B00085F
:101158006C5B00088C5B0008A45B0008880000201A
:101168008A000020774B1B8803F001039BB2002BF9
:1011780008D0754B1A88734B1B88104619460022F5
:1011880000F06AFF704B1B8801339AB26E4B1A80CD
:101198006D4B1B88B3F5A07F03D26A4B1B88EF2BDE
:1011A800E0D9684B1B8801339AB2664B1A80664BAC
:1011B80000221A80634B1B88EF2BC0D94FF4FA60CA
:1011C80001F054F94FF6FF7000F020FF032000F003
:1011D8001FFD012300934FF6FF7301935B480A211B
:1011E8000A22002300F01EFC012300934FF6FF7330
:1011F800019357480A211422002300F013FC4FF4EE
:10120800FA6001F033F90023A7F87A3047E00023A9
:10121800A7F84E300023A7F84C300023A7F84A302F
:10122800B7F87A304B4AA2FB0323DB08A7F84E3005
:10123800B7F84E30DB02A7F84E30B7F87A30454A97
:10124800A2FB03239B08A7F84C30B7F84C305B018E
:10125800A7F84C30B7F87A303E4AA2FB0323DB08E4
:10126800A7F84A30B7F84E20B7F84C3013449AB272
:10127800B7F84A301344A7F84830334B1A88B7F800
:101288007A10B7F848300093084611460122F02337
:1012980000F0B8FFB7F87A300133A7F87A30B7F81A
:1012A8007A30B3F5A07FB2D94FF4FA6001F0DEF8D6
:1012B8004FF6FF7000F0AAFE032000F0A9FC0123FE
:1012C80000934FF6FF73019323480A210A22002353
:1012D80000F0A8FB012300934FF6FF7301931F480A
:1012E8000A211422002300F09DFB4FF4FA6001F05C
:1012F800BDF8002000F08CFC42F2107001F0B6F846
:101308004FF6FF7000F082FE032000F081FC0223FC
:1013180000934FF6FF73019311480A210A22002314
:1013280000F080FB022300934FF6FF7301930D48F2
:101338000A211E22002300F075FB002000F068FC43
:1013480011E400BF8A00002088000020BC5B000870
:10135800CC5B0008CDCCCCCCD85B0008E45B0008A3
:10136800EC5B0008F85B000880B590B000AF022382
:10137800BB610123BB621023FB6202237B63002352
:10138800BB634FF46013FB6307F11803184601F0C1
:10139800B9F90346002B01D000F0FEF80F237B605B
:1013A8000223BB600023FB604FF480633B61002392
:1013B8007B613B1D1846022102F070FA0346002BA0
:1013C80001D000F0E9F802F0D5FC0246094BA3FB76
:1013D80002239B09184601F061F9042001F06AF91B
:1013E8004FF0FF300F21002201F02EF94037BD46A3
:1013F80080BD00BFD34D621080B500AF134B144AB7
:101408001A60124B4FF416525A60104B00229A6021
:101418000E4B0022DA600D4B00221A610B4B0C2296
:101428005A610A4B00229A61084B0022DA61074B85
:1014380000221A62054B00225A62044802F0A2FEFA
:101448000346002B01D000F0A7F880BDD80000208B
:101458000038014080B58AB000AF454A444B5B690B
:1014680043F400235361424B5B6903F400233B615F
:101478003B693F4A3E4B5B6943F4800353613C4BF5
:101488005B6903F48003FB60FB68394A384B5B698E
:1014980043F400335361364B5B6903F40033BB609C
:1014A800BB68334A324B5B6943F480235361304B4A
:1014B8005B6903F480237B607B682D4A2C4B5B6956
:1014C80043F4801353612A4B5B6903F480133B6038
:1014D8003B6828484FF40051002202F03BFE4FF0D1
:1014E80090404FF40041002202F034FE22480421CB
:1014F800002202F02FFE4FF400537B611F4BBB61AB
:101508000023FB6107F114031D48194602F0B2FCE1
:101518004FF400537B610123BB610023FB6103236C
:101528003B6207F114031348194602F0A3FC4FF479
:1015380000437B610123BB610023FB6103233B6202
:1015480007F114034FF09040194602F093FC04236E
:101558007B610123BB610023FB6103233B6207F12D
:1015680014030548194602F085FC2837BD4680BD9E
:101578000010024000040048000C00480000211040
:101588000008004880B483B000AF78600C37BD46CF
:101598005DF8047B704700BF80B400AFFEE700BF72
:1015A80080B500AF1A4B1B4A1A60194B4FF4827270
:1015B8005A60174B00229A60154B4FF4E062DA60CC
:1015C800134B00221A61124B00225A61104B4FF440
:1015D80000729A610E4B0022DA610D4B00221A62EA
:1015E8000B4B00225A620A4B00229A62084B0722D0
:1015F800DA62074B00221A63054B00225A6304483B
:1016080003F0B2FA0346002B01D0FFF7C5FF80BDF7
:1016180048010020003C004080B588B000AF7860E9
:101628007B681B68114A93421CD1114A104BDB6935
:1016380043F40043D3610E4BDB6903F40043BB6002
:10164800BB684FF4E053FB6002233B6100237B61DE
:101658000323BB610623FB6107F10C030548194608
:1016680002F008FC2037BD4680BD00BF003C0040AA
:10167800001002400008004880B400AF1F4A1F4B0A
:10168800D3F8883043F47003C2F888301C4A1C4BE6
:101698001B6843F0010313601949194B5A68194B29
:1016A80013404B60164A164B1B6823F0847323F4CF
:1016B80080331360124A124B1B6823F48023136093
:1016C8000F4A0F4B5B6823F4FE0353600C4A0C4B24
:1016D800DB6A23F00F03D3620949094B1A6B0A4BE3
:1016E80013400B63064B00229A60044B4FF00062D4
:1016F8009A60BD465DF8047B704700BF00ED00E0CE
:10170800001002400CC07FF8CCFC00FF80B500AF91
:1017180000F092FE00F0EAFF80BD00BF80B500AF88
:10172800014803F06DF880BD9800002090B587B09F
:1017380000AF0446084611461A462346FB80034676
:10174800BB800B467B8013463B800023FB82002333
:10175800BB820023FB740023BB744FF00003FB60C3
:101768007A88FB88D31A07EE903AF8EEE77AC7ED45
:10177800037AD7ED037AF5EEC07AF1EE10FA01D5C7
:101788000123FB744FF00003FB603A88BB88D31A2F
:1017980007EE903AF8EEE77AC7ED037AD7ED037AC9
:1017A800F5EEC07AF1EE10FA01D50123BB74FB7C8B
:1017B800002B04D17A88FB88D31AFB8203E0FA88CD
:1017C8007B88D31AFB82F888B988FA8A3B8D00F0A7
:1017D80077FDF8883988FA8A3B8D00F071FDBB7C6B
:1017E800002B04D13A88BB88D31ABB8203E0BA889D
:1017F8003B88D31ABB82F888B988BA8A3B8D00F037
:10180800A3FD7888B988BA8A3B8D00F09DFDFB8AD4
:10181800002B02D1BB8A002B07D079883A883B8DF0
:10182800084611461A4600F017FC1C37BD4690BD05
:1018380090B589B002AF0446084611461A462346B9
:10184800FB800346BB800B467B8013463B8000230E
:10185800FB820023BB820023FB740023BB7400239C
:10186800BB6000233B820023FB817A88FB88D31A64
:10187800BB60BB68002B01DA0123FB740023BB604B
:101888003A88BB88D31ABB60BB68002B01DA0123F6
:10189800BB74FB7C002B06D17A88FB88D31AFB82A9
:1018A800FB883B8205E0FA887B88D31AFB827B8819
:1018B8003B82BB7C002B06D13A88BB88D31ABB82FB
:1018C800BB88FB8105E0BA883B88D31ABB823B887A
:1018D800FB81388AF989FA8ABC8A3B8D00932346B2
:1018E80000F090FC1C37BD4690BD00BF90B589B094
:1018F80002AF0446084611461A462346FB710346C2
:10190800BB710B467B7113467B80FB79FB75FB7DB6
:101918001F2B02D80023FB7102E0FB7D203BFB75E7
:1019280000233B7512E0397DFA7D387D3C4C134627
:101938005B0013445B00034423441A7807F118033F
:101948000B4403F80C2C3B7D01333B753B7D052B89
:10195800E9D9BB7998B27B7999B23B8D1A46520086
:1019680013445B009AB23B8DDB009CB2BB8D0093A5
:10197800234600F047FC00237B754AE00023BB7533
:1019880041E07B7D07F11802134413F80C3C1A461A
:10199800BB7D42FA03F303F00103002B30D03B8DEB
:1019A800012B12D1BB799AB27B7D9BB2134499B2B9
:1019B8007B799AB2BB7D9BB213449AB27B88084666
:1019C80011461A4600F048FB1AE0BB799AB27B7DB3
:1019D8009BB2398D11FB03F39BB2134498B27B7908
:1019E8009AB2BB7D9BB2398D11FB03F39BB21344B2
:1019F80099B23A8D3C8D7B880093234600F002FC17
:101A0800BB7D0133BB75BB7D072BBAD97B7D013309
:101A18007B757B7D052BB1D91C37BD4690BD00BFBA
:101A2800205C000890B585B002AF78600846114682
:101A38001A460346FB700B46BB7013463B8017E003
:101A48007B685A1C7A601878F978BA783C883B8B9E
:101A58000093BB8B01932346FFF748FF3B8BDBB218
:101A68001A46520013445B00DAB2FB781344FB7049
:101A78007B681B78002BE3D10C37BD4690BD00BFB7
:101A880080B500AFFFF78CFD02480421002202F068
:101A980061FB80BD000C004880B582B000AF0346F2
:101AA800FB71FB1D044819460122012303F0ECF8E1
:101AB8000837BD4680BD00BF4801002080B582B010
:101AC80000AF0346FB710C480421002202F042FBE0
:101AD8004FF090404FF40041002202F03BFBFB79AD
:101AE8001846FFF7D9FF04480421012202F032FB0F
:101AF8000837BD4680BD00BF000C004880B582B0E5
:101B080000AF0346FB714FF090404FF400410122B3
:101B180002F020FB08480421002202F01BFBFB799D
:101B28001846FFF7B9FF04480421012202F012FB0E
:101B38000837BD4680BD00BF000C004890B583B093
:101B480000AF0446084611461A462346FB80034662
:101B5800BB800B467B8013463B802A20FFF7AEFFF5
:101B6800FB881B0A9BB2DBB21846FFF7C7FFFB884E
:101B7800DBB21846FFF7C2FF7B881B0A9BB2DBB2B9
:101B88001846FFF7BBFF7B88DBB21846FFF7B6FFA6
:101B98002B20FFF793FFBB881B0A9BB2DBB21846CA
:101BA800FFF7ACFFBB88DBB21846FFF7A7FF3B88FF
:101BB8001B0A9BB2DBB21846FFF7A0FF3B88DBB2DB
:101BC8001846FFF79BFF2C20FFF778FF0C37BD4620
:101BD80090BD00BF80B500AF4FF090404FF400516A
:101BE800012202F0B7FAC82000F040FC074804219F
:101BF800002202F0AFFAC82000F038FC4FF0904005
:101C08004FF40051012202F0A5FA80BD000C0048F3
:101C180080B584B000AF0346FB71FB79FB733620B7
:101C2800FFF74CFF012000F021FCFB7B032B37D88A
:101C380001A252F823F000BF511C0008671C0008DD
:101C48007D1C0008931C00084820FFF757FF164B1F
:101C5800F0221A80154B4FF4A0721A8021E0282038
:101C6800FFF74CFF104B4FF4A0721A800F4BF02275
:101C78001A8016E08820FFF741FF0B4BF0221A80EC
:101C88000A4B4FF4A0721A800BE0E820FFF736FFEA
:101C9800054B4FF4A0721A80044BF0221A8000E022
:101CA80000BF1037BD4680BD06000020040000209C
:101CB80080B500AF4FF090404FF40051012202F080
:101CC80049FA80BD80B500AFFFF7F2FFFFF7D8FEF5
:101CD800FFF780FF0120FFF7F1FE4FF47A7000F064
:101CE800C5FBCB20FFF7EAFE3920FFF707FF2C20C2
:101CF800FFF704FF0020FFF701FF3420FFF7FEFE87
:101D08000220FFF7FBFECF20FFF7D8FE0020FFF7E9
:101D1800F5FEC120FFF7F2FE3020FFF7EFFEE820C6
:101D2800FFF7CCFE8520FFF7E9FE0020FFF7E6FE6F
:101D38007820FFF7E3FEEA20FFF7C0FE0020FFF758
:101D4800DDFE0020FFF7DAFEED20FFF7B7FE642086
:101D5800FFF7D4FE0320FFF7D1FE1220FFF7CEFED7
:101D68008120FFF7CBFEF720FFF7A8FE2020FFF722
:101D7800C5FEC020FFF7A2FE2320FFF7BFFEC1204B
:101D8800FFF79CFE1020FFF7B9FEC520FFF796FE6F
:101D98003E20FFF7B3FE2820FFF7B0FEC720FFF76D
:101DA8008DFE8620FFF7AAFE3620FFF787FE482023
:101DB800FFF7A4FE3A20FFF781FE5520FFF79EFEAD
:101DC800B120FFF77BFE0020FFF798FE1820FFF7F1
:101DD80095FEB620FFF772FE0820FFF78FFE8220DF
:101DE800FFF78CFE2720FFF789FEF220FFF766FE3B
:101DF8000020FFF783FE2620FFF760FE0120FFF793
:101E08007DFEE020FFF75AFE0F20FFF777FE312016
:101E1800FFF774FE2B20FFF771FE0C20FFF76EFE14
:101E28000E20FFF76BFE0820FFF768FE4E20FFF735
:101E380065FEF120FFF762FE3720FFF75FFE0720FF
:101E4800FFF75CFE1020FFF759FE0320FFF756FE50
:101E58000E20FFF753FE0920FFF750FE0020FFF782
:101E68004DFEE120FFF72AFE0020FFF747FE0E2077
:101E7800FFF744FE1420FFF741FE0320FFF73EFE64
:101E88001120FFF73BFE0720FFF738FE3120FFF750
:101E980035FEC120FFF732FE4820FFF72FFE08204D
:101EA800FFF72CFE0F20FFF729FE0C20FFF726FE78
:101EB8003120FFF723FE3620FFF720FE0F20FFF723
:101EC8001DFE1120FFF7FAFD782000F0CFFA292037
:101ED800FFF7F4FD0020FFF79BFE80BD2DE9F043DE
:101EE8008DB000AF03463960FB806B461E46002369
:101EF800FB623B685B00B3F5FA7F02D23B68FB628A
:101F080002E04FF4FA73FB624FF090404FF4004147
:101F1800012202F01FF93B480421002202F01AF9BD
:101F2800FB881B0A9BB287F82330F96A0B46013BF2
:101F3800FB610A464FF000034FEAC30949EA5279A8
:101F48004FEAC2080A464FF00003DD0045EA527521
:101F5800D400CB1DDB08DB00ADEB030D6B46003373
:101F6800BB610023BB620EE0BA69BB6A134497F8F1
:101F780023201A70BB6A0133FA88D1B2BA69D154E6
:101F8800BB6A0233BB62BA6AFB6A9A42ECD33B680B
:101F98005B007B617A69FB6AB2FBF3F33B617B69A7
:101FA800FA6AB3FBF2F2F96A01FB02F29B1AFB60D0
:101FB8003B69002B12D000237B620BE0BA69FB6AF5
:101FC8009BB2114811461A460A2302F05DFE7B6A4D
:101FD80001337B627A6A3B699A42EFD3BA69FB683C
:101FE8009BB2094811461A460A2302F04DFE0548DD
:101FF8000421012202F0AEF8B5463437BD46BDE8EB
:10200800F08300BF000C00484801002080B582B072
:1020180000AF0346FB800E4B1B889AB20D4B1B8802
:102028009BB200200021FFF789FD094B1B889BB25A
:102038001A46084B1B889BB203FB02F31A46FB881F
:1020480018461146FFF74AFF0837BD4680BD00BF56
:10205800060000200400002080B586B000AF0346CB
:10206800FB800B46BB8013467B80624B1B889BB270
:10207800FA889A4280F0BA805F4B1B889BB2BA8874
:102088009A4280F0B3804FF090404FF40041002214
:1020980002F060F859480421002202F05BF82A2077
:1020A800FFF7FAFC4FF090404FF40041012202F094
:1020B80051F852480421012202F04CF84F480421FB
:1020C800002202F047F8FB881B0A9BB2DBB23B7583
:1020D800FB88DBB27B75FB8801331B12DBB2BB7557
:1020E800FB88DBB20133DBB2FB7507F1140344480C
:1020F80019460422012302F0C7FD404804210122A9
:1021080002F028F84FF090404FF40041002202F00E
:1021180021F83A480421002202F01CF82B20FFF78E
:10212800BBFC4FF090404FF40041012202F012F83E
:1021380032480421012202F00DF83048042100221F
:1021480002F008F8BB881B0A9BB2DBB23B74BB8861
:10215800DBB27B74BB8801331B12DBB2BB74BB8858
:10216800DBB20133DBB2FB7407F1100324481946D4
:102178000422012302F088FD20480421012201F0F5
:10218800E9FF4FF090404FF40041002201F0E2FFD8
:102198001A480421002201F0DDFF2C20FFF77CFC07
:1021A8004FF090404FF40041012201F0D3FF134853
:1021B8000421012201F0CEFF10480421002201F081
:1021C800C9FF7B881B0A9BB2DBB23B737B88DBB2FF
:1021D8007B7307F10C030A4819460222012302F017
:1021E80053FD06480421012201F0B4FF1837BD460B
:1021F80080BD00BF0600002004000020000C00483D
:102208004801002090B583B000AF04460846114647
:102218001A462346FB800346BB800B467B80134649
:102228003B80254B1B889BB2FA889A4205D2234BE8
:102238001B889BB2BA889A4200D33AE0FA887B8816
:102248001344013B1C4A128892B2934205DB1A4B95
:102258001B889AB2FB88D31A7B80BA883B881344C0
:10226800013B164A128892B2934205DB134B1B8836
:102278009AB2BB88D31A3B80FA887B8813449BB2F6
:10228800013B9CB2BA883B8813449BB2013B9BB28A
:10229800F988BA88084611462246FFF74FFC3B8862
:1022A8007A8802FB03F31A463B8B18461146FFF760
:1022B80015FE0C37BD4690BD060000200400002026
:1022C80090B583B000AF0446084611461A46234627
:1022D800FB800346BB800B467B8013463B80184B34
:1022E8001B889BB2FA889A4205D2164B1B889BB270
:1022F800BA889A4200D31FE0FA887B881344013BCE
:102308000F4A128892B2934205DB0D4B1B889AB292
:10231800FB88D31A7B80FA887B8813449BB2013BE5
:102328009AB2F888B988BB88FFF708FC7B883A8896
:1023380010461946FFF7D2FD0C37BD4690BD00BFC9
:10234800060000200400002090B583B000AF0446CA
:10235800084611461A462346FB800346BB800B46B7
:102368007B8013463B80184B1B889BB2FA889A42A5
:1023780005D2164B1B889BB2BA889A4200D31FE03D
:10238800BA887B881344013B104A128892B2934260
:1023980005DB0E4B1B889AB2BB88D31A7B80BA88A0
:1023A8007B8813449BB2013B9BB2F888B988FA88B2
:1023B800FFF7C4FB7B883A8810461946FFF78EFD65
:1023C8000C37BD4690BD00BF060000200400002069
:1023D80080B483B000AF78600C37BD465DF8047BED
:1023E800704700BF80B483B000AF78600C37BD463B
:1023F8005DF8047B704700BF80B483B000AF78609D
:102408000C37BD465DF8047B704700BF80B500AF50
:10241800084A084B1B6843F010031360032000F0C0
:1024280009F90020FEF73AFBFEF7A2FA0023184646
:1024380080BD00BF0020024080B400AF044B1B6881
:102448000133034A1360BD465DF8047B704700BF43
:10245800AC01002080B400AF034B1B681846BD4692
:102468005DF8047B704700BFAC01002080B584B0E4
:1024780000AF7860FFF7EEFFB8607B68FB60FB6831
:10248800B3F1FF3F02D0FB680133FB6000BFFFF7E9
:10249800E1FF0246BB68D21AFB689A42F7D31037AD
:1024A800BD4680BD80B485B000AF78607B6803F01E
:1024B8000703FB600C4BDB68BB60BA684FF6FF0391
:1024C8001340BB60FB681A02BB68134343F0BF6349
:1024D80043F40033BB60044ABB68D3601437BD467D
:1024E8005DF8047B704700BF00ED00E080B400AFEA
:1024F800044BDB6803F4E0631B0A1846BD465DF82D
:10250800047B704700ED00E080B483B000AF034661
:10251800FB71084997F907305B09FA7902F01F0245
:10252800012000FA02F241F823200C37BD465DF87D
:10253800047B704700E100E080B483B000AF03463D
:102548003960FB7197F90730002B0BDA0D49FB79DD
:1025580003F00F03043B3A68D2B21201D2B20B4423
:102568001A7609E0084997F907303A68D2B2120199
:10257800D2B20B4483F800230C37BD465DF8047BC8
:10258800704700BF00ED00E000E100E080B489B0D2
:1025980000AFF860B9607A60FB6803F00703FB617D
:1025A800FB69C3F10703042B28BF0423BB61FB6944
:1025B8000433062B02D9FB69033B00E000237B614F
:1025C800BB69012202FA03F35A1EBB681A407B69F1
:1025D8009A407B69012101FA03F3591E7B680B407D
:1025E800134318462437BD465DF8047B704700BF87
:1025F80080B582B000AF78607B68013BB3F1807F23
:1026080001D301230FE00A4A7B68013B53604FF076
:10261800FF300F21FFF790FF054B00229A60044B13
:1026280007221A60002318460837BD4680BD00BF40
:1026380010E000E080B582B000AF78607868FFF7FE
:1026480031FF0837BD4680BD80B586B000AF034670
:10265800B9607A60FB7300237B61FFF747FF7861FD
:102668007869B9687A68FFF791FF024697F90F30E1
:1026780018461146FFF760FF1837BD4680BD00BFFA
:1026880080B582B000AF0346FB7197F90730184652
:10269800FFF73AFF0837BD4680BD00BF80B582B05E
:1026A80000AF78607868FFF7A3FF0346184608373D
:1026B800BD4680BD80B483B000AF78607B68042BD2
:1026C80006D1094A084B1B6843F00403136005E070
:1026D800054A054B1B6823F0040313600C37BD46FD
:1026E8005DF8047B704700BF10E000E080B500AFE4
:1026F80000F002F880BD00BF80B400AFBD465DF8B1
:10270800047B704780B5ADF5007D00AF3B1D1860B8
:102718000023C7F8F8313B1D1B681B6803F0010351
:10272800002B00F0CC81AF4B5B6803F00C03042B4B
:102738000BD0AC4B5B6803F00C03082B79D1A94B89
:102748005B6803F48033002B73D04FF40033C7F871
:10275800F431D7F8F43193FAA3F3C7F8F031D7F886
:10276800F031B3FA83F3DBB243F02003DBB2DBB220
:102778005B09DBB2012B02D19A4B1B6835E04FF4A1
:102788000033C7F8EC31D7F8EC3193FAA3F3C7F864
:10279800E831D7F8E831B3FA83F3DBB243F020032A
:1027A800DBB2DBB25B09DBB2022B02D18D4B1B6AB9
:1027B8001BE04FF40033C7F8E431D7F8E43193FA5B
:1027C800A3F3C7F8E031D7F8E031B3FA83F3DBB20B
:1027D80043F02003DBB2DBB25B09DBB2042B02D18E
:1027E800804B5B6801E07F4B5B6A4FF40032C7F8AF
:1027F800DC21D7F8DC2192FAA2F2C7F8D821D7F861
:10280800D821B2FA82F2D2B242F02002D2B2D2B2C7
:1028180002F01F02012101FA02F21340002B07D037
:102828003B1D1B685B68002B02D1012301F031B806
:1028380045E13B1D1B685B68B3F5803F06D1694ADB
:10284800684B1B6843F48033136030E03B1D1B6802
:102858005B68002B0CD1634A624B1B6823F48033FE
:102868001360604A5F4B1B6823F4802313601EE0EB
:102878003B1D1B685B68B3F5A02F0CD1594A594B17
:102888001B6843F480231360564A564B1B6843F475
:10289800803313600BE0534A524B1B6823F4803398
:1028A8001360504A4F4B1B6823F4802313604D4933
:1028B8004C4BDB6A23F00F023B1D1B689B681343DC
:1028C800CB623B1D1B685B68002B7BD0FFF7C2FD0A
:1028D800C7F8F8010AE0FFF7BDFD0246D7F8F8315E
:1028E800D31A642B02D9032300F0D3BF4FF400336B
:1028F800C7F8D431D7F8D43193FAA3F3C7F8D03155
:10290800D7F8D031B3FA83F3DBB243F02003DBB25C
:10291800DBB25B09DBB2012B02D1324B1B6835E01D
:102928004FF40033C7F8CC31D7F8CC3193FAA3F37E
:10293800C7F8C831D7F8C831B3FA83F3DBB243F02C
:102948002003DBB2DBB25B09DBB2022B02D1254BE1
:102958001B6A1BE04FF40033C7F8C431D7F8C43101
:1029680093FAA3F3C7F8C031D7F8C031B3FA83F3A9
:10297800DBB243F02003DBB2DBB25B09DBB2042B32
:1029880002D1184B5B6801E0164B5B6A4FF40032CA
:10299800C7F8BC21D7F8BC2192FAA2F2C7F8B8212F
:1029A800D7F8B821B2FA82F2D2B242F02002D2B2FB
:1029B800D2B202F01F02012101FA02F21340002BE9
:1029C80089D07CE0FFF746FDC7F8F8010CE0FFF777
:1029D80041FD0246D7F8F831D31A642B04D90323F2
:1029E80000F057BF001002404FF40033C7F8B4316D
:1029F800D7F8B43193FAA3F3C7F8B031D7F8B031A8
:102A0800B3FA83F3DBB243F02003DBB2DBB25B093A
:102A1800DBB2012B02D1B74B1B6835E04FF4003312
:102A2800C7F8AC31D7F8AC3193FAA3F3C7F8A8319B
:102A3800D7F8A831B3FA83F3DBB243F02003DBB253
:102A4800DBB25B09DBB2022B02D1AA4B1B6A1BE08B
:102A58004FF40033C7F8A431D7F8A43193FAA3F39D
:102A6800C7F8A031D7F8A031B3FA83F3DBB243F04B
:102A78002003DBB2DBB25B09DBB2042B02D19D4B36
:102A88005B6801E09B4B5B6A4FF40032C7F89C21FE
:102A9800D7F89C2192FAA2F2C7F89821D7F8982182
:102AA800B2FA82F2D2B242F02002D2B2D2B202F02C
:102AB8001F02012101FA02F21340002B87D13B1DAE
:102AC8001B681B6803F00203002B00F0D781894BB9
:102AD8005B6803F00C03002B0DD0864B5B6803F09A
:102AE8000C03082B40F09080824B5B6803F4803322
:102AF800002B40F089800223C7F89431D7F894312D
:102B080093FAA3F3C7F89031D7F89031B3FA83F367
:102B1800DBB243F02003DBB2DBB25B09DBB2012B93
:102B280002D1744B1B6833E00223C7F88C31D7F805
:102B38008C3193FAA3F3C7F88831D7F88831B3FA00
:102B480083F3DBB243F02003DBB2DBB25B09DBB219
:102B5800022B02D1674B1B6A1AE00223C7F88431A3
:102B6800D7F8843193FAA3F3C7F88031D7F88031C6
:102B7800B3FA83F3DBB243F02003DBB2DBB25B09C9
:102B8800DBB2042B02D15B4B5B6801E0594B5B6AFB
:102B98000222C7F87C21D7F87C2192FAA2F2C7F862
:102BA8007821D7F87821B2FA82F2D2B242F0200224
:102BB800D2B2D2B202F01F02012101FA02F213408E
:102BC800002B07D03B1D1B681B69012B02D001237A
:102BD80000F05FBE4748474B1B6823F0F8023B1DD7
:102BE8001B685969F823C7F87431D7F8743193FA18
:102BF800A3F3C7F87031D7F87031B3FA83F301FA49
:102C080003F31343036039E13B1D1B681B69002B69
:102C180000F0A8800123C7F86C31D7F86C3193FA1B
:102C2800A3F3C7F86831D7F86831B3FA83F303F12F
:102C3800845303F584139B001A4601231360FFF79E
:102C480009FCC7F8F8010AE0FFF704FC0246D7F8C8
:102C5800F831D31A022B02D9032300F01ABE02233B
:102C6800C7F86431D7F8643193FAA3F3C7F8603131
:102C7800D7F86031B3FA83F3DBB243F02003DBB259
:102C8800DBB25B09DBB2012B02D11A4B1B6835E0C2
:102C98000223C7F85C31D7F85C3193FAA3F3C7F87D
:102CA8005831D7F85831B3FA83F3DBB243F0200335
:102CB800DBB2DBB25B09DBB2022B02D10D4B1B6A24
:102CC8001CE00223C7F85431D7F8543193FAA3F320
:102CD800C7F85031D7F85031B3FA83F3DBB243F079
:102CE8002003DBB2DBB25B09DBB2042B04D1014B5E
:102CF8005B6803E000100240C64B5B6A0222C7F81B
:102D08004C21D7F84C2192FAA2F2C7F84821D7F8FB
:102D18004821B2FA82F2D2B242F02002D2B2D2B242
:102D280002F01F02012101FA02F21340002B8BD09E
:102D3800B848B84B1B6823F0F8023B1D1B6859695B
:102D4800F823C7F84431D7F8443193FAA3F3C7F806
:102D58004031D7F84031B3FA83F301FA03F3134350
:102D680003608BE00123C7F83C31D7F83C3193FA74
:102D7800A3F3C7F83831D7F83831B3FA83F303F13E
:102D8800845303F584139B001A4600231360FFF74E
:102D980061FBC7F8F8010AE0FFF75CFB0246D7F8C9
:102DA800F831D31A022B02D9032300F072BD022393
:102DB800C7F83431D7F8343193FAA3F3C7F8303170
:102DC800D7F83031B3FA83F3DBB243F02003DBB238
:102DD800DBB25B09DBB2012B02D18E4B1B6833E0FF
:102DE8000223C7F82C31D7F82C3193FAA3F3C7F88C
:102DF8002831D7F82831B3FA83F3DBB243F0200344
:102E0800DBB2DBB25B09DBB2022B02D1814B1B6A5E
:102E18001AE00223C7F82431D7F8243193FAA3F330
:102E2800C7F82031D7F82031B3FA83F3DBB243F087
:102E38002003DBB2DBB25B09DBB2042B02D1754B9A
:102E48005B6801E0734B5B6A0222C7F81C21D7F864
:102E58001C2192FAA2F2C7F81821D7F81821B2FA61
:102E680082F2D2B242F02002D2B2D2B202F01F02F3
:102E7800012101FA02F21340002B8DD13B1D1B6882
:102E88001B6803F00803002B00F040813B1D1B6802
:102E98009B69002B00F096800123C7F81431D7F8FE
:102EA800143193FAA3F3C7F81031D7F81031B3FAF5
:102EB80083F31A46584B13449B001A4601231360A8
:102EC800FFF7C8FAC7F8F8010AE0FFF7C3FA0246A5
:102ED800D7F8F831D31A022B02D9032300F0D9BC52
:102EE8000223C7F80C31D7F80C3193FAA3F3C7F8CB
:102EF8000831D7F80831B3FA83F3DBB243F0600343
:102F0800DBB2DBB25B09DBB2012B02D1414B1B68A0
:102F180039E00223C7F80431D7F8043193FAA3F251
:102F280007F580731A6007F580731B68B3FA83F39B
:102F3800DBB243F06003DBB2DBB25B09DBB2022B2E
:102F480002D1344B1B6A1EE007F1FC0302221A600F
:102F580007F1FC031B6893FAA3F207F1F8031A6060
:102F680007F1F8031B68B3FA83F3DBB243F060039D
:102F7800DBB2DBB25B09DBB2042B02D1254B5B6809
:102F880001E0244B5B6A07F1F4020221116007F1AA
:102F9800F402126892FAA2F107F1F002116007F147
:102FA800F0021268B2FA82F2D2B242F06002D2B2F1
:102FB800D2B202F01F02012101FA02F21340002BE3
:102FC80083D0A3E007F1EC0301221A6007F1EC03B8
:102FD8001B6893FAA3F207F1E8031A6007F1E80304
:102FE8001B68B3FA83F31A460B4B13449B001A462B
:102FF80000231360FFF72EFAC7F8F8010EE0FFF779
:1030080029FA0246D7F8F831D31A022B06D9032336
:1030180000F03FBC001002402081901007F1E4034B
:1030280002221A6007F1E4031B6893FAA3F207F17E
:10303800E0031A6007F1E0031B68B3FA83F3DBB21D
:1030480043F06003DBB2DBB25B09DBB2012B02D1D8
:10305800A64B1B683BE007F1DC0302221A6007F16C
:10306800DC031B6893FAA3F207F1D8031A6007F18F
:10307800D8031B68B3FA83F3DBB243F06003DBB217
:10308800DBB25B09DBB2022B02D1984B1B6A1EE054
:1030980007F1D40302221A6007F1D4031B6893FADC
:1030A800A3F207F1D0031A6007F1D0031B68B3FA43
:1030B80083F3DBB243F06003DBB2DBB25B09DBB264
:1030C800042B02D1894B5B6801E0884B5B6A07F1EE
:1030D800CC020221116007F1CC02126892FAA2F127
:1030E80007F1C802116007F1C8021268B2FA82F249
:1030F800D2B242F06002D2B2D2B202F01F02012173
:1031080001FA02F21340002B7FF479AF3B1D1B68D4
:103118001B6803F00403002B00F0A181002387F84B
:10312800FF31724BDB6903F08053002B12D16F4AD9
:103138006E4BDB6943F08053D3616C4BDB6903F062
:10314800805207F10C031A6007F10C031B68012376
:1031580087F8FF31664B1B6803F48073002B1AD184
:10316800634A634B1B6843F480731360FFF772F97B
:10317800C7F8F80109E0FFF76DF90246D7F8F8310A
:10318800D31A642B01D9032383E3594B1B6803F437
:103198008073002BEFD03B1D1B68DB68012B06D129
:1031A800524A524B1B6A43F0010313622FE03B1D46
:1031B8001B68DB68002B0CD14C4A4C4B1B6A23F074
:1031C80001031362494A494B1B6A23F00403136243
:1031D8001DE03B1D1B68DB68052B0CD1434A434BA4
:1031E8001B6A43F004031362404A404B1B6A43F0D6
:1031F800010313620BE03D4A3C4B1B6A23F00103B9
:1032080013623A4A394B1B6A23F0040313623B1DCD
:103218001B68DB68002B00F08F80FFF71BF9C7F8ED
:10322800F8010BE0FFF716F90246D7F8F831D31A80
:1032380041F28832934201D903232AE307F1C403F8
:1032480002221A6007F1C4031B6893FAA3F207F17C
:10325800C0031A6007F1C0031B68B3FA83F3DBB23B
:1032680043F04003DBB2DBB25B09DBB2012B02D1D6
:103278001E4B1B6840E007F1BC0302221A6007F1ED
:10328800BC031B6893FAA3F207F1B8031A6007F1AD
:10329800B8031B68B3FA83F3DBB243F04003DBB235
:1032A800DBB25B09DBB2022B02D1104B1B6A23E0B5
:1032B80007F1B40302221A6007F1B4031B6893FAFA
:1032C800A3F207F1B0031A6007F1B0031B68B3FA61
:1032D80083F3DBB243F04003DBB2DBB25B09DBB262
:1032E800042B07D1014B5B6806E000BF00100240C9
:1032F80000700040A54B5B6A07F1AC020221116027
:1033080007F1AC02126892FAA2F107F1A802116063
:1033180007F1A8021268B2FA82F2D2B242F0400271
:10332800D2B2D2B202F01F02012101FA02F2134016
:10333800002B3FF477AF88E0FFF78CF8C7F8F80167
:103348000BE0FFF787F80246D7F8F831D31A41F2B5
:103358008832934201D903239BE207F1A403022296
:103368001A6007F1A4031B6893FAA3F207F1A003FC
:103378001A6007F1A0031B68B3FA83F3DBB243F0CA
:103388004003DBB2DBB25B09DBB2012B02D17F4B1E
:103398001B683BE007F19C0302221A6007F19C03BB
:1033A8001B6893FAA3F207F198031A6007F19803D0
:1033B8001B68B3FA83F3DBB243F04003DBB2DBB242
:1033C8005B09DBB2022B02D1704B1B6A1EE007F1CE
:1033D800940302221A6007F194031B6893FAA3F27C
:1033E80007F190031A6007F190031B68B3FA83F39F
:1033F800DBB243F04003DBB2DBB25B09DBB2042B88
:1034080002D1624B5B6801E0604B5B6A07F18C029A
:103418000221116007F18C02126892FAA2F107F1F9
:103428008802116007F188021268B2FA82F2D2B2F9
:1034380042F04002D2B2D2B202F01F02012101FAD8
:1034480002F21340002B7FF47CAF97F8FF31012B79
:1034580005D14E4A4D4BDB6923F08053D3613B1DA8
:103468001B68DB69002B00F01382484B5B6803F094
:103478000C03082B00F008823B1D1B68DB69022B3C
:1034880040F05C8107F184034FF080721A6007F105
:1034980084031B6893FAA3F207F180031A6007F10B
:1034A80080031B68B3FA83F303F1845303F5841391
:1034B8009B001A4600231360FEF7CCFFC7F8F801FB
:1034C80009E0FEF7C7FF0246D7F8F831D31A022BF6
:1034D80001D90323DDE107F17C034FF000721A6084
:1034E80007F17C031B6893FAA3F207F178031A60CB
:1034F80007F178031B68B3FA83F3DBB243F02003C8
:10350800DBB2DBB25B09DBB2012B02D11F4B1B68BC
:1035180040E007F174034FF000721A6007F174037A
:103528001B6893FAA3F207F170031A6007F170039E
:103538001B68B3FA83F3DBB243F02003DBB2DBB2E0
:103548005B09DBB2022B02D1104B1B6A22E007F1A8
:103558006C034FF000721A6007F16C031B6893FA52
:10356800A3F207F168031A6007F168031B68B3FA4E
:1035780083F3DBB243F02003DBB2DBB25B09DBB2DF
:10358800042B05D1014B5B6804E000BF001002402A
:10359800BE4B5B6A07F164024FF00071116007F1DE
:1035A8006402126892FAA2F107F16002116007F151
:1035B80060021268B2FA82F2D2B242F02002D2B2AB
:1035C800D2B202F01F02012101FA02F21340002BCD
:1035D8007FF477AFAD48AD4B5B6823F474123B1DA5
:1035E8001B68596A3B1D1B681B6A0B4313434360E6
:1035F80007F15C034FF080721A6007F15C031B68E7
:1036080093FAA3F207F158031A6007F158031B68ED
:10361800B3FA83F303F1845303F584139B001A462A
:1036280001231360FEF716FFC7F8F80109E0FEF75B
:1036380011FF0246D7F8F831D31A022B01D9032318
:1036480027E107F154034FF000721A6007F15403A1
:103658001B6893FAA3F207F150031A6007F15003AD
:103668001B68B3FA83F3DBB243F02003DBB2DBB2AF
:103678005B09DBB2012B02D1844B1B683DE007F1EB
:103688004C034FF000721A6007F14C031B6893FA61
:10369800A3F207F148031A6007F148031B68B3FA5D
:1036A80083F3DBB243F02003DBB2DBB25B09DBB2AE
:1036B800022B02D1754B1B6A1FE007F144034FF040
:1036C80000721A6007F144031B6893FAA3F207F12A
:1036D80040031A6007F140031B68B3FA83F3DBB2B7
:1036E80043F02003DBB2DBB25B09DBB2042B02D16F
:1036F800664B5B6801E0654B5B6A07F13C024FF083
:103708000071116007F13C02126892FAA2F107F108
:103718003802116007F138021268B2FA82F2D2B2A6
:1037280042F02002D2B2D2B202F01F02012101FA05
:1037380002F21340002B3FF47AAFA9E007F13403FB
:103748004FF080721A6007F134031B6893FAA3F2F2
:1037580007F130031A6007F130031B68B3FA83F3EB
:1037680003F1845303F584139B001A460023136066
:10377800FEF770FEC7F8F80109E0FEF76BFE024697
:10378800D7F8F831D31A022B01D9032381E007F1C6
:103798002C034FF000721A6007F12C031B6893FA90
:1037A800A3F207F128031A6007F128031B68B3FA8C
:1037B80083F3DBB243F02003DBB2DBB25B09DBB29D
:1037C800012B02D1314B1B683DE007F124034FF078
:1037D80000721A6007F124031B6893FAA3F207F139
:1037E80020031A6007F120031B68B3FA83F3DBB2E6
:1037F80043F02003DBB2DBB25B09DBB2022B02D160
:10380800224B1B6A1FE007F11C034FF000721A607D
:1038180007F11C031B6893FAA3F207F118031A6057
:1038280007F118031B68B3FA83F3DBB243F02003F4
:10383800DBB2DBB25B09DBB2042B02D1134B5B6852
:1038480001E0124B5B6A07F114024FF0007111603E
:1038580007F11402126892FAA2F107F1100211603E
:1038680007F110021268B2FA82F2D2B242F02002D4
:10387800D2B2D2B202F01F02012101FA02F21340C1
:10388800002B7FF47AAF03E0012302E0001002402E
:103898000023184607F50077BD4680BD80B59EB069
:1038A80000AF7860396000237B67A54B1B6803F085
:1038B80007023B689A4210D2A149A14B1B6823F02A
:1038C80007023B6813430B609D4B1B6803F007021C
:1038D8003B689A4201D00123D5E17B681B6803F05D
:1038E8000203002B08D09749964B5B6823F0F0023F
:1038F8007B689B6813434B607B681B6803F001037C
:10390800002B00F06D817B685B68012B5DD14FF463
:1039180000333B673B6F93FAA3F3FB66FB6EB3FA86
:1039280083F3DBB243F02003DBB2DBB25B09DBB22B
:10393800012B02D1834B1B682DE04FF40033BB668B
:10394800BB6E93FAA3F37B667B6EB3FA83F3DBB2A9
:1039580043F02003DBB2DBB25B09DBB2022B02D1FE
:10396800784B1B6A17E04FF400333B663B6E93FAC3
:10397800A3F3FB65FB6DB3FA83F3DBB243F02003DB
:10398800DBB2DBB25B09DBB2042B02D16D4B5B68A7
:1039980001E06C4B5B6A4FF40032BA65BA6D92FA7B
:1039A800A2F27A657A6DB2FA82F2D2B242F02002BD
:1039B800D2B2D2B202F01F02012101FA02F2134080
:1039C800002B40F0C18001235DE17B685B68022B1E
:1039D8005CD14FF000733B653B6D93FAA3F3FB6436
:1039E800FB6CB3FA83F3DBB243F02003DBB2DBB248
:1039F8005B09DBB2012B02D1524B1B682DE04FF063
:103A08000073BB64BB6C93FAA3F37B647B6CB3FA5F
:103A180083F3DBB243F02003DBB2DBB25B09DBB23A
:103A2800022B02D1474B1B6A17E04FF000733B642F
:103A38003B6C93FAA3F3FB63FB6BB3FA83F3DBB240
:103A480043F02003DBB2DBB25B09DBB2042B02D10B
:103A58003C4B5B6801E03B4B5B6A4FF00072BA631A
:103A6800BA6B92FAA2F27A637A6BB2FA82F2D2B2A3
:103A780042F02002D2B2D2B202F01F02012101FAB2
:103A880002F21340002B5FD10123FCE002233B63C9
:103A98003B6B93FAA3F3FB62FB6AB3FA83F3DBB2E3
:103AA80043F02003DBB2DBB25B09DBB2012B02D1AE
:103AB800244B1B682BE00223BB62BB6A93FAA3F377
:103AC8007B627B6AB3FA83F3DBB243F02003DBB299
:103AD800DBB25B09DBB2022B02D11A4B1B6A16E080
:103AE80002233B623B6A93FAA3F3FB61FB69B3FAD7
:103AF80083F3DBB243F02003DBB2DBB25B09DBB25A
:103B0800042B02D10F4B5B6801E00E4B5B6A02226B
:103B1800BA61BA6992FAA2F27A617A69B2FA82F261
:103B2800D2B242F02002D2B2D2B202F01F02012178
:103B380001FA02F21340002B06D10123A3E000BFD3
:103B480000200240001002405149514B5B6823F0AD
:103B580003027B685B6813434B60FEF77BFC786766
:103B68007B685B68012B12D10AE0FEF773FC024602
:103B78007B6FD31A41F28832934201D9032382E042
:103B8800434B5B6803F00C03042BEED128E07B6801
:103B98005B68022B12D10AE0FEF75CFC02467B6FE1
:103BA800D31A41F28832934201D903236BE0384B90
:103BB8005B6803F00C03082BEED111E00AE0FEF776
:103BC80049FC02467B6FD31A41F28832934201D9ED
:103BD800032358E02E4B5B6803F00C03002BEED157
:103BE8002C4B1B6803F007023B689A4210D92949FD
:103BF800284B1B6823F007023B6813430B60254BD7
:103C08001B6803F007023B689A4201D001233AE09F
:103C18007B681B6803F00403002B08D01C491C4B6D
:103C28005B6823F4E0627B68DB6813434B607B6866
:103C38001B6803F00803002B09D01549144B5B6877
:103C480023F460527B681B69DB0013434B6000F070
:103C580027F801460E4B5B6803F0F002F0233B6146
:103C68003B6993FAA3F3FB60FB68B3FA83F322FA88
:103C780003F3094AD35C21FA03F3084A13600020CE
:103C8800FCF70CFF002318467837BD4680BD00BFFF
:103C98000010024000200240085C000800000020DC
:103CA80080B48BB000AF0023FB610023BB6100230D
:103CB8007B6200237B6100233B62294B5B68FB61CD
:103CC800FB6903F00C03042B02D0082B03D03CE063
:103CD800244B3B623CE0FB6903F470124FF4701311
:103CE8003B613B6993FAA3F3FB60FB68B3FA83F388
:103CF80022FA03F31C4AD35C7B61194BDB6A03F09D
:103D08000F020F23BB60BB6893FAA3F37B607B6849
:103D1800B3FA83F322FA03F3144AD35CBB61FB6959
:103D280003F48033002B08D00E4ABB69B2FBF3F3CF
:103D38007A6902FB03F37B6204E07B690C4A02FBAD
:103D480003F37B627B6A3B6202E0064B3B6200BF87
:103D58003B6A18462C37BD465DF8047B704700BFA8
:103D68000010024000127A00605E0008705E0008D1
:103D780000093D0080B400AF034B1B681846BD46E0
:103D88005DF8047B704700BF0000002080B582B05A
:103D980000AFFFF7EFFF01460B4B5B6803F4E062EF
:103DA8004FF4E0637B607B6893FAA3F33B603B6866
:103DB800B3FA83F322FA03F3044AD35C21FA03F338
:103DC80018460837BD4680BD00100240185C000840
:103DD80080B582B000AFFFF7CDFF01460B4B5B68A3
:103DE80003F460524FF460537B607B6893FAA3F34B
:103DF8003B603B68B3FA83F322FA03F3044AD35CCB
:103E080021FA03F318460837BD4680BD001002406A
:103E1800185C000880B483B000AF786039607B68B4
:103E28000F221A60114B5B6803F003027B685A602B
:103E38000E4B5B6803F0F0027B689A600B4B5B6883
:103E480003F4E0627B68DA60084B5B6803F4605354
:103E5800DA087B681A61064B1B6803F007023B68A7
:103E68001A600C37BD465DF8047B704700100240AD
:103E78000020024080B487B000AF7860396000232A
:103E88007B610023FB6000233B614AE13B681A68C1
:103E98007B69012101FA03F31340FB60FB68002BE7
:103EA80000F03C813B685B68022B03D03B685B6891
:103EB800122B22D17B69DA087B68083253F822304A
:103EC8003B617B6903F007039B001A460F2393406D
:103ED800DB433A6913403B613B681B697A6902F02E
:103EE8000702920093403A6913433B617B69DA0801
:103EF8007B680832396943F822107B681B683B618C
:103F08007B695B001A4603239340DB433A691340FD
:103F18003B613B685B6803F003037A695200934096
:103F28003A6913433B617B683A691A603B685B688E
:103F3800012B0BD03B685B68022B07D03B685B68A2
:103F4800112B03D03B685B68122B2FD17B689B68D1
:103F58003B617B695B001A4603239340DB433A6964
:103F680013403B613B68DB687A69520093403A69C9
:103F780013433B617B683A699A607B685B683B6185
:103F88007B69012202FA03F3DB433A6913403B6180
:103F98003B685B6803F010031A097B6902FA03F3B4
:103FA8003A6913433B617B683A695A607B68DB680E
:103FB8003B617B695B001A4603239340DB433A6904
:103FC80013403B613B689B687A69520093403A69A9
:103FD80013433B617B683A69DA603B685B6803F0CE
:103FE8008053002B00F09A80544A544B9B6943F04D
:103FF80001039361514B9B6903F00103BB60BB68EC
:104008004F4A7B699B08023352F823303B617B6936
:1040180003F003039B001A460F239340DB433A69DE
:1040280013403B617B68B3F1904F13D07B68454ADE
:1040380093420DD07B68444A934207D07B68434A39
:10404800934201D1032306E0052304E0022302E0A2
:10405800012300E000237A6902F0030292009340F2
:104068003A6913433B6136497B699B0802333A69D5
:1040780041F82320364B1B683B61FB68DB433A69F8
:1040880013403B613B685B6803F48033002B03D02B
:104098003A69FB6813433B612D4A3B6913602C4B1B
:1040A8005B683B61FB68DB433A6913403B613B68F3
:1040B8005B6803F40033002B03D03A69FB681343B1
:1040C8003B61234A3B695360214B9B683B61FB681A
:1040D800DB433A6913403B613B685B6803F4801338
:1040E800002B03D03A69FB6813433B61184A3B69CC
:1040F8009360174BDB683B61FB68DB433A6913400D
:104108003B613B685B6803F40013002B03D03A69FA
:10411800FB6813433B610E4A3B69D3607B690133FB
:104128007B613B681A687B6922FA03F3002B7FF4F2
:10413800ADAE1C37BD465DF8047B704700100240E9
:10414800000001400004004800080048000C004836
:104158000004014080B483B000AF78600B467B80D8
:1041680013467B707B78002B03D07A887B689A6132
:1041780002E07A887B689A620C37BD465DF8047B5A
:10418800704700BF80B582B000AF78607B68002BB5
:1041980001D1012343E07B6893F86930DBB2002B3F
:1041A80006D17B68002283F868207868FCF722FC37
:1041B8007B68242283F869207B681B687A68126808
:1041C800126822F001021A60786800F02DF80346A0
:1041D800012B01D1012322E07B685B6A002B02D00E
:1041E800786800F085F97B681B687A6812685268FD
:1041F80022F490425A607B681B687A681268926859
:1042080022F02A029A607B681B687A681268126832
:1042180042F001021A60786800F00CFA034618466A
:104228000837BD4680BD00BF90B587B000AF786045
:104238000023FB601023FB7500237B810023BB82D6
:104248000023FB747B689A687B681B691A437B6848
:104258005B691A437B68DB691343FB607B681A68F8
:104268007B681B6819689D4B0B40F9680B4313600A
:104278007B681B687A681268526822F440517A6831
:10428800D2680A435A607B689A697B681B6A134341
:10429800FB607B681B687A681268926822F4306158
:1042A800FA680A439A607B681B688D4A934221D159
:1042B8008C4B1B6B03F00303032B17D801A252F896
:1042C80023F000BFDD420008E9420008EF42000881
:1042D800E34200080023FB750AE00223FB7507E0B0
:1042E8000423FB7504E00823FB7501E01023FB752C
:1042F80000BF11E07B681B687B4A934202D1002310
:10430800FB7509E07B681B68784A934202D1002359
:10431800FB7501E01023FB757B68DB69B3F5004F83
:104328006ED1FB7D082B57D801A252F823F000BFAD
:104338005D4300087943000895430008E1430008FD
:10434800AF430008E1430008E1430008E1430008E7
:10435800CB430008FFF71AFD03465A007B685B68E9
:104368005B081A447B685B68B2FBF3F3BB8236E0F8
:10437800FFF72EFD03465A007B685B685B081A440A
:104388007B685B68B2FBF3F3BB8228E07B685B6801
:104398005B0803F5740303F510537A685268B3FB9E
:1043A800F2F3BB821BE0FFF77BFC03465A007B68F5
:1043B8005B685B081A447B685B68B2FBF3F3BB82FB
:1043C8000DE07B685B685B0803F580327B685B689F
:1043D800B2FBF3F3BB8202E00123FB7400BFBB8A8C
:1043E80023F00F037B81BB8A03F00F035B109AB2A3
:1043F8007B8913437B817B681B687A89DA6068E074
:10440800FB7D082B62D801A252F823F0394400083A
:104418005944000879440008D54400089944000824
:10442800D5440008D5440008D5440008B94400081C
:104438007B681C68FFF7AAFC02467B685B685B0820
:104448001A447B685B68B2FBF3F39BB2E36040E01D
:104458007B681C68FFF7BCFC02467B685B685B08EE
:104468001A447B685B68B2FBF3F39BB2E36030E00D
:104478007B681A687B685B685B0803F5F40303F5DF
:10448800905379684968B3FBF1F39BB2D36020E09D
:104498007B681C68FFF704FC02467B685B685B0866
:1044A8001A447B685B68B2FBF3F39BB2E36010E0ED
:1044B8007B681B687A685268520802F500417A687E
:1044C8005268B1FBF2F292B2DA6002E00123FB74A7
:1044D80000BFFB7C18461C37BD4690BDF369FFEF53
:1044E80000380140001002400044004000480040ED
:1044F80080B483B000AF78607B685B6A03F0010327
:10450800002B0AD07B681B687A681268526822F40C
:1045180000317A68926A0A435A607B685B6A03F0E2
:104528000203002B0AD07B681B687A6812685268FD
:1045380022F480317A68D26A0A435A607B685B6ADF
:1045480003F00403002B0AD07B681B687A681268A2
:10455800526822F480217A68126B0A435A607B6899
:104568005B6A03F00803002B0AD07B681B687A6833
:104578001268526822F400417A68526B0A435A6002
:104588007B685B6A03F01003002B0AD07B681B680A
:104598007A681268926822F480517A68926B0A43AA
:1045A8009A607B685B6A03F02003002B0AD07B6863
:1045B8001B687A681268926822F400517A68D26B94
:1045C8000A439A607B685B6A03F04003002B1AD0A9
:1045D8007B681B687A681268526822F480117A68CE
:1045E800126C0A435A607B681B6CB3F5801F0AD1B2
:1045F8007B681B687A681268526822F4C0017A687E
:10460800526C0A435A607B685B6A03F08003002B94
:104618000AD07B681B687A681268526822F4002105
:104628007A68926C0A435A600C37BD465DF8047B81
:10463800704700BF80B586B002AF78600023FB608A
:104648007B680022DA66FDF705FFF8607B681B6867
:104658001B6803F00803002B0ED06FF07E43009315
:1046680078684FF400110022FB6800F02DF803462B
:10467800002B01D0032322E07B681B681B6803F032
:104688000403002B0ED06FF07E43009378684FF43C
:1046980080010022FB6800F017F80346002B01D0C8
:1046A80003230CE07B68202283F869207B682022A2
:1046B80083F86A207B68002283F868200023184664
:1046C8001037BD4680BD00BF80B584B000AFF8602C
:1046D800B9603B601346FB712CE0BB69B3F1FF3F47
:1046E80028D0BB69002B07D0FDF7B4FE02463B6813
:1046F800D21ABB699A421DD9FB681B68FA6812680E
:10470800126822F4D0721A60FB681B68FA68126893
:10471800926822F001029A60FB68202283F86920DF
:10472800FB68202283F86A20FB68002283F868204F
:1047380003230FE0FB681B68DA69BB681A40BB6893
:104748009A420CBF01230023DBB21A46FB799A4236
:10475800C3D0002318461037BD4680BD80B582B04F
:1047680000AF78607B68002B01D101231DE07B68D6
:1047780093F83D30DBB2002B06D17B68002283F82A
:104788003C20786800F016F87B68022283F83D2008
:104798007B681A687B6804331046194600F076F97E
:1047A8007B68012283F83D20002318460837BD4660
:1047B80080BD00BF80B483B000AF78600C37BD46C1
:1047C8005DF8047B704700BF80B483B000AF7860A9
:1047D8007B681B687A681268D26842F00102DA6066
:1047E8007B681B687A681268126842F001021A60D6
:1047F800002318460C37BD465DF8047B704700BFA0
:1048080080B582B000AF78607B681B681B6903F0D5
:104818000203002B22D07B681B68DB6803F00203CD
:10482800002B1BD07B681B686FF002021A617B6843
:1048380001221A777B681B689B6903F00303002B2E
:1048480003D0786800F004F905E0786800F0F6F81D
:10485800786800F007F97B6800221A777B681B6884
:104868001B6903F00403002B22D07B681B68DB68FC
:1048780003F00403002B1BD07B681B686FF0040255
:104888001A617B6802221A777B681B689B6903F4AC
:104898004073002B03D0786800F0DAF805E07868F8
:1048A80000F0CCF8786800F0DDF87B6800221A7711
:1048B8007B681B681B6903F00803002B22D07B6808
:1048C8001B68DB6803F00803002B1BD07B681B68A0
:1048D8006FF008021A617B6804221A777B681B68EC
:1048E800DB6903F00303002B03D0786800F0B0F80D
:1048F80005E0786800F0A2F8786800F0B3F87B6803
:1049080000221A777B681B681B6903F01003002BD1
:1049180022D07B681B68DB6803F01003002B1BD0D8
:104928007B681B686FF010021A617B6808221A778F
:104938007B681B68DB6903F44073002B03D078683D
:1049480000F086F805E0786800F078F8786800F0FC
:1049580089F87B6800221A777B681B681B6903F05B
:104968000103002B0ED07B681B68DB6803F0010392
:10497800002B07D07B681B686FF001021A6178680A
:10498800FCF700FE7B681B681B6903F08003002BA3
:104998000ED07B681B68DB6803F08003002B07D010
:1049A8007B681B686FF080021A617868FDF71AFD52
:1049B8007B681B681B6903F48073002B0ED07B682F
:1049C8001B68DB6803F08003002B07D07B681B683B
:1049D8006FF480721A617868FDF70EFD7B681B68BA
:1049E8001B6903F04003002B0ED07B681B68DB6853
:1049F80003F04003002B07D07B681B686FF0400270
:104A08001A61786800F038F87B681B681B6903F046
:104A18002003002B0ED07B681B68DB6803F02003A3
:104A2800002B07D07B681B686FF020021A6178683A
:104A3800FDF7CEFC0837BD4680BD00BF80B483B00B
:104A480000AF78600C37BD465DF8047B704700BF47
:104A580080B483B000AF78600C37BD465DF8047B46
:104A6800704700BF80B483B000AF78600C37BD4694
:104A78005DF8047B704700BF80B483B000AF7860F6
:104A88000C37BD465DF8047B704700BF80B485B025
:104A980000AF786039600023FB607B681B68FB60AF
:104AA8007B682D4A934203D07B68B3F1804F08D1CD
:104AB800FB6823F07003FB603B685B68FA6813438C
:104AC800FB607B68244A93420FD07B68B3F1804F28
:104AD8000BD07B68214A934207D07B68204A9342D7
:104AE80003D07B681F4A934208D1FB6823F44073C4
:104AF800FB603B68DB68FA681343FB60FB6823F0E4
:104B080080023B685B691343FB607B68FA681A6044
:104B18003B689A687B68DA623B681A687B689A62C5
:104B28007B680D4A93420BD07B680C4A934207D0AE
:104B38007B680B4A934203D07B680A4A934203D1AD
:104B48003B681A697B681A637B6801225A611437CB
:104B5800BD465DF8047B7047002C014000400140D1
:104B6800004401400048014080B584B000AF78603F
:104B78007B68002B01D1012382E07B6800229A62C6
:104B88007B6893F85D30DBB2002B06D17B6800228E
:104B980083F85C207868FCF73FFD7B68022283F885
:104BA8005D207B681B687A681268126822F04002F0
:104BB8001A607B68DB68B3F5E06F02D90023FB60FD
:104BC80002E04FF48053FB607B68DB68B3F5706FDD
:104BD80007D07B68DB68B3F5E06F02D07B68002202
:104BE8009A627B681B6B002B0BD17B68DB68B3F583
:104BF800E06F03D97B6802221A6302E07B68012216
:104C08001A637B681B687A6851687A6892681143EE
:104C18007A68126911437A68526911437A6892690D
:104C280002F4007211437A68D26911437A68126AF1
:104C380011437A68926A0A431A607B681B687A682B
:104C48009269120C02F004017A68526A11437A6878
:104C5800526B11437A68D2681143FA680A435A6062
:104C68007B681B687A681268D26922F40062DA618C
:104C78007B6800221A667B68012283F85D20002386
:104C880018461037BD4680BD80B588B000AFF860C3
:104C9800B9603B601346FB800023BB610023FB77B0
:104CA800FB6893F85C30012B01D102233EE1FB68DD
:104CB800012283F85C20FDF7CDFBB861FB6893F80F
:104CC8005D30DBB2012B02D00223FB7725E1BB6804
:104CD800002B02D0FB88002B02D10123FB771CE1BB
:104CE800FB68032283F85D20FB6800221A66FB68D4
:104CF800BA689A63FB68FA889A87FB68FA88DA8741
:104D0800FB6800221A64FB680022A3F84420FB68B1
:104D18000022A3F84620FB6800221A65FB680022DF
:104D2800DA64FB689B68B3F5004F07D1FB681B6822
:104D3800FA681268126842F480421A60FB681B68BD
:104D48001B6803F04003002B07D1FB681B68FA6857
:104D58001268126842F040021A60FB68DB68B3F51B
:104D6800E06F47D9FB685B68002B04D0FB68DB8FDA
:104D78009BB2012B0ED1FB681B68BA681288DA60F7
:104D8800BB680233BB60FB68DB8F9BB2013B9AB206
:104D9800FB68DA8728E0FB681B689B6803F002035E
:104DA800002B0FD0FB681B68BA681288DA60BB68F2
:104DB8000233BB60FB68DB8F9BB2013B9AB2FB6896
:104DC800DA8711E03B68002B0BD03B68B3F1FF3F5B
:104DD8000AD0FDF73FFB0246BB69D21A3B689A42EC
:104DE80002D30323FB7798E0FB68DB8F9BB2002B91
:104DF800D1D172E0FB685B68002B04D0FB68DB8FC5
:104E08009BB2012B24D1FB68DB8F9BB2012B0FD9FE
:104E1800FB681B68BA681288DA60BB680233BB603B
:104E2800FB68DB8F9BB2023B9AB2FB68DA870FE024
:104E3800FB681B6803F10C02BB68591CB9601B783E
:104E48001370FB68DB8F9BB2013B9AB2FB68DA8771
:104E58003EE0FB681B689B6803F00203002B25D02B
:104E6800FB68DB8F9BB2012B0FD9FB681B68BA6804
:104E78001288DA60BB680233BB60FB68DB8F9BB2C9
:104E8800023B9AB2FB68DA8722E0FB681B6803F1F1
:104E98000C02BB68591CB9601B781370FB68DB8F68
:104EA8009BB2013B9AB2FB68DA8711E03B68002BA2
:104EB8000BD03B68B3F1FF3F0AD0FDF7CBFA0246AF
:104EC800BB69D21A3B689A4202D30323FB7724E0DA
:104ED800FB68DB8F9BB2002BBBD1F8683968BA69D5
:104EE80000F000F90346002B02D0FB6820221A6666
:104EF800FB689B68002B0AD100237B61FB681B6859
:104F0800DB687B61FB681B689B687B617B69FB686E
:104F18001B6E002B01D00123FB77FB68012283F86D
:104F28005D20FB68002283F85C20FB7F1846203751
:104F3800BD4680BD80B584B000AFF860B9607A60C6
:104F48003B604CE03B68B3F1FF3F48D03B68002B27
:104F580007D0FDF77FFA0246BB69D21A3B689A422E
:104F68003DD3FB681B68FA681268526822F0E002B9
:104F78005A60FB685B68B3F5827F11D1FB689B6858
:104F8800B3F5004F04D0FB689B68B3F5806F07D179
:104F9800FB681B68FA681268126822F040021A60FF
:104FA800FB689B6AB3F5005F0FD1FB681B68FA6862
:104FB8001268126822F400521A60FB681B68FA68CB
:104FC8001268126842F400521A60FB68012283F8E2
:104FD8005D20FB68002283F85C2003230EE0FB6859
:104FE8001B689A68BB681A40BB689A4201D10122C3
:104FF80000E000227B689A42A4D1002318461037AB
:10500800BD4680BD80B586B000AFF860B9607A60F3
:105018003B605AE0BB68B3F5C06F09D17B68002BD1
:1050280006D1FB681B680C331B78DBB2FB75FB7D74
:105038003B68B3F1FF3F48D03B68002B07D0FDF732
:1050480009FA02463B6AD21A3B689A423DD3FB688A
:105058001B68FA681268526822F0E0025A60FB681E
:105068005B68B3F5827F11D1FB689B68B3F5004F8D
:1050780004D0FB689B68B3F5806F07D1FB681B6899
:10508800FA681268126822F040021A60FB689B6A8C
:10509800B3F5005F0FD1FB681B68FA6812681268E5
:1050A80022F400521A60FB681B68FA6812681268DA
:1050B80042F400521A60FB68012283F85D20FB6805
:1050C800002283F85C20032308E0FB681B689A68C9
:1050D800BB681A407B689A429CD10023184618374F
:1050E800BD4680BD80B586B002AFF860B9607A6011
:1050F8007B680093F8684FF4C0510022BB68FFF743
:1051080081FF0346002B07D0FB681B6E43F020028B
:10511800FB681A66032327E07B680093F868802100
:105128000022BB68FFF706FF0346002B07D0FB6889
:105138001B6E43F02002FB681A66032314E07B68A9
:105148000093F8684FF4C0610022BB68FFF75AFF6C
:105158000346002B07D0FB681B6E43F02002FB6858
:105168001A66032300E0002318461037BD4680BDA9
:10517800DFF834D0002103E00C4B5B584350043176
:105188000B480C4B42189A42F6D30B4A02E0002314
:1051980042F8043B094B9A42F9D3FCF76DFA00F048
:1051A80011F8FBF7D1FCFEE700400020C05E0008C4
:1051B800000000206C0000206C000020B4010020DA
:1051C800FEE7000070B50E4B0E4CE41AA410002543
:1051D8001E46A54204D056F8253098470135F8E711
:1051E80000F03AFC084C094BE41AA41000251E46AE
:1051F800A54204D056F8253098470135F8E770BD28
:10520800B85E0008B85E0008BC5E0008B85E00081A
:1052180010B5431E0A44914204D011F8014B03F81B
:10522800014FF8E710BD00000EB400B59CB04FF474
:105238000271ADF814106FF00041049107914FF618
:10524800FF711DABADF81610084953F8042B0290F6
:1052580006900868019302A900F064F8029B0022F6
:105268001A701CB05DF804EB03B0704768000020AA
:105278002DE9F0478E68B34282460C46904699461F
:1052880040D38A8912F4906F3AD0256809696F1A59
:105298006569022305EB450595FBF3F57B1C4B443B
:1052A8009D4238BF1D4653050FD5294600F030FBF7
:1052B800064698B121693A46FFF7AAFFA38923F465
:1052C800906343F08003A38113E02A4600F076FB45
:1052D800064670B95046216900F0D6FA0C23CAF880
:1052E8000030A38943F04003A3814FF0FF30BDE8AD
:1052F800F087266165613E44ED1B2660A5604E4639
:10530800B14500D24E4632462068414600F0A1FA27
:10531800A3689B1BA36023681E4426600020BDE889
:10532800F08700002DE9F0439DB0064603938B8972
:105338001C060D4690460CD50B6953B9402100F068
:10534800E7FA2860286110B90C233360CCE04023C9
:105358006B610023099320238DF8293030238DF8C1
:105368002A3043461C4613F8012B1AB9B4EB080936
:105378000FD002E0252AF5D1F8E730462946424603
:105388004B46FFF775FF013000F0A980099B4B449D
:1053980009932378002B00F0A28000234FF0FF32FE
:1053A80004930793059206938DF853301A9304F1EA
:1053B80001084446DFF8489121784846052200F064
:1053C80039FA08F10108049B30B1C9EB0000012249
:1053D800824013430493ECE7D80644BF20228DF89B
:1053E8005320190744BF2B228DF8532022782A2AEC
:1053F80002D0079923460EE0039A111D1268039103
:10540800002ABBBF524243F0020307920792B8BF7B
:10541800049301340AE01C4601332278303A092A01
:1054280003D80A2000FB0121F5E7079123782E2BEA
:105438001AD163782A2B0AD1039B1A1D1B68039281
:10544800002BB8BF4FF0FF33023405930CE0611C0A
:1054580000220C4601312378303B092B03D80A205F
:1054680000FB0232F5E70592DFF898802178404684
:10547800032200F0DFF938B1049AC8EB000040239A
:10548800834013430493013421781A488DF8281077
:10549800062204F1010800F0CDF988B1164B33B9A2
:1054A800039B073323F007030833039313E003AB8D
:1054B8000093304604A92A46104BAFF3008007E05A
:1054C80003AB0093304604A92A460C4B00F092F82F
:1054D800421C074603D0099B3B44099341E7AB892B
:1054E8005B0601D4099801E04FF0FF301DB0BDE81C
:1054F800F08300BF8C5E00080000000079520008AD
:10550800825E0008885E00082DE9F84391461F4630
:105518008A680B69DDF820809342B8BF1346C9F842
:10552800003091F8432006460C4612B10133C9F801
:1055380000302368990642BFD9F800300233C9F811
:105548000030256815F006051CD094F84330226811
:10555800003318BF012392061FD5E1185A1C3020CA
:1055680081F84300224494F8451082F8431002332E
:1055780013E03046394604F119020123C0470130CF
:1055880007D00135E368D9F800209B1A9D42F0DB6B
:10559800DBE74FF0FF30BDE8F8833046394604F1C9
:1055A8004302C0470130F4D02268D9F80050E368BC
:1055B80002F00602042A08BF5D1B2269A3680CBF1B
:1055C80025EAE57500259342C4BF9B1AED184FF0F4
:1055D8000009A9450ADA3046394604F11A020123BE
:1055E800C0470130D5D009F10109F2E70020BDE834
:1055F800F88300002DE9FF410C461746227E6E2AEB
:10560800984606460A9B01F1430100F0AF8012D884
:10561800632A23D00AD8002A00F0BC80582A40F018
:10562800CB8084F84520DFF804E257E0642A1ED0D6
:10563800692A1CD0C0E0732A00F0B08009D86F2A0C
:105648002ED0702A40F0B880226842F020022260F2
:105658003FE0752A24D0782A3BD0ADE01A68111DA6
:105668001960136884F8423004F14205A8E0206804
:105678001A6810F0800F02D0101D186008E010F0B2
:10568800400F02F10400186002D0B2F9003000E0C7
:105698001368002B3EDA2D225B4284F8432039E060
:1056A80020681A6810F0800F02D0101D186007E0FB
:1056B80010F0400F02F10400186001D0138800E0D8
:1056C8001368227EDFF864E16F2A0CBF08220A22E1
:1056D8001CE07822DFF858E184F845202268186831
:1056E80012F0800F00F104051D6003D1550601D5A5
:1056F800038800E00368D00744BF42F0200222601C
:105708001BB9226822F0200222601022002084F8AF
:10571800430002E0DFF814E10A226568A560002D65
:10572800A2BF206820F00400206003B965B10D46CF
:10573800B3FBF2F002FB10331EF8033005F8013D0D
:1057480003460028F4D100E00D46082A0BD123684F
:10575800DA0708D5236962689A42DEBF302305F864
:10576800013C05F1FF35491B21612EE025681A68C7
:10577800606915F0800F03D0151D1D60136808E0DF
:1057880015F0400F02F104051D60136801D0188060
:1057980000E01860002323610D4616E01A68111D09
:1057A8001960156862682846002100F043F808B1BE
:1057B800401B6060636804E004F1420584F84220FD
:1057C80001232361002384F84330CDF8008030465C
:1057D800214603AA3B46FFF797FE013002D14FF05E
:1057E800FF301FE0304639462A462369C04701305A
:1057F800F5D023689B0705D4E068039B9842B8BF9F
:1058080018460FE00025E368039A9B1A9D42F3DAD5
:105818003046394604F119020123C0470130DED071
:105828000135F0E704B0BDE8F08100BF935E0008E1
:10583800A45E000810B5C9B202449042034606D0DF
:105848001C788C4200F10100F7D1184610BD0020E9
:1058580010BD814210B501EB020301D3421E0BE0DB
:105868009842FBD28118D21AD34204D013F8014DC2
:1058780001F8014DF8E710BD994204D011F8014B29
:1058880002F8014FF8E710BD30B500293DD051F8B6
:10589800042C0B1F1D49002AB8BF9B180A680C4628
:1058A80012B95A600B6030BD93420DD2196858186E
:1058B800904201BF5A5852181A6042685A602360D1
:1058C80030BD994203D80A4651680029F9D11468B5
:1058D80015199D420AD11B682344D01888421360C9
:1058E80013D10868034413604B680DE002D90C23F8
:1058F800036030BD1C681819884204BF08684968ED
:10590800596004BF00191860536030BD9000002032
:1059180070B5CC1C24F0030408340C2C38BF0C24BC
:10592800002C064603DA0C233360002070BD8C423D
:10593800F9D3204A136810461946A1B10A68121B08
:105948000ED40B2A03D90A608B188C501FE08B42A7
:105958000DBF5A684A685A60026018BF0B4616E0C5
:105968000B464968E9E7144D2B681BB9304600F02F
:105978004BF828603046214600F046F8421C0346A2
:10598800D1D0C51C25F0030585420AD11C6003F15E
:105998000B001A1D20F00700821A0AD051429950B4
:1059A80070BD3046E91A00F02FF80130BBD02B4605
:1059B800ECE770BD900000208C000020F8B5074689
:1059C80015460E4621B91146BDE8F840FFF7A0BFBD
:1059D8001AB9FFF759FF2846F8BD00F025F8A84284
:1059E8000ED238462946FFF793FF044650B1314698
:1059F8002A46FFF70DFC38463146FFF745FF01E020
:105A08003046F8BD2046F8BD38B5064C002305469B
:105A18000846236000F012F8431C02D1236803B142
:105A28002B6038BDB001002051F8040C0028BEBF1F
:105A3800091851F8043CC01804387047044A05494D
:105A48001368002B08BF0B461844106018467047AF
:105A580094000020B8010020F8B500BFF8BC08BCCD
:105A68009E467047F8B500BFF8BC08BC9E46704714
:105A780046505320544553542C203430206C6F6FBB
:105A88007020322073637265656E730054696D65AA
:105A98007220636F756E7465722076616C75653AF5
:105AA8002025640054696D653A20252E33662053FD
:105AB800656300004650533A2020252E32660000C8
:105AC8004D422F533A20252E32660000535049206C
