:020000040800F2
:10000000004000200D4D00085D4D00085D4D0008CA
:100010005D4D00085D4D00085D4D000800000000CA
:100020000000000000000000000000005D4D00081E
:100030005D4D0008000000005D4D0008010B000848
:100040005D4D00085D4D00085D4D00085D4D0008E8
:100050005D4D00085D4D00085D4D00085D4D0008D8
:100060005D4D00085D4D00085D4D00085D4D0008C8
:100070005D4D00085D4D00085D4D00085D4D0008B8
:100080005D4D00085D4D00085D4D00085D4D0008A8
:100090005D4D00085D4D00085D4D00085D4D000898
:1000A0005D4D0008110B00085D4D00085D4D000816
:1000B0005D4D000800000000000000005D4D0008DC
:1000C0005D4D00085D4D00085D4D0008000000001A
:1000D0005D4D00085D4D00085D4D00085D4D000858
:1000E0005D4D00085D4D00085D4D000800000000FA
:1000F0000000000000000000000000000000000000
:100100000000000000000000000000005D4D00083D
:1001100000000000000000005D4D0008000000002D
:1001200000000000000000000000000000000000CF
:1001300000000000000000000000000000000000BF
:100140005D4D00085D4D000800000000000000004B
:10015000000000000000000000000000000000009F
:100160005D4D00085D4D00085D4D00085D4D0008C7
:100170005D4D0008000000000000000000000000CD
:08018000000000005D4D0008C5
:1001880010B5054C237833B9044B13B10448AFF3C9
:1001980000800123237010BD6C00002000000000C7
:1001A800F4550008084B10B51BB108480849AFF3CF
:1001B80000800848036803B910BD074B002BFBD02B
:1001C800BDE81040184700BF00000000F4550008C3
:1001D800700000206C0000200000000080B582B094
:1001E80000AF1E4A1D4B9B6943F0010393611B4BF3
:1001F8009B6903F001037B607B68032001F0A8FA88
:100208006FF00B000021002201F0ACFA6FF00A0039
:100218000021002201F0A6FA6FF009000021002257
:1002280001F0A0FA6FF004000021002201F09AFA10
:100238006FF003000021002201F094FA6FF0010032
:100248000F21002201F08EFA4FF0FF300F2100221B
:1002580001F088FA0837BD4680BD00BF0010024093
:1002680080B58AB000AF78607B681B68224A9342E9
:100278001CD1224A214B9B6943F4804393611F4B55
:100288009B6903F480433B613B6930237B61022314
:10029800BB610123FB6100233B6207237B6207F1FB
:1002A80014031748194602F073FE21E07B681B68A7
:1002B800144A93421CD1114A104BDB6943F40033B2
:1002C800D3610E4BDB6903F40033FB60FB680C233E
:1002D8007B610223BB610023FB6100233B62072390
:1002E8007B6207F114034FF09040194602F050FE6C
:1002F8002837BD4680BD00BF0038014000100240CD
:10030800000800480044004080B59CB000AF786009
:10031800204A204BDB6943F08053D3611D4BDB69D6
:1003280003F08053BB60BB6802F0BAFF08233B644C
:100338000023FB650123BB6507F14003184601F064
:100348006FFA0346002B01D000F01CFB4FF48033FA
:10035800FB604FF400733B6107F10C03184603F090
:100368009FFC0346002B01D000F00CFB4FF4004328
:10037800FB66FB6E93FAA3F3BB66BB6EB3FA83F31B
:100388001A46054B13449B001A4601231360703725
:10039800BD4680BD001002400081901080B58CB031
:1003A80000AF78600023FB620023BB6219207968E4
:1003B800002201F0D7F9192001F0F0F91E4A1E4B6E
:1003C8009B6943F4006393611B4B9B6903F40063CF
:1003D800FB60FB6807F1140207F110031046194689
:1003E80002F0A6FD02F082FDF862FB6A134AA2FB46
:1003F80003239B0C013BBB62114B124A1A60104B42
:1004080040F2E732DA600E4ABB6A53600C4B0022B6
:100418001A610B4B00229A60094803F03BFA034625
:10042800002B04D1064803F06BFA034600E00123D1
:1004380018463037BD4680BD0010024083DE1B439E
:10044800FC000020002C014080B582B002AF01F012
:100458006BF800F07FF900F0F3F900F0C3F900F051
:1004680095FA00F02BF800F043FD4FF6FF7000F00E
:10047800E3FE032000F0E2FC0D480E4900F036F9D7
:10048800012300934FF6FF7301930B480A210A22B8
:10049800002300F0DDFB022300934FF6FF73019366
:1004A80003480A211E22002300F0D2FBE4E700BF24
:1004B80088000020BC0000200C56000880B592B0CF
:1004C80000AF694B694A1A60674B00225A60664B55
:1004D8007F229A60644BFF22DA60634B00221A6124
:1004E800614B00225A61604B00229A615E4804F019
:1004F8008DF80346002B01D000F044FA5A48012138
:1005080004F0E8FB024643F2F2239A4202D000F0DC
:10051800B3F8A6E04FF000637B647B6C93FAA3F317
:100528003B643B6CB3FA83F3DBB243F06003DBB2AA
:10053800DBB25B09DBB2012B02D14D4B1B682DE00E
:100548004FF00063FB63FB6B93FAA3F3BB63BB6BD6
:10055800B3FA83F3DBB243F06003DBB2DBB25B09CF
:10056800DBB2022B02D1424B1B6A17E04FF000634B
:100578007B637B6B93FAA3F33B633B6BB3FA83F325
:10058800DBB243F06003DBB2DBB25B09DBB2042B06
:1005980002D1374B5B6801E0354B5B6A4FF0006373
:1005A800FB62FB6A93FAA3F3BB624FF080637B6242
:1005B8007B6A93FAA3F33B623B6AB3FA83F3DBB239
:1005C80043F06003DBB2DBB25B09DBB2012B02D183
:1005D800274B1B682DE04FF08063FB61FB6993FAA2
:1005E800A3F3BB61BB69B3FA83F3DBB243F06003E7
:1005F800DBB2DBB25B09DBB2022B02D11C4B1B6AFC
:1006080017E04FF080637B617B6993FAA3F33B614A
:100618003B69B3FA83F3DBB243F06003DBB2DBB2CE
:100628005B09DBB2042B02D1114B5B6801E0104B74
:100638005B6A4FF08063FB60FB6893FAA3F3BB60CF
:100648004FF080737B607B6893FAA3F33B603B6851
:10065800B3FA83F31A46074B13449B001A46012347
:1006680013604837BD4680BDAC010020002800401B
:10067800001002402081901080B586B000AF14238E
:10068800FB7502237B751823BB7502233B7507F1A5
:10069800140315481946012204F06CF90346002B8F
:1006A80001D000F06FF902233B7000237B70002318
:1006B800BB700023FB700023FB6000233B613B46BB
:1006C80009481946012204F033F80346002B01D0EB
:1006D80000F058F90448012143F2F22204F0E0FA4C
:1006E8001837BD4680BD00BFAC01002090B58BB067
:1006F80002AF7860396007F10803134819460022F1
:1007080004F0DCF807F11C030F481946002204F036
:10071800E7F93B7A1A467B7A1C46BB7A00937868DD
:100728000A49234604F04AFB7B7F1A46BB7F1C46D6
:10073800FB7F03F5FA63009338680549234604F004
:100748003DFB2437BD4690BDAC010020145600087F
:100758002056000880B590B000AF0223BB6101238A
:10076800BB621023FB6202237B630023BB634FF44D
:100778006013FB6307F11803184601F051F80346AC
:10078800002B01D000F0FEF80F237B600223BB6032
:100798000023FB604FF480633B6100237B613B1DBA
:1007A8001846022102F008F90346002B01D000F098
:1007B800E9F802F06DFB0246094BA3FB02239B09F3
:1007C800184600F0F9FF042001F002F84FF0FF305E
:1007D8000F21002200F0C6FF4037BD4680BD00BF94
:1007E800D34D621080B500AF134B144A1A60124BF8
:1007F8004FF416525A60104B00229A600E4B00229A
:10080800DA600D4B00221A610B4B0C225A610A4B1D
:1008180000229A61084B0022DA61074B00221A6213
:10082800054B00225A62044802F048FD0346002B9B
:1008380001D000F0A7F880BD3C010020003801403D
:1008480080B58AB000AF454A444B5B6943F4002346
:100858005361424B5B6903F400233B613B693F4AA8
:100868003E4B5B6943F4800353613C4B5B6903F483
:100878008003FB60FB68394A384B5B6943F40033FB
:100888005361364B5B6903F40033BB60BB68334A82
:10089800324B5B6943F480235361304B5B6903F44B
:1008A80080237B607B682D4A2C4B5B6943F4801363
:1008B80053612A4B5B6903F480133B603B6828480B
:1008C8004FF40051002202F0D3FC4FF090404FF457
:1008D8000041002202F0CCFC22480421002202F050
:1008E800C7FC4FF400537B611F4BBB610023FB61C6
:1008F80007F114031D48194602F04AFB4FF4005350
:100908007B610123BB610023FB6103233B6207F189
:1009180014031348194602F03BFB4FF400437B6174
:100928000123BB610023FB6103233B6207F114032E
:100938004FF09040194602F02BFB04237B61012302
:10094800BB610023FB6103233B6207F114030548E5
:10095800194602F01DFB2837BD4680BD0010024035
:1009680000040048000C004800002110000800485E
:1009780080B483B000AF78600C37BD465DF8047B67
:10098800704700BF80B400AFFEE700BF80B500AF7E
:100998001A4B1B4A1A60194B4FF482725A60174B54
:1009A80000229A60154B4FF4E062DA60134B002284
:1009B8001A61124B00225A61104B4FF400729A616F
:1009C8000E4B0022DA610D4B00221A620B4B0022FB
:1009D8005A620A4B00229A62084B0722DA62074BD6
:1009E80000221A63054B00225A63044803F00AFBED
:1009F8000346002B01D0FFF7C5FF80BDCC010020C6
:100A0800003C004080B588B000AF78607B681B6808
:100A1800114A93421CD1114A104BDB6943F400433D
:100A2800D3610E4BDB6903F40043BB60BB684FF432
:100A3800E053FB6002233B6100237B610323BB611E
:100A48000623FB6107F10C030548194602F0A0FADA
:100A58002037BD4680BD00BF003C0040001002406A
:100A68000008004880B400AF1F4A1F4BD3F88830F5
:100A780043F47003C2F888301C4A1C4B1B6843F0CF
:100A8800010313601949194B5A68194B13404B60FD
:100A9800164A164B1B6823F0847323F480331360C3
:100AA800124A124B1B6823F4802313600F4A0F4B22
:100AB8005B6823F4FE0353600C4A0C4BDB6A23F09B
:100AC8000F03D3620949094B1A6B0A4B13400B6396
:100AD800064B00229A60044B4FF000629A60BD46B4
:100AE8005DF8047B704700BF00ED00E00010024095
:100AF8000CC07FF8CCFC00FF80B500AF00F02AFDE9
:100B080000F082FE80BD00BF80B500AF014802F052
:100B180013FF80BDFC00002090B589B002AF0446E9
:100B2800084611461A462346FB710346BB710B461D
:100B38007B7113467B80FB79FB75FB7D1F2B02D8ED
:100B48000023FB7102E0FB7D203BFB7500233B7516
:100B580012E0397DFA7D387D3C4C13465B00134426
:100B68005B00034423441A7807F118030B4403F885
:100B78000C2C3B7D01333B753B7D052BE9D9BB79BB
:100B880098B27B7999B23B8D1A46520013445B00A8
:100B98009AB23B8DDB009CB2BB8D0093234600F0DC
:100BA80047FC00237B754AE00023BB7541E07B7D51
:100BB80007F11802134413F80C3C1A46BB7D42FA9D
:100BC80003F303F00103002B30D03B8D012B12D12E
:100BD800BB799AB27B7D9BB2134499B27B799AB266
:100BE800BB7D9BB213449AB27B88084611461A46CD
:100BF80000F048FB1AE0BB799AB27B7D9BB2398D35
:100C080011FB03F39BB2134498B27B799AB2BB7D74
:100C18009BB2398D11FB03F39BB2134499B23A8D01
:100C28003C8D7B880093234600F002FCBB7D01339A
:100C3800BB75BB7D072BBAD97B7D01337B757B7D6B
:100C4800052BB1D91C37BD4690BD00BF44560008DE
:100C580090B585B002AF7860084611461A4603463B
:100C6800FB700B46BB7013463B8017E07B685A1C31
:100C78007A601878F978BA783C883B8B0093BB8BFC
:100C880001932346FFF748FF3B8BDBB21A4652001D
:100C980013445B00DAB2FB781344FB707B681B7863
:100CA800002BE3D10C37BD4690BD00BF80B500AF27
:100CB800FFF76CFE02480421002202F0D9FA80BD39
:100CC800000C004880B582B000AF0346FB71FB1DE5
:100CD800044819460122012303F024FA0837BD46C7
:100CE80080BD00BFCC01002080B582B000AF0346B4
:100CF800FB710C480421002202F0BAFA4FF0904030
:100D08004FF40041002202F0B3FAFB791846FFF7CE
:100D1800D9FF04480421012202F0AAFA0837BD4687
:100D280080BD00BF000C004880B582B000AF03460C
:100D3800FB714FF090404FF40041012202F098FA05
:100D480008480421002202F093FAFB791846FFF7BD
:100D5800B9FF04480421012202F08AFA0837BD4687
:100D680080BD00BF000C004890B583B000AF0446BA
:100D7800084611461A462346FB800346BB800B46AD
:100D88007B8013463B802A20FFF7AEFFFB881B0AB7
:100D98009BB2DBB21846FFF7C7FFFB88DBB21846E9
:100DA800FFF7C2FF7B881B0A9BB2DBB21846FFF72E
:100DB800BBFF7B88DBB21846FFF7B6FF2B20FFF797
:100DC80093FFBB881B0A9BB2DBB21846FFF7ACFF48
:100DD800BB88DBB21846FFF7A7FF3B881B0A9BB20C
:100DE800DBB21846FFF7A0FF3B88DBB21846FFF7D7
:100DF8009BFF2C20FFF778FF0C37BD4690BD00BF46
:100E080080B500AF4FF090404FF40051012202F03E
:100E18002FFAC82000F0B8FB07480421002202F08E
:100E280027FAC82000F0B0FB4FF090404FF4005173
:100E3800012202F01DFA80BD000C004880B584B084
:100E480000AF0346FB71FB79FB733620FFF74CFFBD
:100E5800012000F099FBFB7B032B37D801A252F845
:100E680023F000BF7D0E0008930E0008A90E0008AD
:100E7800BF0E00084820FFF757FF164BF0221A80D4
:100E8800154B4FF4A0721A8021E02820FFF74CFF81
:100E9800104B4FF4A0721A800F4BF0221A8016E004
:100EA8008820FFF741FF0B4BF0221A800A4B4FF4C2
:100EB800A0721A800BE0E820FFF736FF054B4FF4CD
:100EC800A0721A80044BF0221A8000E000BF10378D
:100ED800BD4680BD060000200400002080B500AF9C
:100EE8004FF090404FF40051012202F0C1F980BD4B
:100EF80080B500AFFFF7F2FFFFF7D8FEFFF780FFDE
:100F08000120FFF7F1FE4FF47A7000F03DFBCB2093
:100F1800FFF7EAFE3920FFF707FF2C20FFF704FF51
:100F28000020FFF701FF3420FFF7FEFE0220FFF745
:100F3800FBFECF20FFF7D8FE0020FFF7F5FEC1200B
:100F4800FFF7F2FE3020FFF7EFFEE820FFF7CCFEB8
:100F58008520FFF7E9FE0020FFF7E6FE7820FFF77F
:100F6800E3FEEA20FFF7C0FE0020FFF7DDFE0020C9
:100F7800FFF7DAFEED20FFF7B7FE6420FFF7D4FE97
:100F88000320FFF7D1FE1220FFF7CEFE8120FFF7E6
:100F9800CBFEF720FFF7A8FE2020FFF7C5FEC020F4
:100FA800FFF7A2FE2320FFF7BFFEC120FFF79CFE3C
:100FB8001020FFF7B9FEC520FFF796FE3E20FFF789
:100FC800B3FE2820FFF7B0FEC720FFF78DFE86206E
:100FD800FFF7AAFE3620FFF787FE4820FFF7A4FE9A
:100FE8003A20FFF781FE5520FFF79EFEB120FFF75C
:100FF8007BFE0020FFF798FE1820FFF795FEB6202D
:10100800FFF772FE0820FFF78FFE8220FFF78CFEA5
:101018002720FFF789FEF220FFF766FE0020FFF782
:1010280083FE2620FFF760FE0120FFF77DFEE0200B
:10103800FFF75AFE0F20FFF777FE3120FFF774FE07
:101048002B20FFF771FE0C20FFF76EFE0E20FFF736
:101058006BFE0820FFF768FE4E20FFF765FEF120C3
:10106800FFF762FE3720FFF75FFE0720FFF75CFE01
:101078001020FFF759FE0320FFF756FE0E20FFF75A
:1010880053FE0920FFF750FE0020FFF74DFEE12038
:10109800FFF72AFE0020FFF747FE0E20FFF744FE69
:1010A8001420FFF741FE0320FFF73EFE1120FFF753
:1010B8003BFE0720FFF738FE3120FFF735FEC12041
:1010C800FFF732FE4820FFF72FFE0820FFF72CFE1F
:1010D8000F20FFF729FE0C20FFF726FE3120FFF72F
:1010E80023FE3620FFF720FE0F20FFF71DFE1120FC
:1010F800FFF7FAFD782000F047FA2920FFF7F4FD02
:101108000020FFF79BFE80BD2DE9F0438DB000AFB6
:1011180003463960FB806B461E460023FB623B6832
:101128005B00B3F5FA7F02D23B68FB6202E04FF442
:10113800FA73FB624FF090404FF40041012202F035
:1011480097F83B480421002202F092F8FB881B0A1A
:101158009BB287F82330F96A0B46013BFB610A46CC
:101168004FF000034FEAC30949EA52794FEAC2082F
:101178000A464FF00003DD0045EA5275D400CB1D46
:10118800DB08DB00ADEB030D6B460033BB610023CE
:10119800BB620EE0BA69BB6A134497F823201A7041
:1011A800BB6A0133FA88D1B2BA69D154BB6A023337
:1011B800BB62BA6AFB6A9A42ECD33B685B007B610C
:1011C8007A69FB6AB2FBF3F33B617B69FA6AB3FBAA
:1011D800F2F2F96A01FB02F29B1AFB603B69002BF1
:1011E80012D000237B620BE0BA69FB6A9BB21148FC
:1011F80011461A460A2302F095FF7B6A01337B6287
:101208007A6A3B699A42EFD3BA69FB689BB209488C
:1012180011461A460A2302F085FF054804210122D7
:1012280002F026F8B5463437BD46BDE8F08300BF66
:10123800000C0048CC01002080B582B000AF034606
:10124800FB800E4B1B889AB20D4B1B889BB200206B
:101258000021FFF789FD094B1B889BB21A46084BF2
:101268001B889BB203FB02F31A46FB8818461146FB
:10127800FFF74AFF0837BD4680BD00BF06000020C3
:101288000400002080B586B000AF0346FB800B4603
:10129800BB8013467B80624B1B889BB2FA889A42BC
:1012A80080F0BA805F4B1B889BB2BA889A4280F064
:1012B800B3804FF090404FF40041002201F0D8FF76
:1012C80059480421002201F0D3FF2A20FFF7FAFC35
:1012D8004FF090404FF40041012201F0C9FF5248FD
:1012E8000421012201F0C4FF4F480421002201F02B
:1012F800BFFFFB881B0A9BB2DBB23B75FB88DBB2E6
:101308007B75FB8801331B12DBB2BB75FB88DBB234
:101318000133DBB2FB7507F1140344481946042274
:10132800012302F0FFFE40480421012201F0A0FF42
:101338004FF090404FF40041002201F099FF3A48E5
:101348000421002201F094FF2B20FFF7BBFC4FF093
:1013580090404FF40041012201F08AFF32480421F5
:10136800012201F085FF30480421002201F080FFAE
:10137800BB881B0A9BB2DBB23B74BB88DBB27B74B5
:10138800BB8801331B12DBB2BB74BB88DBB20133F1
:10139800DBB2FB7407F11003244819460422012329
:1013A80002F0C0FE20480421012201F061FF4FF045
:1013B80090404FF40041002201F05AFF1A480421DE
:1013C800002201F055FF2C20FFF77CFC4FF09040E5
:1013D8004FF40041012201F04BFF13480421012280
:1013E80001F046FF10480421002201F041FF7B88EC
:1013F8001B0A9BB2DBB23B737B88DBB27B7307F1C2
:101408000C030A4819460222012302F08BFE064803
:101418000421012201F02CFF1837BD4680BD00BF12
:101428000600002004000020000C0048CC01002029
:1014380090B583B000AF0446084611461A462346C5
:10144800FB800346BB800B467B8013463B80254BC5
:101458001B889BB2FA889A4205D2234B1B889BB201
:10146800BA889A4200D33AE0FA887B881344013B51
:101478001C4A128892B2934205DB1A4B1B889AB217
:10148800FB88D31A7B80BA883B881344013B164AF1
:10149800128892B2934205DB134B1B889AB2BB8821
:1014A800D31A3B80FA887B8813449BB2013B9CB2D9
:1014B800BA883B8813449BB2013B9BB2F988BA882F
:1014C800084611462246FFF74FFC3B887A8802FB04
:1014D80003F31A463B8B18461146FFF715FE0C37E7
:1014E800BD4690BD060000200400002080B483B0F3
:1014F80000AF78600C37BD465DF8047B704700BFCD
:1015080080B483B000AF78600C37BD465DF8047BCB
:10151800704700BF80B483B000AF78600C37BD4619
:101528005DF8047B704700BF80B500AF084A084BE0
:101538001B6843F010031360032000F009F9002032
:10154800FEF72CFFFEF74AFE0023184680BD00BFB9
:101558000020024080B400AF044B1B680133034AEB
:101568001360BD465DF8047B704700BF3002002061
:1015780080B400AF034B1B681846BD465DF8047B7A
:10158800704700BF3002002080B584B000AF78609B
:10159800FFF7EEFFB8607B68FB60FB68B3F1FF3FC5
:1015A80002D0FB680133FB6000BFFFF7E1FF024692
:1015B800BB68D21AFB689A42F7D31037BD4680BD84
:1015C80080B485B000AF78607B6803F00703FB60E8
:1015D8000C4BDB68BB60BA684FF6FF031340BB6077
:1015E800FB681A02BB68134343F0BF6343F400333C
:1015F800BB60044ABB68D3601437BD465DF8047B02
:10160800704700BF00ED00E080B400AF044BDB681A
:1016180003F4E0631B0A1846BD465DF8047B704777
:1016280000ED00E080B483B000AF0346FB710849C9
:1016380097F907305B09FA7902F01F02012000FAD6
:1016480002F241F823200C37BD465DF8047B704751
:1016580000E100E080B483B000AF03463960FB715D
:1016680097F90730002B0BDA0D49FB7903F00F03CC
:10167800043B3A68D2B21201D2B20B441A7609E09E
:10168800084997F907303A68D2B21201D2B20B442E
:1016980083F800230C37BD465DF8047B704700BF14
:1016A80000ED00E000E100E080B489B000AFF86030
:1016B800B9607A60FB6803F00703FB61FB69C3F15B
:1016C8000703042B28BF0423BB61FB690433062BE3
:1016D80002D9FB69033B00E000237B61BB6901225F
:1016E80002FA03F35A1EBB681A407B699A407B6969
:1016F800012101FA03F3591E7B680B401343184676
:101708002437BD465DF8047B704700BF80B582B0C2
:1017180000AF78607B68013BB3F1807F01D3012380
:101728000FE00A4A7B68013B53604FF0FF300F21FE
:10173800FFF790FF054B00229A60044B07221A60BE
:10174800002318460837BD4680BD00BF10E000E002
:1017580080B582B000AF78607868FFF731FF08374E
:10176800BD4680BD80B586B000AF0346B9607A60DB
:10177800FB7300237B61FFF747FF78617869B968DD
:101788007A68FFF791FF024697F90F30184611461D
:10179800FFF760FF1837BD4680BD00BF80B582B037
:1017A80000AF0346FB7197F907301846FFF73AFF79
:1017B8000837BD4680BD00BF80B582B000AF7860F5
:1017C8007868FFF7A3FF034618460837BD4680BD73
:1017D80080B483B000AF78607B68042B06D1094AD7
:1017E800084B1B6843F00403136005E0054A054BEA
:1017F8001B6823F0040313600C37BD465DF8047BB7
:10180800704700BF10E000E080B500AF00F002F8BC
:1018180080BD00BF80B400AFBD465DF8047B704753
:1018280080B5ADF5007D00AF3B1D18600023C7F8FB
:10183800F8313B1D1B681B6803F00103002B00F007
:10184800CC81AF4B5B6803F00C03042B0BD0AC4B83
:101858005B6803F00C03082B79D1A94B5B6803F490
:101868008033002B73D04FF40033C7F8F431D7F826
:10187800F43193FAA3F3C7F8F031D7F8F031B3FA9B
:1018880083F3DBB243F02003DBB2DBB25B09DBB2EC
:10189800012B02D19A4B1B6835E04FF40033C7F88F
:1018A800EC31D7F8EC3193FAA3F3C7F8E831D7F85D
:1018B800E831B3FA83F3DBB243F02003DBB2DBB2E7
:1018C8005B09DBB2022B02D18D4B1B6A1BE04FF484
:1018D8000033C7F8E431D7F8E43193FAA3F3C7F833
:1018E800E031D7F8E031B3FA83F3DBB243F02003F9
:1018F800DBB2DBB25B09DBB2042B02D1804B5B6845
:1019080001E07F4B5B6A4FF40032C7F8DC21D7F85F
:10191800DC2192FAA2F2C7F8D821D7F8D821B2FA76
:1019280082F2D2B242F02002D2B2D2B202F01F0248
:10193800012101FA02F21340002B07D03B1D1B685E
:101948005B68002B02D1012301F031B845E13B1D52
:101958001B685B68B3F5803F06D1694A684B1B6812
:1019680043F48033136030E03B1D1B685B68002B39
:101978000CD1634A624B1B6823F480331360604ABE
:101988005F4B1B6823F4802313601EE03B1D1B681C
:101998005B68B3F5A02F0CD1594A594B1B6843F427
:1019A80080231360564A564B1B6843F480331360F8
:1019B8000BE0534A524B1B6823F480331360504AA0
:1019C8004F4B1B6823F4802313604D494C4BDB6A53
:1019D80023F00F023B1D1B689B681343CB623B1D22
:1019E8001B685B68002B7BD0FFF7C2FDC7F8F801C6
:1019F8000AE0FFF7BDFD0246D7F8F831D31A642B89
:101A080002D9032300F0D3BF4FF40033C7F8D43111
:101A1800D7F8D43193FAA3F3C7F8D031D7F8D03137
:101A2800B3FA83F3DBB243F02003DBB2DBB25B092A
:101A3800DBB2012B02D1324B1B6835E04FF4003387
:101A4800C7F8CC31D7F8CC3193FAA3F3C7F8C8312B
:101A5800D7F8C831B3FA83F3DBB243F02003DBB223
:101A6800DBB25B09DBB2022B02D1254B1B6A1BE000
:101A78004FF40033C7F8C431D7F8C43193FAA3F34D
:101A8800C7F8C031D7F8C031B3FA83F3DBB243F0FB
:101A98002003DBB2DBB25B09DBB2042B02D1184BAB
:101AA8005B6801E0164B5B6A4FF40032C7F8BC2153
:101AB800D7F8BC2192FAA2F2C7F8B821D7F8B82112
:101AC800B2FA82F2D2B242F02002D2B2D2B202F01C
:101AD8001F02012101FA02F21340002B89D07CE099
:101AE800FFF746FDC7F8F8010CE0FFF741FD024695
:101AF800D7F8F831D31A642B04D9032300F057BF61
:101B0800001002404FF40033C7F8B431D7F8B431AD
:101B180093FAA3F3C7F8B031D7F8B031B3FA83F327
:101B2800DBB243F02003DBB2DBB25B09DBB2012B93
:101B380002D1B74B1B6835E04FF40033C7F8AC311E
:101B4800D7F8AC3193FAA3F3C7F8A831D7F8A8317E
:101B5800B3FA83F3DBB243F02003DBB2DBB25B09F9
:101B6800DBB2022B02D1AA4B1B6A1BE04FF40033F5
:101B7800C7F8A431D7F8A43193FAA3F3C7F8A03172
:101B8800D7F8A031B3FA83F3DBB243F02003DBB21A
:101B9800DBB25B09DBB2042B02D19D4B5B6801E031
:101BA8009B4B5B6A4FF40032C7F89C21D7F89C2105
:101BB80092FAA2F2C7F89821D7F89821B2FA82F2DD
:101BC800D2B242F02002D2B2D2B202F01F020121F8
:101BD80001FA02F21340002B87D13B1D1B681B68DA
:101BE80003F00203002B00F0D781894B5B6803F0F8
:101BF8000C03002B0DD0864B5B6803F00C03082BFD
:101C080040F09080824B5B6803F48033002B40F0F7
:101C180089800223C7F89431D7F8943193FAA3F353
:101C2800C7F89031D7F89031B3FA83F3DBB243F0B9
:101C38002003DBB2DBB25B09DBB2012B02D1744BB0
:101C48001B6833E00223C7F88C31D7F88C3193FA3C
:101C5800A3F3C7F88831D7F88831B3FA83F3DBB236
:101C680043F02003DBB2DBB25B09DBB2022B02D10B
:101C7800674B1B6A1AE00223C7F88431D7F884310E
:101C880093FAA3F3C7F88031D7F88031B3FA83F316
:101C9800DBB243F02003DBB2DBB25B09DBB2042B1F
:101CA80002D15B4B5B6801E0594B5B6A0222C7F8C3
:101CB8007C21D7F87C2192FAA2F2C7F87821D7F8CC
:101CC8007821B2FA82F2D2B242F02002D2B2D2B273
:101CD80002F01F02012101FA02F21340002B07D083
:101CE8003B1D1B681B69012B02D0012300F05FBE5E
:101CF8004748474B1B6823F0F8023B1D1B6859698E
:101D0800F823C7F87431D7F8743193FAA3F3C7F8F6
:101D18007031D7F87031B3FA83F301FA03F3134340
:101D2800036039E13B1D1B681B69002B00F0A8808C
:101D38000123C7F86C31D7F86C3193FAA3F3C7F8CD
:101D48006831D7F86831B3FA83F303F1845303F5A4
:101D580084139B001A4601231360FFF709FCC7F898
:101D6800F8010AE0FFF704FC0246D7F8F831D31A65
:101D7800022B02D9032300F01ABE0223C7F86431EC
:101D8800D7F8643193FAA3F3C7F86031D7F8603114
:101D9800B3FA83F3DBB243F02003DBB2DBB25B09B7
:101DA800DBB2012B02D11A4B1B6835E00223C7F8BE
:101DB8005C31D7F85C3193FAA3F3C7F85831D7F8F8
:101DC8005831B3FA83F3DBB243F02003DBB2DBB262
:101DD8005B09DBB2022B02D10D4B1B6A1CE002230C
:101DE800C7F85431D7F8543193FAA3F3C7F85031F0
:101DF800D7F85031B3FA83F3DBB243F02003DBB2F8
:101E0800DBB25B09DBB2042B04D1014B5B6803E056
:101E180000100240C64B5B6A0222C7F84C21D7F873
:101E28004C2192FAA2F2C7F84821D7F84821B2FA11
:101E380082F2D2B242F02002D2B2D2B202F01F0233
:101E4800012101FA02F21340002B8BD0B848B84B9D
:101E58001B6823F0F8023B1D1B685969F823C7F873
:101E68004431D7F8443193FAA3F3C7F84031D7F88F
:101E78004031B3FA83F301FA03F3134303608BE0B1
:101E88000123C7F83C31D7F83C3193FAA3F3C7F8DC
:101E98003831D7F83831B3FA83F303F1845303F5B3
:101EA80084139B001A4600231360FFF761FBC7F8F1
:101EB800F8010AE0FFF75CFB0246D7F8F831D31ABD
:101EC800022B02D9032300F072BD0223C7F8343174
:101ED800D7F8343193FAA3F3C7F83031D7F8303153
:101EE800B3FA83F3DBB243F02003DBB2DBB25B0966
:101EF800DBB2012B02D18E4B1B6833E00223C7F8FB
:101F08002C31D7F82C3193FAA3F3C7F82831D7F836
:101F18002831B3FA83F3DBB243F02003DBB2DBB240
:101F28005B09DBB2022B02D1814B1B6A1AE0022348
:101F3800C7F82431D7F8243193FAA3F3C7F820312E
:101F4800D7F82031B3FA83F3DBB243F02003DBB2D6
:101F5800DBB25B09DBB2042B02D1754B5B6801E095
:101F6800734B5B6A0222C7F81C21D7F81C2192FA2E
:101F7800A2F2C7F81821D7F81821B2FA82F2D2B221
:101F880042F02002D2B2D2B202F01F02012101FABD
:101F980002F21340002B8DD13B1D1B681B6803F018
:101FA8000803002B00F040813B1D1B689B69002B38
:101FB80000F096800123C7F81431D7F8143193FA4A
:101FC800A3F3C7F81031D7F81031B3FA83F31A46E0
:101FD800584B13449B001A4601231360FFF7C8FAB5
:101FE800C7F8F8010AE0FFF7C3FA0246D7F8F83154
:101FF800D31A022B02D9032300F0D9BC0223C7F855
:102008000C31D7F80C3193FAA3F3C7F80831D7F895
:102018000831B3FA83F3DBB243F06003DBB2DBB21F
:102028005B09DBB2012B02D1414B1B6839E002236B
:10203800C7F80431D7F8043193FAA3F207F580738F
:102048001A6007F580731B68B3FA83F3DBB243F0B9
:102058006003DBB2DBB25B09DBB2022B02D1344B8B
:102068001B6A1EE007F1FC0302221A6007F1FC0359
:102078001B6893FAA3F207F1F8031A6007F1F80353
:102088001B68B3FA83F3DBB243F06003DBB2DBB265
:102098005B09DBB2042B02D1254B5B6801E0244BC2
:1020A8005B6A07F1F4020221116007F1F402126879
:1020B80092FAA2F107F1F002116007F1F00212683A
:1020C800B2FA82F2D2B242F06002D2B2D2B202F0D6
:1020D8001F02012101FA02F21340002B83D0A3E072
:1020E80007F1EC0301221A6007F1EC031B6893FA6D
:1020F800A3F207F1E8031A6007F1E8031B68B3FAD3
:1021080083F31A460B4B13449B001A4600231360B3
:10211800FFF72EFAC7F8F8010EE0FFF729FA024692
:10212800D7F8F831D31A022B06D9032300F03FBCA5
:10213800001002402081901007F1E40302221A6087
:1021480007F1E4031B6893FAA3F207F1E0031A60AE
:1021580007F1E0031B68B3FA83F3DBB243F06003D3
:10216800DBB2DBB25B09DBB2012B02D1A64B1B68E9
:102178003BE007F1DC0302221A6007F1DC031B686D
:1021880093FAA3F207F1D8031A6007F1D8031B6882
:10219800B3FA83F3DBB243F06003DBB2DBB25B0973
:1021A800DBB2022B02D1984B1B6A1EE007F1D40365
:1021B80002221A6007F1D4031B6893FAA3F207F10D
:1021C800D0031A6007F1D0031B68B3FA83F3DBB2BC
:1021D80043F06003DBB2DBB25B09DBB2042B02D154
:1021E800894B5B6801E0884B5B6A07F1CC020221EE
:1021F800116007F1CC02126892FAA2F107F1C80245
:10220800116007F1C8021268B2FA82F2D2B242F043
:102218006002D2B2D2B202F01F02012101FA02F228
:102228001340002B7FF479AF3B1D1B681B6803F03C
:102238000403002B00F0A181002387F8FF31724BC3
:10224800DB6903F08053002B12D16F4A6E4BDB69B8
:1022580043F08053D3616C4BDB6903F0805207F184
:102268000C031A6007F10C031B68012387F8FF3180
:10227800664B1B6803F48073002B1AD1634A634BC7
:102288001B6843F480731360FFF772F9C7F8F8010D
:1022980009E0FFF76DF90246D7F8F831D31A642B35
:1022A80001D9032383E3594B1B6803F48073002B84
:1022B800EFD03B1D1B68DB68012B06D1524A524BFD
:1022C8001B6A43F0010313622FE03B1D1B68DB68A8
:1022D800002B0CD14C4A4C4B1B6A23F001031362B0
:1022E800494A494B1B6A23F0040313621DE03B1D56
:1022F8001B68DB68052B0CD1434A434B1B6A43F030
:1023080004031362404A404B1B6A43F00103136203
:102318000BE03D4A3C4B1B6A23F0010313623A4A27
:10232800394B1B6A23F0040313623B1D1B68DB68EF
:10233800002B00F08F80FFF71BF9C7F8F8010BE0BE
:10234800FFF716F90246D7F8F831D31A41F2883266
:10235800934201D903232AE307F1C40302221A6036
:1023680007F1C4031B6893FAA3F207F1C0031A60CC
:1023780007F1C0031B68B3FA83F3DBB243F04003F1
:10238800DBB2DBB25B09DBB2012B02D11E4B1B684F
:1023980040E007F1BC0302221A6007F1BC031B6886
:1023A80093FAA3F207F1B8031A6007F1B8031B68A0
:1023B800B3FA83F3DBB243F04003DBB2DBB25B0971
:1023C800DBB2022B02D1104B1B6A23E007F1B403E6
:1023D80002221A6007F1B4031B6893FAA3F207F10B
:1023E800B0031A6007F1B0031B68B3FA83F3DBB2DA
:1023F80043F04003DBB2DBB25B09DBB2042B07D14D
:10240800014B5B6806E000BF00100240007000400E
:10241800A54B5B6A07F1AC020221116007F1AC021F
:10242800126892FAA2F107F1A802116007F1A80256
:102438001268B2FA82F2D2B242F04002D2B2D2B2FA
:1024480002F01F02012101FA02F21340002B3FF4AF
:1024580077AF88E0FFF78CF8C7F8F8010BE0FFF7D3
:1024680087F80246D7F8F831D31A41F288329342F6
:1024780001D903239BE207F1A40302221A6007F1A2
:10248800A4031B6893FAA3F207F1A0031A6007F1EB
:10249800A0031B68B3FA83F3DBB243F04003DBB25B
:1024A800DBB25B09DBB2012B02D17F4B1B683BE03F
:1024B80007F19C0302221A6007F19C031B6893FA38
:1024C800A3F207F198031A6007F198031B68B3FA9F
:1024D80083F3DBB243F04003DBB2DBB25B09DBB270
:1024E800022B02D1704B1B6A1EE007F194030222F3
:1024F8001A6007F194031B6893FAA3F207F190039B
:102508001A6007F190031B68B3FA83F3DBB243F058
:102518004003DBB2DBB25B09DBB2042B02D1624BB6
:102528005B6801E0604B5B6A07F18C020221116075
:1025380007F18C02126892FAA2F107F18802116081
:1025480007F188021268B2FA82F2D2B242F040026F
:10255800D2B2D2B202F01F02012101FA02F21340F4
:10256800002B7FF47CAF97F8FF31012B05D14E4A41
:102578004D4BDB6923F08053D3613B1D1B68DB693E
:10258800002B00F01382484B5B6803F00C03082B08
:1025980000F008823B1D1B68DB69022B40F05C8160
:1025A80007F184034FF080721A6007F184031B68F7
:1025B80093FAA3F207F180031A6007F180031B68FE
:1025C800B3FA83F303F1845303F584139B001A468B
:1025D80000231360FEF7CCFFC7F8F80109E0FEF707
:1025E800C7FF0246D7F8F831D31A022B01D90323C3
:1025F800DDE107F17C034FF000721A6007F17C03FC
:102608001B6893FAA3F207F178031A6007F17803BD
:102618001B68B3FA83F3DBB243F02003DBB2DBB20F
:102628005B09DBB2012B02D11F4B1B6840E007F1AD
:1026380074034FF000721A6007F174031B6893FA71
:10264800A3F207F170031A6007F170031B68B3FA6D
:1026580083F3DBB243F02003DBB2DBB25B09DBB20E
:10266800022B02D1104B1B6A22E007F16C034FF0DA
:1026780000721A6007F16C031B6893FAA3F207F162
:1026880068031A6007F168031B68B3FA83F3DBB2C7
:1026980043F02003DBB2DBB25B09DBB2042B05D1CC
:1026A800014B5B6804E000BF00100240BE4B5B6A50
:1026B80007F164024FF00071116007F164021268BB
:1026C80092FAA2F107F16002116007F16002126844
:1026D800B2FA82F2D2B242F02002D2B2D2B202F000
:1026E8001F02012101FA02F21340002B7FF477AF99
:1026F800AD48AD4B5B6823F474123B1D1B68596AE7
:102708003B1D1B681B6A0B431343436007F15C03C3
:102718004FF080721A6007F15C031B6893FAA3F20A
:1027280007F158031A6007F158031B68B3FA83F3DB
:1027380003F1845303F584139B001A4601231360A5
:10274800FEF716FFC7F8F80109E0FEF711FF024689
:10275800D7F8F831D31A022B01D9032327E107F15F
:1027680054034FF000721A6007F154031B6893FA80
:10277800A3F207F150031A6007F150031B68B3FA7C
:1027880083F3DBB243F02003DBB2DBB25B09DBB2DD
:10279800012B02D1844B1B683DE007F14C034FF03D
:1027A80000721A6007F14C031B6893FAA3F207F151
:1027B80048031A6007F148031B68B3FA83F3DBB2D6
:1027C80043F02003DBB2DBB25B09DBB2022B02D1A0
:1027D800754B1B6A1FE007F144034FF000721A6043
:1027E80007F144031B6893FAA3F207F140031A6048
:1027F80007F140031B68B3FA83F3DBB243F020030D
:10280800DBB2DBB25B09DBB2042B02D1664B5B683F
:1028180001E0654B5B6A07F13C024FF00071116003
:1028280007F13C02126892FAA2F107F1380211602E
:1028380007F138021268B2FA82F2D2B242F02002EC
:10284800D2B2D2B202F01F02012101FA02F2134001
:10285800002B3FF47AAFA9E007F134034FF0807200
:102868001A6007F134031B6893FAA3F207F13003E7
:102878001A6007F130031B68B3FA83F303F184533A
:1028880003F584139B001A4600231360FEF770FEBD
:10289800C7F8F80109E0FEF76BFE0246D7F8F831F1
:1028A800D31A022B01D9032381E007F12C034FF03F
:1028B80000721A6007F12C031B6893FAA3F207F160
:1028C80028031A6007F128031B68B3FA83F3DBB205
:1028D80043F02003DBB2DBB25B09DBB2012B02D190
:1028E800314B1B683DE007F124034FF000721A607A
:1028F80007F124031B6893FAA3F207F120031A6077
:1029080007F120031B68B3FA83F3DBB243F020031B
:10291800DBB2DBB25B09DBB2022B02D1224B1B6AB2
:102928001FE007F11C034FF000721A6007F11C0347
:102938001B6893FAA3F207F118031A6007F118034A
:102948001B68B3FA83F3DBB243F02003DBB2DBB2DC
:102958005B09DBB2042B02D1134B5B6801E0124B1D
:102968005B6A07F114024FF00071116007F114025D
:10297800126892FAA2F107F11002116007F1100231
:102988001268B2FA82F2D2B242F02002D2B2D2B2C5
:1029980002F01F02012101FA02F21340002B7FF41A
:1029A8007AAF03E0012302E000100240002318463A
:1029B80007F50077BD4680BD80B59EB000AF786052
:1029C800396000237B67A54B1B6803F007023B684F
:1029D8009A4210D2A149A14B1B6823F007023B6819
:1029E80013430B609D4B1B6803F007023B689A4238
:1029F80001D00123D5E17B681B6803F00203002B9B
:102A080008D09749964B5B6823F0F0027B689B6877
:102A180013434B607B681B6803F00103002B00F035
:102A28006D817B685B68012B5DD14FF400333B6798
:102A38003B6F93FAA3F3FB66FB6EB3FA83F3DBB247
:102A480043F02003DBB2DBB25B09DBB2012B02D11E
:102A5800834B1B682DE04FF40033BB66BB6E93FAC3
:102A6800A3F37B667B6EB3FA83F3DBB243F02003F8
:102A7800DBB2DBB25B09DBB2022B02D1784B1B6AFB
:102A880017E04FF400333B663B6E93FAA3F3FB6504
:102A9800FB6DB3FA83F3DBB243F02003DBB2DBB2A6
:102AA8005B09DBB2042B02D16D4B5B6801E06C4B18
:102AB8005B6A4FF40032BA65BA6D92FAA2F27A658F
:102AC8007A6DB2FA82F2D2B242F02002D2B2D2B217
:102AD80002F01F02012101FA02F21340002B40F01C
:102AE800C18001235DE17B685B68022B5CD14FF0FC
:102AF80000733B653B6D93FAA3F3FB64FB6CB3FA7D
:102B080083F3DBB243F02003DBB2DBB25B09DBB259
:102B1800012B02D1524B1B682DE04FF00073BB64B0
:102B2800BB6C93FAA3F37B647B6CB3FA83F3DBB2DD
:102B380043F02003DBB2DBB25B09DBB2022B02D12C
:102B4800474B1B6A17E04FF000733B643B6C93FAEA
:102B5800A3F3FB63FB6BB3FA83F3DBB243F020030D
:102B6800DBB2DBB25B09DBB2042B02D13C4B5B6806
:102B780001E03B4B5B6A4FF00072BA63BA6B92FAA2
:102B8800A2F27A637A6BB2FA82F2D2B242F02002EF
:102B9800D2B2D2B202F01F02012101FA02F21340AE
:102BA800002B5FD10123FCE002233B633B6B93FACC
:102BB800A3F3FB62FB6AB3FA83F3DBB243F02003AF
:102BC800DBB2DBB25B09DBB2012B02D1244B1B6801
:102BD8002BE00223BB62BB6A93FAA3F37B627B6A96
:102BE800B3FA83F3DBB243F02003DBB2DBB25B0959
:102BF800DBB2022B02D11A4B1B6A16E002233B629E
:102C08003B6A93FAA3F3FB61FB69B3FA83F3DBB284
:102C180043F02003DBB2DBB25B09DBB2042B02D149
:102C28000F4B5B6801E00E4B5B6A0222BA61BA691E
:102C380092FAA2F27A617A69B2FA82F2D2B242F0D8
:102C48002002D2B2D2B202F01F02012101FA02F22E
:102C58001340002B06D10123A3E000BF002002404F
:102C6800001002405149514B5B6823F003027B6816
:102C78005B6813434B60FEF77BFC78677B685B6897
:102C8800012B12D10AE0FEF773FC02467B6FD31AC0
:102C980041F28832934201D9032382E0434B5B68B7
:102CA80003F00C03042BEED128E07B685B68022B51
:102CB80012D10AE0FEF75CFC02467B6FD31A41F2A0
:102CC8008832934201D903236BE0384B5B6803F0E9
:102CD8000C03082BEED111E00AE0FEF749FC02468E
:102CE8007B6FD31A41F28832934201D9032358E00B
:102CF8002E4B5B6803F00C03002BEED12C4B1B68AA
:102D080003F007023B689A4210D92949284B1B68EF
:102D180023F007023B6813430B60254B1B6803F045
:102D280007023B689A4201D001233AE07B681B689E
:102D380003F00403002B08D01C491C4B5B6823F4E8
:102D4800E0627B68DB6813434B607B681B6803F0B9
:102D58000803002B09D01549144B5B6823F4605213
:102D68007B681B69DB0013434B6000F027F80146C2
:102D78000E4B5B6803F0F002F0233B613B6993FA6A
:102D8800A3F3FB60FB68B3FA83F322FA03F3094A5F
:102D9800D35C21FA03F3084A13600020FDF7FEFA1A
:102DA800002318467837BD4680BD00BF001002409A
:102DB800002002402C5600080000002080B48BB090
:102DC80000AF0023FB610023BB6100237B6200236B
:102DD8007B6100233B62294B5B68FB61FB6903F065
:102DE8000C03042B02D0082B03D03CE0244B3B629D
:102DF8003CE0FB6903F470124FF470133B613B69CC
:102E080093FAA3F3FB60FB68B3FA83F322FA03F3A4
:102E18001C4AD35C7B61194BDB6A03F00F020F235A
:102E2800BB60BB6893FAA3F37B607B68B3FA83F358
:102E380022FA03F3144AD35CBB61FB6903F48033C1
:102E4800002B08D00E4ABB69B2FBF3F37A6902FB88
:102E580003F37B6204E07B690C4A02FB03F37B62A9
:102E68007B6A3B6202E0064B3B6200BF3B6A184646
:102E78002C37BD465DF8047B704700BF0010024048
:102E880000127A00845800089458000800093D0090
:102E980080B400AF034B1B681846BD465DF8047B41
:102EA800704700BF0000002080B582B000AFFFF778
:102EB800EFFF01460B4B5B6803F4E0624FF4E063FD
:102EC8007B607B6893FAA3F33B603B68B3FA83F3B8
:102ED80022FA03F3044AD35C21FA03F318460837AD
:102EE800BD4680BD001002403C56000880B582B047
:102EF80000AFFFF7CDFF01460B4B5B6803F4605250
:102F08004FF460537B607B6893FAA3F33B603B68A4
:102F1800B3FA83F322FA03F3044AD35C21FA03F3E6
:102F280018460837BD4680BD001002403C560008D0
:102F380080B483B000AF786039607B680F221A6074
:102F4800114B5B6803F003027B685A600E4B5B68A9
:102F580003F0F0027B689A600B4B5B6803F4E06255
:102F68007B68DA60084B5B6803F46053DA087B68B7
:102F78001A61064B1B6803F007023B681A600C379E
:102F8800BD465DF8047B70470010024000200240F7
:102F980080B487B000AF7860396000237B6100237C
:102FA800FB6000233B614AE13B681A687B690121A9
:102FB80001FA03F31340FB60FB68002B00F03C812F
:102FC8003B685B68022B03D03B685B68122B22D1FD
:102FD8007B69DA087B68083253F822303B617B69E9
:102FE80003F007039B001A460F239340DB433A691B
:102FF80013403B613B681B697A6902F00702920043
:1030080093403A6913433B617B69DA087B6808326D
:10301800396943F822107B681B683B617B695B0058
:103028001A4603239340DB433A6913403B613B68EC
:103038005B6803F003037A69520093403A691343CB
:103048003B617B683A691A603B685B68012B0BD06F
:103058003B685B68022B07D03B685B68112B03D089
:103068003B685B68122B2FD17B689B683B617B694F
:103078005B001A4603239340DB433A6913403B61E4
:103088003B68DB687A69520093403A6913433B61B5
:103098007B683A699A607B685B683B617B6901225F
:1030A80002FA03F3DB433A6913403B613B685B6810
:1030B80003F010031A097B6902FA03F33A69134310
:1030C8003B617B683A695A607B68DB683B617B6976
:1030D8005B001A4603239340DB433A6913403B6184
:1030E8003B689B687A69520093403A6913433B6195
:1030F8007B683A69DA603B685B6803F08053002BB1
:1031080000F09A80544A544B9B6943F00103936141
:10311800514B9B6903F00103BB60BB684F4A7B6955
:103128009B08023352F823303B617B6903F00303A9
:103138009B001A460F239340DB433A6913403B61D7
:103148007B68B3F1904F13D07B68454A93420DD00A
:103158007B68444A934207D07B68434A934201D133
:10316800032306E0052304E0022302E0012300E034
:1031780000237A6902F00302920093403A691343EC
:103188003B6136497B699B0802333A6941F8232041
:10319800364B1B683B61FB68DB433A6913403B6174
:1031A8003B685B6803F48033002B03D03A69FB6803
:1031B80013433B612D4A3B6913602C4B5B683B61B1
:1031C800FB68DB433A6913403B613B685B6803F487
:1031D8000033002B03D03A69FB6813433B61234A51
:1031E8003B695360214B9B683B61FB68DB433A6951
:1031F80013403B613B685B6803F48013002B03D0EA
:103208003A69FB6813433B61184A3B699360174B63
:10321800DB683B61FB68DB433A6913403B613B6811
:103228005B6803F40013002B03D03A69FB6813436F
:103238003B610E4A3B69D3607B6901337B613B6824
:103248001A687B6922FA03F3002B7FF4ADAE1C37B2
:10325800BD465DF8047B7047001002400000014045
:103268000004004800080048000C00480004014021
:1032780080B483B000AF78600B467B8013467B70C8
:103288007B78002B03D07A887B689A6102E07A8881
:103298007B689A620C37BD465DF8047B704700BFB7
:1032A80080B400AF044A044B1B6843F48073136076
:1032B800BD465DF8047B70470070004080B582B061
:1032C80000AF78607B68002B01D1012343E07B6865
:1032D80093F86930DBB2002B06D17B68002283F8B3
:1032E80068207868FCF7BCFF7B68242283F8692093
:1032F8007B681B687A681268126822F001021A60FB
:10330800786800F02DF80346012B01D1012322E053
:103318007B685B6A002B02D0786800F085F97B68CF
:103328001B687A681268526822F490425A607B6877
:103338001B687A681268926822F02A029A607B6891
:103348001B687A681268126842F001021A6078688D
:1033580000F00CFA034618460837BD4680BD00BF8A
:1033680090B587B000AF78600023FB601023FB7531
:1033780000237B810023BB820023FB747B689A684F
:103388007B681B691A437B685B691A437B68DB6946
:103398001343FB607B681A687B681B6819689D4B40
:1033A8000B40F9680B4313607B681B687A681268E6
:1033B800526822F440517A68D2680A435A607B689E
:1033C8009A697B681B6A1343FB607B681B687A6891
:1033D8001268926822F43061FA680A439A607B683E
:1033E8001B688D4A934221D18C4B1B6B03F003035E
:1033F800032B17D801A252F823F000BF1534000898
:1034080021340008273400081B3400080023FB750A
:103418000AE00223FB7507E00423FB7504E0082398
:10342800FB7501E01023FB7500BF11E07B681B688A
:103438007B4A934202D10023FB7509E07B681B6835
:10344800784A934202D10023FB7501E01023FB75F3
:103458007B68DB69B3F5004F6ED1FB7D082B57D82D
:1034680001A252F823F000BF95340008B1340008D7
:10347800CD34000819350008E7340008193500086C
:10348800193500081935000803350008FFF70CFD49
:1034980003465A007B685B685B081A447B685B6874
:1034A800B2FBF3F3BB8236E0FFF720FD03465A0078
:1034B8007B685B685B081A447B685B68B2FBF3F364
:1034C800BB8228E07B685B685B0803F5740303F53F
:1034D80010537A685268B3FBF2F3BB821BE0FFF724
:1034E8006DFC03465A007B685B685B081A447B687E
:1034F8005B68B2FBF3F3BB820DE07B685B685B083B
:1035080003F580327B685B68B2FBF3F3BB8202E0B1
:103518000123FB7400BFBB8A23F00F037B81BB8AA6
:1035280003F00F035B109AB27B8913437B817B689E
:103538001B687A89DA6068E0FB7D082B62D801A2F3
:1035480052F823F07135000891350008B1350008AC
:103558000D360008D13500080D3600080D36000874
:103568000D360008F13500087B681C68FFF79CFCE5
:1035780002467B685B685B081A447B685B68B2FB41
:10358800F3F39BB2E36040E07B681C68FFF7AEFC96
:1035980002467B685B685B081A447B685B68B2FB21
:1035A800F3F39BB2E36030E07B681A687B685B6882
:1035B8005B0803F5F40303F5905379684968B3FB96
:1035C800F1F39BB2D36020E07B681C68FFF7F6FB41
:1035D80002467B685B685B081A447B685B68B2FBE1
:1035E800F3F39BB2E36010E07B681B687A6852686B
:1035F800520802F500417A685268B1FBF2F292B2C1
:10360800DA6002E00123FB7400BFFB7C18461C371C
:10361800BD4690BDF369FFEF00380140001002403D
:10362800004400400048004080B483B000AF786098
:103638007B685B6A03F00103002B0AD07B681B6878
:103648007A681268526822F400317A68926A0A43EA
:103658005A607B685B6A03F00203002B0AD07B6820
:103668001B687A681268526822F480317A68D26AD4
:103678000A435A607B685B6A03F00403002B0AD094
:103688007B681B687A681268526822F480217A681D
:10369800126B0A435A607B685B6A03F00803002BCD
:1036A8000AD07B681B687A681268526822F4004165
:1036B8007A68526B0A435A607B685B6A03F01003AE
:1036C800002B0AD07B681B687A681268926822F41B
:1036D80080517A68926B0A439A607B685B6A03F050
:1036E8002003002B0AD07B681B687A6812689268EE
:1036F80022F400517A68D26B0A439A607B685B6A4D
:1037080003F04003002B1AD07B681B687A681268A4
:10371800526822F480117A68126C0A435A607B68F6
:103728001B6CB3F5801F0AD17B681B687A68126826
:10373800526822F4C0017A68526C0A435A607B6866
:103748005B6A03F08003002B0AD07B681B687A68E9
:103758001268526822F400217A68926C0A435A600F
:103768000C37BD465DF8047B704700BF80B586B056
:1037780002AF78600023FB607B680022DA66FDF701
:10378800F7FEF8607B681B681B6803F00803002BD2
:103798000ED06FF07E43009378684FF4001100223A
:1037A800FB6800F02DF80346002B01D0032322E02C
:1037B8007B681B681B6803F00403002B0ED06FF0B6
:1037C8007E43009378684FF480010022FB6800F084
:1037D80017F80346002B01D003230CE07B68202256
:1037E80083F869207B68202283F86A207B6800229E
:1037F80083F86820002318461037BD4680BD00BFF7
:1038080080B584B000AFF860B9603B601346FB71C7
:103818002CE0BB69B3F1FF3F28D0BB69002B07D070
:10382800FDF7A6FE02463B68D21ABB699A421DD92B
:10383800FB681B68FA681268126822F4D0721A6072
:10384800FB681B68FA681268926822F001029A60A5
:10385800FB68202283F86920FB68202283F86A200D
:10386800FB68002283F8682003230FE0FB681B68CD
:10387800DA69BB681A40BB689A420CBF012300236F
:10388800DBB21A46FB799A42C3D000231846103798
:10389800BD4680BD80B582B000AF78607B68002BE4
:1038A80001D101231DE07B6893F83D30DBB2002B8A
:1038B80006D17B68002283F83C20786800F016F86F
:1038C8007B68022283F83D207B681A687B68043392
:1038D8001046194600F076F97B68012283F83D20EE
:1038E800002318460837BD4680BD00BF80B483B0AA
:1038F80000AF78600C37BD465DF8047B704700BFA9
:1039080080B483B000AF78607B681B687A681268FF
:10391800D26842F00102DA607B681B687A68126834
:10392800126842F001021A60002318460C37BD469F
:103938005DF8047B704700BF80B582B000AF786047
:103948007B681B681B6903F00203002B22D07B688D
:103958001B68DB6803F00203002B1BD07B681B6825
:103968006FF002021A617B6801221A777B681B6874
:103978009B6903F00303002B03D0786800F004F977
:1039880005E0786800F0F6F8786800F007F97B68D9
:1039980000221A777B681B681B6903F00403002B5D
:1039A80022D07B681B68DB6803F00403002B1BD064
:1039B8007B681B686FF004021A617B6802221A7721
:1039C8007B681B689B6903F44073002B03D07868FD
:1039D80000F0DAF805E0786800F0CCF8786800F0D4
:1039E800DDF87B6800221A777B681B681B6903F087
:1039F8000803002B22D07B681B68DB6803F00803F0
:103A0800002B1BD07B681B686FF008021A617B686B
:103A180004221A777B681B68DB6903F00303002B19
:103A280003D0786800F0B0F805E0786800F0A2F8F4
:103A3800786800F0B3F87B6800221A777B681B6807
:103A48001B6903F01003002B22D07B681B68DB681E
:103A580003F01003002B1BD07B681B686FF010026B
:103A68001A617B6808221A777B681B68DB6903F494
:103A78004073002B03D0786800F086F805E078687A
:103A880000F078F8786800F089F87B6800221A77E7
:103A98007B681B681B6903F00103002B0ED07B6851
:103AA8001B68DB6803F00103002B07D07B681B68E9
:103AB8006FF001021A617868FCF75AFF7B681B688F
:103AC8001B6903F08003002B0ED07B681B68DB6842
:103AD80003F08003002B07D07B681B686FF080021F
:103AE8001A617868FDF70CFD7B681B681B6903F495
:103AF8008073002B0ED07B681B68DB6803F08003A3
:103B0800002B07D07B681B686FF480721A61786895
:103B1800FDF700FD7B681B681B6903F04003002B61
:103B28000ED07B681B68DB6803F04003002B07D0CE
:103B38007B681B686FF040021A61786800F038F8FB
:103B48007B681B681B6903F02003002B0ED07B6881
:103B58001B68DB6803F02003002B07D07B681B6819
:103B68006FF020021A617868FDF7C0FC0837BD467F
:103B780080BD00BF80B483B000AF78600C37BD460D
:103B88005DF8047B704700BF80B483B000AF7860F5
:103B98000C37BD465DF8047B704700BF80B483B026
:103BA80000AF78600C37BD465DF8047B704700BFF6
:103BB80080B483B000AF78600C37BD465DF8047BF5
:103BC800704700BF80B485B000AF786039600023CB
:103BD800FB607B681B68FB607B682D4A934203D0BF
:103BE8007B68B3F1804F08D1FB6823F07003FB605A
:103BF8003B685B68FA681343FB607B68244A93421E
:103C08000FD07B68B3F1804F0BD07B68214A934279
:103C180007D07B68204A934203D07B681F4A9342AF
:103C280008D1FB6823F44073FB603B68DB68FA68E3
:103C38001343FB60FB6823F080023B685B69134316
:103C4800FB607B68FA681A603B689A687B68DA628E
:103C58003B681A687B689A627B680D4A93420BD06E
:103C68007B680C4A934207D07B680B4A934203D087
:103C78007B680A4A934203D13B681A697B681A63D6
:103C88007B6801225A611437BD465DF8047B704792
:103C9800002C014000400140004401400048014020
:103CA80080B592B000AF786000233B640023FB63CB
:103CB8007B681B6803F48033002B00F0F680002338
:103CC80087F84730604BDB6903F08053002B0ED137
:103CD8005D4A5D4BDB6943F08053D3615A4BDB6926
:103CE80003F08053BB60BB68012387F84730574B0C
:103CF8001B6803F48073002B18D1544A534B1B687C
:103D080043F480731360FDF733FC386408E0FDF773
:103D18002FFC02463B6CD31A642B01D903236AE1BA
:103D28004A4B1B6803F48073002BF0D0464B1B6A88
:103D380003F44073FB63FB6B002B00F0A3807B68EC
:103D48005B6803F44072FB6B9A4200F09B803E4B29
:103D58001B6A23F44073FB634FF48033BB63BB6B74
:103D680093FAA3F37B637B6BB3FA83F31A46384B5E
:103D780013449B001A46012313604FF480333B63BE
:103D88003B6B93FAA3F3FB62FB6AB3FA83F31A461D
:103D98002F4B13449B001A46002313602A4AFB6BDF
:103DA8001362FB6B03F00103002B6BD0FDF7E0FB04
:103DB80038640AE0FDF7DCFB02463B6CD31A41F29B
:103DC8008832934201D9032315E10223BB62BB6AFF
:103DD80093FAA3F37B627B6AB3FA83F3DBB243F013
:103DE8004003DBB2DBB25B09DBB2012B02D1164B1D
:103DF8001B6831E002233B623B6A93FAA3F3FB6141
:103E0800FB69B3FA83F3DBB243F04003DBB2DBB206
:103E18005B09DBB2022B02D10B4B1B6A1CE00223AD
:103E2800BB61BB6993FAA3F37B617B69B3FA83F344
:103E3800DBB243F04003DBB2DBB25B09DBB2042B3D
:103E480008D1014B5B6807E0001002400070004099
:103E5800008190106A4B5B6A02223A613A6992FAD1
:103E6800A2F2FA60FA68B2FA82F2D2B242F04002E2
:103E7800D2B2D2B202F01F02012101FA02F21340BB
:103E8800002B97D05E495E4B1B6A23F440727B6817
:103E98005B6813430B6297F84730012B05D1584AEA
:103EA800574BDB6923F08053D3617B681B6803F0B1
:103EB8000103002B08D05249514B1B6B23F003021E
:103EC8007B689B6813430B637B681B6803F02003C4
:103ED800002B08D04A494A4B1B6B23F010027B6821
:103EE800DB6813430B637B681B6803F40033002B08
:103EF80008D04349424B5B6823F480027B681B6B04
:103F080013434B607B681B6803F04003002B08D009
:103F18003B493B4B1B6B23F020027B681B69134317
:103F28000B637B681B6803F40043002B08D03449FB
:103F3800334B1B6B23F040027B685B6913430B63B5
:103F48007B681B6803F40073002B08D02C492C4BAA
:103F58005B6823F400027B68DB6913434B607B6872
:103F68001B6803F08003002B08D02549244BDB6A2B
:103F780023F4F8727B689B691343CB627B681B68E8
:103F880003F48053002B08D01D491D4B1B6B23F4F1
:103F980080727B681B6A13430B637B681B6803F49E
:103FA8008023002B08D01649154B1B6B23F4806225
:103FB8007B685B6A13430B637B681B6803F400230D
:103FC800002B08D00E490E4B1B6B23F400627B6854
:103FD8009B6A13430B637B681B6803F48013002BF5
:103FE80008D00749064B1B6B23F400527B68DB6A39
:103FF80013430B63002318464837BD4680BD00BFF6
:104008000010024080B584B000AF78607B68002B58
:1040180001D1012382E07B6800229A627B6893F8D1
:104028005D30DBB2002B06D17B68002283F85C2070
:104038007868FCF7E7FC7B68022283F85D207B68E0
:104048001B687A681268126822F040021A607B685E
:10405800DB68B3F5E06F02D90023FB6002E04FF4A0
:104068008053FB607B68DB68B3F5706F07D07B68B3
:10407800DB68B3F5E06F02D07B6800229A627B6848
:104088001B6B002B0BD17B68DB68B3F5E06F03D9A2
:104098007B6802221A6302E07B6801221A637B684C
:1040A8001B687A6851687A68926811437A6812695D
:1040B80011437A68526911437A68926902F400726E
:1040C80011437A68D26911437A68126A11437A688F
:1040D800926A0A431A607B681B687A689269120CB4
:1040E80002F004017A68526A11437A68526B1143EC
:1040F8007A68D2681143FA680A435A607B681B6879
:104108007A681268D26922F40062DA617B68002258
:104118001A667B68012283F85D2000231846103751
:10412800BD4680BD80B588B000AFF860B9603B601F
:104138001346FB800023BB610023FB77FB6893F8E1
:104148005C30012B01D102233EE1FB68012283F898
:104158005C20FDF70DFAB861FB6893F85D30DBB2BF
:10416800012B02D00223FB7725E1BB68002B02D08C
:10417800FB88002B02D10123FB771CE1FB6803229B
:1041880083F85D20FB6800221A66FB68BA689A63A8
:10419800FB68FA889A87FB68FA88DA87FB68002246
:1041A8001A64FB680022A3F84420FB680022A3F8E5
:1041B8004620FB6800221A65FB680022DA64FB6867
:1041C8009B68B3F5004F07D1FB681B68FA68126853
:1041D800126842F480421A60FB681B681B6803F08F
:1041E8004003002B07D1FB681B68FA681268126845
:1041F80042F040021A60FB68DB68B3F5E06F47D90C
:10420800FB685B68002B04D0FB68DB8F9BB2012B3B
:104218000ED1FB681B68BA681288DA60BB68023383
:10422800BB60FB68DB8F9BB2013B9AB2FB68DA8705
:1042380028E0FB681B689B6803F00203002B0FD083
:10424800FB681B68BA681288DA60BB680233BB6017
:10425800FB68DB8F9BB2013B9AB2FB68DA8711E0FF
:104268003B68002B0BD03B68B3F1FF3F0AD0FDF74A
:104278007FF90246BB69D21A3B689A4202D30323EC
:10428800FB7798E0FB68DB8F9BB2002BD1D172E003
:10429800FB685B68002B04D0FB68DB8F9BB2012BAB
:1042A80024D1FB68DB8F9BB2012B0FD9FB681B68FD
:1042B800BA681288DA60BB680233BB60FB68DB8FC0
:1042C8009BB2023B9AB2FB68DA870FE0FB681B6877
:1042D80003F10C02BB68591CB9601B781370FB68AA
:1042E800DB8F9BB2013B9AB2FB68DA873EE0FB6842
:1042F8001B689B6803F00203002B25D0FB68DB8F4B
:104308009BB2012B0FD9FB681B68BA681288DA6068
:10431800BB680233BB60FB68DB8F9BB2023B9AB27F
:10432800FB68DA8722E0FB681B6803F10C02BB68B4
:10433800591CB9601B781370FB68DB8F9BB2013B7B
:104348009AB2FB68DA8711E03B68002B0BD03B6818
:10435800B3F1FF3F0AD0FDF70BF90246BB69D21A49
:104368003B689A4202D30323FB7724E0FB68DB8F88
:104378009BB2002BBBD1F8683968BA6900F000F924
:104388000346002B02D0FB6820221A66FB689B6854
:10439800002B0AD100237B61FB681B68DB687B610B
:1043A800FB681B689B687B617B69FB681B6E002B45
:1043B80001D00123FB77FB68012283F85D20FB68AD
:1043C800002283F85C20FB7F18462037BD4680BD5D
:1043D80080B584B000AFF860B9607A603B604CE0AB
:1043E8003B68B3F1FF3F48D03B68002B07D0FDF78F
:1043F800BFF80246BB69D21A3B689A423DD3FB68B4
:104408001B68FA681268526822F0E0025A60FB687A
:104418005B68B3F5827F11D1FB689B68B3F5004FE9
:1044280004D0FB689B68B3F5806F07D1FB681B68F5
:10443800FA681268126822F040021A60FB689B6AE8
:10444800B3F5005F0FD1FB681B68FA681268126841
:1044580022F400521A60FB681B68FA681268126836
:1044680042F400521A60FB68012283F85D20FB6861
:10447800002283F85C2003230EE0FB681B689A681F
:10448800BB681A40BB689A4201D1012200E00022B1
:104498007B689A42A4D1002318461037BD4680BDD8
:1044A80080B586B000AFF860B9607A603B605AE0CA
:1044B800BB68B3F5C06F09D17B68002B06D1FB68D8
:1044C8001B680C331B78DBB2FB75FB7D3B68B3F1D3
:1044D800FF3F48D03B68002B07D0FDF749F802465C
:1044E8003B6AD21A3B689A423DD3FB681B68FA685C
:1044F8001268526822F0E0025A60FB685B68B3F504
:10450800827F11D1FB689B68B3F5004F04D0FB682C
:104518009B68B3F5806F07D1FB681B68FA6812685F
:10452800126822F040021A60FB689B6AB3F5005FCC
:104538000FD1FB681B68FA681268126822F40052EF
:104548001A60FB681B68FA681268126842F4005225
:104558001A60FB68012283F85D20FB68002283F85B
:104568005C20032308E0FB681B689A68BB681A4054
:104578007B689A429CD1002318461837BD4680BDF7
:1045880080B586B002AFF860B9607A607B68009346
:10459800F8684FF4C0510022BB68FFF781FF03465B
:1045A800002B07D0FB681B6E43F02002FB681A66DD
:1045B800032327E07B680093F86880210022BB680A
:1045C800FFF706FF0346002B07D0FB681B6E43F07E
:1045D8002002FB681A66032314E07B680093F868DE
:1045E8004FF4C0610022BB68FFF75AFF0346002B57
:1045F80007D0FB681B6E43F02002FB681A66032392
:1046080000E0002318461037BD4680BD80B582B053
:1046180000AF78607B68002B01D1012383E07B68C1
:104628005B7FDBB2002B05D17B6800221A777868A4
:10463800FBF76AFE7B6802225A777B681B68CA22EE
:104648005A627B681B6853225A62786800F0C0FA85
:104658000346002B08D07B681B68FF225A627B68E0
:1046680004225A7701235EE07B681A687B681B681E
:104678009B6823F4E00323F0400393607B681B6886
:104688007A68126891687A6850687A681269104383
:104698007A68526902430A439A607B681B687A68A1
:1046A800D2681A617B681B687A68126811697A682F
:1046B800926812040A431A617B681B687A68126858
:1046C800D26822F08002DA607B681B689B6803F07E
:1046D8002003002B0ED1786800F052FA0346002B15
:1046E80008D07B681B68FF225A627B6804225A77CD
:1046F800012318E07B681B687A681268126C22F440
:1047080080221A647B681B687A681268116C7A6860
:1047180092690A431A647B681B68FF225A627B68A5
:1047280001225A77002318460837BD4680BD00BFCE
:1047380090B587B000AFF860B9607A6000237B61FC
:10474800FB681B7F012B01D10223B2E0FB68012229
:104758001A77FB6802225A777B68002B26D1FB6800
:104768001B689B6803F04003002B02D1BB68002242
:10477800DA70BB681B78184600F056FA03461C042A
:10478800BB685B78184600F04FFA03461B021C43CF
:10479800BB689B78184600F047FA034644EA0302D0
:1047A800BB68DB781B0413437B6120E0FB681B6854
:1047B8009B6803F04003002B07D0BB681B781846A2
:1047C80000F050FA03467B6102E0BB680022DA7011
:1047D800BB681B781A04BB685B781B021343BA6872
:1047E80092781A43BB68DB781B0413437B61FB6830
:1047F8001B68CA225A62FB681B6853225A62F8680F
:1048080000F0E6F90346002B0BD0FB681B68FF227B
:104818005A62FB6804225A77FB6800221A77012340
:1048280047E0FB681A687B6903F07F3323F0FE4397
:104838001360FB681B68FA681268926822F4802289
:104848009A60FB681B68FA6812689168BA68D06851
:10485800BA68126902430A439A60FB681B68FA68DF
:104868001268D26822F08002DA60FB681B689B68D5
:1048780003F02003002B11D1F86800F081F90346FA
:10488800002B0BD0FB681B68FF225A62FB680422CE
:104898005A77FB6800221A7701230AE0FB681B6835
:1048A800FF225A62FB6801225A77FB6800221A77B6
:1048B800002318461C37BD4690BD00BF80B586B0A2
:1048C80000AFF860B9607A6000237B61FB681B6801
:1048D8009A6ABB685A60FB681B681B69C3F30E02BF
:1048E800BB689A60FB681B681B6803F07F3323F082
:1048F800FE437B617B6903F47C131B0CDAB2BB6853
:104908001A707B6903F4FE431B0ADAB2BB685A705B
:104918007B69DBB203F07F03DAB2BB689A707B690C
:1049280003F480031B0CDAB2BB68DA707B68002BD7
:104938001AD1BB681B78184600F094F903461A464A
:10494800BB681A70BB685B78184600F08BF90346A1
:104958001A46BB685A70BB689B78184600F082F903
:1049680003461A46BB689A70002318461837BD4696
:1049780080BD00BF90B587B000AFF860B9607A60BD
:1049880000237B61FB681B7F012B01D10223A2E07E
:10499800FB6801221A77FB6802225A777B68002B92
:1049A8000ED1BB685B7803F01003002B08D0BB68FE
:1049B8005B7823F01003DBB20A33DAB2BB685A70B3
:1049C8007B68002B1CD1BB68DB78184600F02CF9FB
:1049D80003461C04BB685B78184600F025F90346BB
:1049E8001B021C43BB689B78184600F01DF9034660
:1049F80044EA0302BB681B785B0313437B611CE03A
:104A0800BB685B78184600F02DF903467B61BB68EC
:104A18009B78184600F026F903467B61BB68DB7873
:104A28001A04BB685B781B021343BA6892781A436E
:104A3800BB681B785B0313437B61FB681B68CA2256
:104A48005A62FB681B6853225A62F86800F0C0F883
:104A58000346002B0BD0FB681B68FF225A62FB68D9
:104A680004225A77FB6800221A77012333E0FB6897
:104A78001A687B6923F07F4323F0C0035360FB6807
:104A88001B68FA681268D26822F08002DA60FB6854
:104A98001B689B6803F02003002B11D1F86800F015
:104AA8006FF80346002B0BD0FB681B68FF225A6285
:104AB800FB6804225A77FB6800221A7701230AE070
:104AC800FB681B68FF225A62FB6801225A77FB6861
:104AD80000221A77002318461C37BD4690BD00BF38
:104AE80080B586B000AFF860B9607A6000237B615A
:104AF800FB681B685B6823F07F4323F0C0037B617E
:104B08007B6903F47F031B0CDAB2BB68DA707B693C
:104B180003F4F8531B0ADAB2BB685A707B69DBB23C
:104B280003F03F03DAB2BB689A707B6903F4604311
:104B38005B0BDAB2BB681A707B68002B1AD1BB68B2
:104B4800DB78184600F08EF803461A46BB68DA7020
:104B5800BB685B78184600F085F803461A46BB68C0
:104B68005A70BB689B78184600F07CF803461A46D2
:104B7800BB689A70002318461837BD4680BD00BF31
:104B880080B584B000AF78600023FB607B681B6849
:104B98007A681268D26822F0A002DA60FCF7E8FCB2
:104BA800F86009E0FCF7E4FC0246FB68D31AB3F5A9
:104BB8007A7F01D9032307E07B681B68DB6803F071
:104BC8002003002BEED0002318461037BD4680BDC9
:104BD80080B584B000AF78600023FB607B681B68F9
:104BE800DB6803F04003002B19D17B681B684FF08A
:104BF800FF32DA60FCF7BCFCF86009E0FCF7B8FCAF
:104C08000246FB68D31AB3F57A7F01D9032307E07C
:104C18007B681B68DB6803F04003002BEED00023A1
:104C280018461037BD4680BD80B485B000AF034636
:104C3800FB710023FB6005E0FB680133FB60FB7937
:104C48000A3BFB71FB79092BF6D8FB68DBB21B0129
:104C5800DAB2FB791343DBB218461437BD465DF868
:104C6800047B704780B485B000AF0346FB71002316
:104C7800FB60FB791B09DBB21A4613469B00134401
:104C88005B00FB60FB7903F00F03DAB2FB68DBB271
:104C98001344DBB218461437BD465DF8047B7047F1
:104CA80080B487B000AFF860B9607A6000237B6198
:104CB800FB681B6850337B61BB689B007A691344AF
:104CC8007B617B697A681A601C37BD465DF8047B96
:104CD800704700BF80B485B000AF786039600023AA
:104CE800FB607B681B685033FB603B689B00FA687D
:104CF8001344FB60FB681B6818461437BD465DF813
:104D0800047B7047DFF834D0002103E00C4B5B587C
:104D1800435004310B480C4B42189A42F6D30B4AC5
:104D280002E0002342F8043B094B9A42F9D3FBF70F
:104D380099FE00F011F8FBF787FBFEE70040002022
:104D4800E4580008000000206C0000206C000020DF
:104D580038020020FEE7000070B50E4B0E4CE41A36
:104D6800A41000251E46A54204D056F825309847C1
:104D78000135F8E700F03AFC084C094BE41AA41096
:104D880000251E46A54204D056F82530984701351F
:104D9800F8E770BDDC580008DC580008E058000847
:104DA800DC58000810B5431E0A44914204D011F89B
:104DB800014B03F8014FF8E710BD00000EB400B531
:104DC8009CB04FF40271ADF814106FF000410491DB
:104DD80007914FF6FF711DABADF81610084953F84F
:104DE800042B029006900868019302A900F064F869
:104DF800029B00221A701CB05DF804EB03B07047E8
:104E0800680000202DE9F0478E68B34282460C46C0
:104E18009046994640D38A8912F4906F3AD0256813
:104E280009696F1A6569022305EB450595FBF3F5DA
:104E38007B1C4B449D4238BF1D4653050FD5294660
:104E480000F030FB064698B121693A46FFF7AAFF01
:104E5800A38923F4906343F08003A38113E02A46D7
:104E680000F076FB064670B95046216900F0D6FA84
:104E78000C23CAF80030A38943F04003A3814FF004
:104E8800FF30BDE8F087266165613E44ED1B266072
:104E9800A5604E46B14500D24E463246206841468E
:104EA80000F0A1FAA3689B1BA36023681E44266038
:104EB8000020BDE8F08700002DE9F0439DB00646CC
:104EC80003938B891C060D4690460CD50B6953B984
:104ED800402100F0E7FA2860286110B90C233360FC
:104EE800CCE040236B610023099320238DF82930FF
:104EF80030238DF82A3043461C4613F8012B1AB983
:104F0800B4EB08090FD002E0252AF5D1F8E73046BE
:104F1800294642464B46FFF775FF013000F0A9804D
:104F2800099B4B4409932378002B00F0A2800023AF
:104F38004FF0FF3204930793059206938DF8533090
:104F48001A9304F101084446DFF84891217848464D
:104F5800052200F039FA08F10108049B30B1C9EBC9
:104F680000000122824013430493ECE7D80644BFB3
:104F780020228DF85320190744BF2B228DF8532087
:104F880022782A2A02D0079923460EE0039A111D97
:104F980012680391002ABBBF524243F002030792F2
:104FA8000792B8BF049301340AE01C460133227803
:104FB800303A092A03D80A2000FB0121F5E70791B6
:104FC80023782E2B1AD163782A2B0AD1039B1A1D1A
:104FD8001B680392002BB8BF4FF0FF3302340593D0
:104FE8000CE0611C00220C4601312378303B092B70
:104FF80003D80A2000FB0232F5E70592DFF8988013
:1050080021784046032200F0DFF938B1049AC8EB52
:1050180000004023834013430493013421781A4845
:105028008DF82810062204F1010800F0CDF988B1A6
:10503800164B33B9039B073323F007030833039355
:1050480013E003AB0093304604A92A46104BAFF394
:10505800008007E003AB0093304604A92A460C4BB6
:1050680000F092F8421C074603D0099B3B44099381
:1050780041E7AB895B0601D4099801E04FF0FF30A6
:105088001DB0BDE8F08300BFB05800080000000064
:105098000D4E0008A6580008AC5800082DE9F84342
:1050A80091461F468A680B69DDF820809342B8BF95
:1050B8001346C9F8003091F8432006460C4612B151
:1050C8000133C9F800302368990642BFD9F8003087
:1050D8000233C9F80030256815F006051CD094F88D
:1050E80043302268003318BF012392061FD5E11808
:1050F8005A1C302081F84300224494F8451082F865
:105108004310023313E03046394604F119020123F3
:10511800C047013007D00135E368D9F800209B1A51
:105128009D42F0DBDBE74FF0FF30BDE8F883304607
:10513800394604F14302C0470130F4D02268D9F857
:105148000050E36802F00602042A08BF5D1B2269CA
:10515800A3680CBF25EAE57500259342C4BF9B1AD6
:10516800ED184FF00009A9450ADA3046394604F12E
:105178001A020123C0470130D5D009F10109F2E72D
:105188000020BDE8F88300002DE9FF410C461746D2
:10519800227E6E2A984606460A9B01F1430100F0DA
:1051A800AF8012D8632A23D00AD8002A00F0BC8026
:1051B800582A40F0CB8084F84520DFF804E257E015
:1051C800642A1ED0692A1CD0C0E0732A00F0B0807F
:1051D80009D86F2A2ED0702A40F0B880226842F091
:1051E800200222603FE0752A24D0782A3BD0ADE027
:1051F8001A68111D1960136884F8423004F14205D9
:10520800A8E020681A6810F0800F02D0101D1860FE
:1052180008E010F0400F02F10400186002D0B2F963
:10522800003000E01368002B3EDA2D225B4284F840
:10523800432039E020681A6810F0800F02D0101D52
:10524800186007E010F0400F02F10400186001D068
:10525800138800E01368227EDFF864E16F2A0CBF30
:1052680008220A221CE07822DFF858E184F8452059
:105278002268186812F0800F00F104051D6003D140
:10528800550601D5038800E00368D00744BF42F003
:10529800200222601BB9226822F02002226010221C
:1052A800002084F8430002E0DFF814E10A22656870
:1052B800A560002DA2BF206820F00400206003B97B
:1052C80065B10D46B3FBF2F002FB10331EF8033054
:1052D80005F8013D03460028F4D100E00D46082AF0
:1052E8000BD12368DA0708D5236962689A42DEBFC2
:1052F800302305F8013C05F1FF35491B21612EE0FB
:1053080025681A68606915F0800F03D0151D1D60A7
:10531800136808E015F0400F02F104051D601368DA
:1053280001D0188000E01860002323610D4616E0C4
:105338001A68111D1960156862682846002100F076
:1053480043F808B1401B6060636804E004F142055B
:1053580084F8422001232361002384F84330CDF8E8
:1053680000803046214603AA3B46FFF797FE0130EE
:1053780002D14FF0FF301FE0304639462A462369F4
:10538800C0470130F5D023689B0705D4E068039B2C
:105398009842B8BF18460FE00025E368039A9B1AA5
:1053A8009D42F3DA3046394604F119020123C04719
:1053B8000130DED00135F0E704B0BDE8F08100BF70
:1053C800B7580008C858000810B5C9B2024490423E
:1053D800034606D01C788C4200F10100F7D118462C
:1053E80010BD002010BD814210B501EB020301D3AE
:1053F800421E0BE09842FBD28118D21AD34204D045
:1054080013F8014D01F8014DF8E710BD994204D099
:1054180011F8014B02F8014FF8E710BD30B500292B
:105428003DD051F8042C0B1F1D49002AB8BF9B180A
:105438000A680C4612B95A600B6030BD93420DD20F
:1054480019685818904201BF5A5852181A60426891
:105458005A60236030BD994203D80A465168002932
:10546800F9D1146815199D420AD11B682344D01834
:105478008842136013D10868034413604B680DE039
:1054880002D90C23036030BD1C681819884204BF78
:1054980008684968596004BF00191860536030BD36
:1054A800F400002070B5CC1C24F0030408340C2C44
:1054B80038BF0C24002C064603DA0C233360002086
:1054C80070BD8C42F9D3204A136810461946A1B121
:1054D8000A68121B0ED40B2A03D90A608B188C5049
:1054E8001FE08B420DBF5A684A685A60026018BFB5
:1054F8000B4616E00B464968E9E7144D2B681BB9C3
:10550800304600F04BF828603046214600F046F857
:10551800421C0346D1D0C51C25F0030585420AD19B
:105528001C6003F10B001A1D20F00700821A0AD034
:105538005142995070BD3046E91A00F02FF80130F9
:10554800BBD02B46ECE770BDF4000020F000002033
:10555800F8B5074615460E4621B91146BDE8F8408C
:10556800FFF7A0BF1AB9FFF759FF2846F8BD00F0AA
:1055780025F8A8420ED238462946FFF793FF04467D
:1055880050B131462A46FFF70DFC38463146FFF741
:1055980045FF01E03046F8BD2046F8BD38B5064C59
:1055A800002305460846236000F012F8431C02D188
:1055B800236803B12B6038BD3402002051F8040C75
:1055C8000028BEBF091851F8043CC01804387047B9
:1055D800044A05491368002B08BF0B46184410609D
:1055E80018467047F800002038020020F8B500BFC0
:1055F800F8BC08BC9E467047F8B500BFF8BC08BCAC
:045608009E46704703
:10560C00436C6F636B0000002532643A2532643AB8
:10561C00253264002532642D2532642D2532640038
:10562C000000000000000000010203040607080946
:10563C0000000000010203040000000000005C00F8
:10564C0000000000060006000000287C287C2800D2
:10565C005C54FE5474004420100844002854542018
:10566C0050000600000000003844000000004438E0
:10567C000000000002070200000010107C10100057
:10568C00C0000000000010101010100040000000BE
:10569C00000060100C0000007C64544C7C00487CC2
:1056AC0040000000645454544800445454546C005A
:1056BC003C20702020005C54545424007C545454DE
:1056CC007400040464140C007C5454547C005C542A
:1056DC0054547C00440000000000C4000000000092
:1056EC0010284400000028282828280044281000EE
:1056FC0000000804540800007C4454545C007C24D2
:10570C0024247C007C5454546C007C444444440059
:10571C007C44444438007C54545444007C14141489
:10572C0004007C44445474007C1010107C004444ED
:10573C007C444400604040447C007C1010284400B1
:10574C007C40404040007C0810087C007C08102005
:10575C007C003844444438007C14141408003C2465
:10576C0064243C007C14141468005C54545474007D
:10577C0004047C0404007C4040407C000C3040302D
:10578C000C003C4030403C004428102844000C10D5
:10579C0060100C004464544C44007C440000000035
:1057AC000C1060000000447C0000000000010001AF
:1057BC0000004040404040400001000000007C24BC
:1057CC0024247C007C5454546C007C444444440099
:1057DC007C44444438007C54545444007C141414C9
:1057EC0004007C44445474007C1010107C0044442D
:1057FC007C444400604040447C007C1010284400F1
:10580C007C40404040007C0810087C007C08102044
:10581C007C003844444438007C14141408003C24A4
:10582C0064243C007C14141468005C5454547400BC
:10583C0004047C0404007C4040407C000C3040306C
:10584C000C003C4030403C004428102844000C1014
:10585C0060100C004464544C4400107C4400000064
:10586C006C0000000000447C1000000002010201EA
:10587C0000000000000000000203040506070809F0
:10588C000A0B0C0D0E0F101001020304050607087D
:10589C00090A0B0C0D0E0F104300232D302B20008A
:1058AC00686C4C00656667454647003031323334CE
:1058BC00353637383941424344454600303132336E
:1058CC003435363738396162636465660000000030
:0458DC00AD01000812
:0458E0008901000832
:1058E40000127A00F00040010000000000000000F7
:1058F40000000000000000000000000000000000A4
:105904000000000000000000A4580008000000008F
:105914000000000000000000000000000000000083
:105924000000000000000000000000000000000073
:105934000000000000000000000000000000000063
:0C5944000000000000000000080000202F
:0400000508004D0D95
:00000001FF
