:020000040800F2
:1000000000400020550A0008490500085505000871
:100010005D050008650500086D050008000000008A
:10002000000000000000000000000000750500084E
:1000300081050008000000008D05000899050008F2
:10004000A50A0008A50A0008A50A0008A50A0008D4
:10005000A50A0008A50A0008A50A0008A50A0008C4
:10006000A50A0008A50A0008A50A0008A50A0008B4
:10007000A50A0008A50A0008A50A0008A50A0008A4
:10008000A50A0008A50A0008A50A0008A50A000894
:10009000A50A0008A50A0008A50A0008A50A000884
:1000A000A50A0008A50A0008A50A0008A50A000874
:1000B000A50A00080000000000000000A50A0008D2
:1000C000A50A0008A50A0008A50A0008000000000B
:1000D000A50A0008A50A0008A50A0008A50A000844
:1000E000A50A0008A50A0008A50A000800000000EB
:1000F0000000000000000000000000000000000000
:10010000000000000000000000000000A50A000838
:100110000000000000000000A50A00080000000028
:1001200000000000000000000000000000000000CF
:1001300000000000000000000000000000000000BF
:10014000A50A0008A50A0008000000000000000041
:10015000000000000000000000000000000000009F
:10016000A50A0008A50A0008A50A0008A50A0008B3
:10017000A50A0008000000000000000000000000C8
:0801800000000000A50A0008C0
:1001880010B5054C237833B9044B13B10448AFF3C9
:1001980000800123237010BD18000020000000001B
:1001A800F40A0008084B10B51BB108480849AFF31A
:1001B80000800848036803B910BD074B002BFBD02B
:1001C800BDE81040184700BF00000000F40A00080E
:1001D8001C000020180000200000000080B485B03A
:1001E80000AF78600849084B5A697B6813434B6134
:1001F800054B5A697B681340FB60FB681437BD46A2
:100208005DF8047B704700BF0010024080B483B0E3
:1002180000AF786039600748064B5B6823F0774287
:1002280079683B680B43134343600C37BD465DF860
:10023800047B70470010024080B489B000AFF860BA
:10024800B9607A60FB681A68BB68FB61FB6993FA5E
:10025800A3F3BB61BB69B3FA83F35B0019460323BD
:100268008B40DB431A40BB687B617B6993FAA3F33D
:100278003B613B69B3FA83F35B0019467B688B40AB
:100288001A43FB681A602437BD465DF8047B704743
:1002980080B485B000AFF860B9607A60FB685A68CE
:1002A800BB68DB431A40BB68796801FB03F31A4358
:1002B800FB685A601437BD465DF8047B704700BF81
:1002C80080B489B000AFF860B9607A60FB689A685A
:1002D800BB68FB61FB6993FAA3F3BB61BB69B3FA23
:1002E80083F35B00194603238B40DB431A40BB684A
:1002F8007B617B6993FAA3F33B613B69B3FA83F3B0
:100308005B0019467B688B401A43FB689A60243768
:10031800BD465DF8047B704780B489B000AFF860D3
:10032800B9607A60FB68DA68BB68FB61FB6993FABD
:10033800A3F3BB61BB69B3FA83F35B0019460323DC
:100348008B40DB431A40BB687B617B6993FAA3F35C
:100358003B613B69B3FA83F35B0019467B688B40CA
:100368001A43FB68DA602437BD465DF8047B7047A2
:1003780080B489B000AFF860B9607A60FB685A6AE7
:10038800BB681B0AFB61FB6993FAA3F3BB61BB69FA
:10039800B3FA83F39B0019460F238B40DB431A40C3
:1003A800BB681B0A7B617B6993FAA3F33B613B69DA
:1003B800B3FA83F39B0019467B688B401A43FB68AA
:1003C8005A622437BD465DF8047B704780B483B019
:1003D80000AF786039607B685A693B685A407B682F
:1003E8005A610C37BD465DF8047B704780B500AF95
:1003F8000B480C4900F01AFA0B4B1B68184600F022
:10040800D7F900F015F800F027F808484FF4005124
:10041800FFF7DCFF4FF47A7000F0D6F9F5E700BF7C
:1004280000000020080000201400002000040048FC
:1004380080B500AF4FF48020FFF7D0FE05484FF499
:1004480000510122FFF7F8FE4FF080600021FFF70E
:10045800DDFE80BD0004004880B500AF4FF40030D9
:10046800FFF7BCFE4FF090404FF480710222FFF777
:10047800E3FE4FF090404FF480710022FFF708FF31
:100488004FF090404FF480710322FFF719FF4FF0AF
:1004980090404FF480710022FFF73EFF4FF09040EC
:1004A8004FF480710022FFF763FF80BD80B400AF76
:1004B8001F4A1F4BD3F8883043F47003C2F88830C2
:1004C8001C4A1C4B1B6843F0010313601949194B64
:1004D8005A68194B13404B60164A164B1B6823F099
:1004E800847323F480331360124A124B1B6823F47D
:1004F800802313600F4A0F4B5B6823F4FE0353609D
:100508000C4A0C4BDB6A23F00F03D3620949094BF1
:100518001A6B0A4B13400B63064B00229A60044B7C
:100528004FF000629A60BD465DF8047B704700BFDB
:1005380000ED00E0001002400CC07FF8CCFC00FF8A
:1005480080B400AFBD465DF8047B704780B400AF4F
:10055800FEE700BF80B400AFFEE700BF80B400AF85
:10056800FEE700BF80B400AFFEE700BF80B400AF75
:10057800BD465DF8047B704780B400AFBD465DF8AA
:10058800047B704780B400AFBD465DF8047B7047BC
:1005980080B400AFBD465DF8047B704780B400AFFF
:1005A800044A044B1B6843F001031360BD465DF821
:1005B800047B70470010024080B400AF064B1B68F4
:1005C80003F00203002B14BF01230023DBB21846FB
:1005D800BD465DF8047B70470010024080B483B0CC
:1005E80000AF78600649064B5B6823F003027B681E
:1005F80013434B600C37BD465DF8047B704700BF62
:100608000010024080B400AF044B5B6803F00C0399
:100618001846BD465DF8047B704700BF00100240D5
:1006280080B483B000AF78600649064B5B6823F05E
:10063800F0027B6813434B600C37BD465DF8047BC2
:10064800704700BF0010024080B483B000AF7860EC
:100658000649064B5B6823F4E0627B6813434B60F2
:100668000C37BD465DF8047B704700BF00100240A0
:1006780080B483B000AF78600649064B5B6823F40A
:1006880060527B6813434B600C37BD465DF8047BB2
:10069800704700BF0010024080B400AF044B5B6895
:1006A80003F0F0031846BD465DF8047B704700BFB1
:1006B8000010024080B400AF044A044B1B6843F0AA
:1006C80080731360BD465DF8047B704700100240DC
:1006D80080B400AF064B1B6803F00073002B14BFF7
:1006E80001230023DBB21846BD465DF8047B704742
:1006F8000010024080B483B000AF786039600D48C4
:100708000C4B5B6823F474127B6803F480313B68FC
:100718000B43134343600749064BDB6A23F00F0280
:100728007B6803F00F031343CB620C37BD465DF8BB
:10073800047B70470010024080B483B000AF78603B
:10074800396009497A683B68B2FBF3F3013B4B60B7
:10075800054B00229A60044B05221A600C37BD46EF
:100768005DF8047B704700BF10E000E080B483B000
:1007780000AF78600649064B1B6823F007027B68C8
:1007880013430B600C37BD465DF8047B704700BF10
:100798000020024080B400AF044B1B6803F007033D
:1007A8001846BD465DF8047B704700BF0020024034
:1007B80080B582B000AF786078684FF47A71FFF73F
:1007C800BBFF0837BD4680BD80B485B000AF7860F8
:1007D8000E4B1B68FB60FB687B68B3F1FF3F02D0E0
:1007E8007B6801337B6008E0084B1B6803F48033A7
:1007F800002B02D07B68013B7B607B68002BF3D128
:100808001437BD465DF8047B704700BF10E000E078
:1008180080B483B000AF7860034A7B6813600C37FC
:10082800BD465DF8047B70471400002080B584B095
:1008380000AF786039600123FB730023BB6000F0D0
:1008480087F80346012B21D17B6801225A6013489F
:10085800796800F055F8B860FFF7AEFE0346012B43
:1008680007D0FFF79BFE00BFFFF7A6FE0346012B4C
:10087800FAD17B681B6800201946FFF73BFFB86870
:10088800396800F077F80346FB7301E00023FB7337
:10089800FB7B18461037BD4680BD00BF00127A00AA
:1008A80080B584B000AF78600123FB730023BB6080
:1008B8007B68002B02D10023FB7317E07B680E4A8C
:1008C800934202D90223BB6005E07B680B4A93423E
:1008D80001D90123BB60B868FFF748FFFFF75AFF4B
:1008E8000246BB689A4201D00023FB73FB7B184683
:1008F8001037BD4680BD00BF006CDC0200366E01BB
:1009080080B487B000AF7860396000237B613B68B2
:100918005B6801337A68B2FBF3F33A68126802F451
:1009280070114FF470123A613A6992FAA2F2FA60C1
:10093800FA68B2FA82F221FA02F2023202FB03F3F7
:100948007B617B6918461C37BD465DF8047B7047A0
:1009580080B582B000AF0123FB71FFF7B9FE0346F3
:10096800002B01D00023FB71FB7918460837BD46E0
:1009780080BD00BF90B587B000AF786039600123B3
:10098800FB7500233B612F4B1C68FFF785FE024671
:10099800F023FB60FB6893FAA3F3BB60BB68B3FA70
:1009A80083F322FA03F3284AD35C04FA03F33B6186
:1009B8003A697B689A4204D27868FFF771FF034668
:1009C800FB75FB7D012B1FD1FFF774FE00BFFFF7FE
:1009D8007FFE0346012BFAD13B681B681846FFF7D8
:1009E8001FFE0220FFF7FAFD00BFFFF70BFE0346CC
:1009F800082BFAD13B685B681846FFF725FE3B6871
:100A08009B681846FFF734FE3A697B689A4204D916
:100A18007868FFF745FF0346FB75FB7D012B0CD17A
:100A28003B681B6803F0F0031B09074AD35C1A46AE
:100A38007B68D3401846FFF7EBFEFB7D18461C3752
:100A4800BD4690BD140000200C0B0008DFF834D020
:100A5800002103E00C4B5B58435004310B480C4B0E
:100A680042189A42F6D30B4A02E0002342F8043BAC
:100A7800094B9A42F9D3FFF719FD00F011F8FFF777
:100A8800B5FCFEE700400020240B00080000002011
:100A9800180000201800002034000020FEE70000A5
:100AA80070B50E4B0E4CE41AA41000251E46A54244
:100AB80004D056F8253098470135F8E700F016F8C5
:100AC800084C094BE41AA41000251E46A54204D080
:100AD80056F8253098470135F8E770BD1C0B00081B
:100AE8001C0B0008200B00081C0B0008F8B500BF01
:100AF800F8BC08BC9E467047F8B500BFF8BC08BCF7
:040B08009E4670474E
:100B0C0000000000000000000102030406070809B1
:040B1C00AD0100081F
:040B2000890100083F
:100B24000000380001000000800000000004000004
:080B34000000000000127A002D
:0400000508000A5590
:00000001FF
