:020000040800F2
:100000000040002045410008954100089541000846
:100010009541000895410008954100080000000046
:1000200000000000000000000000000095410008F2
:100030009541000800000000954100088D06000869
:100040009541000895410008954100089541000838
:100050009541000895410008954100089541000828
:100060009541000895410008954100089541000818
:100070009541000895410008954100089541000808
:1000800095410008954100089541000895410008F8
:1000900095410008954100089541000895410008E8
:1000A000954100089906000895410008954100080F
:1000B0009541000800000000000000009541000884
:1000C0009541000895410008954100080000000096
:1000D00095410008954100089541000895410008A8
:1000E0009541000895410008954100080000000076
:1000F0000000000000000000000000000000000000
:100100000000000000000000000000009541000811
:100110000000000000000000954100080000000001
:1001200000000000000000000000000000000000CF
:1001300000000000000000000000000000000000BF
:1001400095410008954100080000000000000000F3
:10015000000000000000000000000000000000009F
:100160009541000895410008954100089541000817
:1001700095410008000000000000000000000000A1
:08018000000000009541000899
:1001880010B5054C237833B9044B13B10448AFF3C9
:1001980000800123237010BD04000020000000002F
:1001A800FC410008084B10B51BB108480849AFF3DB
:1001B80000800848036803B910BD074B002BFBD02B
:1001C800BDE81040184700BF00000000FC410008CF
:1001D80008000020040000200000000080B582B064
:1001E80000AF1E4A1D4B9B6943F0010393611B4BF3
:1001F8009B6903F001037B607B68032000F066FBCA
:100208006FF00B000021002200F06AFB6FF00A007B
:100218000021002200F064FB6FF009000021002299
:1002280000F05EFB6FF004000021002200F058FB94
:100238006FF003000021002200F052FB6FF0010074
:100248000F21002200F04CFB4FF0FF300F2100225D
:1002580000F046FB0837BD4680BD00BF00100240D5
:1002680080B58AB000AF78607B681B68224A9342E9
:100278001CD1224A214B9B6943F4804393611F4B55
:100288009B6903F480433B613B6930237B61022314
:10029800BB610123FB6100233B6207237B6207F1FB
:1002A80014031748194601F025FF21E07B681B68F5
:1002B800144A93421CD1114A104BDB6943F40033B2
:1002C800D3610E4BDB6903F40033FB60FB680C233E
:1002D8007B610223BB610023FB6100233B62072390
:1002E8007B6207F114034FF09040194601F002FFBA
:1002F8002837BD4680BD00BF0038014000100240CD
:10030800000800480044004080B58CB000AF786019
:100318000023FB620023BB6219207968002200F0E9
:10032800DFFA192000F0F8FA1E4A1E4B9B6943F4C5
:10033800006393611B4B9B6903F40063FB60FB68DC
:1003480007F1140207F110031046194601F0A2FE46
:1003580001F07EFEF862FB6A134AA2FB03239B0CA2
:10036800013BBB62114B124A1A60104B40F2E73254
:10037800DA600E4ABB6A53600C4B00221A610B4BC1
:1003880000229A60094802F07BFC0346002B04D146
:10039800064802F0ABFC034600E00123184630375C
:1003A800BD4680BD0010024083DE1B434C15002073
:1003B800002C014080B500AF00F090F900F034F84F
:1003C80000F0A8F800F078F803F0A2FE03F08AFB2A
:1003D80010484FF40051002201F0FCFF0E4803F0D2
:1003E8002FFE0E480E4904224FF0FF3302F0EAF8C0
:1003F8000A480B4904224FF0FF3302F055F805482C
:100408004FF40051012201F0E5FF064803F018FE01
:10041800DEE700BF00040048144200088C150020E5
:10042800FC1500201C42000880B590B000AF0223E4
:10043800BB610123BB621023FB6202237B630023A1
:10044800BB634FF46013FB6307F11803184600F011
:1004580099FA0346002B01D000F0C6F80F237B6001
:100468000223BB600023FB604FF480633B610023E1
:100478007B613B1D1846022101F050FB0346002B0F
:1004880001D000F0B1F801F0B5FD0246094BA3FB1D
:1004980002239B09184600F04DFA042000F056FA92
:1004A8004FF0FF300F21002200F01AFA4037BD4606
:1004B80080BD00BFD34D621080B500AF134B144A06
:1004C8001A60124B4FF416525A60104B00229A6071
:1004D8000E4B0022DA600D4B00221A610B4B0C22E6
:1004E8005A610A4B00229A61084B0022DA61074BD5
:1004F80000221A62054B00225A62044801F082FF6A
:100508000346002B01D000F06FF880BD8C15002049
:100518000038014080B58AB000AF2A4A294B5B6990
:1005280043F400235361274B5B6903F400233B61C9
:100538003B69244A234B5B6943F480035361214B95
:100548005B6903F48003FB60FB681E4A1D4B5B6913
:1005580043F4003353611B4B5B6903F40033BB6006
:10056800BB68184A174B5B6943F480235361154BEA
:100578005B6903F480237B607B6813484FF4005168
:10058800002201F027FF4FF400537B610F4BBB6142
:100598000023FB6107F114030D48194601F0AAFD79
:1005A8004FF400537B610123BB610023FB610023EF
:1005B8003B6207F114030448194601F09BFD2837F4
:1005C800BD4680BD00100240000400480000211014
:1005D8000008004880B483B000AF78600C37BD468F
:1005E8005DF8047B704700BF80B400AFFEE700BF32
:1005F80080B400AF1F4A1F4BD3F8883043F4700310
:10060800C2F888301C4A1C4B1B6843F00103136076
:100618001949194B5A68194B13404B60164A164B27
:100628001B6823F0847323F480331360124A124B3F
:100638001B6823F4802313600F4A0F4B5B6823F475
:10064800FE0353600C4A0C4BDB6A23F00F03D362A2
:100658000949094B1A6B0A4B13400B63064B0022DE
:100668009A60044B4FF000629A60BD465DF8047BC7
:10067800704700BF00ED00E0001002400CC07FF89A
:10068800CCFC00FF80B500AF00F03EF880BD00BF95
:1006980080B500AF014802F045FB80BD4C15002035
:1006A80080B483B000AF78600C37BD465DF8047B3A
:1006B800704700BF80B483B000AF78600C37BD4688
:1006C8005DF8047B704700BF80B483B000AF7860EA
:1006D8000C37BD465DF8047B704700BF80B500AF9E
:1006E800084A084B1B6843F010031360032000F00E
:1006F800EDF80020FFF708FEFFF770FD002318460D
:1007080080BD00BF0020024080B400AF044B1B68CE
:100718000133034A1360BD465DF8047B704700BF90
:100728000016002080B400AF034B1B681846BD4676
:100738005DF8047B704700BF0016002080B485B0C8
:1007480000AF78607B6803F00703FB600C4BDB6845
:10075800BB60BA684FF6FF031340BB60FB681A0220
:10076800BB68134343F0BF6343F40033BB60044AE0
:10077800BB68D3601437BD465DF8047B704700BF83
:1007880000ED00E080B400AF044BDB6803F4E063E5
:100798001B0A1846BD465DF8047B704700ED00E073
:1007A80080B483B000AF0346FB71084997F907305E
:1007B8005B09FA7902F01F02012000FA02F241F8FF
:1007C80023200C37BD465DF8047B704700E100E04C
:1007D80080B483B000AF03463960FB7197F90730E6
:1007E800002B0BDA0D49FB7903F00F03043B3A6841
:1007F800D2B21201D2B20B441A7609E0084997F92D
:1008080007303A68D2B21201D2B20B4483F80023FF
:100818000C37BD465DF8047B704700BF00ED00E073
:1008280000E100E080B489B000AFF860B9607A6098
:10083800FB6803F00703FB61FB69C3F10703042BA3
:1008480028BF0423BB61FB690433062B02D9FB696B
:10085800033B00E000237B61BB69012202FA03F33A
:100868005A1EBB681A407B699A407B69012101FACC
:1008780003F3591E7B680B40134318462437BD46C3
:100888005DF8047B704700BF80B582B000AF786028
:100898007B68013BB3F1807F01D301230FE00A4A53
:1008A8007B68013B53604FF0FF300F21FFF790FF4B
:1008B800054B00229A60044B07221A600023184651
:1008C8000837BD4680BD00BF10E000E080B582B0AB
:1008D80000AF78607868FFF731FF0837BD4680BD04
:1008E80080B586B000AF0346B9607A60FB73002319
:1008F8007B61FFF747FF78617869B9687A68FFF725
:1009080091FF024697F90F3018461146FFF760FF2E
:100918001837BD4680BD00BF80B582B000AF034622
:10092800FB7197F907301846FFF73AFF0837BD46BD
:1009380080BD00BF80B582B000AF78607868FFF7EF
:10094800A3FF034618460837BD4680BD80B483B070
:1009580000AF78607B68042B06D1094A084B1B68F6
:1009680043F00403136005E0054A054B1B6823F0B8
:10097800040313600C37BD465DF8047B704700BF65
:1009880010E000E080B5ADF5007D00AF3B1D1860BC
:100998000023C7F8F8313B1D1B681B6803F00103EF
:1009A800002B00F0CC81AF4B5B6803F00C03042BE9
:1009B8000BD0AC4B5B6803F00C03082B79D1A94B27
:1009C8005B6803F48033002B73D04FF40033C7F80F
:1009D800F431D7F8F43193FAA3F3C7F8F031D7F824
:1009E800F031B3FA83F3DBB243F02003DBB2DBB2BE
:1009F8005B09DBB2012B02D19A4B1B6835E04FF43F
:100A08000033C7F8EC31D7F8EC3193FAA3F3C7F801
:100A1800E831D7F8E831B3FA83F3DBB243F02003C7
:100A2800DBB2DBB25B09DBB2022B02D18D4B1B6A56
:100A38001BE04FF40033C7F8E431D7F8E43193FAF8
:100A4800A3F3C7F8E031D7F8E031B3FA83F3DBB2A8
:100A580043F02003DBB2DBB25B09DBB2042B02D12B
:100A6800804B5B6801E07F4B5B6A4FF40032C7F84C
:100A7800DC21D7F8DC2192FAA2F2C7F8D821D7F8FE
:100A8800D821B2FA82F2D2B242F02002D2B2D2B265
:100A980002F01F02012101FA02F21340002B07D0D5
:100AA8003B1D1B685B68002B02D1012301F031B8A4
:100AB80045E13B1D1B685B68B3F5803F06D1694A79
:100AC800684B1B6843F48033136030E03B1D1B68A0
:100AD8005B68002B0CD1634A624B1B6823F480339C
:100AE8001360604A5F4B1B6823F4802313601EE089
:100AF8003B1D1B685B68B3F5A02F0CD1594A594BB5
:100B08001B6843F480231360564A564B1B6843F412
:100B1800803313600BE0534A524B1B6823F4803335
:100B28001360504A4F4B1B6823F4802313604D49D0
:100B38004C4BDB6A23F00F023B1D1B689B68134379
:100B4800CB623B1D1B685B68002B7BD0FFF7EAFD7F
:100B5800C7F8F8010AE0FFF7E5FD0246D7F8F831D3
:100B6800D31A642B02D9032300F0D3BF4FF4003308
:100B7800C7F8D431D7F8D43193FAA3F3C7F8D031F2
:100B8800D7F8D031B3FA83F3DBB243F02003DBB2FA
:100B9800DBB25B09DBB2012B02D1324B1B6835E0BB
:100BA8004FF40033C7F8CC31D7F8CC3193FAA3F31C
:100BB800C7F8C831D7F8C831B3FA83F3DBB243F0CA
:100BC8002003DBB2DBB25B09DBB2022B02D1254B7F
:100BD8001B6A1BE04FF40033C7F8C431D7F8C4319F
:100BE80093FAA3F3C7F8C031D7F8C031B3FA83F347
:100BF800DBB243F02003DBB2DBB25B09DBB2042BD0
:100C080002D1184B5B6801E0164B5B6A4FF4003267
:100C1800C7F8BC21D7F8BC2192FAA2F2C7F8B821CC
:100C2800D7F8B821B2FA82F2D2B242F02002D2B298
:100C3800D2B202F01F02012101FA02F21340002B86
:100C480089D07CE0FFF76EFDC7F8F8010CE0FFF7EC
:100C580069FD0246D7F8F831D31A642B04D9032367
:100C680000F057BF001002404FF40033C7F8B4310A
:100C7800D7F8B43193FAA3F3C7F8B031D7F8B03145
:100C8800B3FA83F3DBB243F02003DBB2DBB25B09D8
:100C9800DBB2012B02D1B74B1B6835E04FF40033B0
:100CA800C7F8AC31D7F8AC3193FAA3F3C7F8A83139
:100CB800D7F8A831B3FA83F3DBB243F02003DBB2F1
:100CC800DBB25B09DBB2022B02D1AA4B1B6A1BE029
:100CD8004FF40033C7F8A431D7F8A43193FAA3F33B
:100CE800C7F8A031D7F8A031B3FA83F3DBB243F0E9
:100CF8002003DBB2DBB25B09DBB2042B02D19D4BD4
:100D08005B6801E09B4B5B6A4FF40032C7F89C219B
:100D1800D7F89C2192FAA2F2C7F89821D7F898211F
:100D2800B2FA82F2D2B242F02002D2B2D2B202F0C9
:100D38001F02012101FA02F21340002B87D13B1D4B
:100D48001B681B6803F00203002B00F0D781894B56
:100D58005B6803F00C03002B0DD0864B5B6803F037
:100D68000C03082B40F09080824B5B6803F48033BF
:100D7800002B40F089800223C7F89431D7F89431CA
:100D880093FAA3F3C7F89031D7F89031B3FA83F305
:100D9800DBB243F02003DBB2DBB25B09DBB2012B31
:100DA80002D1744B1B6833E00223C7F88C31D7F8A3
:100DB8008C3193FAA3F3C7F88831D7F88831B3FA9E
:100DC80083F3DBB243F02003DBB2DBB25B09DBB2B7
:100DD800022B02D1674B1B6A1AE00223C7F8843141
:100DE800D7F8843193FAA3F3C7F88031D7F8803164
:100DF800B3FA83F3DBB243F02003DBB2DBB25B0967
:100E0800DBB2042B02D15B4B5B6801E0594B5B6A98
:100E18000222C7F87C21D7F87C2192FAA2F2C7F8FF
:100E28007821D7F87821B2FA82F2D2B242F02002C1
:100E3800D2B2D2B202F01F02012101FA02F213402B
:100E4800002B07D03B1D1B681B69012B02D0012317
:100E580000F05FBE4748474B1B6823F0F8023B1D74
:100E68001B685969F823C7F87431D7F8743193FAB5
:100E7800A3F3C7F87031D7F87031B3FA83F301FAE6
:100E880003F31343036039E13B1D1B681B69002B07
:100E980000F0A8800123C7F86C31D7F86C3193FAB9
:100EA800A3F3C7F86831D7F86831B3FA83F303F1CD
:100EB800845303F584139B001A4601231360FFF73C
:100EC80031FCC7F8F8010AE0FFF72CFC0246D7F816
:100ED800F831D31A022B02D9032300F01ABE0223D9
:100EE800C7F86431D7F8643193FAA3F3C7F86031CF
:100EF800D7F86031B3FA83F3DBB243F02003DBB2F7
:100F0800DBB25B09DBB2012B02D11A4B1B6835E05F
:100F18000223C7F85C31D7F85C3193FAA3F3C7F81A
:100F28005831D7F85831B3FA83F3DBB243F02003D2
:100F3800DBB2DBB25B09DBB2022B02D10D4B1B6AC1
:100F48001CE00223C7F85431D7F8543193FAA3F3BD
:100F5800C7F85031D7F85031B3FA83F3DBB243F016
:100F68002003DBB2DBB25B09DBB2042B04D1014BFB
:100F78005B6803E000100240C64B5B6A0222C7F8B8
:100F88004C21D7F84C2192FAA2F2C7F84821D7F899
:100F98004821B2FA82F2D2B242F02002D2B2D2B2E0
:100FA80002F01F02012101FA02F21340002B8BD03C
:100FB800B848B84B1B6823F0F8023B1D1B685969F9
:100FC800F823C7F84431D7F8443193FAA3F3C7F8A4
:100FD8004031D7F84031B3FA83F301FA03F31343EE
:100FE80003608BE00123C7F83C31D7F83C3193FA12
:100FF800A3F3C7F83831D7F83831B3FA83F303F1DC
:10100800845303F584139B001A4600231360FFF7EB
:1010180089FBC7F8F8010AE0FFF784FB0246D7F816
:10102800F831D31A022B02D9032300F072BD022330
:10103800C7F83431D7F8343193FAA3F3C7F830310D
:10104800D7F83031B3FA83F3DBB243F02003DBB2D5
:10105800DBB25B09DBB2012B02D18E4B1B6833E09C
:101068000223C7F82C31D7F82C3193FAA3F3C7F829
:101078002831D7F82831B3FA83F3DBB243F02003E1
:10108800DBB2DBB25B09DBB2022B02D1814B1B6AFC
:101098001AE00223C7F82431D7F8243193FAA3F3CE
:1010A800C7F82031D7F82031B3FA83F3DBB243F025
:1010B8002003DBB2DBB25B09DBB2042B02D1754B38
:1010C8005B6801E0734B5B6A0222C7F81C21D7F802
:1010D8001C2192FAA2F2C7F81821D7F81821B2FAFF
:1010E80082F2D2B242F02002D2B2D2B202F01F0291
:1010F800012101FA02F21340002B8DD13B1D1B6820
:101108001B6803F00803002B00F040813B1D1B689F
:101118009B69002B00F096800123C7F81431D7F89B
:10112800143193FAA3F3C7F81031D7F81031B3FA92
:1011380083F31A46584B13449B001A460123136045
:10114800FFF7F0FAC7F8F8010AE0FFF7EBFA0246F2
:10115800D7F8F831D31A022B02D9032300F0D9BCEF
:101168000223C7F80C31D7F80C3193FAA3F3C7F868
:101178000831D7F80831B3FA83F3DBB243F06003E0
:10118800DBB2DBB25B09DBB2012B02D1414B1B683E
:1011980039E00223C7F80431D7F8043193FAA3F2EF
:1011A80007F580731A6007F580731B68B3FA83F339
:1011B800DBB243F06003DBB2DBB25B09DBB2022BCC
:1011C80002D1344B1B6A1EE007F1FC0302221A60AD
:1011D80007F1FC031B6893FAA3F207F1F8031A60FE
:1011E80007F1F8031B68B3FA83F3DBB243F060033B
:1011F800DBB2DBB25B09DBB2042B02D1254B5B68A7
:1012080001E0244B5B6A07F1F4020221116007F147
:10121800F402126892FAA2F107F1F002116007F1E4
:10122800F0021268B2FA82F2D2B242F06002D2B28E
:10123800D2B202F01F02012101FA02F21340002B80
:1012480083D0A3E007F1EC0301221A6007F1EC0355
:101258001B6893FAA3F207F1E8031A6007F1E803A1
:101268001B68B3FA83F31A460B4B13449B001A46C8
:1012780000231360FFF756FAC7F8F8010EE0FFF7EE
:1012880051FA0246D7F8F831D31A022B06D90323AC
:1012980000F03FBC001002402081901007F1E403E9
:1012A80002221A6007F1E4031B6893FAA3F207F11C
:1012B800E0031A6007F1E0031B68B3FA83F3DBB2BB
:1012C80043F06003DBB2DBB25B09DBB2012B02D176
:1012D800A64B1B683BE007F1DC0302221A6007F10A
:1012E800DC031B6893FAA3F207F1D8031A6007F12D
:1012F800D8031B68B3FA83F3DBB243F06003DBB2B5
:10130800DBB25B09DBB2022B02D1984B1B6A1EE0F1
:1013180007F1D40302221A6007F1D4031B6893FA79
:10132800A3F207F1D0031A6007F1D0031B68B3FAE0
:1013380083F3DBB243F06003DBB2DBB25B09DBB201
:10134800042B02D1894B5B6801E0884B5B6A07F18B
:10135800CC020221116007F1CC02126892FAA2F1C4
:1013680007F1C802116007F1C8021268B2FA82F2E6
:10137800D2B242F06002D2B2D2B202F01F02012110
:1013880001FA02F21340002B7FF479AF3B1D1B6872
:101398001B6803F00403002B00F0A181002387F8E9
:1013A800FF31724BDB6903F08053002B12D16F4A77
:1013B8006E4BDB6943F08053D3616C4BDB6903F000
:1013C800805207F10C031A6007F10C031B68012314
:1013D80087F8FF31664B1B6803F48073002B1AD122
:1013E800634A634B1B6843F480731360FFF79AF9F1
:1013F800C7F8F80109E0FFF795F90246D7F8F83180
:10140800D31A642B01D9032383E3594B1B6803F4D4
:101418008073002BEFD03B1D1B68DB68012B06D1C6
:10142800524A524B1B6A43F0010313622FE03B1DE3
:101438001B68DB68002B0CD14C4A4C4B1B6A23F011
:1014480001031362494A494B1B6A23F004031362E0
:101458001DE03B1D1B68DB68052B0CD1434A434B41
:101468001B6A43F004031362404A404B1B6A43F073
:10147800010313620BE03D4A3C4B1B6A23F0010356
:1014880013623A4A394B1B6A23F0040313623B1D6B
:101498001B68DB68002B00F08F80FFF743F9C7F863
:1014A800F8010BE0FFF73EF90246D7F8F831D31AF6
:1014B80041F28832934201D903232AE307F1C40396
:1014C80002221A6007F1C4031B6893FAA3F207F11A
:1014D800C0031A6007F1C0031B68B3FA83F3DBB2D9
:1014E80043F04003DBB2DBB25B09DBB2012B02D174
:1014F8001E4B1B6840E007F1BC0302221A6007F18B
:10150800BC031B6893FAA3F207F1B8031A6007F14A
:10151800B8031B68B3FA83F3DBB243F04003DBB2D2
:10152800DBB25B09DBB2022B02D1104B1B6A23E052
:1015380007F1B40302221A6007F1B4031B6893FA97
:10154800A3F207F1B0031A6007F1B0031B68B3FAFE
:1015580083F3DBB243F04003DBB2DBB25B09DBB2FF
:10156800042B07D1014B5B6806E000BF0010024066
:1015780000700040A54B5B6A07F1AC0202211160C4
:1015880007F1AC02126892FAA2F107F1A802116001
:1015980007F1A8021268B2FA82F2D2B242F040020F
:1015A800D2B2D2B202F01F02012101FA02F21340B4
:1015B800002B3FF477AF88E0FFF7B4F8C7F8F801DD
:1015C8000BE0FFF7AFF80246D7F8F831D31A41F22B
:1015D8008832934201D903239BE207F1A403022234
:1015E8001A6007F1A4031B6893FAA3F207F1A0039A
:1015F8001A6007F1A0031B68B3FA83F3DBB243F068
:101608004003DBB2DBB25B09DBB2012B02D17F4BBB
:101618001B683BE007F19C0302221A6007F19C0358
:101628001B6893FAA3F207F198031A6007F198036D
:101638001B68B3FA83F3DBB243F04003DBB2DBB2DF
:101648005B09DBB2022B02D1704B1B6A1EE007F16B
:10165800940302221A6007F194031B6893FAA3F219
:1016680007F190031A6007F190031B68B3FA83F33C
:10167800DBB243F04003DBB2DBB25B09DBB2042B25
:1016880002D1624B5B6801E0604B5B6A07F18C0238
:101698000221116007F18C02126892FAA2F107F197
:1016A8008802116007F188021268B2FA82F2D2B297
:1016B80042F04002D2B2D2B202F01F02012101FA76
:1016C80002F21340002B7FF47CAF97F8FF31012B17
:1016D80005D14E4A4D4BDB6923F08053D3613B1D46
:1016E8001B68DB69002B00F01382484B5B6803F032
:1016F8000C03082B00F008823B1D1B68DB69022BDA
:1017080040F05C8107F184034FF080721A6007F1A2
:1017180084031B6893FAA3F207F180031A6007F1A8
:1017280080031B68B3FA83F303F1845303F584132E
:101738009B001A4600231360FEF7F4FFC7F8F80170
:1017480009E0FEF7EFFF0246D7F8F831D31A022B6B
:1017580001D90323DDE107F17C034FF000721A6021
:1017680007F17C031B6893FAA3F207F178031A6068
:1017780007F178031B68B3FA83F3DBB243F0200365
:10178800DBB2DBB25B09DBB2012B02D11F4B1B685A
:1017980040E007F174034FF000721A6007F1740318
:1017A8001B6893FAA3F207F170031A6007F170033C
:1017B8001B68B3FA83F3DBB243F02003DBB2DBB27E
:1017C8005B09DBB2022B02D1104B1B6A22E007F146
:1017D8006C034FF000721A6007F16C031B6893FAF0
:1017E800A3F207F168031A6007F168031B68B3FAEC
:1017F80083F3DBB243F02003DBB2DBB25B09DBB27D
:10180800042B05D1014B5B6804E000BF00100240C7
:10181800BE4B5B6A07F164024FF00071116007F17B
:101828006402126892FAA2F107F16002116007F1EE
:1018380060021268B2FA82F2D2B242F02002D2B248
:10184800D2B202F01F02012101FA02F21340002B6A
:101858007FF477AFAD48AD4B5B6823F474123B1D42
:101868001B68596A3B1D1B681B6A0B431343436083
:1018780007F15C034FF080721A6007F15C031B6884
:1018880093FAA3F207F158031A6007F158031B688B
:10189800B3FA83F303F1845303F584139B001A46C8
:1018A80001231360FEF73EFFC7F8F80109E0FEF7D1
:1018B80039FF0246D7F8F831D31A022B01D903238E
:1018C80027E107F154034FF000721A6007F154033F
:1018D8001B6893FAA3F207F150031A6007F150034B
:1018E8001B68B3FA83F3DBB243F02003DBB2DBB24D
:1018F8005B09DBB2012B02D1844B1B683DE007F189
:101908004C034FF000721A6007F14C031B6893FAFE
:10191800A3F207F148031A6007F148031B68B3FAFA
:1019280083F3DBB243F02003DBB2DBB25B09DBB24B
:10193800022B02D1754B1B6A1FE007F144034FF0DD
:1019480000721A6007F144031B6893FAA3F207F1C7
:1019580040031A6007F140031B68B3FA83F3DBB254
:1019680043F02003DBB2DBB25B09DBB2042B02D10C
:10197800664B5B6801E0654B5B6A07F13C024FF020
:101988000071116007F13C02126892FAA2F107F1A6
:101998003802116007F138021268B2FA82F2D2B244
:1019A80042F02002D2B2D2B202F01F02012101FAA3
:1019B80002F21340002B3FF47AAFA9E007F1340399
:1019C8004FF080721A6007F134031B6893FAA3F290
:1019D80007F130031A6007F130031B68B3FA83F389
:1019E80003F1845303F584139B001A460023136004
:1019F800FEF798FEC7F8F80109E0FEF793FE0246E5
:101A0800D7F8F831D31A022B01D9032381E007F163
:101A18002C034FF000721A6007F12C031B6893FA2D
:101A2800A3F207F128031A6007F128031B68B3FA29
:101A380083F3DBB243F02003DBB2DBB25B09DBB23A
:101A4800012B02D1314B1B683DE007F124034FF015
:101A580000721A6007F124031B6893FAA3F207F1D6
:101A680020031A6007F120031B68B3FA83F3DBB283
:101A780043F02003DBB2DBB25B09DBB2022B02D1FD
:101A8800224B1B6A1FE007F11C034FF000721A601B
:101A980007F11C031B6893FAA3F207F118031A60F5
:101AA80007F118031B68B3FA83F3DBB243F0200392
:101AB800DBB2DBB25B09DBB2042B02D1134B5B68F0
:101AC80001E0124B5B6A07F114024FF000711160DC
:101AD80007F11402126892FAA2F107F110021160DC
:101AE80007F110021268B2FA82F2D2B242F0200272
:101AF800D2B2D2B202F01F02012101FA02F213405F
:101B0800002B7FF47AAF03E0012302E000100240CB
:101B18000023184607F50077BD4680BD80B59EB006
:101B280000AF7860396000237B67A54B1B6803F022
:101B380007023B689A4210D2A149A14B1B6823F0C7
:101B480007023B6813430B609D4B1B6803F00702B9
:101B58003B689A4201D00123D5E17B681B6803F0FA
:101B68000203002B08D09749964B5B6823F0F002DC
:101B78007B689B6813434B607B681B6803F0010319
:101B8800002B00F06D817B685B68012B5DD14FF401
:101B980000333B673B6F93FAA3F3FB66FB6EB3FA24
:101BA80083F3DBB243F02003DBB2DBB25B09DBB2C9
:101BB800012B02D1834B1B682DE04FF40033BB6629
:101BC800BB6E93FAA3F37B667B6EB3FA83F3DBB247
:101BD80043F02003DBB2DBB25B09DBB2022B02D19C
:101BE800784B1B6A17E04FF400333B663B6E93FA61
:101BF800A3F3FB65FB6DB3FA83F3DBB243F0200379
:101C0800DBB2DBB25B09DBB2042B02D16D4B5B6844
:101C180001E06C4B5B6A4FF40032BA65BA6D92FA18
:101C2800A2F27A657A6DB2FA82F2D2B242F020025A
:101C3800D2B2D2B202F01F02012101FA02F213401D
:101C4800002B40F0C18001235DE17B685B68022BBB
:101C58005CD14FF000733B653B6D93FAA3F3FB64D3
:101C6800FB6CB3FA83F3DBB243F02003DBB2DBB2E5
:101C78005B09DBB2012B02D1524B1B682DE04FF000
:101C88000073BB64BB6C93FAA3F37B647B6CB3FAFD
:101C980083F3DBB243F02003DBB2DBB25B09DBB2D8
:101CA800022B02D1474B1B6A17E04FF000733B64CD
:101CB8003B6C93FAA3F3FB63FB6BB3FA83F3DBB2DE
:101CC80043F02003DBB2DBB25B09DBB2042B02D1A9
:101CD8003C4B5B6801E03B4B5B6A4FF00072BA63B8
:101CE800BA6B92FAA2F27A637A6BB2FA82F2D2B241
:101CF80042F02002D2B2D2B202F01F02012101FA50
:101D080002F21340002B5FD10123FCE002233B6366
:101D18003B6B93FAA3F3FB62FB6AB3FA83F3DBB280
:101D280043F02003DBB2DBB25B09DBB2012B02D14B
:101D3800244B1B682BE00223BB62BB6A93FAA3F314
:101D48007B627B6AB3FA83F3DBB243F02003DBB236
:101D5800DBB25B09DBB2022B02D11A4B1B6A16E01D
:101D680002233B623B6A93FAA3F3FB61FB69B3FA74
:101D780083F3DBB243F02003DBB2DBB25B09DBB2F7
:101D8800042B02D10F4B5B6801E00E4B5B6A022209
:101D9800BA61BA6992FAA2F27A617A69B2FA82F2FF
:101DA800D2B242F02002D2B2D2B202F01F02012116
:101DB80001FA02F21340002B06D10123A3E000BF71
:101DC80000200240001002405149514B5B6823F04B
:101DD80003027B685B6813434B60FEF7A3FC7867DC
:101DE8007B685B68012B12D10AE0FEF79BFC024678
:101DF8007B6FD31A41F28832934201D9032382E0E0
:101E0800434B5B6803F00C03042BEED128E07B689E
:101E18005B68022B12D10AE0FEF784FC02467B6F56
:101E2800D31A41F28832934201D903236BE0384B2D
:101E38005B6803F00C03082BEED111E00AE0FEF713
:101E480071FC02467B6FD31A41F28832934201D962
:101E5800032358E02E4B5B6803F00C03002BEED1F4
:101E68002C4B1B6803F007023B689A4210D929499A
:101E7800284B1B6823F007023B6813430B60254B74
:101E88001B6803F007023B689A4201D001233AE03D
:101E98007B681B6803F00403002B08D01C491C4B0B
:101EA8005B6823F4E0627B68DB6813434B607B6804
:101EB8001B6803F00803002B09D01549144B5B6815
:101EC80023F460527B681B69DB0013434B6000F00E
:101ED80027F801460E4B5B6803F0F002F0233B61E4
:101EE8003B6993FAA3F3FB60FB68B3FA83F322FA26
:101EF80003F3094AD35C21FA03F3084A136000206C
:101F0800FEF702FA002318467837BD4680BD00BFA9
:101F18000010024000200240744200080000002027
:101F280080B48BB000AF0023FB610023BB610023AA
:101F38007B6200237B6100233B62294B5B68FB616A
:101F4800FB6903F00C03042B02D0082B03D03CE000
:101F5800244B3B623CE0FB6903F470124FF47013AE
:101F68003B613B6993FAA3F3FB60FB68B3FA83F325
:101F780022FA03F31C4AD35C7B61194BDB6A03F03A
:101F88000F020F23BB60BB6893FAA3F37B607B68E7
:101F9800B3FA83F322FA03F3144AD35CBB61FB69F7
:101FA80003F48033002B08D00E4ABB69B2FBF3F36D
:101FB8007A6902FB03F37B6204E07B690C4A02FB4B
:101FC80003F37B627B6A3B6202E0064B3B6200BF25
:101FD8003B6A18462C37BD465DF8047B704700BF46
:101FE8000010024000127A008C4200089C4200084F
:101FF80000093D0080B400AF034B1B681846BD467E
:102008005DF8047B704700BF0000002080B582B0F7
:1020180000AFFFF7EFFF01460B4B5B6803F4E0628C
:102028004FF4E0637B607B6893FAA3F33B603B6803
:10203800B3FA83F322FA03F3044AD35C21FA03F3D5
:1020480018460837BD4680BD00100240844200088B
:1020580080B582B000AFFFF7CDFF01460B4B5B6840
:1020680003F460524FF460537B607B6893FAA3F3E8
:102078003B603B68B3FA83F322FA03F3044AD35C68
:1020880021FA03F318460837BD4680BD0010024008
:102098008442000880B483B000AF786039607B6800
:1020A8000F221A60114B5B6803F003027B685A60C9
:1020B8000E4B5B6803F0F0027B689A600B4B5B6821
:1020C80003F4E0627B68DA60084B5B6803F46053F2
:1020D800DA087B681A61064B1B6803F007023B6845
:1020E8001A600C37BD465DF8047B7047001002404B
:1020F8000020024080B487B000AF786039600023C8
:102108007B610023FB6000233B614AE13B681A685E
:102118007B69012101FA03F31340FB60FB68002B84
:1021280000F03C813B685B68022B03D03B685B682E
:10213800122B22D17B69DA087B68083253F82230E7
:102148003B617B6903F007039B001A460F2393400A
:10215800DB433A6913403B613B681B697A6902F0CB
:102168000702920093403A6913433B617B69DA089E
:102178007B680832396943F822107B681B683B6129
:102188007B695B001A4603239340DB433A6913409B
:102198003B613B685B6803F003037A695200934034
:1021A8003A6913433B617B683A691A603B685B682C
:1021B800012B0BD03B685B68022B07D03B685B6840
:1021C800112B03D03B685B68122B2FD17B689B686F
:1021D8003B617B695B001A4603239340DB433A6902
:1021E80013403B613B68DB687A69520093403A6967
:1021F80013433B617B683A699A607B685B683B6123
:102208007B69012202FA03F3DB433A6913403B611D
:102218003B685B6803F010031A097B6902FA03F351
:102228003A6913433B617B683A695A607B68DB68AB
:102238003B617B695B001A4603239340DB433A69A1
:1022480013403B613B689B687A69520093403A6946
:1022580013433B617B683A69DA603B685B6803F06B
:102268008053002B00F09A80544A544B9B6943F0EA
:1022780001039361514B9B6903F00103BB60BB6889
:102288004F4A7B699B08023352F823303B617B69D4
:1022980003F003039B001A460F239340DB433A697C
:1022A80013403B617B68B3F1904F13D07B68454A7C
:1022B80093420DD07B68444A934207D07B68434AD7
:1022C800934201D1032306E0052304E0022302E040
:1022D800012300E000237A6902F003029200934090
:1022E8003A6913433B6136497B699B0802333A6973
:1022F80041F82320364B1B683B61FB68DB433A6996
:1023080013403B613B685B6803F48033002B03D0C8
:102318003A69FB6813433B612D4A3B6913602C4BB8
:102328005B683B61FB68DB433A6913403B613B6890
:102338005B6803F40033002B03D03A69FB6813434E
:102348003B61234A3B695360214B9B683B61FB68B7
:10235800DB433A6913403B613B685B6803F48013D5
:10236800002B03D03A69FB6813433B61184A3B6969
:102378009360174BDB683B61FB68DB433A691340AA
:102388003B613B685B6803F40013002B03D03A6998
:10239800FB6813433B610E4A3B69D3607B69013399
:1023A8007B613B681A687B6922FA03F3002B7FF490
:1023B800ADAE1C37BD465DF8047B70470010024087
:1023C800000001400004004800080048000C0048D4
:1023D8000004014080B483B000AF78600B467B8076
:1023E80013467B707B78002B03D07A887B689A61D0
:1023F80002E07A887B689A620C37BD465DF8047BF8
:10240800704700BF80B582B000AF78607B68002B52
:1024180001D1012343E07B6893F86930DBB2002BDC
:1024280006D17B68002283F868207868FDF718FFDA
:102438007B68242283F869207B681B687A681268A5
:10244800126822F001021A60786800F07FF90346EA
:10245800012B01D1012322E07B685B6A002B02D0AB
:10246800786800F0D7FA7B681B687A681268526847
:1024780022F490425A607B681B687A6812689268F6
:1024880022F02A029A607B681B687A6812681268D0
:1024980042F001021A60786800F05EFB03461846B5
:1024A8000837BD4680BD00BF80B588B002AFF86070
:1024B800B9603B601346FB8000237B61FB6893F89F
:1024C8006930DBB2202B77D1BB68002B02D0FB88A8
:1024D800002B01D1012370E0FB6893F86830012BD1
:1024E80001D1022369E0FB68012283F86820FB68B8
:1024F8000022DA66FB68212283F86920FEF712F9C8
:102508007861FB68FA88A3F85020FB68FA88A3F87A
:10251800522034E0FB68B3F852309BB2013B9AB2C8
:10252800FB68A3F852203B680093F86880210022DA
:102538007B6900F05BFB0346002B01D003233CE0E2
:10254800FB689B68B3F5805F11D1FB681B69002BA2
:102558000DD1BB683B61FB681B683A691288C2F3FE
:10256800080292B21A85BB680233BB6007E0FB68B9
:102578001A68BB68591CB9601B789BB21385FB6845
:10258800B3F852309BB2002BC4D13B680093F86873
:10259800402100227B6900F029FB0346002B01D073
:1025A80003230AE0FB68202283F86920FB680022E5
:1025B80083F86820002300E0022318461837BD4638
:1025C80080BD00BF80B58AB002AFF860B9603B60DB
:1025D8001346FB800023FB61FB6893F86A30DBB28B
:1025E800202B40F0AD80BB68002B02D0FB88002B6D
:1025F80001D10123A5E0FB6893F86830012B01D1D4
:1026080002239EE0FB68012283F86820FB68002211
:10261800DA66FB68222283F86A20FEF783F8F861FD
:10262800FB68FA88A3F85820FB68FA88A3F85A20B0
:10263800FB689B68B3F5805F0ED1FB681B69002BB4
:1026480005D1FB6840F2FF12A3F85C2028E0FB6884
:10265800FF22A3F85C2023E0FB689B68002B0DD1C8
:10266800FB681B69002B04D1FB68FF22A3F85C20E0
:1026780016E0FB687F22A3F85C2011E0FB689B68EA
:10268800B3F1805F0CD1FB681B69002B04D1FB6898
:102698007F22A3F85C2003E0FB683F22A3F85C20BC
:1026A800FB68B3F85C307B833AE0FB68B3F85A30D8
:1026B8009BB2013B9AB2FB68A3F85A203B6800938F
:1026C800F86820210022FB6900F090FA0346002BED
:1026D80001D0032335E0FB689B68B3F5805F12D116
:1026E800FB681B69002B0ED1BB687B61FB681B680C
:1026F8009B8C9AB27B8B13409AB27B691A80BB6819
:102708000233BB600CE0BB685A1CBA60FA681268F6
:10271800928C92B2D1B27A8BD2B20A40D2B21A70EB
:10272800FB68B3F85A309BB2002BBED1FB6820225D
:1027380083F86A20FB68002283F86820002300E001
:10274800022318462037BD4680BD00BF90B587B02C
:1027580000AF78600023FB601023FB7500237B81AA
:102768000023BB820023FB747B689A687B681B6923
:102778001A437B685B691A437B68DB691343FB6018
:102788007B681A687B681B6819689D4B0B40F96861
:102798000B4313607B681B687A681268526822F4DE
:1027A80040517A68D2680A435A607B689A697B68A4
:1027B8001B6A1343FB607B681B687A68126892681F
:1027C80022F43061FA680A439A607B681B688D4A74
:1027D800934221D18C4B1B6B03F00303032B17D8B7
:1027E80001A252F823F000BF012800080D280008B4
:1027F80013280008072800080023FB750AE00223B5
:10280800FB7507E00423FB7504E00823FB7501E072
:102818001023FB7500BF11E07B681B687B4A93425D
:1028280002D10023FB7509E07B681B68784A934254
:1028380002D10023FB7501E01023FB757B68DB697F
:10284800B3F5004F6ED1FB7D082B57D801A252F883
:1028580023F000BF812800089D280008B928000837
:1028680005290008D32800080529000805290008BB
:1028780005290008EF280008FFF7C8FB03465A009F
:102888007B685B685B081A447B685B68B2FBF3F3A0
:10289800BB8236E0FFF7DCFB03465A007B685B68C7
:1028A8005B081A447B685B68B2FBF3F3BB8228E0E1
:1028B8007B685B685B0803F5740303F510537A685B
:1028C8005268B3FBF2F3BB821BE0FFF729FB034618
:1028D8005A007B685B685B081A447B685B68B2FBDC
:1028E800F3F3BB820DE07B685B685B0803F580321D
:1028F8007B685B68B2FBF3F3BB8202E00123FB74E5
:1029080000BFBB8A23F00F037B81BB8A03F00F0350
:102918005B109AB27B8913437B817B681B687A8939
:10292800DA6068E0FB7D082B62D801A252F823F038
:102938005D2900087D2900089D290008F92900085B
:10294800BD290008F9290008F9290008F929000813
:10295800DD2900087B681C68FFF758FB02467B6886
:102968005B685B081A447B685B68B2FBF3F39BB255
:10297800E36040E07B681C68FFF76AFB02467B68FF
:102988005B685B081A447B685B68B2FBF3F39BB235
:10299800E36030E07B681A687B685B685B0803F576
:1029A800F40303F5905379684968B3FBF1F39BB2DC
:1029B800D36020E07B681C68FFF7B2FA02467B68A8
:1029C8005B685B081A447B685B68B2FBF3F39BB2F5
:1029D800E36010E07B681B687A685268520802F569
:1029E80000417A685268B1FBF2F292B2DA6002E012
:1029F8000123FB7400BFFB7C18461C37BD4690BD05
:102A0800F369FFEF00380140001002400044004025
:102A18000048004080B483B000AF78607B685B6A90
:102A280003F00103002B0AD07B681B687A681268E0
:102A3800526822F400317A68926A0A435A607B68C5
:102A48005B6A03F00203002B0AD07B681B687A6874
:102A58001268526822F480317A68D26A0A435A604E
:102A68007B685B6A03F00403002B0AD07B681B6851
:102A78007A681268526822F480217A68126B0A43D5
:102A88005A607B685B6A03F00803002B0AD07B68F6
:102A98001B687A681268526822F400417A68526B9F
:102AA8000A435A607B685B6A03F01003002B0AD064
:102AB8007B681B687A681268926822F480517A6889
:102AC800926B0A439A607B685B6A03F02003002BD1
:102AD8000AD07B681B687A681268926822F40051F1
:102AE8007A68D26B0A439A607B685B6A03F040039A
:102AF800002B1AD07B681B687A681268526822F427
:102B080080117A68126C0A435A607B681B6CB3F5B3
:102B1800801F0AD17B681B687A681268526822F4A1
:102B2800C0017A68526C0A435A607B685B6A03F09A
:102B38008003002B0AD07B681B687A681268526889
:102B480022F400217A68926C0A435A600C37BD4619
:102B58005DF8047B704700BF80B586B002AF78602F
:102B68000023FB607B680022DA66FDF7DBFDF86076
:102B78007B681B681B6803F00803002B0ED06FF0FE
:102B88007E43009378684FF400110022FB6800F040
:102B98002DF80346002B01D0032322E07B681B6835
:102BA8001B6803F00403002B0ED06FF07E430093E4
:102BB80078684FF480010022FB6800F017F803469C
:102BC800002B01D003230CE07B68202283F86920C6
:102BD8007B68202283F86A207B68002283F86820BB
:102BE800002318461037BD4680BD00BF80B584B0AD
:102BF80000AFF860B9603B601346FB712CE0BB691D
:102C0800B3F1FF3F28D0BB69002B07D0FDF78AFD41
:102C180002463B68D21ABB699A421DD9FB681B68F9
:102C2800FA681268126822F4D0721A60FB681B688E
:102C3800FA681268926822F001029A60FB68202202
:102C480083F86920FB68202283F86A20FB68002249
:102C580083F8682003230FE0FB681B68DA69BB6808
:102C68001A40BB689A420CBF01230023DBB21A4604
:102C7800FB799A42C3D0002318461037BD4680BD61
:102C880080B582B000AF78607B68002B01D101234A
:102C98001DE07B6893F83D30DBB2002B06D17B68E2
:102CA800002283F83C20786800F016F87B6802223E
:102CB80083F83D207B681A687B6804331046194600
:102CC80000F076F97B68012283F83D20002318463E
:102CD8000837BD4680BD00BF80B483B000AF7860C0
:102CE8000C37BD465DF8047B704700BF80B483B0E5
:102CF80000AF78607B681B687A681268D26842F017
:102D08000102DA607B681B687A681268126842F010
:102D180001021A60002318460C37BD465DF8047B93
:102D2800704700BF80B582B000AF78607B681B68D1
:102D38001B6903F00203002B22D07B681B68DB6849
:102D480003F00203002B1BD07B681B686FF00202A4
:102D58001A617B6801221A777B681B689B6903F0FC
:102D68000303002B03D0786800F004F905E07868C5
:102D780000F0F6F8786800F007F97B6800221A7707
:102D88007B681B681B6903F00403002B22D07B6857
:102D98001B68DB6803F00403002B1BD07B681B68EF
:102DA8006FF004021A617B6802221A777B681B683D
:102DB8009B6903F44073002B03D0786800F0DAF8BD
:102DC80005E0786800F0CCF8786800F0DDF87B68FA
:102DD80000221A777B681B681B6903F00803002B25
:102DE80022D07B681B68DB6803F00803002B1BD02C
:102DF8007B681B686FF008021A617B6804221A77E7
:102E08007B681B68DB6903F00303002B03D0786839
:102E180000F0B0F805E0786800F0A2F8786800F0F3
:102E2800B3F87B6800221A777B681B681B6903F07C
:102E38001003002B22D07B681B68DB6803F01003AB
:102E4800002B1BD07B681B686FF010021A617B682F
:102E580008221A777B681B68DB6903F44073002B30
:102E680003D0786800F086F805E0786800F078F814
:102E7800786800F089F87B6800221A777B681B68FD
:102E88001B6903F00103002B0ED07B681B68DB680D
:102E980003F00103002B07D07B681B686FF0010269
:102EA8001A617868FDF796FB7B681B681B6903F05D
:102EB8008003002B0ED07B681B68DB6803F080035F
:102EC800002B07D07B681B686FF080021A61786856
:102ED800FDF7F0FB7B681B681B6903F48073002B0C
:102EE8000ED07B681B68DB6803F08003002B07D0DB
:102EF8007B681B686FF480721A617868FDF7E4FBE1
:102F08007B681B681B6903F04003002B0ED07B68AD
:102F18001B68DB6803F04003002B07D07B681B6845
:102F28006FF040021A61786800F038F87B681B6817
:102F38001B6903F02003002B0ED07B681B68DB683D
:102F480003F02003002B07D07B681B686FF020027A
:102F58001A617868FDF7A4FB0837BD4680BD00BF3D
:102F680080B483B000AF78600C37BD465DF8047B51
:102F7800704700BF80B483B000AF78600C37BD469F
:102F88005DF8047B704700BF80B483B000AF786001
:102F98000C37BD465DF8047B704700BF80B483B032
:102FA80000AF78600C37BD465DF8047B704700BF02
:102FB80080B485B000AF786039600023FB607B681F
:102FC8001B68FB607B682D4A934203D07B68B3F192
:102FD800804F08D1FB6823F07003FB603B685B6897
:102FE800FA681343FB607B68244A93420FD07B68DE
:102FF800B3F1804F0BD07B68214A934207D07B689E
:10300800204A934203D07B681F4A934208D1FB6849
:1030180023F44073FB603B68DB68FA681343FB608A
:10302800FB6823F080023B685B691343FB607B68A5
:10303800FA681A603B689A687B68DA623B681A68C3
:103048007B689A627B680D4A93420BD07B680C4A76
:10305800934207D07B680B4A934203D07B680A4AA5
:10306800934203D13B681A697B681A637B68012223
:103078005A611437BD465DF8047B7047002C014047
:1030880000400140004401400048014080B483B042
:1030980000AF214B7B607B6803221A617B680322A7
:1030A8005A617B681D4A9A617B681D4ADA617B68B0
:1030B8004FF480621A627B6800229A627B68002261
:1030C8005A627B680022DA627B68144A1A667B6857
:1030D800144A5A667B6810229A667B6800221A672F
:1030E8007B680022DA667B6800225A677B680733B0
:1030F8000D4A106818607B680C4A1068186091883F
:10310800927999809A717B6820229A710C37BD4612
:103118005DF8047B704700BF0416002024420008B5
:10312800200000202004002030420008344200081B
:1031380080B58AB000AFF860B9607A603C4B1B7804
:10314800002B01D1FFF7A2FFFA6813465B00134476
:10315800DB006033364A1344BB61BB68FB61BB6963
:103168001B693B62BB69DB687B6100237B623A6A4F
:103178007B699A422AD9BB699A683B6AD31A3B6130
:103188003A697B68934228BF13463B61BB695A681A
:103198003B6A1344F86919463A6901F01FF87A6ADC
:1031A8003B6913447B62FA693B691344FB617A68A3
:1031B8003B69D31A7B603A6A3B6913443B62BB693B
:1031C8009A683B6A9A4201D100233B627A693B6A5A
:1031D800D31A3B613A697B68934228BF13463B6127
:1031E8003B69002B18D0BB695A683B6A1344F869DD
:1031F80019463A6900F0F2FF7A6A3B6913447B6228
:10320800FA693B691344FB617A683B69D31A7B60AE
:103218003A6A3B6913443B627B6A002B02D0BB6964
:103228003A6A1A617B6A18462837BD4680BD00BFD6
:103238000416002080B58CB000AFF860B9607A60E1
:10324800BB68FB62FB685A1C13465B001344DB0037
:10325800464A13447B627B6A1B693B627B6ADB6874
:10326800FB613A6AFB699A4262D87B6A9A68FB6991
:10327800D31A013BBB61BA697B689A421DD37B6A4A
:103288005A68FB691344BB62FA697B681344FB61A3
:10329800BB6A5A1CBA62FA6A511CF96212781A702F
:1032A8007B68013B7B607B68002BF1D1FA697B6806
:1032B8001A447B6ADA60012354E0BA693B6A134412
:1032C800BB61BA697B689A424BD37B6A9A68FB698F
:1032D800D31A7B617A697B689A420ED97B6A5A68ED
:1032E800FB6913441846F96A7A6800F077FFFA69AF
:1032F8007B681A447B6ADA6018E07B6A5A68FB6963
:1033080013441846F96A7A6900F068FF7B6A5868BE
:10331800FA6A7B69D1187A687B69D31A1A4600F071
:103328005DFF7A687B69D21A7B6ADA60012319E04B
:103338003A6AFB69D31A013BBB61BA697B689A4256
:103348000FD37B6A5A68FB6913441846F96A7A688E
:1033580000F044FFFA697B681A447B6ADA6001234B
:1033680000E0002318463037BD4680BD0416002013
:1033780080B586B000AFF860B9607A603B60304BCA
:103388001B78002B01D1FFF781FE2D4B1B691A46D4
:10339800FB689A424BD9EFF311834FF0200181F378
:1033A80011883B61FB68002B31D02549FB685A1C0A
:1033B80013465B001344DB000B44BA681A602049CB
:1033C800FB685A1C13465B001344DB000B447A6805
:1033D8005A601B49FA6813465B001344DB000B4430
:1033E80020333A681A601649FA6813465B0013449A
:1033F800DB000B44283300221A601149FA6813468F
:103408005B001344DB000B44203300225A600C4954
:10341800FA6813465B001344DB000B4428333A6A0E
:103428005A603B6983F3118800237B6102E04FF007
:10343800FF337B617B6918461837BD4680BD00BFE6
:103448000416002080B586B000AFF860B9607A60D5
:103458003B60304B1B78002B01D1FFF717FE2D4B3B
:103468005B691A46FB689A424BD9EFF311834FF018
:10347800200181F311883B61FB68002B31D025497D
:10348800FA6813465B001344DB000B446033BA68E8
:103498001A602049FA6813465B001344DB000B44AA
:1034A80060337A685A601B49FA6813465B00134414
:1034B800DB000B4468333A681A601649FA68134609
:1034C8005B001344DB000B44703300221A6011497F
:1034D800FA6813465B001344DB000B446833002290
:1034E8005A600C49FA6813465B001344DB000B442E
:1034F80070333A6A5A603B6983F3118800237B6111
:1035080002E04FF0FF337B617B6918461837BD46F0
:1035180080BD00BF0416002080B487B000AFF860FB
:10352800B9607A6000233B6102E03B6901333B618B
:10353800BA683B6913441B78002BF6D13A697B685B
:103548009A4201D97B683B613B69FE2B06D8FB6830
:103558005A1CFA603A69D2B21A7011E0FB685A1C18
:10356800FA60FF221A70FB685A1CFA603A69D2B2F4
:103578001A70FB685A1CFA603A69120AD2B21A70B9
:1035880000237B610AE0FB685A1CFA60BA68511C88
:10359800B96012781A707B6901337B617A693B697B
:1035A8009A42F0D3FB6818461C37BD465DF8047B89
:1035B800704700BF80B483B000AF78607B68043385
:1035C80018460C37BD465DF8047B704780B582B05D
:1035D80000AFFB1C012019460122FFF7A9FD034695
:1035E8007B607B68002B46DDFB78042B1AD0042B0C
:1035F80006DC022B10D0022B11DC012B09D02EE0A7
:10360800062B15D0062B10DB072B14D0802B15D0DA
:1036180025E000F067FA2EE000F020FB2BE000F038
:103628000FFC28E000F0D8FB25E000F03BFB22E08F
:1036380000F0CAFC1FE000F0ABFC1CE0FB1C012002
:1036480019460122FFF774FD03467B607B68002B57
:1036580004DDFB78184600F01DFC0CE00BE0FB785D
:10366800DBB25BB2002B05DAFB1C012019460122F4
:10367800FFF75EFD00BF0837BD4680BD80B58CB042
:1036880000AF01233B713B1D0133FB61FB69FB620A
:10369800304B5B69BB620BE0FB6A5A1CFA62BA6A80
:1036A800D2B262F07F02D2B21A70BB6ADB09BB6287
:1036B800BB6A7F2BF0D8FB6A5A1CFA62BA6AD2B28C
:1036C8001A70FB6AFB61244B1B68BB61214BDB68EA
:1036D800BA69D31A7B61FB697B627B693B620BE049
:1036E8007B6A5A1C7A623A6AD2B262F07F02D2B21C
:1036F8001A703B6ADB093B623B6A7F2BF0D87B6A16
:103708005A1C7A623A6AD2B21A707B6AFB61FA6909
:103718003B1DD31A1A463B1D01201946FFF78AFDA7
:1037280003463B613B69002B09D00A4ABB69D36059
:10373800084B1B78013BDAB2064B1A7004E0054BC4
:103748005B690133034A53613B6918463037BD460C
:1037580080BD00BF38140020041000E080B58AB096
:1037680000AFF860B9607A605E4B1B78012B00D11E
:103778000FE05C4B1B78002B00D19BE0594B1B786A
:10378800022B06D1FFF77AFF564B1B78012B00D08E
:1037980090E07B681F2B09D8524BDA697B6822FAC4
:1037A80003F303F00103002B00D083E07B68172BA1
:1037B80007D8FB68013BFB607B68DAB2FB681A70CC
:1037C8003DE0BA68FB68D31AFB61FB697F2B12D90D
:1037D800FB68013BFB60FB69DB09DAB2FB681A7026
:1037E800FB68013BFB60FB69DBB263F07F03DAB285
:1037F800FB681A7006E0FB68013BFB60FB69DAB204
:10380800FB681A707B687F2B12D9FB68013BFB6051
:103818007B68DB09DAB2FB681A70FB68013BFB6066
:103828007B68DBB263F07F03DAB2FB681A7006E0EC
:10383800FB68013BFB607B68DAB2FB681A702A4BB5
:103848001B68BB61274BDB68BA69D31A7B61BB680D
:103858007B627B693B620BE07B6A5A1C7A623A6A3C
:10386800D2B262F07F02D2B21A703B6ADB093B62C5
:103878003B6A7F2BF0D87B6A5A1C7A623A6AD2B2CA
:103888001A707B6ABB60BA68FB68D31A0120F968B2
:103898001A46FFF7CFFC03463B613B69002B03D078
:1038A800104ABB69D36005E00E4B1B780133DAB2CE
:1038B8000C4B1A700D4BD3F884200C4BD3F888307E
:1038C8009A420BD0074B9B78002B07D1054B01225E
:1038D8009A70FFF77BFE034B00229A702837BD468B
:1038E80080BD00BF38140020041000E0041600203A
:1038F80080B586B002AFF860B9607A603B6000239B
:10390800009301201349144A4FF48053FFF730FD08
:103918000023009301200F49104A0823FFF792FD66
:103928000F4B4FF080521A610E4B1B680C4AD36044
:103938000B4A7B6813620A4AFB685360084ABB68F3
:103948009360074A3B685362054B00221A70103790
:10395800BD4680BD3C4200083004002030140020E1
:1039680038140020041000E080B483B000AF786001
:10397800034A7B6813610C37BD465DF8047B7047CA
:103988003814002080B584B000AF7860EFF311835D
:103998004FF0200181F31188FB600748FFF70AFE0A
:1039A800B860B868B9687A68FFF7D8FEFB6883F32F
:1039B80011881037BD4680BD6814002080B588B0D6
:1039C80000AF78603960EFF311834FF0200181F385
:1039D80011887B611648FFF7EDFD38613B69FB6094
:1039E800FB68FB613B68BB610BE0FB695A1CFA6131
:1039F800BA69D2B262F07F02D2B21A70BB69DB092F
:103A0800BB61BB697F2BF0D8FB695A1CFA61BA69A4
:103A1800D2B21A70FB69FB603869F9687A68FFF7F7
:103A28009DFE7B6983F311882037BD4680BD00BFAA
:103A38006814002080B58CB000AFF860B9607A6077
:103A4800EFF311834FF0200181F31188FB612448C3
:103A5800FFF7B0FDB861BB697B617B69FB62BB683E
:103A6800BB620BE0FB6A5A1CFA62BA6AD2B262F015
:103A78007F02D2B21A70BB6ADB09BB62BB6A7F2BBA
:103A8800F0D8FB6A5A1CFA62BA6AD2B21A70FB6A98
:103A98007B617B697B627B683B620BE07B6A5A1CBB
:103AA8007A623A6AD2B262F07F02D2B21A703B6A84
:103AB800DB093B623B6A7F2BF0D87B6A5A1C7A622F
:103AC8003A6AD2B21A707B6A7B61B8697969FA6816
:103AD800FFF744FEFB6983F311883037BD4680BD8C
:103AE8006814002080B58CB000AF594B1B78002BB0
:103AF80040F0AA80564B01221A70EFF311834FF061
:103B0800200181F31188FB60012052490A22FFF746
:103B180091FBFB6883F311880A20FFF733FFEFF36B
:103B280011834FF0200181F31188BB604A48FFF7E9
:103B380041FD78607B683B603B68FB62444B5B6897
:103B4800BB620BE0FB6A5A1CFA62BA6AD2B262F034
:103B58007F02D2B21A70BB6ADB09BB62BB6A7F2BD9
:103B6800F0D8FB6A5A1CFA62BA6AD2B21A70FB6AB7
:103B78003B603B687B62364B9B683B620BE07B6A31
:103B88005A1C7A623A6AD2B262F07F02D2B21A70D2
:103B98003B6ADB093B623B6A7F2BF0D87B6A5A1C85
:103BA8007A623A6AD2B21A707B6A3B603B68FB6100
:103BB800274B1B69BB610BE0FB695A1CFA61BA69A8
:103BC800D2B262F07F02D2B21A70BB69DB09BB6164
:103BD800BB697F2BF0D8FB695A1CFA61BA69D2B26B
:103BE8001A70FB693B603B687B6102233B610BE019
:103BF8007B695A1C7A613A69D2B262F07F02D2B20A
:103C08001A703B69DB093B613B697F2BF0D87B6904
:103C18005A1C7A613A69D2B21A707B693B6078683B
:103C280039681822FFF79AFDBB6883F31188084B9F
:103C38005B6A002B02D0064B5B6A984700F000F9DC
:103C480000F0CAF800F0C0F93037BD4680BD00BFAB
:103C580038140020AC4200086814002080B582B0F7
:103C680000AFEFF311834FF0200181F311887B60DF
:103C78000A48FFF79FFC3860094B1B78002B07D0D8
:103C8800386839680B22FFF769FD054B00221A7066
:103C98007B6883F311880837BD4680BD681400200F
:103CA8003814002080B58CB000AFEFF311834FF0CB
:103CB800200181F31188FB604548FFF77BFCB86061
:103CC800BB687B607B68FB62424B5B68BB620BE056
:103CD800FB6A5A1CFA62BA6AD2B262F07F02D2B2A6
:103CE8001A70BB6ADB09BB62BB6A7F2BF0D8FB6A20
:103CF8005A1CFA62BA6AD2B21A70FB6A7B607B6895
:103D08007B62344B9B683B620BE07B6A5A1C7A628D
:103D18003A6AD2B262F07F02D2B21A703B6ADB0909
:103D28003B623B6A7F2BF0D87B6A5A1C7A623A6AFC
:103D3800D2B21A707B6A7B607B68FB61254B1B697A
:103D4800BB610BE0FB695A1CFA61BA69D2B262F036
:103D58007F02D2B21A70BB69DB09BB61BB697F2BDA
:103D6800F0D8FB695A1CFA61BA69D2B21A70FB69B9
:103D78007B607B687B6102233B610BE07B695A1C9B
:103D88007A613A69D2B262F07F02D2B21A703B69A4
:103D9800DB093B613B697F2BF0D87B695A1C7A6150
:103DA8003A69D2B21A707B697B60B8687968182260
:103DB800FFF7D4FCFB6883F31188064B5B6A002B82
:103DC80002D0044B5B6A98473037BD4680BD00BFC0
:103DD800681400203814002080B500AF064B1B6A19
:103DE800002B08D0044B1B6A5B68002B03D0024BE6
:103DF8001B6A5B68984780BD3814002080B586B080
:103E080000AF7860EFF311834FF0200181F3118840
:103E18007B610A48FFF7CEFB3861386979688022F0
:103E2800FFF77AFBF8603869F9680E22FFF796FC0D
:103E38007B6983F311881837BD4680BD681400205C
:103E4800B0B582B000AF114B1B6A002B15D00F4BD9
:103E58001B6A1B68002B10D00C4B1B6A1B68984709
:103E6800C7E900013968D7E900231C00002523466B
:103E78000D201A46FFF7DEFD05E0054B1B680C20F8
:103E88001946FFF79BFD0837BD46B0BD3814002022
:103E9800041000E080B58CB000AF0346FB713A4BCC
:103EA8001B68002B6CD0384B1B68FB620023BB627D
:103EB80009E0FB6A1B69FB62FB6A002B00D106E084
:103EC800BB6A0133BB62FA79BB6A9A42F1D8FB6AD2
:103ED800002B55D0EFF311834FF0200181F31188A7
:103EE8007B612A48FFF766FB38613B69FB60FB682A
:103EF8007B62FB793B620BE07B6A5A1C7A623A6A06
:103F0800D2B262F07F02D2B21A703B6ADB093B621E
:103F18003B6A7F2BF0D87B6A5A1C7A623A6AD2B223
:103F28001A707B6AFB60FB68FB61FB6A9B68BB617C
:103F38000BE0FB695A1CFA61BA69D2B262F07F02DF
:103F4800D2B21A70BB69DB09BB61BB697F2BF0D8A1
:103F5800FB695A1CFA61BA69D2B21A70FB69FB6034
:103F6800FB6A1B68F86819468022FFF7D5FAF860E3
:103F78003869F9681622FFF7F1FB7B6983F311882A
:103F88003037BD4680BD00BF601400206814002093
:103F980080B582B000AF0B4B1B68002B0FD0094BCC
:103FA8001B687B607B68DB68002B02D07B68DB6862
:103FB80098477B681B697B607B68002BF2D10837C8
:103FC800BD4680BD6014002080B586B000AFEFF319
:103FD80011834FF0200181F31188FB601648FFF729
:103FE800E9FAB860BB687B607B687B61134B1B7820
:103FF8003B610BE07B695A1C7A613A69D2B262F084
:104008007F02D2B21A703B69DB093B613B697F2BA7
:10401800F0D87B695A1C7A613A69D2B21A707B6906
:104028007B60B86879681B22FFF798FBFB6883F30D
:1040380011881837BD4680BD68140020641400201C
:1040480080B58AB000AF7860EFF311834FF020019C
:1040580081F311887B612648FFF7ACFA386138692B
:1040680079688022FFF758FAF860FB687B620023C2
:104078003B620BE07B6A5A1C7A623A6AD2B262F0FF
:104088007F02D2B21A703B6ADB093B623B6A7F2B24
:10409800F0D87B6A5A1C7A623A6AD2B21A707B6A82
:1040A800FB60FB68FB610023BB610BE0FB695A1CEA
:1040B800FA61BA69D2B262F07F02D2B21A70BB69F1
:1040C800DB09BB61BB697F2BF0D8FB695A1CFA611D
:1040D800BA69D2B21A70FB69FB603869F9681A22AA
:1040E800FFF73CFB7B6983F311882837BD4680BD09
:1040F8006814002080B500AF0348FFF77FFE03482F
:10410800FFF77CFE80BD00BF4442000864420008FF
:1041180080B500AF074B1A68064B1B681046194656
:104128000022054BFFF7E4FB4FF08050FFF71CFC23
:1041380080BD00BF00000020FD400008DFF834D03B
:10414800002103E00C4B5B58435004310B480C4BE7
:1041580042189A42F6D30B4A02E0002342F8043B85
:10416800094B9A42F9D3FCF743FA00F011F8FCF72F
:1041780021F9FEE700400020C042000800000020AE
:104188000400002004000020AC160020FEE7000018
:1041980070B50E4B0E4CE41AA41000251E46A5421D
:1041A80004D056F8253098470135F8E700F022F892
:1041B800084C094BE41AA41000251E46A54204D059
:1041C80056F8253098470135F8E770BDB842000821
:1041D800B8420008BC420008B842000810B5431EA7
:1041E8000A44914204D011F8014B03F8014FF8E753
:1041F80010BD0000F8B500BFF8BC08BC9E4670476B
:0C420800F8B500BFF8BC08BC9E4670472B
:104214004C4544204F4E00004C4544204F46460038
:104224005465726D696E616C000000005254540054
:1042340053454747455200005379735669657700E3
:104244004E3D44656D6F204170706C6963617469A3
:104254006F6E2C443D436F727465782D4D340000AD
:10426400492331353D5379735469636B0000000071
:104274000000000000000000010203040607080912
:1042840000000000010203040203040506070809F4
:104294000A0B0C0D0E0F101001020304050607088B
:1042A400090A0B0C0D0E0F100000000000000000A6
:0442B4000000000006
:0442B800AD0100084C
:0442BC00890100086C
:0442C00000127A006E
:040000050800414569
:00000001FF
