:020000040800F2
:1000000000400020191F0008110D00081D0D0008F8
:10001000250D00082D0D0008350D0008000000001A
:100020000000000000000000000000003D0D00087E
:10003000490D000800000000550D0008610D000882
:10004000691F0008691F0008691F0008691F000870
:10005000691F0008691F0008691F0008691F000860
:10006000691F0008691F0008691F0008691F000850
:10007000691F0008691F0008691F0008691F000840
:10008000691F0008691F0008691F0008691F000830
:10009000691F0008691F0008691F0008691F000820
:1000A000691F0008691F0008691F0008691F000810
:1000B000691F00080000000000000000691F000820
:1000C000691F0008691F0008691F00080000000080
:1000D000691F00088D0D0008691F0008691F0008CE
:1000E0006D0D0008691F0008691F0008000000006E
:1000F0000000000000000000000000000000000000
:10010000000000000000000000000000691F00085F
:100110000000000000000000691F0008000000004F
:1001200000000000000000000000000000000000CF
:1001300000000000000000000000000000000000BF
:10014000691F0008691F000800000000000000008F
:10015000000000000000000000000000000000009F
:10016000691F0008691F0008691F0008691F00084F
:10017000691F0008000000000000000000000000EF
:0801800000000000691F0008E7
:1001880010B5054C237833B9044B13B10448AFF3C9
:1001980000800123237010BD04000020000000002F
:1001A800D01F0008084B10B51BB108480849AFF329
:1001B80000800848036803B910BD074B002BFBD02B
:1001C800BDE81040184700BF00000000D01F00081D
:1001D80008000020040000200000000080B483B064
:1001E80000AF0346FB71084997F907305B09FA79B4
:1001F80002F01F02012000FA02F241F823200C3716
:10020800BD465DF8047B704700E100E080B483B030
:1002180000AF0346FB71094997F907305B09FA7982
:1002280002F01F02012000FA02F2203341F82320D5
:100238000C37BD465DF8047B704700BF00E100E065
:1002480080B483B000AF03463960FB7197F907307B
:10025800002B0BDA0D49FB7903F00F03043B3A68D6
:10026800D2B21201D2B20B441A7609E0084997F9C2
:1002780007303A68D2B21201D2B20B4483F8002395
:100288000C37BD465DF8047B704700BF00ED00E009
:1002980000E100E080B485B000AF78600849084B01
:1002A8005A697B6813434B61054B5A697B68134055
:1002B800FB60FB681437BD465DF8047B704700BFE0
:1002C8000010024080B485B000AF78600849084B40
:1002D8009A697B6813438B61054B9A697B68134065
:1002E800FB60FB681437BD465DF8047B704700BFB0
:1002F8000010024080B400AF044A044B1B6843F06E
:1003080001031360BD465DF8047B7047001002408E
:1003180080B400AF064B1B6803F00203002B14BF28
:1003280001230023DBB21846BD465DF8047B704705
:100338000010024080B483B000AF78600649064BD5
:100348005B6823F003027B6813434B600C37BD46A0
:100358005DF8047B704700BF0010024080B400AF16
:10036800044B5B6803F00C031846BD465DF8047B3C
:10037800704700BF0010024080B483B000AF7860BF
:100388000649064B5B6823F0F0027B6813434B6019
:100398000C37BD465DF8047B704700BF0010024073
:1003A80080B483B000AF78600649064B5B6823F4DD
:1003B800E0627B6813434B600C37BD465DF8047BF5
:1003C800704700BF0010024080B483B000AF78606F
:1003D8000649064B5B6823F460527B6813434B6005
:1003E8000C37BD465DF8047B704700BF0010024023
:1003F80080B483B000AF78600949094B1A6B7B68F9
:100408001B0E184603238340DB431A407B6823F006
:100418007F4313430B630C37BD465DF8047B70477D
:100428000010024080B400AF044A044B1B6843F03C
:1004380080731360BD465DF8047B7047001002406E
:1004480080B400AF064B1B6803F00073002B14BF89
:1004580001230023DBB21846BD465DF8047B7047D4
:100468000010024080B483B000AF786039600D4856
:100478000C4B5B6823F474127B6803F480313B688F
:100488000B43134343600749064BDB6A23F00F0213
:100498007B6803F00F031343CB620C37BD465DF84E
:1004A800047B70470010024090B484B000AF7860BD
:1004B8003960114C3B68DBB20F493A68D2B202325C
:1004C80051F822103A68120CD24311403A68120CC3
:1004D800FA60FA6892FAA2F2BA60BA68B2FA82F2DC
:1004E800786800FA02F20A43023344F823201037EE
:1004F800BD4690BC704700BF0000014080B483B087
:1005080000AF78600649064B1B6823F007027B683A
:1005180013430B600C37BD465DF8047B704700BF82
:100528000020024080B489B000AFF860B9607A60FA
:10053800FB681A68BB68FB61FB6993FAA3F3BB61AC
:10054800BB69B3FA83F35B00194603238B40DB4393
:100558001A40BB687B617B6993FAA3F33B613B69F3
:10056800B3FA83F35B0019467B688B401A43FB6838
:100578001A602437BD465DF8047B704780B485B0A7
:1005880000AFF860B9607A60FB685A68BB68DB4303
:100598001A40BB68796801FB03F31A43FB685A6089
:1005A8001437BD465DF8047B704700BF80B489B03E
:1005B80000AFF860B9607A60FB689A68BB68FB6155
:1005C800FB6993FAA3F3BB61BB69B3FA83F35B00DE
:1005D800194603238B40DB431A40BB687B617B6968
:1005E80093FAA3F33B613B69B3FA83F35B001946C3
:1005F8007B688B401A43FB689A602437BD465DF8D8
:10060800047B704780B489B000AFF860B9607A6045
:10061800FB68DA68BB68FB61FB6993FAA3F3BB610B
:10062800BB69B3FA83F35B00194603238B40DB43B2
:100638001A40BB687B617B6993FAA3F33B613B6912
:10064800B3FA83F35B0019467B688B401A43FB6857
:10065800DA602437BD465DF8047B704780B489B002
:1006680000AFF860B9607A60FB681A6ABB68FB6122
:10067800FB6993FAA3F3BB61BB69B3FA83F39B00ED
:1006880019460F238B40DB431A40BB687B617B69AB
:1006980093FAA3F33B613B69B3FA83F39B001946D2
:1006A8007B688B401A43FB681A622437BD465DF8A5
:1006B800047B704780B483B000AF786039607B6892
:1006C8003A689A610C37BD465DF8047B704700BFF5
:1006D80080B483B000AF786039607B683A689A620A
:1006E8000C37BD465DF8047B704700BF80B483B00B
:1006F80000AF786039607B685A693B685A407B680C
:100708005A610C37BD465DF8047B704780B483B0EE
:1007180000AF78600549054B1A687B6813430B6086
:100728000C37BD465DF8047B704700BF00040140EC
:1007380080B483B000AF78600549054BDA687B6800
:100748001343CB600C37BD465DF8047B704700BF90
:100758000004014080B483B000AF78607B681B68F8
:1007680043F001027B681A600C37BD465DF8047BD4
:10077800704700BF80B483B000AF786039607B6891
:100788001B6823F00C023B681A437B681A600C371D
:10079800BD465DF8047B704780B485B000AFF86053
:1007A800B9607A603B60FB681B6823F0805323F4D0
:1007B800B0537968BA680A431A43FB681A60FB6841
:1007C8005B6823F440523B681A43FB685A6014374D
:1007D800BD465DF8047B7047B0B485B000AFF860E3
:1007E800B9607A603B60002500247B68B3F5004F50
:1007F80014D1BB685A003B685B081A443B68B2FBDB
:10080800F3F39BB21D464FF6F0742C4005F00F032E
:100818005B089BB21C43FB68DC600AE03B685A0833
:10082800BB681A443B68B2FBF3F39BB21A46FB68F9
:10083800DA601437BD46B0BC704700BF80B483B0DF
:1008480000AF78607B68DB6903F40013002B14BFEA
:1008580001230023DBB218460C37BD465DF8047B44
:10086800704700BF80B483B000AF78607B68DB69F5
:1008780003F48003002B14BF01230023DBB21846C6
:100888000C37BD465DF8047B704700BF80B483B069
:1008980000AF78607B681B6843F020027B681A60B1
:1008A8000C37BD465DF8047B704700BF80B483B049
:1008B80000AF78607B689B6843F001027B689A60B0
:1008C8000C37BD465DF8047B704700BF80B483B029
:1008D80000AF78607B689B8C9BB2DBB218460C3704
:1008E800BD465DF8047B704780B483B000AF786084
:1008F8000B46FB70FB789AB27B681A850C37BD46AD
:100908005DF8047B704700BF80B500AF00F0E8F8E1
:1009180000F084F800F09CF800F0B4F800F006F855
:1009280001F0E0FA00F0C8FFFEE700BF80B500AFB5
:100938004FF40020FFF7AEFC354810210222FFF7E4
:10094800F1FD334810210722FFF788FE30481021B7
:100958000322FFF72BFE2E4810210022FFF70EFE80
:100968002B4810210122FFF74DFE294820210222A1
:10097800FFF7D8FD264820210722FFF76FFE2448FD
:1009880020210322FFF712FE214820210022FFF731
:10099800F5FD1F4820210122FFF734FE2520002104
:1009A800FFF74EFC2520FFF719FC4FF48040FFF7B6
:1009B80089FC0020FFF71CFD16480C21FFF7DAFE22
:1009C8001448002100220023FFF7E6FE124B1B68A3
:1009D8005B081048194600224FF41653FFF7FCFE37
:1009E8000C48FFF7B7FE00BF0A48FFF727FF03468A
:1009F800002BF9D00748FFF735FF0346002BF3D04B
:100A08000448FFF743FF0348FFF750FF80BD00BFCE
:100A180000080048003801400000002080B500AF01
:100A28004FF48020FFF736FC03484FF400510122B1
:100A3800FFF778FD80BD00BF0004004880B500AF17
:100A480002484FF40051FFF735FE80BD000400480E
:100A580080B500AF02484FF40051FFF739FE80BD62
:100A68000004004880B582B000AF786004484FF4B5
:100A78000051FFF73BFE786800F0C0F9F6E700BFC9
:100A88000004004880B500AF4FF40020FFF702FCD7
:100A980011484FF400510022FFF744FD0E484FF46F
:100AA80000510022FFF7AEFD0120FFF70BFC0220EA
:100AB8000A49FFF7F9FC4FF40050FFF727FE4FF4FF
:100AC8000050FFF735FE28200321FFF7B9FB282047
:100AD800FFF784FB80BD00BF000800480300F0005A
:100AE80080B500AF0220FFF709FDFFF711FC0346B0
:100AF800002B07D1FFF7FEFB00BFFFF709FC0346F9
:100B0800012BFAD100204FF46011FFF7ABFCFFF77F
:100B180089FC00BFFFF794FC0346012BFAD10020A3
:100B2800FFF72AFC0220FFF705FC00BFFFF716FCC1
:100B38000346082BFAD14FF48060FFF731FC002000
:100B4800FFF742FC034800F04DF9024800F07AF93B
:100B580080BD00BF0090D00380B500AFFFF778FFDD
:100B680080BD00BF80B582B000AF0C48FFF7AEFE75
:100B780003467B607B68532B02D07B68732B04D1C0
:100B8800FFF75CFF064801F045F97B68DBB20348D4
:100B98001946FFF7A9FE0837BD4680BD0038014059
:100BA800E81F000880B582B000AF2520FFF72EFBB4
:100BB800094BDB697B607B6803F00403002B03D0DF
:100BC800C820FFF74FFF03E04FF47A70FFF74AFFA2
:100BD8000837BD4680BD00BF0038014080B400AF73
:100BE8001F4A1F4BD3F8883043F47003C2F888308B
:100BF8001C4A1C4B1B6843F0010313601949194B2D
:100C08005A68194B13404B60164A164B1B6823F061
:100C1800847323F480331360124A124B1B6823F445
:100C2800802313600F4A0F4B5B6823F4FE03536065
:100C38000C4A0C4BDB6A23F00F03D3620949094BBA
:100C48001A6B0A4B13400B63064B00229A60044B45
:100C58004FF000629A60BD465DF8047B704700BFA4
:100C680000ED00E0001002400CC07FF8CCFC00FF53
:100C780080B483B000AF7860074B5A697B681A402C
:100C88007B689A420CBF01230023DBB218460C375D
:100C9800BD465DF8047B70470004014080B483B012
:100CA80000AF7860034A7B6853610C37BD465DF836
:100CB800047B70470004014080B483B000AF7860C3
:100CC8007B68DB6903F02003002B14BF012300239A
:100CD800DBB218460C37BD465DF8047B704700BF91
:100CE80080B483B000AF78607B681B6803F0200392
:100CF800002B14BF01230023DBB218460C37BD4676
:100D08005DF8047B704700BF80B400AFBD465DF856
:100D1800047B704780B400AFFEE700BF80B400AF2B
:100D2800FEE700BF80B400AFFEE700BF80B400AFAD
:100D3800FEE700BF80B400AFBD465DF8047B704796
:100D480080B400AFBD465DF8047B704780B400AF47
:100D5800BD465DF8047B704780B400AFBD465DF8C2
:100D6800047B704780B500AF4FF40050FFF780FF59
:100D78000346002B05D04FF40050FFF78FFFFFF715
:100D8800EBFE80BD80B500AF0848FFF795FF03462E
:100D9800002B08D00548FFF7A3FF0346002B02D01D
:100DA800FFF7E0FE01E0FFF7FDFE80BD00380140DF
:100DB80080B483B000AF7860396009497A683B68CD
:100DC800B2FBF3F3013B4B60054B00229A60044BE6
:100DD80005221A600C37BD465DF8047B704700BFDA
:100DE80010E000E080B582B000AF786078684FF41A
:100DF8007A71FFF7DDFF0837BD4680BD80B485B046
:100E080000AF78600E4B1B68FB60FB687B68B3F132
:100E1800FF3F02D07B6801337B6008E0084B1B680A
:100E280003F48033002B02D07B68013B7B607B6836
:100E3800002BF3D11437BD465DF8047B704700BF23
:100E480010E000E080B483B000AF7860034A7B68AC
:100E580013600C37BD465DF8047B70470000002026
:100E680080B483B000AF214B7B607B6803221A619A
:100E78007B6803225A617B681D4A9A617B681D4A18
:100E8800DA617B684FF480621A627B6800229A629A
:100E98007B6800225A627B680022DA627B68144A07
:100EA8001A667B68144A5A667B6810229A667B68C1
:100EB80000221A677B680022DA667B6800225A677C
:100EC8007B6807330D4A106818607B680C4A106805
:100ED80018609188927999809A717B6820229A711A
:100EE8000C37BD465DF8047B704700BF4C150020E9
:100EF800F01F00082000002020040020FC1F00082C
:100F08000020000880B58AB000AFF860B9607A6048
:100F18003C4B1B78002B01D1FFF7A2FFFA68134660
:100F28005B001344DB006033364A1344BB61BB6883
:100F3800FB61BB691B693B62BB69DB687B610023A2
:100F48007B623A6A7B699A422AD9BB699A683B6A8A
:100F5800D31A3B613A697B68934228BF13463B61C9
:100F6800BB695A683B6A1344F86919463A6901F043
:100F78001FF87A6A3B6913447B62FA693B69134438
:100F8800FB617A683B69D31A7B603A6A3B69134410
:100F98003B62BB699A683B6A9A4201D100233B6273
:100FA8007A693B6AD31A3B613A697B68934228BFE6
:100FB80013463B613B69002B18D0BB695A683B6AF2
:100FC8001344F86919463A6900F0F2FF7A6A3B69F6
:100FD80013447B62FA693B691344FB617A683B6995
:100FE800D31A7B603A6A3B6913443B627B6A002BE5
:100FF80002D0BB693A6A1A617B6A18462837BD462F
:1010080080BD00BF4C15002080B58CB000AFF860E3
:10101800B9607A60BB68FB62FB685A1C13465B00C8
:101028001344DB00464A13447B627B6A1B693B62BC
:101038007B6ADB68FB613A6AFB699A4262D87B6A21
:101048009A68FB69D31A013BBB61BA697B689A420B
:101058001DD37B6A5A68FB691344BB62FA697B68D3
:101068001344FB61BB6A5A1CBA62FA6A511CF962E2
:1010780012781A707B68013B7B607B68002BF1D18A
:10108800FA697B681A447B6ADA60012354E0BA691A
:101098003B6A1344BB61BA697B689A424BD37B6A4B
:1010A8009A68FB69D31A7B617A697B689A420ED980
:1010B8007B6A5A68FB6913441846F96A7A6800F033
:1010C80077FFFA697B681A447B6ADA6018E07B6A02
:1010D8005A68FB6913441846F96A7A6900F068FF90
:1010E8007B6A5868FA6A7B69D1187A687B69D31A6F
:1010F8001A4600F05DFF7A687B69D21A7B6ADA606B
:10110800012319E03A6AFB69D31A013BBB61BA694A
:101118007B689A420FD37B6A5A68FB691344184666
:10112800F96A7A6800F044FFFA697B681A447B6AB6
:10113800DA60012300E0002318463037BD4680BD41
:101148004C15002080B586B000AFF860B9607A60B1
:101158003B60304B1B78002B01D1FFF781FE2D4BF4
:101168001B691A46FB689A424BD9EFF311834FF07B
:10117800200181F311883B61FB68002B31D02549A0
:10118800FB685A1C13465B001344DB000B44BA6827
:101198001A602049FB685A1C13465B001344DB00A5
:1011A8000B447A685A601B49FA6813465B0013447B
:1011B800DB000B4420333A681A601649FA68134674
:1011C8005B001344DB000B44283300221A601149EA
:1011D800FA6813465B001344DB000B4420330022FB
:1011E8005A600C49FA6813465B001344DB000B4451
:1011F80028333A6A5A603B6983F3118800237B617C
:1012080002E04FF0FF337B617B6918461837BD4613
:1012180080BD00BF4C15002080B586B000AFF860D7
:10122800B9607A603B60304B1B78002B01D1FFF727
:1012380017FE2D4B5B691A46FB689A424BD9EFF3B0
:1012480011834FF0200181F311883B61FB68002B6B
:1012580031D02549FA6813465B001344DB000B4480
:101268006033BA681A602049FA6813465B00134471
:10127800DB000B4460337A685A601B49FA681346EE
:101288005B001344DB000B4468333A681A60164964
:10129800FA6813465B001344DB000B4470330022EA
:1012A8001A601149FA6813465B001344DB000B44CB
:1012B800683300225A600C49FA6813465B001344ED
:1012C800DB000B4470333A6A5A603B6983F3118838
:1012D80000237B6102E04FF0FF337B617B69184696
:1012E8001837BD4680BD00BF4C15002080B487B0BC
:1012F80000AFF860B9607A6000233B6102E03B69A7
:1013080001333B61BA683B6913441B78002BF6D163
:101318003A697B689A4201D97B683B613B69FE2B3D
:1013280006D8FB685A1CFA603A69D2B21A7011E002
:10133800FB685A1CFA60FF221A70FB685A1CFA6094
:101348003A69D2B21A70FB685A1CFA603A69120AF2
:10135800D2B21A7000237B610AE0FB685A1CFA605B
:10136800BA68511CB96012781A707B6901337B61C5
:101378007A693B699A42F0D3FB6818461C37BD4628
:101388005DF8047B704700BF80B483B000AF78601D
:101398007B68043318460C37BD465DF8047B7047FC
:1013A80080B582B000AFFB1C012019460122FFF76F
:1013B800A9FD03467B607B68002B46DDFB78042B88
:1013C8001AD0042B06DC022B10D0022B11DC012BC7
:1013D80009D02EE0062B15D0062B10DB072B14D0D6
:1013E800802B15D025E000F067FA2EE000F020FBF6
:1013F8002BE000F00FFC28E000F0D8FB25E000F01F
:101408003BFB22E000F0CAFC1FE000F0ABFC1CE054
:10141800FB1C012019460122FFF774FD03467B607F
:101428007B68002B04DDFB78184600F01DFC0CE0FF
:101438000BE0FB78DBB25BB2002B05DAFB1C01206A
:1014480019460122FFF75EFD00BF0837BD4680BD83
:1014580080B58CB000AF01233B713B1D0133FB61AC
:10146800FB69FB62304B5B69BB620BE0FB6A5A1C91
:10147800FA62BA6AD2B262F07F02D2B21A70BB6A5A
:10148800DB09BB62BB6A7F2BF0D8FB6A5A1CFA6285
:10149800BA6AD2B21A70FB6AFB61244B1B68BB6143
:1014A800214BDB68BA69D31A7B61FB697B627B6974
:1014B8003B620BE07B6A5A1C7A623A6AD2B262F0EB
:1014C8007F02D2B21A703B6ADB093B623B6A7F2B10
:1014D800F0D87B6A5A1C7A623A6AD2B21A707B6A6E
:1014E800FB61FA693B1DD31A1A463B1D01201946B8
:1014F800FFF78AFD03463B613B69002B09D00A4A86
:10150800BB69D360084B1B78013BDAB2064B1A70F3
:1015180004E0054B5B690133034A53613B69184694
:101528003037BD4680BD00BF38140020041000E0ED
:1015380080B58AB000AFF860B9607A605E4B1B78FE
:10154800012B00D10FE05C4B1B78002B00D19BE0F6
:10155800594B1B78022B06D1FFF77AFF564B1B78A5
:10156800012B00D090E07B681F2B09D8524BDA6919
:101578007B6822FA03F303F00103002B00D083E019
:101588007B68172B07D8FB68013BFB607B68DAB2E6
:10159800FB681A703DE0BA68FB68D31AFB61FB6907
:1015A8007F2B12D9FB68013BFB60FB69DB09DAB2D0
:1015B800FB681A70FB68013BFB60FB69DBB263F0F8
:1015C8007F03DAB2FB681A7006E0FB68013BFB6038
:1015D800FB69DAB2FB681A707B687F2B12D9FB684B
:1015E800013BFB607B68DB09DAB2FB681A70FB68B9
:1015F800013BFB607B68DBB263F07F03DAB2FB6818
:101608001A7006E0FB68013BFB607B68DAB2FB6896
:101618001A702A4B1B68BB61274BDB68BA69D31A5F
:101628007B61BB687B627B693B620BE07B6A5A1C0F
:101638007A623A6AD2B262F07F02D2B21A703B6A18
:10164800DB093B623B6A7F2BF0D87B6A5A1C7A62C3
:101658003A6AD2B21A707B6ABB60BA68FB68D31A5E
:101668000120F9681A46FFF7CFFC03463B613B6946
:10167800002B03D0104ABB69D36005E00E4B1B78E2
:101688000133DAB20C4B1A700D4BD3F884200C4B93
:10169800D3F888309A420BD0074B9B78002B07D1A0
:1016A800054B01229A70FFF77BFE034B00229A70CC
:1016B8002837BD4680BD00BF38140020041000E064
:1016C8004C15002080B586B002AFF860B9607A602A
:1016D8003B600023009301201349144A4FF48053C0
:1016E800FFF730FD0023009301200F49104A08231B
:1016F800FFF792FD0F4B4FF080521A610E4B1B689B
:101708000C4AD3600B4A7B6813620A4AFB68536031
:10171800084ABB689360074A3B685362054B00223E
:101728001A701037BD4680BD08200008300400201C
:101738003014002038140020041000E080B483B076
:1017480000AF7860034A7B6813610C37BD465DF8CB
:10175800047B70473814002080B584B000AF7860EF
:10176800EFF311834FF0200181F31188FB600748E4
:10177800FFF70AFEB860B868B9687A68FFF7D8FE5C
:10178800FB6883F311881037BD4680BD68140020BC
:1017980080B588B000AF78603960EFF311834FF0FF
:1017A800200181F311887B611648FFF7EDFD386150
:1017B8003B69FB60FB68FB613B68BB610BE0FB6955
:1017C8005A1CFA61BA69D2B262F07F02D2B21A70B8
:1017D800BB69DB09BB61BB697F2BF0D8FB695A1C6D
:1017E800FA61BA69D2B21A70FB69FB603869F968A4
:1017F8007A68FFF79DFE7B6983F311882037BD4621
:1018080080BD00BF6814002080B58CB000AFF860C0
:10181800B9607A60EFF311834FF0200181F31188EA
:10182800FB612448FFF7B0FDB861BB697B617B6948
:10183800FB62BB68BB620BE0FB6A5A1CFA62BA6ABD
:10184800D2B262F07F02D2B21A70BB6ADB09BB6205
:10185800BB6A7F2BF0D8FB6A5A1CFA62BA6AD2B20A
:101868001A70FB6A7B617B697B627B683B620BE079
:101878007B6A5A1C7A623A6AD2B262F07F02D2B2AA
:101888001A703B6ADB093B623B6A7F2BF0D87B6AA4
:101898005A1C7A623A6AD2B21A707B6A7B61B8695A
:1018A8007969FA68FFF744FEFB6983F311883037DA
:1018B800BD4680BD6814002080B58CB000AF594B80
:1018C8001B78002B40F0AA80564B01221A70EFF3C8
:1018D80011834FF0200181F31188FB6001205249E8
:1018E8000A22FFF791FBFB6883F311880A20FFF7B0
:1018F80033FFEFF311834FF0200181F31188BB60B0
:101908004A48FFF741FD78607B683B603B68FB62B3
:10191800444B5B68BB620BE0FB6A5A1CFA62BA6A0A
:10192800D2B262F07F02D2B21A70BB6ADB09BB6224
:10193800BB6A7F2BF0D8FB6A5A1CFA62BA6AD2B229
:101948001A70FB6A3B603B687B62364B9B683B6264
:101958000BE07B6A5A1C7A623A6AD2B262F07F0262
:10196800D2B21A703B6ADB093B623B6A7F2BF0D824
:101978007B6A5A1C7A623A6AD2B21A707B6A3B60F6
:101988003B68FB61274B1B69BB610BE0FB695A1C79
:10199800FA61BA69D2B262F07F02D2B21A70BB6938
:1019A800DB09BB61BB697F2BF0D8FB695A1CFA6164
:1019B800BA69D2B21A70FB693B603B687B6102234B
:1019C8003B610BE07B695A1C7A613A69D2B262F0DA
:1019D8007F02D2B21A703B69DB093B613B697F2BFE
:1019E800F0D87B695A1C7A613A69D2B21A707B695D
:1019F8003B60786839681822FFF79AFDBB6883F363
:101A08001188084B5B6A002B02D0064B5B6A98472B
:101A180000F000F900F0CAF800F0C0F93037BD4610
:101A280080BD00BF38140020402000086814002042
:101A380080B582B000AFEFF311834FF0200181F33E
:101A480011887B600A48FFF79FFC3860094B1B78B8
:101A5800002B07D0386839680B22FFF769FD054B62
:101A680000221A707B6883F311880837BD4680BD51
:101A7800681400203814002080B58CB000AFEFF354
:101A880011834FF0200181F31188FB604548FFF76F
:101A98007BFCB860BB687B607B68FB62424B5B6821
:101AA800BB620BE0FB6A5A1CFA62BA6AD2B262F0F5
:101AB8007F02D2B21A70BB6ADB09BB62BB6A7F2B9A
:101AC800F0D8FB6A5A1CFA62BA6AD2B21A70FB6A78
:101AD8007B607B687B62344B9B683B620BE07B6A74
:101AE8005A1C7A623A6AD2B262F07F02D2B21A7093
:101AF8003B6ADB093B623B6A7F2BF0D87B6A5A1C46
:101B08007A623A6AD2B21A707B6A7B607B68FB6140
:101B1800254B1B69BB610BE0FB695A1CFA61BA696A
:101B2800D2B262F07F02D2B21A70BB69DB09BB6124
:101B3800BB697F2BF0D8FB695A1CFA61BA69D2B22B
:101B48001A70FB697B607B687B6102233B610BE059
:101B58007B695A1C7A613A69D2B262F07F02D2B2CA
:101B68001A703B69DB093B613B697F2BF0D87B69C5
:101B78005A1C7A613A69D2B21A707B697B60B8687C
:101B880079681822FFF7D4FCFB6883F31188064BA9
:101B98005B6A002B02D0044B5B6A98473037BD461E
:101BA80080BD00BF681400203814002080B500AF45
:101BB800064B1B6A002B08D0044B1B6A5B68002B82
:101BC80003D0024B1B6A5B68984780BD381400201D
:101BD80080B586B000AF7860EFF311834FF0200135
:101BE80081F311887B610A48FFF7CEFB38613869B9
:101BF80079688022FFF77AFBF8603869F9680E2265
:101C0800FFF796FC7B6983F311881837BD4680BDC2
:101C180068140020B0B582B000AF114B1B6A002BCE
:101C280015D00F4B1B6A1B68002B10D00C4B1B6A7E
:101C38001B689847C7E900013968D7E900231C00E9
:101C4800002523460D201A46FFF7DEFD05E0054B6B
:101C58001B680C201946FFF79BFD0837BD46B0BD31
:101C680038140020041000E080B58CB000AF0346A3
:101C7800FB713A4B1B68002B6CD0384B1B68FB621E
:101C88000023BB6209E0FB6A1B69FB62FB6A002B4D
:101C980000D106E0BB6A0133BB62FA79BB6A9A429B
:101CA800F1D8FB6A002B55D0EFF311834FF02001D8
:101CB80081F311887B612A48FFF766FB38613B692D
:101CC800FB60FB687B62FB793B620BE07B6A5A1C1A
:101CD8007A623A6AD2B262F07F02D2B21A703B6A72
:101CE800DB093B623B6A7F2BF0D87B6A5A1C7A621D
:101CF8003A6AD2B21A707B6AFB60FB68FB61FB6AC6
:101D08009B68BB610BE0FB695A1CFA61BA69D2B2E5
:101D180062F07F02D2B21A70BB69DB09BB61BB6992
:101D28007F2BF0D8FB695A1CFA61BA69D2B21A70D3
:101D3800FB69FB60FB6A1B68F86819468022FFF79D
:101D4800D5FAF8603869F9681622FFF7F1FB7B6964
:101D580083F311883037BD4680BD00BF6014002072
:101D68006814002080B582B000AF0B4B1B68002BB5
:101D78000FD0094B1B687B607B68DB68002B02D0A7
:101D88007B68DB6898477B681B697B607B68002BF6
:101D9800F2D10837BD4680BD6014002080B586B0FA
:101DA80000AFEFF311834FF0200181F31188FB603E
:101DB8001648FFF7E9FAB860BB687B607B687B610F
:101DC800134B1B783B610BE07B695A1C7A613A69BB
:101DD800D2B262F07F02D2B21A703B69DB093B6172
:101DE8003B697F2BF0D87B695A1C7A613A69D2B279
:101DF8001A707B697B60B86879681B22FFF798FBCB
:101E0800FB6883F311881837BD4680BD681400202D
:101E18006414002080B58AB000AF7860EFF31183B6
:101E28004FF0200181F311887B612648FFF7ACFA57
:101E38003861386979688022FFF758FAF860FB68DA
:101E48007B6200233B620BE07B6A5A1C7A623A6A27
:101E5800D2B262F07F02D2B21A703B6ADB093B62EF
:101E68003B6A7F2BF0D87B6A5A1C7A623A6AD2B2F4
:101E78001A707B6AFB60FB68FB610023BB610BE0A7
:101E8800FB695A1CFA61BA69D2B262F07F02D2B217
:101E98001A70BB69DB09BB61BB697F2BF0D8FB6992
:101EA8005A1CFA61BA69D2B21A70FB69FB603869C8
:101EB800F9681A22FFF73CFB7B6983F311882837FE
:101EC800BD4680BD6814002080B500AF0348FFF709
:101ED8007FFE0348FFF77CFE80BD00BF102000088E
:101EE8003020000880B500AF074B1A68064B1B6806
:101EF800104619460022054BFFF7E4FB4FF08050CF
:101F0800FFF71CFC80BD00BF00000020D11E0008A8
:101F1800DFF834D0002103E00C4B5B584350043108
:101F28000B480C4B42189A42F6D30B4A02E00023A6
:101F380042F8043B094B9A42F9D3FEF74FFE00F0F2
:101F480011F8FEF7E1FCFEE70040002054200008ED
:101F5800000000200400002004000020F4150020E8
:101F6800FEE7000070B50E4B0E4CE41AA4100025D5
:101F78001E46A54204D056F8253098470135F8E7A3
:101F880000F022F8084C094BE41AA41000251E465C
:101F9800A54204D056F8253098470135F8E770BDBA
:101FA8004C2000084C200008502000084C20000855
:101FB80010B5431E0A44914204D011F8014B03F8AE
:101FC800014FF8E710BD0000F8B500BFF8BC08BC29
:101FD8009E467047F8B500BFF8BC08BC9E467047DF
:101FE8004C4544204F4E00005465726D696E616C1B
:101FF8000000000052545400534547474552000022
:1020080053797356696577004E3D44656D6F20417D
:1020180070706C69636174696F6E2C443D436F72B4
:102028007465782D4D340000492331353D5379735B
:102038005469636B0000000000000000000000000D
:042048000000000094
:04204C00AD010008DA
:0420500089010008FA
:0420540000127A00FC
:0400000508001F19B7
:00000001FF
